{
  "contractName": "ContractManager",
  "abi": [
    {
      "constant": true,
      "inputs": [],
      "name": "name",
      "outputs": [
        {
          "name": "",
          "type": "string"
        }
      ],
      "payable": false,
      "stateMutability": "view",
      "type": "function"
    },
    {
      "constant": false,
      "inputs": [
        {
          "name": "_mode",
          "type": "uint256"
        },
        {
          "name": "_decimals",
          "type": "uint8"
        },
        {
          "name": "_wallet",
          "type": "address"
        },
        {
          "name": "_params",
          "type": "uint256[]"
        }
      ],
      "name": "deploy",
      "outputs": [
        {
          "name": "",
          "type": "address"
        }
      ],
      "payable": false,
      "stateMutability": "nonpayable",
      "type": "function"
    },
    {
      "constant": true,
      "inputs": [],
      "name": "version",
      "outputs": [
        {
          "name": "",
          "type": "string"
        }
      ],
      "payable": false,
      "stateMutability": "view",
      "type": "function"
    },
    {
      "inputs": [],
      "payable": false,
      "stateMutability": "nonpayable",
      "type": "constructor"
    }
  ],
  "bytecode": "0x60606040526040805190810160405280600f81526020017f436f6e74726163744d616e6167657200000000000000000000000000000000008152506000908051906020019061004f9291906100ac565b506040805190810160405280600581526020017f302e392e330000000000000000000000000000000000000000000000000000008152506001908051906020019061009b9291906100ac565b5034156100a757600080fd5b610151565b828054600181600116156101000203166002900490600052602060002090601f016020900481019282601f106100ed57805160ff191683800117855561011b565b8280016001018555821561011b579182015b8281111561011a5782518255916020019190600101906100ff565b5b509050610128919061012c565b5090565b61014e91905b8082111561014a576000816000905550600101610132565b5090565b90565b61431e806101606000396000f300606060405260043610610057576000357c0100000000000000000000000000000000000000000000000000000000900463ffffffff16806306fdde031461005c57806325b8ee90146100ea57806354fd4d50146101b8575b600080fd5b341561006757600080fd5b61006f610246565b6040518080602001828103825283818151815260200191508051906020019080838360005b838110156100af578082015181840152602081019050610094565b50505050905090810190601f1680156100dc5780820380516001836020036101000a031916815260200191505b509250505060405180910390f35b34156100f557600080fd5b610176600480803590602001909190803560ff1690602001909190803573ffffffffffffffffffffffffffffffffffffffff16906020019091908035906020019082018035906020019080806020026020016040519081016040528093929190818152602001838360200280828437820191505050505050919050506102e4565b604051808273ffffffffffffffffffffffffffffffffffffffff1673ffffffffffffffffffffffffffffffffffffffff16815260200191505060405180910390f35b34156101c357600080fd5b6101cb61070e565b6040518080602001828103825283818151815260200191508051906020019080838360005b8381101561020b5780820151818401526020810190506101f0565b50505050905090810190601f1680156102385780820380516001836020036101000a031916815260200191505b509250505060405180910390f35b60008054600181600116156101000203166002900480601f0160208091040260200160405190810160405280929190818152602001828054600181600116156101000203166002900480156102dc5780601f106102b1576101008083540402835291602001916102dc565b820191906000526020600020905b8154815290600101906020018083116102bf57829003601f168201915b505050505081565b6000806000806000881415610448576102fb6107ac565b604051809103906000f080151561031157600080fd5b92508273ffffffffffffffffffffffffffffffffffffffff1663c7d365b0878988600081518110151561034057fe5b9060200190602002015189600181518110151561035957fe5b906020019060200201518a600281518110151561037257fe5b906020019060200201516000604051602001526040518663ffffffff167c0100000000000000000000000000000000000000000000000000000000028152600401808673ffffffffffffffffffffffffffffffffffffffff1673ffffffffffffffffffffffffffffffffffffffff1681526020018560ff1660ff16815260200184815260200183815260200182815260200195505050505050602060405180830381600087803b151561042457600080fd5b6102c65a03f1151561043557600080fd5b5050506040518051905050829350610703565b6001881415610578576104596107bc565b604051809103906000f080151561046f57600080fd5b91508173ffffffffffffffffffffffffffffffffffffffff1663a4a2a9f68787600081518110151561049d57fe5b906020019060200201518860018151811015156104b657fe5b906020019060200201516000604051602001526040518463ffffffff167c0100000000000000000000000000000000000000000000000000000000028152600401808473ffffffffffffffffffffffffffffffffffffffff1673ffffffffffffffffffffffffffffffffffffffff1681526020018381526020018281526020019350505050602060405180830381600087803b151561055457600080fd5b6102c65a03f1151561056557600080fd5b5050506040518051905050819350610703565b6002881415610702576105896107cc565b604051809103906000f080151561059f57600080fd5b90508073ffffffffffffffffffffffffffffffffffffffff1663ce78520d87898860008151811015156105ce57fe5b906020019060200201518960018151811015156105e757fe5b906020019060200201518a600281518110151561060057fe5b906020019060200201518b600381518110151561061957fe5b906020019060200201516000604051602001526040518763ffffffff167c0100000000000000000000000000000000000000000000000000000000028152600401808773ffffffffffffffffffffffffffffffffffffffff1673ffffffffffffffffffffffffffffffffffffffff1681526020018660ff1660ff1681526020018581526020018481526020018363ffffffff1663ffffffff1681526020018281526020019650505050505050602060405180830381600087803b15156106de57600080fd5b6102c65a03f115156106ef57600080fd5b5050506040518051905050809350610703565b5b505050949350505050565b60018054600181600116156101000203166002900480601f0160208091040260200160405190810160405280929190818152602001828054600181600116156101000203166002900480156107a45780601f10610779576101008083540402835291602001916107a4565b820191906000526020600020905b81548152906001019060200180831161078757829003601f168201915b505050505081565b60405161133f806107dd83390190565b60405161119a80611b1c83390190565b60405161163d80612cb6833901905600606060405234156200001057600080fd5b336000806101000a81548173ffffffffffffffffffffffffffffffffffffffff021916908373ffffffffffffffffffffffffffffffffffffffff1602179055506000600b60006101000a81548160ff021916908360028111156200007057fe5b0217905550600060078190555033600360006101000a81548173ffffffffffffffffffffffffffffffffffffffff021916908373ffffffffffffffffffffffffffffffffffffffff160217905550606060405190810160405280603081526020017f53696d706c65506f4420737472617465677920746f6b656e207072696365203d81526020017f20636170546f6b656e2f63617057656900000000000000000000000000000000815250600190805190602001906200013292919062000187565b506040805190810160405280600581526020017f302e392e33000000000000000000000000000000000000000000000000000000815250600290805190602001906200018092919062000187565b5062000236565b828054600181600116156101000203166002900490600052602060002090601f016020900481019282601f10620001ca57805160ff1916838001178555620001fb565b82800160010185558215620001fb579182015b82811115620001fa578251825591602001919060010190620001dd565b5b5090506200020a91906200020e565b5090565b6200023391905b808211156200022f57600081600090555060010162000215565b5090565b90565b6110f980620002466000396000f30060606040526004361061011d576000357c0100000000000000000000000000000000000000000000000000000000900463ffffffff16806306fdde031461012857806309fc93c1146101b6578063112ed3f514610203578063200d2ed214610254578063439f5ac21461028b5780634b94f50e146102b45780634bb278f3146102dd578063521eb273146102f257806354fd4d50146103475780636ccce7a8146103d557806383786f8c146103fe5780638da5cb5b1461044b5780638f85f92c146104a057806397722acf146104cd5780639b3dfce0146104f6578063ba3f5a1214610523578063c7d365b01461054c578063c828371e146105c4578063ed88c68e146105ed578063ef78d4fd1461060f578063f2fde38b14610638575b610125610671565b50005b341561013357600080fd5b61013b610839565b6040518080602001828103825283818151815260200191508051906020019080838360005b8381101561017b578082015181840152602081019050610160565b50505050905090810190601f1680156101a85780820380516001836020036101000a031916815260200191505b509250505060405180910390f35b34156101c157600080fd5b6101ed600480803573ffffffffffffffffffffffffffffffffffffffff169060200190919050506108d7565b6040518082815260200191505060405180910390f35b341561020e57600080fd5b61023a600480803573ffffffffffffffffffffffffffffffffffffffff16906020019091905050610920565b604051808215151515815260200191505060405180910390f35b341561025f57600080fd5b6102676109fe565b6040518082600281111561027757fe5b60ff16815260200191505060405180910390f35b341561029657600080fd5b61029e610a11565b6040518082815260200191505060405180910390f35b34156102bf57600080fd5b6102c7610a1b565b6040518082815260200191505060405180910390f35b34156102e857600080fd5b6102f0610a25565b005b34156102fd57600080fd5b610305610ae3565b604051808273ffffffffffffffffffffffffffffffffffffffff1673ffffffffffffffffffffffffffffffffffffffff16815260200191505060405180910390f35b341561035257600080fd5b61035a610b09565b6040518080602001828103825283818151815260200191508051906020019080838360005b8381101561039a57808201518184015260208101905061037f565b50505050905090810190601f1680156103c75780820380516001836020036101000a031916815260200191505b509250505060405180910390f35b34156103e057600080fd5b6103e8610ba7565b6040518082815260200191505060405180910390f35b341561040957600080fd5b610435600480803573ffffffffffffffffffffffffffffffffffffffff16906020019091905050610bb1565b6040518082815260200191505060405180910390f35b341561045657600080fd5b61045e610c0b565b604051808273ffffffffffffffffffffffffffffffffffffffff1673ffffffffffffffffffffffffffffffffffffffff16815260200191505060405180910390f35b34156104ab57600080fd5b6104b3610c30565b604051808215151515815260200191505060405180910390f35b34156104d857600080fd5b6104e0610c70565b6040518082815260200191505060405180910390f35b341561050157600080fd5b610509610c7a565b604051808215151515815260200191505060405180910390f35b341561052e57600080fd5b610536610cbb565b6040518082815260200191505060405180910390f35b341561055757600080fd5b6105aa600480803573ffffffffffffffffffffffffffffffffffffffff1690602001909190803560ff16906020019091908035906020019091908035906020019091908035906020019091905050610cc1565b604051808215151515815260200191505060405180910390f35b34156105cf57600080fd5b6105d7610e30565b6040518082815260200191505060405180910390f35b6105f5610671565b604051808215151515815260200191505060405180910390f35b341561061a57600080fd5b610622610e3a565b6040518082815260200191505060405180910390f35b341561064357600080fd5b61066f600480803573ffffffffffffffffffffffffffffffffffffffff16906020019091905050610e40565b005b60006001600281111561068057fe5b600b60009054906101000a900460ff16600281111561069b57fe5b1415156106a757600080fd5b60045442101515156106b857600080fd5b6412a05f20003a111515156106cc57600080fd5b6106d533610f95565b151561074057426005819055506002600b60006101000a81548160ff0219169083600281111561070157fe5b02179055507f601095663bda08ac0f932087ef2eb08e42e4bcd1927f3a8d9500f6ad2c5aef906005546040518082815260200191505060405180910390a15b6107553460075461109690919063ffffffff16565b60078190555060003411156107c757600360009054906101000a900473ffffffffffffffffffffffffffffffffffffffff1673ffffffffffffffffffffffffffffffffffffffff166108fc349081150290604051600060405180830381858888f1935050505015156107c657600080fd5b5b7f2a01595cddf097c90216094025db714da3f4e5bd8877b56ba86a24ecead8e5433334604051808373ffffffffffffffffffffffffffffffffffffffff1673ffffffffffffffffffffffffffffffffffffffff1681526020018281526020019250505060405180910390a16001905090565b60018054600181600116156101000203166002900480601f0160208091040260200160405190810160405280929190818152602001828054600181600116156101000203166002900480156108cf5780601f106108a4576101008083540402835291602001916108cf565b820191906000526020600020905b8154815290600101906020018083116108b257829003601f168201915b505050505081565b6000600a60008373ffffffffffffffffffffffffffffffffffffffff1673ffffffffffffffffffffffffffffffffffffffff168152602001908152602001600020549050919050565b60008060009054906101000a900473ffffffffffffffffffffffffffffffffffffffff1673ffffffffffffffffffffffffffffffffffffffff163373ffffffffffffffffffffffffffffffffffffffff1614151561097d57600080fd5b60028081111561098957fe5b600b60009054906101000a900460ff1660028111156109a457fe5b1415156109b057600080fd5b6000600a60008473ffffffffffffffffffffffffffffffffffffffff1673ffffffffffffffffffffffffffffffffffffffff1681526020019081526020016000208190555060019050919050565b600b60009054906101000a900460ff1681565b6000600554905090565b6000600654905090565b60016002811115610a3257fe5b600b60009054906101000a900460ff166002811115610a4d57fe5b141515610a5957600080fd5b610a70600d5460045461109690919063ffffffff16565b42111515610a7d57600080fd5b426005819055506002600b60006101000a81548160ff02191690836002811115610aa357fe5b02179055507f601095663bda08ac0f932087ef2eb08e42e4bcd1927f3a8d9500f6ad2c5aef906005546040518082815260200191505060405180910390a1565b600360009054906101000a900473ffffffffffffffffffffffffffffffffffffffff1681565b60028054600181600116156101000203166002900480601f016020809104026020016040519081016040528092919081815260200182805460018160011615610100020316600290048015610b9f5780601f10610b7457610100808354040283529160200191610b9f565b820191906000526020600020905b815481529060010190602001808311610b8257829003601f168201915b505050505081565b6000600954905090565b6000600654600a60008473ffffffffffffffffffffffffffffffffffffffff1673ffffffffffffffffffffffffffffffffffffffff16815260200190815260200160002054600c5402811515610c0357fe5b049050919050565b6000809054906101000a900473ffffffffffffffffffffffffffffffffffffffff1681565b6000600280811115610c3e57fe5b600b60009054906101000a900460ff166002811115610c5957fe5b1415610c685760019050610c6d565b600090505b90565b6000600854905090565b600060016002811115610c8957fe5b600b60009054906101000a900460ff166002811115610ca457fe5b1415610cb35760019050610cb8565b600090505b90565b600c5481565b60008060009054906101000a900473ffffffffffffffffffffffffffffffffffffffff1673ffffffffffffffffffffffffffffffffffffffff163373ffffffffffffffffffffffffffffffffffffffff16141515610d1e57600080fd5b60006002811115610d2b57fe5b600b60009054906101000a900460ff166002811115610d4657fe5b141515610d5257600080fd5b60008673ffffffffffffffffffffffffffffffffffffffff1614151515610d7857600080fd5b8360048190555085600360006101000a81548173ffffffffffffffffffffffffffffffffffffffff021916908373ffffffffffffffffffffffffffffffffffffffff1602179055508460ff16600a0a600c819055508260088190555081600981905550600854600954600c5402811515610dee57fe5b0460068190555062093a80600d819055506001600b60006101000a81548160ff02191690836002811115610e1e57fe5b02179055506001905095945050505050565b6000600454905090565b600d5481565b6000809054906101000a900473ffffffffffffffffffffffffffffffffffffffff1673ffffffffffffffffffffffffffffffffffffffff163373ffffffffffffffffffffffffffffffffffffffff16141515610e9b57600080fd5b600073ffffffffffffffffffffffffffffffffffffffff168173ffffffffffffffffffffffffffffffffffffffff1614151515610ed757600080fd5b8073ffffffffffffffffffffffffffffffffffffffff166000809054906101000a900473ffffffffffffffffffffffffffffffffffffffff1673ffffffffffffffffffffffffffffffffffffffff167f8be0079c531659141344cd1fd0a4f28419497f9722a3daafe3b4186f6b6457e060405160405180910390a3806000806101000a81548173ffffffffffffffffffffffffffffffffffffffff021916908373ffffffffffffffffffffffffffffffffffffffff16021790555050565b600080610faf600d5460045461109690919063ffffffff16565b4211151515610fbd57600080fd5b610fd46007546009546110b490919063ffffffff16565b9050803411151515610fe557600080fd5b61103734600a60008673ffffffffffffffffffffffffffffffffffffffff1673ffffffffffffffffffffffffffffffffffffffff1681526020019081526020016000205461109690919063ffffffff16565b600a60008573ffffffffffffffffffffffffffffffffffffffff1673ffffffffffffffffffffffffffffffffffffffff168152602001908152602001600020819055508034141561108b5760009150611090565b600191505b50919050565b60008082840190508381101515156110aa57fe5b8091505092915050565b60008282111515156110c257fe5b8183039050929150505600a165627a7a723058208769421199030cfd1bf862613429be2e632be8b03571c9a2d1c173dcfc4503850029606060405234156200001057600080fd5b336000806101000a81548173ffffffffffffffffffffffffffffffffffffffff021916908373ffffffffffffffffffffffffffffffffffffffff1602179055506000600b60006101000a81548160ff021916908360028111156200007057fe5b0217905550600060078190555033600360006101000a81548173ffffffffffffffffffffffffffffffffffffffff021916908373ffffffffffffffffffffffffffffffffffffffff160217905550606060405190810160405280602c81526020017f546f6b656e4d696e74506f44206d65616e2074686174206d696e74696e67205481526020017f6f6b656e20746f20757365720000000000000000000000000000000000000000815250600190805190602001906200013292919062000187565b506040805190810160405280600581526020017f302e392e33000000000000000000000000000000000000000000000000000000815250600290805190602001906200018092919062000187565b5062000236565b828054600181600116156101000203166002900490600052602060002090601f016020900481019282601f10620001ca57805160ff1916838001178555620001fb565b82800160010185558215620001fb579182015b82811115620001fa578251825591602001919060010190620001dd565b5b5090506200020a91906200020e565b5090565b6200023391905b808211156200022f57600081600090555060010162000215565b5090565b90565b610f5480620002466000396000f300606060405260043610610107576000357c0100000000000000000000000000000000000000000000000000000000900463ffffffff16806306fdde031461011257806309fc93c1146101a05780630d668087146101ed578063112ed3f514610216578063200d2ed214610267578063439f5ac21461029e5780634b94f50e146102c7578063521eb273146102f057806354fd4d50146103455780636ccce7a8146103d357806383786f8c146103fc5780638da5cb5b146104495780638f85f92c1461049e57806397722acf146104cb5780639b3dfce0146104f4578063a4a2a9f614610521578063c828371e14610584578063ed88c68e146105ad578063f2fde38b146105cf575b61010f610608565b50005b341561011d57600080fd5b6101256107d0565b6040518080602001828103825283818151815260200191508051906020019080838360005b8381101561016557808201518184015260208101905061014a565b50505050905090810190601f1680156101925780820380516001836020036101000a031916815260200191505b509250505060405180910390f35b34156101ab57600080fd5b6101d7600480803573ffffffffffffffffffffffffffffffffffffffff1690602001909190505061086e565b6040518082815260200191505060405180910390f35b34156101f857600080fd5b6102006108b7565b6040518082815260200191505060405180910390f35b341561022157600080fd5b61024d600480803573ffffffffffffffffffffffffffffffffffffffff169060200190919050506108bd565b604051808215151515815260200191505060405180910390f35b341561027257600080fd5b61027a61099b565b6040518082600281111561028a57fe5b60ff16815260200191505060405180910390f35b34156102a957600080fd5b6102b16109ae565b6040518082815260200191505060405180910390f35b34156102d257600080fd5b6102da6109b8565b6040518082815260200191505060405180910390f35b34156102fb57600080fd5b6103036109c2565b604051808273ffffffffffffffffffffffffffffffffffffffff1673ffffffffffffffffffffffffffffffffffffffff16815260200191505060405180910390f35b341561035057600080fd5b6103586109e8565b6040518080602001828103825283818151815260200191508051906020019080838360005b8381101561039857808201518184015260208101905061037d565b50505050905090810190601f1680156103c55780820380516001836020036101000a031916815260200191505b509250505060405180910390f35b34156103de57600080fd5b6103e6610a86565b6040518082815260200191505060405180910390f35b341561040757600080fd5b610433600480803573ffffffffffffffffffffffffffffffffffffffff16906020019091905050610a90565b6040518082815260200191505060405180910390f35b341561045457600080fd5b61045c610b3f565b604051808273ffffffffffffffffffffffffffffffffffffffff1673ffffffffffffffffffffffffffffffffffffffff16815260200191505060405180910390f35b34156104a957600080fd5b6104b1610b64565b604051808215151515815260200191505060405180910390f35b34156104d657600080fd5b6104de610ba4565b6040518082815260200191505060405180910390f35b34156104ff57600080fd5b610507610bae565b604051808215151515815260200191505060405180910390f35b341561052c57600080fd5b61056a600480803573ffffffffffffffffffffffffffffffffffffffff16906020019091908035906020019091908035906020019091905050610bef565b604051808215151515815260200191505060405180910390f35b341561058f57600080fd5b610597610d48565b6040518082815260200191505060405180910390f35b6105b5610608565b604051808215151515815260200191505060405180910390f35b34156105da57600080fd5b610606600480803573ffffffffffffffffffffffffffffffffffffffff16906020019091905050610d52565b005b60006001600281111561061757fe5b600b60009054906101000a900460ff16600281111561063257fe5b14151561063e57600080fd5b600454421015151561064f57600080fd5b6412a05f20003a1115151561066357600080fd5b61066c33610ea7565b15156106d757426005819055506002600b60006101000a81548160ff0219169083600281111561069857fe5b02179055507f601095663bda08ac0f932087ef2eb08e42e4bcd1927f3a8d9500f6ad2c5aef906005546040518082815260200191505060405180910390a15b6106ec34600754610ed790919063ffffffff16565b600781905550600034111561075e57600360009054906101000a900473ffffffffffffffffffffffffffffffffffffffff1673ffffffffffffffffffffffffffffffffffffffff166108fc349081150290604051600060405180830381858888f19350505050151561075d57600080fd5b5b7f2a01595cddf097c90216094025db714da3f4e5bd8877b56ba86a24ecead8e5433334604051808373ffffffffffffffffffffffffffffffffffffffff1673ffffffffffffffffffffffffffffffffffffffff1681526020018281526020019250505060405180910390a16001905090565b60018054600181600116156101000203166002900480601f0160208091040260200160405190810160405280929190818152602001828054600181600116156101000203166002900480156108665780601f1061083b57610100808354040283529160200191610866565b820191906000526020600020905b81548152906001019060200180831161084957829003601f168201915b505050505081565b6000600a60008373ffffffffffffffffffffffffffffffffffffffff1673ffffffffffffffffffffffffffffffffffffffff168152602001908152602001600020549050919050565b600d5481565b60008060009054906101000a900473ffffffffffffffffffffffffffffffffffffffff1673ffffffffffffffffffffffffffffffffffffffff163373ffffffffffffffffffffffffffffffffffffffff1614151561091a57600080fd5b60028081111561092657fe5b600b60009054906101000a900460ff16600281111561094157fe5b14151561094d57600080fd5b6000600a60008473ffffffffffffffffffffffffffffffffffffffff1673ffffffffffffffffffffffffffffffffffffffff1681526020019081526020016000208190555060019050919050565b600b60009054906101000a900460ff1681565b6000600554905090565b6000600654905090565b600360009054906101000a900473ffffffffffffffffffffffffffffffffffffffff1681565b60028054600181600116156101000203166002900480601f016020809104026020016040519081016040528092919081815260200182805460018160011615610100020316600290048015610a7e5780601f10610a5357610100808354040283529160200191610a7e565b820191906000526020600020905b815481529060010190602001808311610a6157829003601f168201915b505050505081565b6000600954905090565b6000600d5442111515610aa65760009050610b3a565b610b37600c60008473ffffffffffffffffffffffffffffffffffffffff1673ffffffffffffffffffffffffffffffffffffffff16815260200190815260200160002054600a60008573ffffffffffffffffffffffffffffffffffffffff1673ffffffffffffffffffffffffffffffffffffffff16815260200190815260200160002054610ef590919063ffffffff16565b90505b919050565b6000809054906101000a900473ffffffffffffffffffffffffffffffffffffffff1681565b6000600280811115610b7257fe5b600b60009054906101000a900460ff166002811115610b8d57fe5b1415610b9c5760019050610ba1565b600090505b90565b6000600854905090565b600060016002811115610bbd57fe5b600b60009054906101000a900460ff166002811115610bd857fe5b1415610be75760019050610bec565b600090505b90565b60008060009054906101000a900473ffffffffffffffffffffffffffffffffffffffff1673ffffffffffffffffffffffffffffffffffffffff163373ffffffffffffffffffffffffffffffffffffffff16141515610c4c57600080fd5b60006002811115610c5957fe5b600b60009054906101000a900460ff166002811115610c7457fe5b141515610c8057600080fd5b82600881905550600854600c60008673ffffffffffffffffffffffffffffffffffffffff1673ffffffffffffffffffffffffffffffffffffffff1681526020019081526020016000208190555081600d819055506001600a60008673ffffffffffffffffffffffffffffffffffffffff1673ffffffffffffffffffffffffffffffffffffffff168152602001908152602001600020819055506001600b60006101000a81548160ff02191690836002811115610d3857fe5b0217905550600190509392505050565b6000600454905090565b6000809054906101000a900473ffffffffffffffffffffffffffffffffffffffff1673ffffffffffffffffffffffffffffffffffffffff163373ffffffffffffffffffffffffffffffffffffffff16141515610dad57600080fd5b600073ffffffffffffffffffffffffffffffffffffffff168173ffffffffffffffffffffffffffffffffffffffff1614151515610de957600080fd5b8073ffffffffffffffffffffffffffffffffffffffff166000809054906101000a900473ffffffffffffffffffffffffffffffffffffffff1673ffffffffffffffffffffffffffffffffffffffff167f8be0079c531659141344cd1fd0a4f28419497f9722a3daafe3b4186f6b6457e060405160405180910390a3806000806101000a81548173ffffffffffffffffffffffffffffffffffffffff021916908373ffffffffffffffffffffffffffffffffffffffff16021790555050565b6000808273ffffffffffffffffffffffffffffffffffffffff1614151515610ece57600080fd5b60009050919050565b6000808284019050838110151515610eeb57fe5b8091505092915050565b60008082840290506000841480610f165750828482811515610f1357fe5b04145b1515610f1e57fe5b80915050929150505600a165627a7a723058201fefbc2c65245c3b25d82e4e0810c050db90a41fee354bfa25912fa42fc4bd0a0029606060405234156200001057600080fd5b336000806101000a81548173ffffffffffffffffffffffffffffffffffffffff021916908373ffffffffffffffffffffffffffffffffffffffff1602179055506000600b60006101000a81548160ff021916908360028111156200007057fe5b0217905550600060078190555033600360006101000a81548173ffffffffffffffffffffffffffffffffffffffff021916908373ffffffffffffffffffffffffffffffffffffffff1602179055506040805190810160405280601981526020017f447574636841756374696f6e20737472617465677920506f4400000000000000815250600190805190602001906200010b92919062000160565b506040805190810160405280600581526020017f302e392e33000000000000000000000000000000000000000000000000000000815250600290805190602001906200015992919062000160565b506200020f565b828054600181600116156101000203166002900490600052602060002090601f016020900481019282601f10620001a357805160ff1916838001178555620001d4565b82800160010185558215620001d4579182015b82811115620001d3578251825591602001919060010190620001b6565b5b509050620001e39190620001e7565b5090565b6200020c91905b8082111562000208576000816000905550600101620001ee565b5090565b90565b61141e806200021f6000396000f300606060405260043610610149576000357c0100000000000000000000000000000000000000000000000000000000900463ffffffff16806306fdde031461015457806309fc93c1146101e2578063112ed3f51461022f578063173067a314610280578063200d2ed2146102a9578063439f5ac2146102e05780634b94f50e14610309578063521eb27314610332578063533e25261461038757806354fd4d50146103b0578063624e1d191461043e5780636ccce7a81461047357806383786f8c1461049c5780638da5cb5b146104e95780638f85f92c1461053e57806397722acf1461056b5780639b3dfce014610594578063a035b1fe146105c1578063ba3f5a12146105ea578063c5cd88db14610613578063c828371e1461063c578063ce78520d14610665578063ed88c68e146106ec578063f2fde38b1461070e578063f77282ab14610747575b61015161075c565b50005b341561015f57600080fd5b610167610924565b6040518080602001828103825283818151815260200191508051906020019080838360005b838110156101a757808201518184015260208101905061018c565b50505050905090810190601f1680156101d45780820380516001836020036101000a031916815260200191505b509250505060405180910390f35b34156101ed57600080fd5b610219600480803573ffffffffffffffffffffffffffffffffffffffff169060200190919050506109c2565b6040518082815260200191505060405180910390f35b341561023a57600080fd5b610266600480803573ffffffffffffffffffffffffffffffffffffffff16906020019091905050610a0b565b604051808215151515815260200191505060405180910390f35b341561028b57600080fd5b610293610ae9565b6040518082815260200191505060405180910390f35b34156102b457600080fd5b6102bc610aef565b604051808260028111156102cc57fe5b60ff16815260200191505060405180910390f35b34156102eb57600080fd5b6102f3610b02565b6040518082815260200191505060405180910390f35b341561031457600080fd5b61031c610b0c565b6040518082815260200191505060405180910390f35b341561033d57600080fd5b610345610b16565b604051808273ffffffffffffffffffffffffffffffffffffffff1673ffffffffffffffffffffffffffffffffffffffff16815260200191505060405180910390f35b341561039257600080fd5b61039a610b3c565b6040518082815260200191505060405180910390f35b34156103bb57600080fd5b6103c3610b42565b6040518080602001828103825283818151815260200191508051906020019080838360005b838110156104035780820151818401526020810190506103e8565b50505050905090810190601f1680156104305780820380516001836020036101000a031916815260200191505b509250505060405180910390f35b341561044957600080fd5b610451610be0565b604051808263ffffffff1663ffffffff16815260200191505060405180910390f35b341561047e57600080fd5b610486610bf6565b6040518082815260200191505060405180910390f35b34156104a757600080fd5b6104d3600480803573ffffffffffffffffffffffffffffffffffffffff16906020019091905050610c00565b6040518082815260200191505060405180910390f35b34156104f457600080fd5b6104fc610c5f565b604051808273ffffffffffffffffffffffffffffffffffffffff1673ffffffffffffffffffffffffffffffffffffffff16815260200191505060405180910390f35b341561054957600080fd5b610551610c84565b604051808215151515815260200191505060405180910390f35b341561057657600080fd5b61057e610cc4565b6040518082815260200191505060405180910390f35b341561059f57600080fd5b6105a7610cce565b604051808215151515815260200191505060405180910390f35b34156105cc57600080fd5b6105d4610d0f565b6040518082815260200191505060405180910390f35b34156105f557600080fd5b6105fd610d55565b6040518082815260200191505060405180910390f35b341561061e57600080fd5b610626610d5b565b6040518082815260200191505060405180910390f35b341561064757600080fd5b61064f610d99565b6040518082815260200191505060405180910390f35b341561067057600080fd5b6106d2600480803573ffffffffffffffffffffffffffffffffffffffff1690602001909190803560ff1690602001909190803590602001909190803590602001909190803563ffffffff16906020019091908035906020019091905050610da3565b604051808215151515815260200191505060405180910390f35b6106f461075c565b604051808215151515815260200191505060405180910390f35b341561071957600080fd5b610745600480803573ffffffffffffffffffffffffffffffffffffffff16906020019091905050610f78565b005b341561075257600080fd5b61075a6110cd565b005b60006001600281111561076b57fe5b600b60009054906101000a900460ff16600281111561078657fe5b14151561079257600080fd5b60045442101515156107a357600080fd5b6412a05f20003a111515156107b757600080fd5b6107c0336111ad565b151561082b57426005819055506002600b60006101000a81548160ff021916908360028111156107ec57fe5b02179055507f601095663bda08ac0f932087ef2eb08e42e4bcd1927f3a8d9500f6ad2c5aef906005546040518082815260200191505060405180910390a15b6108403460075461135090919063ffffffff16565b60078190555060003411156108b257600360009054906101000a900473ffffffffffffffffffffffffffffffffffffffff1673ffffffffffffffffffffffffffffffffffffffff166108fc349081150290604051600060405180830381858888f1935050505015156108b157600080fd5b5b7f2a01595cddf097c90216094025db714da3f4e5bd8877b56ba86a24ecead8e5433334604051808373ffffffffffffffffffffffffffffffffffffffff1673ffffffffffffffffffffffffffffffffffffffff1681526020018281526020019250505060405180910390a16001905090565b60018054600181600116156101000203166002900480601f0160208091040260200160405190810160405280929190818152602001828054600181600116156101000203166002900480156109ba5780601f1061098f576101008083540402835291602001916109ba565b820191906000526020600020905b81548152906001019060200180831161099d57829003601f168201915b505050505081565b6000600a60008373ffffffffffffffffffffffffffffffffffffffff1673ffffffffffffffffffffffffffffffffffffffff168152602001908152602001600020549050919050565b60008060009054906101000a900473ffffffffffffffffffffffffffffffffffffffff1673ffffffffffffffffffffffffffffffffffffffff163373ffffffffffffffffffffffffffffffffffffffff16141515610a6857600080fd5b600280811115610a7457fe5b600b60009054906101000a900460ff166002811115610a8f57fe5b141515610a9b57600080fd5b6000600a60008473ffffffffffffffffffffffffffffffffffffffff1673ffffffffffffffffffffffffffffffffffffffff1681526020019081526020016000208190555060019050919050565b600c5481565b600b60009054906101000a900460ff1681565b6000600554905090565b6000600654905090565b600360009054906101000a900473ffffffffffffffffffffffffffffffffffffffff1681565b600d5481565b60028054600181600116156101000203166002900480601f016020809104026020016040519081016040528092919081815260200182805460018160011615610100020316600290048015610bd85780601f10610bad57610100808354040283529160200191610bd8565b820191906000526020600020905b815481529060010190602001808311610bbb57829003601f168201915b505050505081565b600e60009054906101000a900463ffffffff1681565b6000600954905090565b600080600654600a60008573ffffffffffffffffffffffffffffffffffffffff1673ffffffffffffffffffffffffffffffffffffffff16815260200190815260200160002054600f5402811515610c5357fe5b04905080915050919050565b6000809054906101000a900473ffffffffffffffffffffffffffffffffffffffff1681565b6000600280811115610c9257fe5b600b60009054906101000a900460ff166002811115610cad57fe5b1415610cbc5760019050610cc1565b600090505b90565b6000600854905090565b600060016002811115610cdd57fe5b600b60009054906101000a900460ff166002811115610cf857fe5b1415610d075760019050610d0c565b600090505b90565b6000600280811115610d1d57fe5b600b60009054906101000a900460ff166002811115610d3857fe5b1415610d475760009050610d52565b610d4f61136e565b90505b90565b600f5481565b600080600f54610d69610d0f565b60105402811515610d7657fe5b04905060075481111515610d8d5760009150610d95565b600754810391505b5090565b6000600454905090565b60008060009054906101000a900473ffffffffffffffffffffffffffffffffffffffff1673ffffffffffffffffffffffffffffffffffffffff163373ffffffffffffffffffffffffffffffffffffffff16141515610e0057600080fd5b6000806002811115610e0e57fe5b600b60009054906101000a900460ff166002811115610e2957fe5b141515610e3557600080fd5b60008760ff1614151515610e4857600080fd5b600086111515610e5757600080fd5b600085111515610e6657600080fd5b60008873ffffffffffffffffffffffffffffffffffffffff1614151515610e8c57600080fd5b87600360006101000a81548173ffffffffffffffffffffffffffffffffffffffff021916908373ffffffffffffffffffffffffffffffffffffffff1602179055508660ff16600a0a600f8190555085600c8190555084600d8190555083600e60006101000a81548163ffffffff021916908363ffffffff160217905550826010819055506001600b60006101000a81548160ff02191690836002811115610f2f57fe5b02179055508363ffffffff1685877faa9c446bf9d81a4cadd0511e53a9b49a7391402b523dcec61d7272141929458960405160405180910390a460019150509695505050505050565b6000809054906101000a900473ffffffffffffffffffffffffffffffffffffffff1673ffffffffffffffffffffffffffffffffffffffff163373ffffffffffffffffffffffffffffffffffffffff16141515610fd357600080fd5b600073ffffffffffffffffffffffffffffffffffffffff168173ffffffffffffffffffffffffffffffffffffffff161415151561100f57600080fd5b8073ffffffffffffffffffffffffffffffffffffffff166000809054906101000a900473ffffffffffffffffffffffffffffffffffffffff1673ffffffffffffffffffffffffffffffffffffffff167f8be0079c531659141344cd1fd0a4f28419497f9722a3daafe3b4186f6b6457e060405160405180910390a3806000806101000a81548173ffffffffffffffffffffffffffffffffffffffff021916908373ffffffffffffffffffffffffffffffffffffffff16021790555050565b600060018060028111156110dd57fe5b600b60009054906101000a900460ff1660028111156110f857fe5b14151561110457600080fd5b61110c610d5b565b915060008214151561111d57600080fd5b601054600754600f540281151561113057fe5b04600681905550426005819055507f45806e512b1f4f10e33e8b3cb64d1d11d998d8c554a95e0841fc1c701278bd5d6006546040518082815260200191505060405180910390a16002600b60006101000a81548160ff0219169083600281111561119657fe5b021790555060006006541115156111a957fe5b5050565b6000806000341115156111bf57600080fd5b60008373ffffffffffffffffffffffffffffffffffffffff16141515156111e557600080fd5b3461123834600a60008773ffffffffffffffffffffffffffffffffffffffff1673ffffffffffffffffffffffffffffffffffffffff1681526020019081526020016000205461135090919063ffffffff16565b1015151561124257fe5b61124a610d5b565b905080341115151561125b57600080fd5b6112ad34600a60008673ffffffffffffffffffffffffffffffffffffffff1673ffffffffffffffffffffffffffffffffffffffff1681526020019081526020016000205461135090919063ffffffff16565b600a60008573ffffffffffffffffffffffffffffffffffffffff1673ffffffffffffffffffffffffffffffffffffffff168152602001908152602001600020819055503373ffffffffffffffffffffffffffffffffffffffff167fc9c6176cbf7c0a8c29655fe8ccbe5e28382ca11459d145223308723bfc6975453483604051808381526020018281526020019250505060405180910390a26001915050919050565b600080828401905083811015151561136457fe5b8091505092915050565b60008060006001600281111561138057fe5b600b60009054906101000a900460ff16600281111561139b57fe5b14156113a957600454420391505b600d54600e60009054906101000a900463ffffffff1663ffffffff16830a8115156113d057fe5b04905080826001010182600101600c54028115156113ea57fe5b0492505050905600a165627a7a72305820dba995643642da031610067bcc3983c920903f021ab9da407e51be0f1131d56b0029a165627a7a723058202d96cd6383fd9db0063690899f0376c7b9b4eb36d293a7bfcc1a5c24dae9c0900029",
  "source": "pragma solidity ^0.4.18;\n\nimport \"./PoDs/SimplePoD.sol\";\nimport \"./PoDs/DutchAuctionPoD.sol\";\nimport \"./PoDs/TokenMintPoD.sol\";\n\n/// @title Launcher - RICO Launcher contract\n/// @author - Yusaku Senga - <senga@dri.network>\n/// license let's see in LICENSE\n\n\ncontract ContractManager {\n\n  /**\n   * Storage\n   */\n  string public name = \"ContractManager\";\n  string public version = \"0.9.3\";\n  /**\n   * constructor\n   * @dev define owner when this contract deployed.\n   */\n\n  function ContractManager() public {}\n\n  /**\n   * @dev newToken token meta Data implement for ERC-20 Token Standard Format.\n   * @param _mode         set Token name of RICO format.\n   * @param _decimals     set Token decimals of RICO format.\n   */\n\n  function deploy(  \n    uint _mode,\n    uint8 _decimals, \n    address _wallet,\n    uint256[] _params\n  ) \n  public returns (address) \n  {\n    if (_mode == 0) {\n      SimplePoD pod = new SimplePoD();\n      pod.init(_wallet, _decimals, _params[0], _params[1], _params[2]);\n      return address(pod);\n    }\n    if (_mode == 1) {\n      TokenMintPoD mint = new TokenMintPoD();\n      mint.init(_wallet, _params[0], _params[1]);\n      return address(mint);\n    }\n\n    if (_mode == 2) {\n      DutchAuctionPoD auction = new DutchAuctionPoD();\n      auction.init(_wallet, _decimals, _params[0], _params[1], uint32(_params[2]), _params[3]);\n      return address(auction);\n    }\n    \n  }\n}\n\n",
  "sourcePath": "/Users/sengayusaku/repo/RICO/contracts/ContractManager.sol",
  "compiler": {
    "name": "solc",
    "version": "0.4.18+commit.9cf6e910.Emscripten.clang"
  },
  "schemaVersion": "1.0.1",
  "updatedAt": "2018-01-09T18:57:04.745Z"
}