{
  "contractName": "ContractManager",
  "abi": [
    {
      "constant": true,
      "inputs": [],
      "name": "name",
      "outputs": [
        {
          "name": "",
          "type": "string"
        }
      ],
      "payable": false,
      "stateMutability": "view",
      "type": "function"
    },
    {
      "constant": false,
      "inputs": [
        {
          "name": "_mode",
          "type": "uint256"
        },
        {
          "name": "_decimals",
          "type": "uint8"
        },
        {
          "name": "_wallet",
          "type": "address"
        },
        {
          "name": "_params",
          "type": "uint256[]"
        }
      ],
      "name": "deploy",
      "outputs": [
        {
          "name": "",
          "type": "address"
        }
      ],
      "payable": false,
      "stateMutability": "nonpayable",
      "type": "function"
    },
    {
      "constant": true,
      "inputs": [],
      "name": "version",
      "outputs": [
        {
          "name": "",
          "type": "string"
        }
      ],
      "payable": false,
      "stateMutability": "view",
      "type": "function"
    },
    {
      "inputs": [],
      "payable": false,
      "stateMutability": "nonpayable",
      "type": "constructor"
    }
  ],
  "bytecode": "0x60606040526040805190810160405280600f81526020017f436f6e74726163744d616e6167657200000000000000000000000000000000008152506000908051906020019061004f9291906100ac565b506040805190810160405280600581526020017f302e392e330000000000000000000000000000000000000000000000000000008152506001908051906020019061009b9291906100ac565b5034156100a757600080fd5b610151565b828054600181600116156101000203166002900490600052602060002090601f016020900481019282601f106100ed57805160ff191683800117855561011b565b8280016001018555821561011b579182015b8281111561011a5782518255916020019190600101906100ff565b5b509050610128919061012c565b5090565b61014e91905b8082111561014a576000816000905550600101610132565b5090565b90565b614240806101606000396000f300606060405260043610610057576000357c0100000000000000000000000000000000000000000000000000000000900463ffffffff16806306fdde031461005c57806325b8ee90146100ea57806354fd4d50146101b8575b600080fd5b341561006757600080fd5b61006f610246565b6040518080602001828103825283818151815260200191508051906020019080838360005b838110156100af578082015181840152602081019050610094565b50505050905090810190601f1680156100dc5780820380516001836020036101000a031916815260200191505b509250505060405180910390f35b34156100f557600080fd5b610176600480803590602001909190803560ff1690602001909190803573ffffffffffffffffffffffffffffffffffffffff16906020019091908035906020019082018035906020019080806020026020016040519081016040528093929190818152602001838360200280828437820191505050505050919050506102e4565b604051808273ffffffffffffffffffffffffffffffffffffffff1673ffffffffffffffffffffffffffffffffffffffff16815260200191505060405180910390f35b34156101c357600080fd5b6101cb61072e565b6040518080602001828103825283818151815260200191508051906020019080838360005b8381101561020b5780820151818401526020810190506101f0565b50505050905090810190601f1680156102385780820380516001836020036101000a031916815260200191505b509250505060405180910390f35b60008054600181600116156101000203166002900480601f0160208091040260200160405190810160405280929190818152602001828054600181600116156101000203166002900480156102dc5780601f106102b1576101008083540402835291602001916102dc565b820191906000526020600020905b8154815290600101906020018083116102bf57829003601f168201915b505050505081565b6000806000806000881415610448576102fb6107cc565b604051809103906000f080151561031157600080fd5b92508273ffffffffffffffffffffffffffffffffffffffff1663c7d365b0878988600081518110151561034057fe5b9060200190602002015189600181518110151561035957fe5b906020019060200201518a600281518110151561037257fe5b906020019060200201516000604051602001526040518663ffffffff167c0100000000000000000000000000000000000000000000000000000000028152600401808673ffffffffffffffffffffffffffffffffffffffff1673ffffffffffffffffffffffffffffffffffffffff1681526020018560ff1660ff16815260200184815260200183815260200182815260200195505050505050602060405180830381600087803b151561042457600080fd5b6102c65a03f1151561043557600080fd5b5050506040518051905050829350610723565b6001881415610578576104596107dc565b604051809103906000f080151561046f57600080fd5b91508173ffffffffffffffffffffffffffffffffffffffff1663a4a2a9f68787600081518110151561049d57fe5b906020019060200201518860018151811015156104b657fe5b906020019060200201516000604051602001526040518463ffffffff167c0100000000000000000000000000000000000000000000000000000000028152600401808473ffffffffffffffffffffffffffffffffffffffff1673ffffffffffffffffffffffffffffffffffffffff1681526020018381526020018281526020019350505050602060405180830381600087803b151561055457600080fd5b6102c65a03f1151561056557600080fd5b5050506040518051905050819350610723565b6002881415610722576105896107ec565b604051809103906000f080151561059f57600080fd5b90508073ffffffffffffffffffffffffffffffffffffffff16638c73596c87898860008151811015156105ce57fe5b906020019060200201518960018151811015156105e757fe5b906020019060200201518a600281518110151561060057fe5b906020019060200201518b600381518110151561061957fe5b906020019060200201518c600481518110151561063257fe5b906020019060200201516000604051602001526040518863ffffffff167c0100000000000000000000000000000000000000000000000000000000028152600401808873ffffffffffffffffffffffffffffffffffffffff1673ffffffffffffffffffffffffffffffffffffffff1681526020018760ff1660ff1681526020018681526020018581526020018481526020018363ffffffff1663ffffffff168152602001828152602001975050505050505050602060405180830381600087803b15156106fe57600080fd5b6102c65a03f1151561070f57600080fd5b5050506040518051905050809350610723565b5b505050949350505050565b60018054600181600116156101000203166002900480601f0160208091040260200160405190810160405280929190818152602001828054600181600116156101000203166002900480156107c45780601f10610799576101008083540402835291602001916107c4565b820191906000526020600020905b8154815290600101906020018083116107a757829003601f168201915b505050505081565b604051611344806107fd83390190565b60405161118280611b4183390190565b60405161155280612cc3833901905600606060405234156200001057600080fd5b336000806101000a81548173ffffffffffffffffffffffffffffffffffffffff021916908373ffffffffffffffffffffffffffffffffffffffff1602179055506000600b60006101000a81548160ff021916908360028111156200007057fe5b0217905550600060078190555033600360006101000a81548173ffffffffffffffffffffffffffffffffffffffff021916908373ffffffffffffffffffffffffffffffffffffffff160217905550606060405190810160405280603081526020017f53696d706c65506f4420737472617465677920746f6b656e207072696365203d81526020017f20636170546f6b656e2f63617057656900000000000000000000000000000000815250600190805190602001906200013292919062000187565b506040805190810160405280600581526020017f302e392e33000000000000000000000000000000000000000000000000000000815250600290805190602001906200018092919062000187565b5062000236565b828054600181600116156101000203166002900490600052602060002090601f016020900481019282601f10620001ca57805160ff1916838001178555620001fb565b82800160010185558215620001fb579182015b82811115620001fa578251825591602001919060010190620001dd565b5b5090506200020a91906200020e565b5090565b6200023391905b808211156200022f57600081600090555060010162000215565b5090565b90565b6110fe80620002466000396000f30060606040526004361061011d576000357c0100000000000000000000000000000000000000000000000000000000900463ffffffff16806306fdde031461012857806309fc93c1146101b6578063112ed3f514610203578063200d2ed214610254578063439f5ac21461028b5780634b94f50e146102b45780634bb278f3146102dd578063521eb273146102f257806354fd4d50146103475780636ccce7a8146103d557806383786f8c146103fe5780638da5cb5b1461044b5780638f85f92c146104a057806397722acf146104cd5780639b3dfce0146104f6578063ba3f5a1214610523578063c7d365b01461054c578063c828371e146105c4578063ed88c68e146105ed578063ef78d4fd1461060f578063f2fde38b14610638575b610125610671565b50005b341561013357600080fd5b61013b6107dc565b6040518080602001828103825283818151815260200191508051906020019080838360005b8381101561017b578082015181840152602081019050610160565b50505050905090810190601f1680156101a85780820380516001836020036101000a031916815260200191505b509250505060405180910390f35b34156101c157600080fd5b6101ed600480803573ffffffffffffffffffffffffffffffffffffffff1690602001909190505061087a565b6040518082815260200191505060405180910390f35b341561020e57600080fd5b61023a600480803573ffffffffffffffffffffffffffffffffffffffff169060200190919050506108c3565b604051808215151515815260200191505060405180910390f35b341561025f57600080fd5b6102676109a1565b6040518082600281111561027757fe5b60ff16815260200191505060405180910390f35b341561029657600080fd5b61029e6109b4565b6040518082815260200191505060405180910390f35b34156102bf57600080fd5b6102c76109be565b6040518082815260200191505060405180910390f35b34156102e857600080fd5b6102f06109c8565b005b34156102fd57600080fd5b610305610a86565b604051808273ffffffffffffffffffffffffffffffffffffffff1673ffffffffffffffffffffffffffffffffffffffff16815260200191505060405180910390f35b341561035257600080fd5b61035a610aac565b6040518080602001828103825283818151815260200191508051906020019080838360005b8381101561039a57808201518184015260208101905061037f565b50505050905090810190601f1680156103c75780820380516001836020036101000a031916815260200191505b509250505060405180910390f35b34156103e057600080fd5b6103e8610b4a565b6040518082815260200191505060405180910390f35b341561040957600080fd5b610435600480803573ffffffffffffffffffffffffffffffffffffffff16906020019091905050610b54565b6040518082815260200191505060405180910390f35b341561045657600080fd5b61045e610bae565b604051808273ffffffffffffffffffffffffffffffffffffffff1673ffffffffffffffffffffffffffffffffffffffff16815260200191505060405180910390f35b34156104ab57600080fd5b6104b3610bd3565b604051808215151515815260200191505060405180910390f35b34156104d857600080fd5b6104e0610c13565b6040518082815260200191505060405180910390f35b341561050157600080fd5b610509610c1d565b604051808215151515815260200191505060405180910390f35b341561052e57600080fd5b610536610c5e565b6040518082815260200191505060405180910390f35b341561055757600080fd5b6105aa600480803573ffffffffffffffffffffffffffffffffffffffff1690602001909190803560ff16906020019091908035906020019091908035906020019091908035906020019091905050610c64565b604051808215151515815260200191505060405180910390f35b34156105cf57600080fd5b6105d7610dd3565b6040518082815260200191505060405180910390f35b6105f5610671565b604051808215151515815260200191505060405180910390f35b341561061a57600080fd5b610622610ddd565b6040518082815260200191505060405180910390f35b341561064357600080fd5b61066f600480803573ffffffffffffffffffffffffffffffffffffffff16906020019091905050610de3565b005b60006001600281111561068057fe5b600b60009054906101000a900460ff16600281111561069b57fe5b1415156106a757600080fd5b60045442101515156106b857600080fd5b6412a05f20003a111515156106cc57600080fd5b6000341115156106db57600080fd5b6106e433610f38565b151561074f57426005819055506002600b60006101000a81548160ff0219169083600281111561071057fe5b02179055507f601095663bda08ac0f932087ef2eb08e42e4bcd1927f3a8d9500f6ad2c5aef906005546040518082815260200191505060405180910390a15b6107643460075461109b90919063ffffffff16565b6007819055507f2a01595cddf097c90216094025db714da3f4e5bd8877b56ba86a24ecead8e5433334604051808373ffffffffffffffffffffffffffffffffffffffff1673ffffffffffffffffffffffffffffffffffffffff1681526020018281526020019250505060405180910390a16001905090565b60018054600181600116156101000203166002900480601f0160208091040260200160405190810160405280929190818152602001828054600181600116156101000203166002900480156108725780601f1061084757610100808354040283529160200191610872565b820191906000526020600020905b81548152906001019060200180831161085557829003601f168201915b505050505081565b6000600a60008373ffffffffffffffffffffffffffffffffffffffff1673ffffffffffffffffffffffffffffffffffffffff168152602001908152602001600020549050919050565b60008060009054906101000a900473ffffffffffffffffffffffffffffffffffffffff1673ffffffffffffffffffffffffffffffffffffffff163373ffffffffffffffffffffffffffffffffffffffff1614151561092057600080fd5b60028081111561092c57fe5b600b60009054906101000a900460ff16600281111561094757fe5b14151561095357600080fd5b6000600a60008473ffffffffffffffffffffffffffffffffffffffff1673ffffffffffffffffffffffffffffffffffffffff1681526020019081526020016000208190555060019050919050565b600b60009054906101000a900460ff1681565b6000600554905090565b6000600654905090565b600160028111156109d557fe5b600b60009054906101000a900460ff1660028111156109f057fe5b1415156109fc57600080fd5b610a13600d5460045461109b90919063ffffffff16565b42111515610a2057600080fd5b426005819055506002600b60006101000a81548160ff02191690836002811115610a4657fe5b02179055507f601095663bda08ac0f932087ef2eb08e42e4bcd1927f3a8d9500f6ad2c5aef906005546040518082815260200191505060405180910390a1565b600360009054906101000a900473ffffffffffffffffffffffffffffffffffffffff1681565b60028054600181600116156101000203166002900480601f016020809104026020016040519081016040528092919081815260200182805460018160011615610100020316600290048015610b425780601f10610b1757610100808354040283529160200191610b42565b820191906000526020600020905b815481529060010190602001808311610b2557829003601f168201915b505050505081565b6000600954905090565b6000600654600a60008473ffffffffffffffffffffffffffffffffffffffff1673ffffffffffffffffffffffffffffffffffffffff16815260200190815260200160002054600c5402811515610ba657fe5b049050919050565b6000809054906101000a900473ffffffffffffffffffffffffffffffffffffffff1681565b6000600280811115610be157fe5b600b60009054906101000a900460ff166002811115610bfc57fe5b1415610c0b5760019050610c10565b600090505b90565b6000600854905090565b600060016002811115610c2c57fe5b600b60009054906101000a900460ff166002811115610c4757fe5b1415610c565760019050610c5b565b600090505b90565b600c5481565b60008060009054906101000a900473ffffffffffffffffffffffffffffffffffffffff1673ffffffffffffffffffffffffffffffffffffffff163373ffffffffffffffffffffffffffffffffffffffff16141515610cc157600080fd5b60006002811115610cce57fe5b600b60009054906101000a900460ff166002811115610ce957fe5b141515610cf557600080fd5b60008673ffffffffffffffffffffffffffffffffffffffff1614151515610d1b57600080fd5b8360048190555085600360006101000a81548173ffffffffffffffffffffffffffffffffffffffff021916908373ffffffffffffffffffffffffffffffffffffffff1602179055508460ff16600a0a600c819055508260088190555081600981905550600854600954600c5402811515610d9157fe5b0460068190555062093a80600d819055506001600b60006101000a81548160ff02191690836002811115610dc157fe5b02179055506001905095945050505050565b6000600454905090565b600d5481565b6000809054906101000a900473ffffffffffffffffffffffffffffffffffffffff1673ffffffffffffffffffffffffffffffffffffffff163373ffffffffffffffffffffffffffffffffffffffff16141515610e3e57600080fd5b600073ffffffffffffffffffffffffffffffffffffffff168173ffffffffffffffffffffffffffffffffffffffff1614151515610e7a57600080fd5b8073ffffffffffffffffffffffffffffffffffffffff166000809054906101000a900473ffffffffffffffffffffffffffffffffffffffff1673ffffffffffffffffffffffffffffffffffffffff167f8be0079c531659141344cd1fd0a4f28419497f9722a3daafe3b4186f6b6457e060405160405180910390a3806000806101000a81548173ffffffffffffffffffffffffffffffffffffffff021916908373ffffffffffffffffffffffffffffffffffffffff16021790555050565b600080610f52600d5460045461109b90919063ffffffff16565b4211151515610f6057600080fd5b610f776007546009546110b990919063ffffffff16565b9050803411151515610f8857600080fd5b610fda34600a60008673ffffffffffffffffffffffffffffffffffffffff1673ffffffffffffffffffffffffffffffffffffffff1681526020019081526020016000205461109b90919063ffffffff16565b600a60008573ffffffffffffffffffffffffffffffffffffffff1673ffffffffffffffffffffffffffffffffffffffff16815260200190815260200160002081905550600360009054906101000a900473ffffffffffffffffffffffffffffffffffffffff1673ffffffffffffffffffffffffffffffffffffffff166108fc349081150290604051600060405180830381858888f19350505050151561107f57600080fd5b803414156110905760009150611095565b600191505b50919050565b60008082840190508381101515156110af57fe5b8091505092915050565b60008282111515156110c757fe5b8183039050929150505600a165627a7a72305820d4f148640810904e8b6d4fd2a50724470c6b3830e9ac66546e5e38e896948cb30029606060405234156200001057600080fd5b336000806101000a81548173ffffffffffffffffffffffffffffffffffffffff021916908373ffffffffffffffffffffffffffffffffffffffff1602179055506000600b60006101000a81548160ff021916908360028111156200007057fe5b0217905550600060078190555033600360006101000a81548173ffffffffffffffffffffffffffffffffffffffff021916908373ffffffffffffffffffffffffffffffffffffffff160217905550606060405190810160405280602c81526020017f546f6b656e4d696e74506f44206d65616e2074686174206d696e74696e67205481526020017f6f6b656e20746f20757365720000000000000000000000000000000000000000815250600190805190602001906200013292919062000187565b506040805190810160405280600581526020017f302e392e33000000000000000000000000000000000000000000000000000000815250600290805190602001906200018092919062000187565b5062000236565b828054600181600116156101000203166002900490600052602060002090601f016020900481019282601f10620001ca57805160ff1916838001178555620001fb565b82800160010185558215620001fb579182015b82811115620001fa578251825591602001919060010190620001dd565b5b5090506200020a91906200020e565b5090565b6200023391905b808211156200022f57600081600090555060010162000215565b5090565b90565b610f3c80620002466000396000f300606060405260043610610112576000357c0100000000000000000000000000000000000000000000000000000000900463ffffffff16806306fdde031461011d57806309fc93c1146101ab5780630d668087146101f8578063112ed3f514610221578063200d2ed214610272578063439f5ac2146102a95780634b94f50e146102d25780634bb278f3146102fb578063521eb2731461031057806354fd4d50146103655780636ccce7a8146103f357806383786f8c1461041c5780638da5cb5b146104695780638f85f92c146104be57806397722acf146104eb5780639b3dfce014610514578063a4a2a9f614610541578063c828371e146105a4578063ed88c68e146105cd578063f2fde38b146105ef575b61011a610628565b50005b341561012857600080fd5b610130610793565b6040518080602001828103825283818151815260200191508051906020019080838360005b83811015610170578082015181840152602081019050610155565b50505050905090810190601f16801561019d5780820380516001836020036101000a031916815260200191505b509250505060405180910390f35b34156101b657600080fd5b6101e2600480803573ffffffffffffffffffffffffffffffffffffffff16906020019091905050610831565b6040518082815260200191505060405180910390f35b341561020357600080fd5b61020b61087a565b6040518082815260200191505060405180910390f35b341561022c57600080fd5b610258600480803573ffffffffffffffffffffffffffffffffffffffff16906020019091905050610880565b604051808215151515815260200191505060405180910390f35b341561027d57600080fd5b61028561095e565b6040518082600281111561029557fe5b60ff16815260200191505060405180910390f35b34156102b457600080fd5b6102bc610971565b6040518082815260200191505060405180910390f35b34156102dd57600080fd5b6102e561097b565b6040518082815260200191505060405180910390f35b341561030657600080fd5b61030e610985565b005b341561031b57600080fd5b6103236109ab565b604051808273ffffffffffffffffffffffffffffffffffffffff1673ffffffffffffffffffffffffffffffffffffffff16815260200191505060405180910390f35b341561037057600080fd5b6103786109d1565b6040518080602001828103825283818151815260200191508051906020019080838360005b838110156103b857808201518184015260208101905061039d565b50505050905090810190601f1680156103e55780820380516001836020036101000a031916815260200191505b509250505060405180910390f35b34156103fe57600080fd5b610406610a6f565b6040518082815260200191505060405180910390f35b341561042757600080fd5b610453600480803573ffffffffffffffffffffffffffffffffffffffff16906020019091905050610a79565b6040518082815260200191505060405180910390f35b341561047457600080fd5b61047c610b28565b604051808273ffffffffffffffffffffffffffffffffffffffff1673ffffffffffffffffffffffffffffffffffffffff16815260200191505060405180910390f35b34156104c957600080fd5b6104d1610b4d565b604051808215151515815260200191505060405180910390f35b34156104f657600080fd5b6104fe610b8d565b6040518082815260200191505060405180910390f35b341561051f57600080fd5b610527610b97565b604051808215151515815260200191505060405180910390f35b341561054c57600080fd5b61058a600480803573ffffffffffffffffffffffffffffffffffffffff16906020019091908035906020019091908035906020019091905050610bd8565b604051808215151515815260200191505060405180910390f35b34156105af57600080fd5b6105b7610d31565b6040518082815260200191505060405180910390f35b6105d5610628565b604051808215151515815260200191505060405180910390f35b34156105fa57600080fd5b610626600480803573ffffffffffffffffffffffffffffffffffffffff16906020019091905050610d3b565b005b60006001600281111561063757fe5b600b60009054906101000a900460ff16600281111561065257fe5b14151561065e57600080fd5b600454421015151561066f57600080fd5b6412a05f20003a1115151561068357600080fd5b60003411151561069257600080fd5b61069b33610e90565b151561070657426005819055506002600b60006101000a81548160ff021916908360028111156106c757fe5b02179055507f601095663bda08ac0f932087ef2eb08e42e4bcd1927f3a8d9500f6ad2c5aef906005546040518082815260200191505060405180910390a15b61071b34600754610ebf90919063ffffffff16565b6007819055507f2a01595cddf097c90216094025db714da3f4e5bd8877b56ba86a24ecead8e5433334604051808373ffffffffffffffffffffffffffffffffffffffff1673ffffffffffffffffffffffffffffffffffffffff1681526020018281526020019250505060405180910390a16001905090565b60018054600181600116156101000203166002900480601f0160208091040260200160405190810160405280929190818152602001828054600181600116156101000203166002900480156108295780601f106107fe57610100808354040283529160200191610829565b820191906000526020600020905b81548152906001019060200180831161080c57829003601f168201915b505050505081565b6000600a60008373ffffffffffffffffffffffffffffffffffffffff1673ffffffffffffffffffffffffffffffffffffffff168152602001908152602001600020549050919050565b600d5481565b60008060009054906101000a900473ffffffffffffffffffffffffffffffffffffffff1673ffffffffffffffffffffffffffffffffffffffff163373ffffffffffffffffffffffffffffffffffffffff161415156108dd57600080fd5b6002808111156108e957fe5b600b60009054906101000a900460ff16600281111561090457fe5b14151561091057600080fd5b6000600a60008473ffffffffffffffffffffffffffffffffffffffff1673ffffffffffffffffffffffffffffffffffffffff1681526020019081526020016000208190555060019050919050565b600b60009054906101000a900460ff1681565b6000600554905090565b6000600654905090565b6002600b60006101000a81548160ff021916908360028111156109a457fe5b0217905550565b600360009054906101000a900473ffffffffffffffffffffffffffffffffffffffff1681565b60028054600181600116156101000203166002900480601f016020809104026020016040519081016040528092919081815260200182805460018160011615610100020316600290048015610a675780601f10610a3c57610100808354040283529160200191610a67565b820191906000526020600020905b815481529060010190602001808311610a4a57829003601f168201915b505050505081565b6000600954905090565b6000600d5442111515610a8f5760009050610b23565b610b20600c60008473ffffffffffffffffffffffffffffffffffffffff1673ffffffffffffffffffffffffffffffffffffffff16815260200190815260200160002054600a60008573ffffffffffffffffffffffffffffffffffffffff1673ffffffffffffffffffffffffffffffffffffffff16815260200190815260200160002054610edd90919063ffffffff16565b90505b919050565b6000809054906101000a900473ffffffffffffffffffffffffffffffffffffffff1681565b6000600280811115610b5b57fe5b600b60009054906101000a900460ff166002811115610b7657fe5b1415610b855760019050610b8a565b600090505b90565b6000600854905090565b600060016002811115610ba657fe5b600b60009054906101000a900460ff166002811115610bc157fe5b1415610bd05760019050610bd5565b600090505b90565b60008060009054906101000a900473ffffffffffffffffffffffffffffffffffffffff1673ffffffffffffffffffffffffffffffffffffffff163373ffffffffffffffffffffffffffffffffffffffff16141515610c3557600080fd5b60006002811115610c4257fe5b600b60009054906101000a900460ff166002811115610c5d57fe5b141515610c6957600080fd5b82600881905550600854600c60008673ffffffffffffffffffffffffffffffffffffffff1673ffffffffffffffffffffffffffffffffffffffff1681526020019081526020016000208190555081600d819055506001600a60008673ffffffffffffffffffffffffffffffffffffffff1673ffffffffffffffffffffffffffffffffffffffff168152602001908152602001600020819055506001600b60006101000a81548160ff02191690836002811115610d2157fe5b0217905550600190509392505050565b6000600454905090565b6000809054906101000a900473ffffffffffffffffffffffffffffffffffffffff1673ffffffffffffffffffffffffffffffffffffffff163373ffffffffffffffffffffffffffffffffffffffff16141515610d9657600080fd5b600073ffffffffffffffffffffffffffffffffffffffff168173ffffffffffffffffffffffffffffffffffffffff1614151515610dd257600080fd5b8073ffffffffffffffffffffffffffffffffffffffff166000809054906101000a900473ffffffffffffffffffffffffffffffffffffffff1673ffffffffffffffffffffffffffffffffffffffff167f8be0079c531659141344cd1fd0a4f28419497f9722a3daafe3b4186f6b6457e060405160405180910390a3806000806101000a81548173ffffffffffffffffffffffffffffffffffffffff021916908373ffffffffffffffffffffffffffffffffffffffff16021790555050565b6000808273ffffffffffffffffffffffffffffffffffffffff16141515610eb657600080fd5b60019050919050565b6000808284019050838110151515610ed357fe5b8091505092915050565b60008082840290506000841480610efe5750828482811515610efb57fe5b04145b1515610f0657fe5b80915050929150505600a165627a7a72305820394c5c698b45eb5b490041be37e26773e0799c7d4d0b0cac8388b4d1b381cee80029606060405234156200001057600080fd5b336000806101000a81548173ffffffffffffffffffffffffffffffffffffffff021916908373ffffffffffffffffffffffffffffffffffffffff1602179055506000600b60006101000a81548160ff021916908360028111156200007057fe5b0217905550600060078190555033600360006101000a81548173ffffffffffffffffffffffffffffffffffffffff021916908373ffffffffffffffffffffffffffffffffffffffff1602179055506040805190810160405280601981526020017f447574636841756374696f6e20737472617465677920506f4400000000000000815250600190805190602001906200010b92919062000160565b506040805190810160405280600581526020017f302e392e33000000000000000000000000000000000000000000000000000000815250600290805190602001906200015992919062000160565b506200020f565b828054600181600116156101000203166002900490600052602060002090601f016020900481019282601f10620001a357805160ff1916838001178555620001d4565b82800160010185558215620001d4579182015b82811115620001d3578251825591602001919060010190620001b6565b5b509050620001e39190620001e7565b5090565b6200020c91905b8082111562000208576000816000905550600101620001ee565b5090565b90565b611333806200021f6000396000f300606060405260043610610149576000357c0100000000000000000000000000000000000000000000000000000000900463ffffffff16806306fdde031461015457806309fc93c1146101e2578063112ed3f51461022f578063173067a314610280578063200d2ed2146102a9578063439f5ac2146102e05780634b94f50e14610309578063521eb27314610332578063533e25261461038757806354fd4d50146103b0578063624e1d191461043e5780636ccce7a81461047357806383786f8c1461049c5780638c73596c146104e95780638da5cb5b146105795780638f85f92c146105ce57806397722acf146105fb5780639b3dfce014610624578063a035b1fe14610651578063ba3f5a121461067a578063c5cd88db146106a3578063c828371e146106cc578063ed88c68e146106f5578063f2fde38b14610717578063f77282ab14610750575b610151610765565b50005b341561015f57600080fd5b6101676108d0565b6040518080602001828103825283818151815260200191508051906020019080838360005b838110156101a757808201518184015260208101905061018c565b50505050905090810190601f1680156101d45780820380516001836020036101000a031916815260200191505b509250505060405180910390f35b34156101ed57600080fd5b610219600480803573ffffffffffffffffffffffffffffffffffffffff1690602001909190505061096e565b6040518082815260200191505060405180910390f35b341561023a57600080fd5b610266600480803573ffffffffffffffffffffffffffffffffffffffff169060200190919050506109b7565b604051808215151515815260200191505060405180910390f35b341561028b57600080fd5b610293610a95565b6040518082815260200191505060405180910390f35b34156102b457600080fd5b6102bc610a9b565b604051808260028111156102cc57fe5b60ff16815260200191505060405180910390f35b34156102eb57600080fd5b6102f3610aae565b6040518082815260200191505060405180910390f35b341561031457600080fd5b61031c610ab8565b6040518082815260200191505060405180910390f35b341561033d57600080fd5b610345610ac2565b604051808273ffffffffffffffffffffffffffffffffffffffff1673ffffffffffffffffffffffffffffffffffffffff16815260200191505060405180910390f35b341561039257600080fd5b61039a610ae8565b6040518082815260200191505060405180910390f35b34156103bb57600080fd5b6103c3610aee565b6040518080602001828103825283818151815260200191508051906020019080838360005b838110156104035780820151818401526020810190506103e8565b50505050905090810190601f1680156104305780820380516001836020036101000a031916815260200191505b509250505060405180910390f35b341561044957600080fd5b610451610b8c565b604051808263ffffffff1663ffffffff16815260200191505060405180910390f35b341561047e57600080fd5b610486610ba2565b6040518082815260200191505060405180910390f35b34156104a757600080fd5b6104d3600480803573ffffffffffffffffffffffffffffffffffffffff16906020019091905050610bac565b6040518082815260200191505060405180910390f35b34156104f457600080fd5b61055f600480803573ffffffffffffffffffffffffffffffffffffffff1690602001909190803560ff1690602001909190803590602001909190803590602001909190803590602001909190803563ffffffff16906020019091908035906020019091905050610c0b565b604051808215151515815260200191505060405180910390f35b341561058457600080fd5b61058c610de8565b604051808273ffffffffffffffffffffffffffffffffffffffff1673ffffffffffffffffffffffffffffffffffffffff16815260200191505060405180910390f35b34156105d957600080fd5b6105e1610e0d565b604051808215151515815260200191505060405180910390f35b341561060657600080fd5b61060e610e4d565b6040518082815260200191505060405180910390f35b341561062f57600080fd5b610637610e57565b604051808215151515815260200191505060405180910390f35b341561065c57600080fd5b610664610e98565b6040518082815260200191505060405180910390f35b341561068557600080fd5b61068d610ede565b6040518082815260200191505060405180910390f35b34156106ae57600080fd5b6106b6610ee4565b6040518082815260200191505060405180910390f35b34156106d757600080fd5b6106df610f22565b6040518082815260200191505060405180910390f35b6106fd610765565b604051808215151515815260200191505060405180910390f35b341561072257600080fd5b61074e600480803573ffffffffffffffffffffffffffffffffffffffff16906020019091905050610f2c565b005b341561075b57600080fd5b610763611081565b005b60006001600281111561077457fe5b600b60009054906101000a900460ff16600281111561078f57fe5b14151561079b57600080fd5b60045442101515156107ac57600080fd5b6412a05f20003a111515156107c057600080fd5b6000341115156107cf57600080fd5b6107d833611161565b151561084357426005819055506002600b60006101000a81548160ff0219169083600281111561080457fe5b02179055507f601095663bda08ac0f932087ef2eb08e42e4bcd1927f3a8d9500f6ad2c5aef906005546040518082815260200191505060405180910390a15b6108583460075461126590919063ffffffff16565b6007819055507f2a01595cddf097c90216094025db714da3f4e5bd8877b56ba86a24ecead8e5433334604051808373ffffffffffffffffffffffffffffffffffffffff1673ffffffffffffffffffffffffffffffffffffffff1681526020018281526020019250505060405180910390a16001905090565b60018054600181600116156101000203166002900480601f0160208091040260200160405190810160405280929190818152602001828054600181600116156101000203166002900480156109665780601f1061093b57610100808354040283529160200191610966565b820191906000526020600020905b81548152906001019060200180831161094957829003601f168201915b505050505081565b6000600a60008373ffffffffffffffffffffffffffffffffffffffff1673ffffffffffffffffffffffffffffffffffffffff168152602001908152602001600020549050919050565b60008060009054906101000a900473ffffffffffffffffffffffffffffffffffffffff1673ffffffffffffffffffffffffffffffffffffffff163373ffffffffffffffffffffffffffffffffffffffff16141515610a1457600080fd5b600280811115610a2057fe5b600b60009054906101000a900460ff166002811115610a3b57fe5b141515610a4757600080fd5b6000600a60008473ffffffffffffffffffffffffffffffffffffffff1673ffffffffffffffffffffffffffffffffffffffff1681526020019081526020016000208190555060019050919050565b600c5481565b600b60009054906101000a900460ff1681565b6000600554905090565b6000600654905090565b600360009054906101000a900473ffffffffffffffffffffffffffffffffffffffff1681565b600d5481565b60028054600181600116156101000203166002900480601f016020809104026020016040519081016040528092919081815260200182805460018160011615610100020316600290048015610b845780601f10610b5957610100808354040283529160200191610b84565b820191906000526020600020905b815481529060010190602001808311610b6757829003601f168201915b505050505081565b600e60009054906101000a900463ffffffff1681565b6000600954905090565b600080600654600a60008573ffffffffffffffffffffffffffffffffffffffff1673ffffffffffffffffffffffffffffffffffffffff16815260200190815260200160002054600f5402811515610bff57fe5b04905080915050919050565b60008060009054906101000a900473ffffffffffffffffffffffffffffffffffffffff1673ffffffffffffffffffffffffffffffffffffffff163373ffffffffffffffffffffffffffffffffffffffff16141515610c6857600080fd5b6000806002811115610c7657fe5b600b60009054906101000a900460ff166002811115610c9157fe5b141515610c9d57600080fd5b60008860ff1614151515610cb057600080fd5b600086111515610cbf57600080fd5b600085111515610cce57600080fd5b60008973ffffffffffffffffffffffffffffffffffffffff1614151515610cf457600080fd5b88600360006101000a81548173ffffffffffffffffffffffffffffffffffffffff021916908373ffffffffffffffffffffffffffffffffffffffff1602179055508760ff16600a0a600f819055508660048190555085600c8190555084600d8190555083600e60006101000a81548163ffffffff021916908363ffffffff160217905550826010819055506001600b60006101000a81548160ff02191690836002811115610d9e57fe5b02179055508363ffffffff1685877faa9c446bf9d81a4cadd0511e53a9b49a7391402b523dcec61d7272141929458960405160405180910390a46001915050979650505050505050565b6000809054906101000a900473ffffffffffffffffffffffffffffffffffffffff1681565b6000600280811115610e1b57fe5b600b60009054906101000a900460ff166002811115610e3657fe5b1415610e455760019050610e4a565b600090505b90565b6000600854905090565b600060016002811115610e6657fe5b600b60009054906101000a900460ff166002811115610e8157fe5b1415610e905760019050610e95565b600090505b90565b6000600280811115610ea657fe5b600b60009054906101000a900460ff166002811115610ec157fe5b1415610ed05760009050610edb565b610ed8611283565b90505b90565b600f5481565b600080600f54610ef2610e98565b60105402811515610eff57fe5b04905060075481111515610f165760009150610f1e565b600754810391505b5090565b6000600454905090565b6000809054906101000a900473ffffffffffffffffffffffffffffffffffffffff1673ffffffffffffffffffffffffffffffffffffffff163373ffffffffffffffffffffffffffffffffffffffff16141515610f8757600080fd5b600073ffffffffffffffffffffffffffffffffffffffff168173ffffffffffffffffffffffffffffffffffffffff1614151515610fc357600080fd5b8073ffffffffffffffffffffffffffffffffffffffff166000809054906101000a900473ffffffffffffffffffffffffffffffffffffffff1673ffffffffffffffffffffffffffffffffffffffff167f8be0079c531659141344cd1fd0a4f28419497f9722a3daafe3b4186f6b6457e060405160405180910390a3806000806101000a81548173ffffffffffffffffffffffffffffffffffffffff021916908373ffffffffffffffffffffffffffffffffffffffff16021790555050565b6000600180600281111561109157fe5b600b60009054906101000a900460ff1660028111156110ac57fe5b1415156110b857600080fd5b6110c0610ee4565b91506000821415156110d157600080fd5b601054600754600f54028115156110e457fe5b04600681905550426005819055507f45806e512b1f4f10e33e8b3cb64d1d11d998d8c554a95e0841fc1c701278bd5d6006546040518082815260200191505060405180910390a16002600b60006101000a81548160ff0219169083600281111561114a57fe5b0217905550600060065411151561115d57fe5b5050565b60008060008373ffffffffffffffffffffffffffffffffffffffff161415151561118a57600080fd5b611192610ee4565b90508034111515156111a357600080fd5b600360009054906101000a900473ffffffffffffffffffffffffffffffffffffffff1673ffffffffffffffffffffffffffffffffffffffff166108fc349081150290604051600060405180830381858888f19350505050151561120557600080fd5b3373ffffffffffffffffffffffffffffffffffffffff167fc9c6176cbf7c0a8c29655fe8ccbe5e28382ca11459d145223308723bfc6975453483604051808381526020018281526020019250505060405180910390a26001915050919050565b600080828401905083811015151561127957fe5b8091505092915050565b60008060006001600281111561129557fe5b600b60009054906101000a900460ff1660028111156112b057fe5b14156112be57600454420391505b600d54600e60009054906101000a900463ffffffff1663ffffffff16830a8115156112e557fe5b04905080826001010182600101600c54028115156112ff57fe5b0492505050905600a165627a7a72305820f973ad250e05c3da77afe9935a390f9888ff578d3d401c4b0726eab6af78328c0029a165627a7a72305820d75d1283afbe4bf76d2d0f47070df3211ed8b9baa32e3773f57196b91cdda2ea0029",
  "source": "pragma solidity ^0.4.18;\n\nimport \"./PoDs/SimplePoD.sol\";\nimport \"./PoDs/DutchAuctionPoD.sol\";\nimport \"./PoDs/TokenMintPoD.sol\";\n\n/// @title Launcher - RICO Launcher contract\n/// @author - Yusaku Senga - <senga@dri.network>\n/// license let's see in LICENSE\n\n\ncontract ContractManager {\n\n  /**\n   * Storage\n   */\n  string public name = \"ContractManager\";\n  string public version = \"0.9.3\";\n  /**\n   * constructor\n   * @dev define owner when this contract deployed.\n   */\n\n  function ContractManager() public {}\n\n  /**\n   * @dev newToken token meta Data implement for ERC-20 Token Standard Format.\n   * @param _mode         set Token name of RICO format.\n   * @param _decimals     set Token decimals of RICO format.\n   */\n\n  function deploy(  \n    uint _mode,\n    uint8 _decimals, \n    address _wallet,\n    uint256[] _params\n  ) \n  public returns (address) \n  {\n    if (_mode == 0) {\n      SimplePoD pod = new SimplePoD();\n      pod.init(_wallet, _decimals, _params[0], _params[1], _params[2]);\n      return address(pod);\n    }\n    if (_mode == 1) {\n      TokenMintPoD mint = new TokenMintPoD();\n      mint.init(_wallet, _params[0], _params[1]);\n      return address(mint);\n    }\n\n    if (_mode == 2) {\n      DutchAuctionPoD auction = new DutchAuctionPoD();\n      auction.init(_wallet, _decimals, _params[0], _params[1], _params[2], uint32(_params[3]), _params[4]);\n      return address(auction);\n    }\n    \n  }\n}\n\n",
  "sourcePath": "/Users/sengayusaku/repo/RICO/contracts/ContractManager.sol",
  "compiler": {
    "name": "solc",
    "version": "0.4.18+commit.9cf6e910.Emscripten.clang"
  },
  "schemaVersion": "1.0.1",
  "updatedAt": "2018-01-11T16:05:06.730Z"
}