{
  "contractName": "DaicoPoD",
  "abi": [
    {
      "constant": true,
      "inputs": [],
      "name": "name",
      "outputs": [
        {
          "name": "",
          "type": "string"
        }
      ],
      "payable": false,
      "stateMutability": "view",
      "type": "function"
    },
    {
      "constant": true,
      "inputs": [
        {
          "name": "_user",
          "type": "address"
        }
      ],
      "name": "getBalanceOfWei",
      "outputs": [
        {
          "name": "",
          "type": "uint256"
        }
      ],
      "payable": false,
      "stateMutability": "view",
      "type": "function"
    },
    {
      "constant": false,
      "inputs": [
        {
          "name": "_user",
          "type": "address"
        }
      ],
      "name": "resetWeiBalance",
      "outputs": [
        {
          "name": "",
          "type": "bool"
        }
      ],
      "payable": false,
      "stateMutability": "nonpayable",
      "type": "function"
    },
    {
      "constant": true,
      "inputs": [],
      "name": "status",
      "outputs": [
        {
          "name": "",
          "type": "uint8"
        }
      ],
      "payable": false,
      "stateMutability": "view",
      "type": "function"
    },
    {
      "constant": false,
      "inputs": [],
      "name": "withdraw",
      "outputs": [
        {
          "name": "",
          "type": "bool"
        }
      ],
      "payable": false,
      "stateMutability": "nonpayable",
      "type": "function"
    },
    {
      "constant": true,
      "inputs": [],
      "name": "voterCount",
      "outputs": [
        {
          "name": "",
          "type": "uint256"
        }
      ],
      "payable": false,
      "stateMutability": "view",
      "type": "function"
    },
    {
      "constant": true,
      "inputs": [],
      "name": "getEndTime",
      "outputs": [
        {
          "name": "",
          "type": "uint256"
        }
      ],
      "payable": false,
      "stateMutability": "view",
      "type": "function"
    },
    {
      "constant": true,
      "inputs": [],
      "name": "lastWithdrawn",
      "outputs": [
        {
          "name": "",
          "type": "uint256"
        }
      ],
      "payable": false,
      "stateMutability": "view",
      "type": "function"
    },
    {
      "constant": true,
      "inputs": [],
      "name": "getTokenPrice",
      "outputs": [
        {
          "name": "",
          "type": "uint256"
        }
      ],
      "payable": false,
      "stateMutability": "view",
      "type": "function"
    },
    {
      "constant": false,
      "inputs": [
        {
          "name": "_flag",
          "type": "bool"
        }
      ],
      "name": "vote",
      "outputs": [
        {
          "name": "",
          "type": "bool"
        }
      ],
      "payable": false,
      "stateMutability": "nonpayable",
      "type": "function"
    },
    {
      "constant": false,
      "inputs": [],
      "name": "withdrawalToken",
      "outputs": [
        {
          "name": "",
          "type": "bool"
        }
      ],
      "payable": false,
      "stateMutability": "nonpayable",
      "type": "function"
    },
    {
      "constant": true,
      "inputs": [],
      "name": "wallet",
      "outputs": [
        {
          "name": "",
          "type": "address"
        }
      ],
      "payable": false,
      "stateMutability": "view",
      "type": "function"
    },
    {
      "constant": true,
      "inputs": [],
      "name": "version",
      "outputs": [
        {
          "name": "",
          "type": "string"
        }
      ],
      "payable": false,
      "stateMutability": "view",
      "type": "function"
    },
    {
      "constant": false,
      "inputs": [],
      "name": "refund",
      "outputs": [
        {
          "name": "",
          "type": "bool"
        }
      ],
      "payable": false,
      "stateMutability": "nonpayable",
      "type": "function"
    },
    {
      "constant": false,
      "inputs": [
        {
          "name": "_amount",
          "type": "uint256"
        }
      ],
      "name": "depositToken",
      "outputs": [
        {
          "name": "",
          "type": "bool"
        }
      ],
      "payable": false,
      "stateMutability": "nonpayable",
      "type": "function"
    },
    {
      "constant": true,
      "inputs": [],
      "name": "getCapOfWei",
      "outputs": [
        {
          "name": "",
          "type": "uint256"
        }
      ],
      "payable": false,
      "stateMutability": "view",
      "type": "function"
    },
    {
      "constant": true,
      "inputs": [
        {
          "name": "_user",
          "type": "address"
        }
      ],
      "name": "getBalanceOfToken",
      "outputs": [
        {
          "name": "",
          "type": "uint256"
        }
      ],
      "payable": false,
      "stateMutability": "view",
      "type": "function"
    },
    {
      "constant": true,
      "inputs": [],
      "name": "owner",
      "outputs": [
        {
          "name": "",
          "type": "address"
        }
      ],
      "payable": false,
      "stateMutability": "view",
      "type": "function"
    },
    {
      "constant": true,
      "inputs": [],
      "name": "isPoDEnded",
      "outputs": [
        {
          "name": "",
          "type": "bool"
        }
      ],
      "payable": false,
      "stateMutability": "view",
      "type": "function"
    },
    {
      "constant": true,
      "inputs": [],
      "name": "getCapOfToken",
      "outputs": [
        {
          "name": "",
          "type": "uint256"
        }
      ],
      "payable": false,
      "stateMutability": "view",
      "type": "function"
    },
    {
      "constant": true,
      "inputs": [],
      "name": "isPoDStarted",
      "outputs": [
        {
          "name": "",
          "type": "bool"
        }
      ],
      "payable": false,
      "stateMutability": "view",
      "type": "function"
    },
    {
      "constant": true,
      "inputs": [],
      "name": "refundable",
      "outputs": [
        {
          "name": "",
          "type": "bool"
        }
      ],
      "payable": false,
      "stateMutability": "view",
      "type": "function"
    },
    {
      "constant": true,
      "inputs": [],
      "name": "getStartTime",
      "outputs": [
        {
          "name": "",
          "type": "uint256"
        }
      ],
      "payable": false,
      "stateMutability": "view",
      "type": "function"
    },
    {
      "constant": false,
      "inputs": [
        {
          "name": "_wallet",
          "type": "address"
        },
        {
          "name": "_tokenDecimals",
          "type": "uint8"
        },
        {
          "name": "_token",
          "type": "address"
        },
        {
          "name": "_firstOpenTime",
          "type": "uint256"
        },
        {
          "name": "_firstCloseTime",
          "type": "uint256"
        },
        {
          "name": "_firstTapAmount",
          "type": "uint256"
        }
      ],
      "name": "init",
      "outputs": [
        {
          "name": "",
          "type": "bool"
        }
      ],
      "payable": false,
      "stateMutability": "nonpayable",
      "type": "function"
    },
    {
      "constant": false,
      "inputs": [
        {
          "name": "_newTap",
          "type": "uint256"
        }
      ],
      "name": "decreaseTap",
      "outputs": [
        {
          "name": "",
          "type": "bool"
        }
      ],
      "payable": false,
      "stateMutability": "nonpayable",
      "type": "function"
    },
    {
      "constant": false,
      "inputs": [
        {
          "name": "_nextOpenTime",
          "type": "uint256"
        },
        {
          "name": "_nextCloseTime",
          "type": "uint256"
        },
        {
          "name": "_nextNewTap",
          "type": "uint256"
        },
        {
          "name": "_isDestruct",
          "type": "bool"
        }
      ],
      "name": "aggregate",
      "outputs": [
        {
          "name": "",
          "type": "bool"
        }
      ],
      "payable": false,
      "stateMutability": "nonpayable",
      "type": "function"
    },
    {
      "constant": false,
      "inputs": [],
      "name": "donate",
      "outputs": [
        {
          "name": "",
          "type": "bool"
        }
      ],
      "payable": true,
      "stateMutability": "payable",
      "type": "function"
    },
    {
      "constant": false,
      "inputs": [
        {
          "name": "newOwner",
          "type": "address"
        }
      ],
      "name": "transferOwnership",
      "outputs": [],
      "payable": false,
      "stateMutability": "nonpayable",
      "type": "function"
    },
    {
      "constant": true,
      "inputs": [],
      "name": "token",
      "outputs": [
        {
          "name": "",
          "type": "address"
        }
      ],
      "payable": false,
      "stateMutability": "view",
      "type": "function"
    },
    {
      "constant": true,
      "inputs": [],
      "name": "tap",
      "outputs": [
        {
          "name": "",
          "type": "uint256"
        }
      ],
      "payable": false,
      "stateMutability": "view",
      "type": "function"
    },
    {
      "inputs": [],
      "payable": false,
      "stateMutability": "nonpayable",
      "type": "constructor"
    },
    {
      "payable": true,
      "stateMutability": "payable",
      "type": "fallback"
    },
    {
      "anonymous": false,
      "inputs": [
        {
          "indexed": false,
          "name": "user",
          "type": "address"
        },
        {
          "indexed": false,
          "name": "flag",
          "type": "bool"
        }
      ],
      "name": "Voted",
      "type": "event"
    },
    {
      "anonymous": false,
      "inputs": [
        {
          "indexed": false,
          "name": "user",
          "type": "address"
        },
        {
          "indexed": false,
          "name": "amount",
          "type": "uint256"
        }
      ],
      "name": "Donated",
      "type": "event"
    },
    {
      "anonymous": false,
      "inputs": [
        {
          "indexed": false,
          "name": "time",
          "type": "uint256"
        }
      ],
      "name": "Ended",
      "type": "event"
    },
    {
      "anonymous": false,
      "inputs": [
        {
          "indexed": true,
          "name": "previousOwner",
          "type": "address"
        },
        {
          "indexed": true,
          "name": "newOwner",
          "type": "address"
        }
      ],
      "name": "OwnershipTransferred",
      "type": "event"
    }
  ],
  "bytecode": "0x606060405234156200001057600080fd5b336000806101000a81548173ffffffffffffffffffffffffffffffffffffffff021916908373ffffffffffffffffffffffffffffffffffffffff1602179055506000600b60006101000a81548160ff021916908360028111156200007057fe5b0217905550600060078190555033600360006101000a81548173ffffffffffffffffffffffffffffffffffffffff021916908373ffffffffffffffffffffffffffffffffffffffff1602179055506040805190810160405280602081526020017f446169636f506f4420737472617465677920746f6b656e20776974682064616f815250600190805190602001906200010b9291906200018b565b506040805190810160405280600581526020017f302e392e3300000000000000000000000000000000000000000000000000000081525060029080519060200190620001599291906200018b565b506000600c819055506000600f819055506000601060006101000a81548160ff0219169083151502179055506200023a565b828054600181600116156101000203166002900490600052602060002090601f016020900481019282601f10620001ce57805160ff1916838001178555620001ff565b82800160010185558215620001ff579182015b82811115620001fe578251825591602001919060010190620001e1565b5b5090506200020e919062000212565b5090565b6200023791905b808211156200023357600081600090555060010162000219565b5090565b90565b612120806200024a6000396000f300606060405260043610610180576000357c0100000000000000000000000000000000000000000000000000000000900463ffffffff16806306fdde031461018b57806309fc93c114610219578063112ed3f514610266578063200d2ed2146102b75780633ccfd60b146102ee57806342169e481461031b578063439f5ac214610344578063472c9fcc1461036d5780634b94f50e146103965780634b9f5c98146103bf5780635188875b146103fc578063521eb2731461042957806354fd4d501461047e578063590e1ae31461050c5780636215be77146105395780636ccce7a81461057457806383786f8c1461059d5780638da5cb5b146105ea5780638f85f92c1461063f57806397722acf1461066c5780639b3dfce014610695578063bf89662d146106c2578063c828371e146106ef578063cd4d166814610718578063e3e9dba9146107af578063e7305c6c146107ea578063ed88c68e14610842578063f2fde38b14610864578063fc0c546a1461089d578063fd221031146108f2575b61018861091b565b50005b341561019657600080fd5b61019e610a86565b6040518080602001828103825283818151815260200191508051906020019080838360005b838110156101de5780820151818401526020810190506101c3565b50505050905090810190601f16801561020b5780820380516001836020036101000a031916815260200191505b509250505060405180910390f35b341561022457600080fd5b610250600480803573ffffffffffffffffffffffffffffffffffffffff16906020019091905050610b24565b6040518082815260200191505060405180910390f35b341561027157600080fd5b61029d600480803573ffffffffffffffffffffffffffffffffffffffff16906020019091905050610b6d565b604051808215151515815260200191505060405180910390f35b34156102c257600080fd5b6102ca610c4b565b604051808260028111156102da57fe5b60ff16815260200191505060405180910390f35b34156102f957600080fd5b610301610c5e565b604051808215151515815260200191505060405180910390f35b341561032657600080fd5b61032e610cfd565b6040518082815260200191505060405180910390f35b341561034f57600080fd5b610357610d03565b6040518082815260200191505060405180910390f35b341561037857600080fd5b610380610d0d565b6040518082815260200191505060405180910390f35b34156103a157600080fd5b6103a9610d13565b6040518082815260200191505060405180910390f35b34156103ca57600080fd5b6103e260048080351515906020019091905050610d1d565b604051808215151515815260200191505060405180910390f35b341561040757600080fd5b61040f610f68565b604051808215151515815260200191505060405180910390f35b341561043457600080fd5b61043c6111cc565b604051808273ffffffffffffffffffffffffffffffffffffffff1673ffffffffffffffffffffffffffffffffffffffff16815260200191505060405180910390f35b341561048957600080fd5b6104916111f2565b6040518080602001828103825283818151815260200191508051906020019080838360005b838110156104d15780820151818401526020810190506104b6565b50505050905090810190601f1680156104fe5780820380516001836020036101000a031916815260200191505b509250505060405180910390f35b341561051757600080fd5b61051f611290565b604051808215151515815260200191505060405180910390f35b341561054457600080fd5b61055a600480803590602001909190505061148f565b604051808215151515815260200191505060405180910390f35b341561057f57600080fd5b61058761168e565b6040518082815260200191505060405180910390f35b34156105a857600080fd5b6105d4600480803573ffffffffffffffffffffffffffffffffffffffff16906020019091905050611698565b6040518082815260200191505060405180910390f35b34156105f557600080fd5b6105fd6116c8565b604051808273ffffffffffffffffffffffffffffffffffffffff1673ffffffffffffffffffffffffffffffffffffffff16815260200191505060405180910390f35b341561064a57600080fd5b6106526116ed565b604051808215151515815260200191505060405180910390f35b341561067757600080fd5b61067f61172d565b6040518082815260200191505060405180910390f35b34156106a057600080fd5b6106a8611737565b604051808215151515815260200191505060405180910390f35b34156106cd57600080fd5b6106d5611778565b604051808215151515815260200191505060405180910390f35b34156106fa57600080fd5b61070261178b565b6040518082815260200191505060405180910390f35b341561072357600080fd5b610795600480803573ffffffffffffffffffffffffffffffffffffffff1690602001909190803560ff1690602001909190803573ffffffffffffffffffffffffffffffffffffffff16906020019091908035906020019091908035906020019091908035906020019091905050611795565b604051808215151515815260200191505060405180910390f35b34156107ba57600080fd5b6107d06004808035906020019091905050611ad2565b604051808215151515815260200191505060405180910390f35b34156107f557600080fd5b61082860048080359060200190919080359060200190919080359060200190919080351515906020019091905050611b52565b604051808215151515815260200191505060405180910390f35b61084a61091b565b604051808215151515815260200191505060405180910390f35b341561086f57600080fd5b61089b600480803573ffffffffffffffffffffffffffffffffffffffff16906020019091905050611df4565b005b34156108a857600080fd5b6108b0611f49565b604051808273ffffffffffffffffffffffffffffffffffffffff1673ffffffffffffffffffffffffffffffffffffffff16815260200191505060405180910390f35b34156108fd57600080fd5b610905611f6f565b6040518082815260200191505060405180910390f35b60006001600281111561092a57fe5b600b60009054906101000a900460ff16600281111561094557fe5b14151561095157600080fd5b600454421015151561096257600080fd5b6412a05f20003a1115151561097657600080fd5b60003411151561098557600080fd5b61098e33611f75565b15156109f957426005819055506002600b60006101000a81548160ff021916908360028111156109ba57fe5b02179055507f601095663bda08ac0f932087ef2eb08e42e4bcd1927f3a8d9500f6ad2c5aef906005546040518082815260200191505060405180910390a15b610a0e34600754611fa590919063ffffffff16565b6007819055507f2a01595cddf097c90216094025db714da3f4e5bd8877b56ba86a24ecead8e5433334604051808373ffffffffffffffffffffffffffffffffffffffff1673ffffffffffffffffffffffffffffffffffffffff1681526020018281526020019250505060405180910390a16001905090565b60018054600181600116156101000203166002900480601f016020809104026020016040519081016040528092919081815260200182805460018160011615610100020316600290048015610b1c5780601f10610af157610100808354040283529160200191610b1c565b820191906000526020600020905b815481529060010190602001808311610aff57829003601f168201915b505050505081565b6000600a60008373ffffffffffffffffffffffffffffffffffffffff1673ffffffffffffffffffffffffffffffffffffffff168152602001908152602001600020549050919050565b60008060009054906101000a900473ffffffffffffffffffffffffffffffffffffffff1673ffffffffffffffffffffffffffffffffffffffff163373ffffffffffffffffffffffffffffffffffffffff16141515610bca57600080fd5b600280811115610bd657fe5b600b60009054906101000a900460ff166002811115610bf157fe5b141515610bfd57600080fd5b6000600a60008473ffffffffffffffffffffffffffffffffffffffff1673ffffffffffffffffffffffffffffffffffffffff1681526020019081526020016000208190555060019050919050565b600b60009054906101000a900460ff1681565b6000610c7862278d00600d54611fa590919063ffffffff16565b42111515610c8557600080fd5b600360009054906101000a900473ffffffffffffffffffffffffffffffffffffffff1673ffffffffffffffffffffffffffffffffffffffff166108fc600c54600d544203029081150290604051600060405180830381858888f193505050501515610cef57600080fd5b42600d819055506001905090565b600f5481565b6000600554905090565b600d5481565b6000600654905090565b6000806012600160128054905003815481101515610d3757fe5b9060005260206000209060070201905080600001544210151515610d5a57600080fd5b806001015442101515610d6c57600080fd5b8060060160003373ffffffffffffffffffffffffffffffffffffffff1673ffffffffffffffffffffffffffffffffffffffff16815260200190815260200160002060009054906101000a900460ff16151515610dc757600080fd5b610dde613a98601154611fc390919063ffffffff16565b600e60003373ffffffffffffffffffffffffffffffffffffffff1673ffffffffffffffffffffffffffffffffffffffff1681526020019081526020016000205410151515610e2b57600080fd5b60018160060160003373ffffffffffffffffffffffffffffffffffffffff1673ffffffffffffffffffffffffffffffffffffffff16815260200190815260200160002060006101000a81548160ff021916908315150217905550610eb260018260050160008615151515815260200190815260200160002054611fa590919063ffffffff16565b8160050160008515151515815260200190815260200160002081905550610ee760018260020154611fa590919063ffffffff16565b81600201819055507f8eb81cb806dbb3d8a2f94981614331a55dfd90e06a42fdc362ca3ca96981d92f3384604051808373ffffffffffffffffffffffffffffffffffffffff1673ffffffffffffffffffffffffffffffffffffffff168152602001821515151581526020019250505060405180910390a16001915050919050565b6000806012600160128054905003815481101515610f8257fe5b906000526020600020906007020190508060060160003373ffffffffffffffffffffffffffffffffffffffff1673ffffffffffffffffffffffffffffffffffffffff16815260200190815260200160002060009054906101000a900460ff16151515610fed57600080fd5b6000600e60003373ffffffffffffffffffffffffffffffffffffffff1673ffffffffffffffffffffffffffffffffffffffff1681526020019081526020016000205411151561103b57600080fd5b601060019054906101000a900473ffffffffffffffffffffffffffffffffffffffff1673ffffffffffffffffffffffffffffffffffffffff1663a9059cbb33600e60003373ffffffffffffffffffffffffffffffffffffffff1673ffffffffffffffffffffffffffffffffffffffff168152602001908152602001600020546000604051602001526040518363ffffffff167c0100000000000000000000000000000000000000000000000000000000028152600401808373ffffffffffffffffffffffffffffffffffffffff1673ffffffffffffffffffffffffffffffffffffffff16815260200182815260200192505050602060405180830381600087803b151561114757600080fd5b6102c65a03f1151561115857600080fd5b50505060405180519050506111796001600f54611ff690919063ffffffff16565b600f819055506000600e60003373ffffffffffffffffffffffffffffffffffffffff1673ffffffffffffffffffffffffffffffffffffffff16815260200190815260200160002081905550600191505090565b600360009054906101000a900473ffffffffffffffffffffffffffffffffffffffff1681565b60028054600181600116156101000203166002900480601f0160208091040260200160405190810160405280929190818152602001828054600181600116156101000203166002900480156112885780601f1061125d57610100808354040283529160200191611288565b820191906000526020600020905b81548152906001019060200180831161126b57829003601f168201915b505050505081565b600080601060009054906101000a900460ff1615156112ae57600080fd5b601060019054906101000a900473ffffffffffffffffffffffffffffffffffffffff1673ffffffffffffffffffffffffffffffffffffffff166370a08231306000604051602001526040518263ffffffff167c0100000000000000000000000000000000000000000000000000000000028152600401808273ffffffffffffffffffffffffffffffffffffffff1673ffffffffffffffffffffffffffffffffffffffff168152602001915050602060405180830381600087803b151561137357600080fd5b6102c65a03f1151561138457600080fd5b50505060405180519050600e60003373ffffffffffffffffffffffffffffffffffffffff1673ffffffffffffffffffffffffffffffffffffffff168152602001908152602001600020543073ffffffffffffffffffffffffffffffffffffffff1631028115156113f057fe5b04905060008111151561140257600080fd5b3373ffffffffffffffffffffffffffffffffffffffff166108fc829081150290604051600060405180830381858888f19350505050151561144257600080fd5b6000600e60003373ffffffffffffffffffffffffffffffffffffffff1673ffffffffffffffffffffffffffffffffffffffff16815260200190815260200160002081905550600191505090565b6000601060009054906101000a900460ff161515156114ad57600080fd5b601060019054906101000a900473ffffffffffffffffffffffffffffffffffffffff1673ffffffffffffffffffffffffffffffffffffffff166323b872dd3330856000604051602001526040518463ffffffff167c0100000000000000000000000000000000000000000000000000000000028152600401808473ffffffffffffffffffffffffffffffffffffffff1673ffffffffffffffffffffffffffffffffffffffff1681526020018373ffffffffffffffffffffffffffffffffffffffff1673ffffffffffffffffffffffffffffffffffffffff1681526020018281526020019350505050602060405180830381600087803b15156115ae57600080fd5b6102c65a03f115156115bf57600080fd5b5050506040518051905015156115d457600080fd5b61162682600e60003373ffffffffffffffffffffffffffffffffffffffff1673ffffffffffffffffffffffffffffffffffffffff16815260200190815260200160002054611fa590919063ffffffff16565b600e60003373ffffffffffffffffffffffffffffffffffffffff1673ffffffffffffffffffffffffffffffffffffffff1681526020019081526020016000208190555061167f6001600f54611fa590919063ffffffff16565b600f8190555060019050919050565b6000600954905090565b6000808273ffffffffffffffffffffffffffffffffffffffff16141515156116bf57600080fd5b60009050919050565b6000809054906101000a900473ffffffffffffffffffffffffffffffffffffffff1681565b60006002808111156116fb57fe5b600b60009054906101000a900460ff16600281111561171657fe5b1415611725576001905061172a565b600090505b90565b6000600854905090565b60006001600281111561174657fe5b600b60009054906101000a900460ff16600281111561176157fe5b14156117705760019050611775565b600090505b90565b601060009054906101000a900460ff1681565b6000600454905090565b600061179f61203d565b6000809054906101000a900473ffffffffffffffffffffffffffffffffffffffff1673ffffffffffffffffffffffffffffffffffffffff163373ffffffffffffffffffffffffffffffffffffffff161415156117fa57600080fd5b6000600281111561180757fe5b600b60009054906101000a900460ff16600281111561182257fe5b14151561182e57600080fd5b60008873ffffffffffffffffffffffffffffffffffffffff161415151561185457600080fd5b87600360006101000a81548173ffffffffffffffffffffffffffffffffffffffff021916908373ffffffffffffffffffffffffffffffffffffffff1602179055504260048190555085601060016101000a81548173ffffffffffffffffffffffffffffffffffffffff021916908373ffffffffffffffffffffffffffffffffffffffff1602179055508660ff16600a0a6011819055506000601060019054906101000a900473ffffffffffffffffffffffffffffffffffffffff1673ffffffffffffffffffffffffffffffffffffffff166370a08231306000604051602001526040518263ffffffff167c0100000000000000000000000000000000000000000000000000000000028152600401808273ffffffffffffffffffffffffffffffffffffffff1673ffffffffffffffffffffffffffffffffffffffff168152602001915050602060405180830381600087803b15156119b157600080fd5b6102c65a03f115156119c257600080fd5b505050604051805190501415156119d857600080fd5b6119ee62093a8085611fa590919063ffffffff16565b85101515156119fc57600080fd5b60a0604051908101604052808681526020018581526020016000815260200184815260200160001515815250905060128054806001018281611a3e919061206f565b916000526020600020906007020160008390919091506000820151816000015560208201518160010155604082015181600201556060820151816003015560808201518160040160006101000a81548160ff0219169083151502179055505050506001600b60006101000a81548160ff02191690836002811115611abe57fe5b021790555060019150509695505050505050565b6000600360009054906101000a900473ffffffffffffffffffffffffffffffffffffffff1673ffffffffffffffffffffffffffffffffffffffff163373ffffffffffffffffffffffffffffffffffffffff16141515611b3057600080fd5b81600c54111515611b4057600080fd5b611b498261200f565b60019050919050565b600080600080611b6061203d565b6012600160128054905003815481101515611b7757fe5b9060005260206000209060070201935083600101544210151515611b9a57600080fd5b884210151515611ba957600080fd5b611bbf62093a808a611fa590919063ffffffff16565b8810151515611bcd57600080fd5b601060009054906101000a900460ff16151515611be957600080fd5b611c2f8460050160008015151515815260200190815260200160002054856005016000600115151515815260200190815260200160002054611fa590919063ffffffff16565b9250611c4683600f54611ff690919063ffffffff16565b9150611caf611c736006611c6561271086611fc390919063ffffffff16565b61202290919063ffffffff16565b611ca16127108760050160008015151515815260200190815260200160002054611fc390919063ffffffff16565b611fa590919063ffffffff16565b611cde612710866005016000600115151515815260200190815260200160002054611fc390919063ffffffff16565b1115611d32578360040160009054906101000a900460ff1615611d23576001601060006101000a81548160ff0219169083151502179055506000600c81905550611d31565b611d30846003015461200f565b5b5b86600c54101515611d4257600080fd5b60a0604051908101604052808a815260200189815260200160008152602001888152602001871515815250905060128054806001018281611d83919061206f565b916000526020600020906007020160008390919091506000820151816000015560208201518160010155604082015181600201556060820151816003015560808201518160040160006101000a81548160ff0219169083151502179055505050506001945050505050949350505050565b6000809054906101000a900473ffffffffffffffffffffffffffffffffffffffff1673ffffffffffffffffffffffffffffffffffffffff163373ffffffffffffffffffffffffffffffffffffffff16141515611e4f57600080fd5b600073ffffffffffffffffffffffffffffffffffffffff168173ffffffffffffffffffffffffffffffffffffffff1614151515611e8b57600080fd5b8073ffffffffffffffffffffffffffffffffffffffff166000809054906101000a900473ffffffffffffffffffffffffffffffffffffffff1673ffffffffffffffffffffffffffffffffffffffff167f8be0079c531659141344cd1fd0a4f28419497f9722a3daafe3b4186f6b6457e060405160405180910390a3806000806101000a81548173ffffffffffffffffffffffffffffffffffffffff021916908373ffffffffffffffffffffffffffffffffffffffff16021790555050565b601060019054906101000a900473ffffffffffffffffffffffffffffffffffffffff1681565b600c5481565b6000808273ffffffffffffffffffffffffffffffffffffffff1614151515611f9c57600080fd5b60019050919050565b6000808284019050838110151515611fb957fe5b8091505092915050565b60008082840290506000841480611fe45750828482811515611fe157fe5b04145b1515611fec57fe5b8091505092915050565b600082821115151561200457fe5b818303905092915050565b612017610c5e565b5080600c8190555050565b600080828481151561203057fe5b0490508091505092915050565b60a060405190810160405280600081526020016000815260200160008152602001600081526020016000151581525090565b81548183558181151161209c5760070281600702836000526020600020918201910161209b91906120a1565b5b505050565b6120f191905b808211156120ed576000808201600090556001820160009055600282016000905560038201600090556004820160006101000a81549060ff0219169055506007016120a7565b5090565b905600a165627a7a72305820c9d8ad68bf1cee88adee7bc168c630860b68325cb0ca3306a7ea0bd1151b7a4e0029",
  "source": "pragma solidity ^0.4.18;\nimport \"../PoD.sol\";\nimport \"../EIP20StandardToken.sol\";\n\n/// @title DaicoPoD - DaicoPoD contract\n/// @author - Yusaku Senga - <senga@dri.network>\n/// license let's see in LICENSE\n\ncontract DaicoPoD is PoD {\n\n  // tap is withdrawal limit (wei / sec)\n  uint256 public tap;\n  // last time of withdrawal funds.\n  uint256 public lastWithdrawn;\n  // define Token Deposit and Locked balances.\n  mapping(address => uint256) lockedVotePowers; \n  // contract has num of all voters.\n  uint256 public voterCount;\n  // contract should be called refund funtion if refundable.\n  bool public refundable;\n  // define EIP20 token that use and locked to vote.\n  EIP20StandardToken public token;\n  // Token tokenMultiplier; e.g. 10 ** uint256(18)\n  uint256 tokenMultiplier;\n  // proposal for DAICO proposal\n  struct Proposal {\n    // Starting vote process at openVoteTime. \n    uint256 openVoteTime;\n    // Closing vote process at openVoteTime. \n    uint256 closeVoteTime;\n    // Ensure totalVoted Counter in a proposal. \n    uint256 totalVoted;\n    // Update tap value if proposal approved.\n    uint256 newTap;\n    // Represent the flag this proposal contain a Destructor call\n    bool isDestruct;\n    // Represent a voter's intention counter; e.g. Yes[true] of No[false]\n    mapping(bool => uint256) voted;\n    // Represent the flag to whether a voter voted or not.\n    mapping(address => bool) isVote;\n  }\n  // storage of proposals.\n  Proposal[] proposals;\n    \n  /**\n   * Events\n   */\n\n  event Voted(address user, bool flag);\n\n  /**\n   * constructor\n   * @dev define owner when this contract deployed.\n   */\n  \n  function DaicoPoD() public {\n    name = \"DaicoPoD strategy token with dao\";\n    version = \"0.9.3\";\n    tap = 0;\n    voterCount = 0;\n    refundable = false;\n  }\n\n\n  /**\n   * @dev init contract defined params.\n   * @param _wallet            Address of ProjectOwner's multisig wallet.\n   * @param _tokenDecimals     Token decimals for EIP20 token contract.\n   * @param _token             Address of EIP20 token contract.\n   */\n  function init(\n    address _wallet, \n    uint8 _tokenDecimals, \n    address _token,\n    uint256 _firstOpenTime,\n    uint256 _firstCloseTime,\n    uint256 _firstTapAmount\n  ) \n  public onlyOwner() returns (bool) \n  {\n    require(status == Status.PoDDeployed);\n    require(_wallet != 0x0);\n    wallet = _wallet;\n    startTime = block.timestamp;\n    token = EIP20StandardToken(_token);\n    tokenMultiplier = 10 ** uint256(_tokenDecimals);\n    // The first time of contract deployed, contract's token balance should be zero.\n    require(token.balanceOf(this) == 0);\n    require(_firstOpenTime >= _firstCloseTime.add(7 days));\n    Proposal memory newProposal = Proposal({\n      openVoteTime: _firstOpenTime,\n      closeVoteTime: _firstCloseTime,\n      newTap: _firstTapAmount,\n      isDestruct: false,\n      totalVoted: 0\n    });\n\n    proposals.push(newProposal);    \n\n    status = Status.PoDStarted;\n\n    return true;\n  }\n\n  /**\n   * Public fucntions.\n   */\n\n\n  /**\n   * @dev Deposit token to this contract for EIP20 token format.\n   * and deposited token is to be lockedVotePowers.\n   * @param _amount            The Amount of token allowed.\n   */\n  function depositToken(uint256 _amount) public returns (bool) {\n\n    require(!refundable);\n\n    require(token.transferFrom(msg.sender, this, _amount));\n\n    lockedVotePowers[msg.sender] = lockedVotePowers[msg.sender].add(_amount);\n\n    voterCount = voterCount.add(1);\n\n    return true;\n  }\n\n  /**\n   * @dev withdrawal token from this contract.\n   * and `msg.sender` lose all lockedVotePowers if this method has called.\n   */\n  function withdrawalToken() public returns (bool) {\n    \n    var proposal = proposals[proposals.length-1];\n\n    require(!proposal.isVote[msg.sender]);\n\n    require(lockedVotePowers[msg.sender] > 0);\n\n    token.transfer(msg.sender, lockedVotePowers[msg.sender]);\n\n    voterCount = voterCount.sub(1);\n\n    lockedVotePowers[msg.sender] = 0;\n\n    return true;\n  }\n\n\n  /**\n   * @dev Calling vote is available while proposal is opening.\n   * @param _flag            The Flag of voter's intention.\n   */\n\n  function vote(bool _flag) public returns (bool) {\n\n    var proposal = proposals[proposals.length-1];\n\n    require(block.timestamp >= proposal.openVoteTime);\n    require(block.timestamp < proposal.closeVoteTime);\n\n    require(!proposal.isVote[msg.sender]);\n\n    require(lockedVotePowers[msg.sender] >= tokenMultiplier.mul(15000));\n\n    proposal.isVote[msg.sender] = true;\n    proposal.voted[_flag] = proposal.voted[_flag].add(1);\n    proposal.totalVoted = proposal.totalVoted.add(1);\n\n    Voted(msg.sender, _flag);\n\n    return true;\n  }\n\n  /**\n   * @dev Aggregate the voted results and calling modiryTap process or destruct.\n   * @param _nextOpenTime        The open time of next propsoal.\n   * @param _nextCloseTime       The close time of next propsoal.\n   * @param _nextNewTap              The newTap params.\n   * @param _isDestruct          The flag to whether a voter voted or not.\n   */\n\n  function aggregate(uint256 _nextOpenTime, uint256 _nextCloseTime, uint256 _nextNewTap, bool _isDestruct) public returns (bool) {\n\n    var proposal = proposals[proposals.length-1];\n    \n    require(block.timestamp >= proposal.closeVoteTime);\n    require(block.timestamp >= _nextOpenTime);\n    require(_nextCloseTime >= _nextOpenTime.add(7 days));\n\n    require(!refundable);\n\n    uint votedUsers = proposal.voted[true].add(proposal.voted[false]);\n\n    //require(votedUsers >= 20);\n\n    uint absent = voterCount.sub(votedUsers);\n\n    if (proposal.voted[true].mul(10000) > proposal.voted[false].mul(10000).add(absent.mul(10000).div(6))) {\n      if (proposal.isDestruct) {\n        refundable = true;\n        tap = 0;\n      } else {\n        modifyTap(proposal.newTap);\n      }\n    }\n\n    require(tap < _nextNewTap);\n\n    Proposal memory newProposal = Proposal({\n      openVoteTime: _nextOpenTime,\n      closeVoteTime: _nextCloseTime,\n      newTap: _nextNewTap,\n      isDestruct: _isDestruct,\n      totalVoted: 0\n    });\n\n    proposals.push(newProposal);\n\n    return true;\n  }\n\n  /**\n   * @dev founder can withdrawal ether from contract.\n   * receiver `wallet` whould be called failback function to receiving ether.\n   */\n\n  function withdraw() public returns (bool) {\n\n    require(block.timestamp > lastWithdrawn.add(30 days));\n\n    wallet.transfer((block.timestamp - lastWithdrawn) * tap);\n\n    lastWithdrawn = block.timestamp;\n\n    return true;\n  }\n\n  /**\n   * @dev founder can withdrawal ether from contract.\n   * receiver `wallet` called fallback function to receiving ether.\n   */\n\n  function decreaseTap(uint256 _newTap) public returns (bool) {\n    // only called by foudner's multisig wallet.\n    require(msg.sender == wallet); \n\n    require(tap > _newTap);\n\n    modifyTap(_newTap);\n\n    return true;\n  }\n\n  /**\n   * @dev if contract to be refundable, project supporter can withdrawal ether from contract.\n   * Basically, supporter gets the amount of ether has dependent by a locked amount of token.\n   */\n\n  function refund() public returns (bool) {\n\n    require(refundable);\n\n    uint refundAmount = this.balance * lockedVotePowers[msg.sender] / token.balanceOf(this);\n\n    require(refundAmount > 0);\n\n    msg.sender.transfer(refundAmount);\n\n    lockedVotePowers[msg.sender] = 0;\n    \n    return true;\n  }\n\n\n  /**\n   * Private fucntions.\n   */\n\n\n  /**\n   * @dev modify tap num. \n   * @param newTap       The withdrawal limit for project owner tap = (wei / sec).\n   */\n\n  function modifyTap(uint256 newTap) internal {\n    withdraw();\n    tap = newTap;\n  }\n\n  /**\n   * Defined fucntions of RICO's PoD architecture. \n   */\n\n  /**\n   * @dev Called by fallback function. (dependent PoD architecture).\n   * Assumed that this contract received ether re-directly from other contract based on PoD\n   */\n\n  function processDonate(address _user) internal returns (bool) {\n    require(_user != 0x0);\n    return true;\n  }\n\n  \n  /**\n   * @dev get reserved token balances of _user. inherits PoD architecture. (Not used).\n   */\n  function getBalanceOfToken(address _user) public constant returns (uint256) {\n    require(_user != 0x0);\n    return 0;\n  }\n}\n",
  "sourcePath": "/Users/sengayusaku/repo/RICO/contracts/PoDs/DaicoPoD.sol",
  "compiler": {
    "name": "solc",
    "version": "0.4.18+commit.9cf6e910.Emscripten.clang"
  },
  "schemaVersion": "1.0.1",
  "updatedAt": "2018-01-15T12:44:02.513Z"
}