{
  "contractName": "DaicoPoD",
  "abi": [
    {
      "constant": true,
      "inputs": [],
      "name": "name",
      "outputs": [
        {
          "name": "",
          "type": "string"
        }
      ],
      "payable": false,
      "stateMutability": "view",
      "type": "function"
    },
    {
      "constant": true,
      "inputs": [
        {
          "name": "_user",
          "type": "address"
        }
      ],
      "name": "getBalanceOfWei",
      "outputs": [
        {
          "name": "",
          "type": "uint256"
        }
      ],
      "payable": false,
      "stateMutability": "view",
      "type": "function"
    },
    {
      "constant": false,
      "inputs": [
        {
          "name": "_user",
          "type": "address"
        }
      ],
      "name": "resetWeiBalance",
      "outputs": [
        {
          "name": "",
          "type": "bool"
        }
      ],
      "payable": false,
      "stateMutability": "nonpayable",
      "type": "function"
    },
    {
      "constant": true,
      "inputs": [],
      "name": "status",
      "outputs": [
        {
          "name": "",
          "type": "uint8"
        }
      ],
      "payable": false,
      "stateMutability": "view",
      "type": "function"
    },
    {
      "constant": false,
      "inputs": [
        {
          "name": "_nextOpenTime",
          "type": "uint256"
        },
        {
          "name": "_nextCloseTime",
          "type": "uint256"
        },
        {
          "name": "_nextTapAmount",
          "type": "uint256"
        },
        {
          "name": "_isDestruct",
          "type": "bool"
        }
      ],
      "name": "submitProposal",
      "outputs": [
        {
          "name": "",
          "type": "bool"
        }
      ],
      "payable": false,
      "stateMutability": "nonpayable",
      "type": "function"
    },
    {
      "constant": false,
      "inputs": [],
      "name": "withdraw",
      "outputs": [
        {
          "name": "",
          "type": "bool"
        }
      ],
      "payable": false,
      "stateMutability": "nonpayable",
      "type": "function"
    },
    {
      "constant": true,
      "inputs": [],
      "name": "voterCount",
      "outputs": [
        {
          "name": "",
          "type": "uint256"
        }
      ],
      "payable": false,
      "stateMutability": "view",
      "type": "function"
    },
    {
      "constant": true,
      "inputs": [],
      "name": "getEndTime",
      "outputs": [
        {
          "name": "",
          "type": "uint256"
        }
      ],
      "payable": false,
      "stateMutability": "view",
      "type": "function"
    },
    {
      "constant": true,
      "inputs": [],
      "name": "lastWithdrawn",
      "outputs": [
        {
          "name": "",
          "type": "uint256"
        }
      ],
      "payable": false,
      "stateMutability": "view",
      "type": "function"
    },
    {
      "constant": true,
      "inputs": [],
      "name": "getTokenPrice",
      "outputs": [
        {
          "name": "",
          "type": "uint256"
        }
      ],
      "payable": false,
      "stateMutability": "view",
      "type": "function"
    },
    {
      "constant": false,
      "inputs": [
        {
          "name": "_flag",
          "type": "bool"
        }
      ],
      "name": "vote",
      "outputs": [
        {
          "name": "",
          "type": "bool"
        }
      ],
      "payable": false,
      "stateMutability": "nonpayable",
      "type": "function"
    },
    {
      "constant": false,
      "inputs": [],
      "name": "withdrawalToken",
      "outputs": [
        {
          "name": "",
          "type": "bool"
        }
      ],
      "payable": false,
      "stateMutability": "nonpayable",
      "type": "function"
    },
    {
      "constant": true,
      "inputs": [],
      "name": "wallet",
      "outputs": [
        {
          "name": "",
          "type": "address"
        }
      ],
      "payable": false,
      "stateMutability": "view",
      "type": "function"
    },
    {
      "constant": true,
      "inputs": [],
      "name": "version",
      "outputs": [
        {
          "name": "",
          "type": "string"
        }
      ],
      "payable": false,
      "stateMutability": "view",
      "type": "function"
    },
    {
      "constant": false,
      "inputs": [],
      "name": "refund",
      "outputs": [
        {
          "name": "",
          "type": "bool"
        }
      ],
      "payable": false,
      "stateMutability": "nonpayable",
      "type": "function"
    },
    {
      "constant": false,
      "inputs": [
        {
          "name": "_amount",
          "type": "uint256"
        }
      ],
      "name": "depositToken",
      "outputs": [
        {
          "name": "",
          "type": "bool"
        }
      ],
      "payable": false,
      "stateMutability": "nonpayable",
      "type": "function"
    },
    {
      "constant": true,
      "inputs": [],
      "name": "getCapOfWei",
      "outputs": [
        {
          "name": "",
          "type": "uint256"
        }
      ],
      "payable": false,
      "stateMutability": "view",
      "type": "function"
    },
    {
      "constant": true,
      "inputs": [
        {
          "name": "_user",
          "type": "address"
        }
      ],
      "name": "getBalanceOfToken",
      "outputs": [
        {
          "name": "",
          "type": "uint256"
        }
      ],
      "payable": false,
      "stateMutability": "view",
      "type": "function"
    },
    {
      "constant": true,
      "inputs": [],
      "name": "owner",
      "outputs": [
        {
          "name": "",
          "type": "address"
        }
      ],
      "payable": false,
      "stateMutability": "view",
      "type": "function"
    },
    {
      "constant": true,
      "inputs": [],
      "name": "isPoDEnded",
      "outputs": [
        {
          "name": "",
          "type": "bool"
        }
      ],
      "payable": false,
      "stateMutability": "view",
      "type": "function"
    },
    {
      "constant": true,
      "inputs": [],
      "name": "getCapOfToken",
      "outputs": [
        {
          "name": "",
          "type": "uint256"
        }
      ],
      "payable": false,
      "stateMutability": "view",
      "type": "function"
    },
    {
      "constant": true,
      "inputs": [],
      "name": "isPoDStarted",
      "outputs": [
        {
          "name": "",
          "type": "bool"
        }
      ],
      "payable": false,
      "stateMutability": "view",
      "type": "function"
    },
    {
      "constant": false,
      "inputs": [],
      "name": "aggregateVotes",
      "outputs": [
        {
          "name": "",
          "type": "uint256"
        }
      ],
      "payable": false,
      "stateMutability": "nonpayable",
      "type": "function"
    },
    {
      "constant": true,
      "inputs": [],
      "name": "refundable",
      "outputs": [
        {
          "name": "",
          "type": "bool"
        }
      ],
      "payable": false,
      "stateMutability": "view",
      "type": "function"
    },
    {
      "constant": true,
      "inputs": [],
      "name": "getStartTime",
      "outputs": [
        {
          "name": "",
          "type": "uint256"
        }
      ],
      "payable": false,
      "stateMutability": "view",
      "type": "function"
    },
    {
      "constant": false,
      "inputs": [
        {
          "name": "_wallet",
          "type": "address"
        },
        {
          "name": "_tokenDecimals",
          "type": "uint8"
        },
        {
          "name": "_token",
          "type": "address"
        }
      ],
      "name": "init",
      "outputs": [
        {
          "name": "",
          "type": "bool"
        }
      ],
      "payable": false,
      "stateMutability": "nonpayable",
      "type": "function"
    },
    {
      "constant": false,
      "inputs": [
        {
          "name": "_newTap",
          "type": "uint256"
        }
      ],
      "name": "decreaseTap",
      "outputs": [
        {
          "name": "",
          "type": "bool"
        }
      ],
      "payable": false,
      "stateMutability": "nonpayable",
      "type": "function"
    },
    {
      "constant": false,
      "inputs": [],
      "name": "donate",
      "outputs": [
        {
          "name": "",
          "type": "bool"
        }
      ],
      "payable": true,
      "stateMutability": "payable",
      "type": "function"
    },
    {
      "constant": false,
      "inputs": [
        {
          "name": "newOwner",
          "type": "address"
        }
      ],
      "name": "transferOwnership",
      "outputs": [],
      "payable": false,
      "stateMutability": "nonpayable",
      "type": "function"
    },
    {
      "constant": true,
      "inputs": [],
      "name": "token",
      "outputs": [
        {
          "name": "",
          "type": "address"
        }
      ],
      "payable": false,
      "stateMutability": "view",
      "type": "function"
    },
    {
      "constant": true,
      "inputs": [],
      "name": "tap",
      "outputs": [
        {
          "name": "",
          "type": "uint256"
        }
      ],
      "payable": false,
      "stateMutability": "view",
      "type": "function"
    },
    {
      "inputs": [],
      "payable": false,
      "stateMutability": "nonpayable",
      "type": "constructor"
    },
    {
      "payable": true,
      "stateMutability": "payable",
      "type": "fallback"
    },
    {
      "anonymous": false,
      "inputs": [
        {
          "indexed": false,
          "name": "_user",
          "type": "address"
        },
        {
          "indexed": false,
          "name": "_flag",
          "type": "bool"
        }
      ],
      "name": "Voted",
      "type": "event"
    },
    {
      "anonymous": false,
      "inputs": [
        {
          "indexed": false,
          "name": "_user",
          "type": "address"
        },
        {
          "indexed": false,
          "name": "_amount",
          "type": "uint256"
        }
      ],
      "name": "DepositToken",
      "type": "event"
    },
    {
      "anonymous": false,
      "inputs": [
        {
          "indexed": false,
          "name": "_user",
          "type": "address"
        },
        {
          "indexed": false,
          "name": "_amount",
          "type": "uint256"
        }
      ],
      "name": "WithdrawalToken",
      "type": "event"
    },
    {
      "anonymous": false,
      "inputs": [
        {
          "indexed": false,
          "name": "_nextOpenTime",
          "type": "uint256"
        },
        {
          "indexed": false,
          "name": "_nextCloseTime",
          "type": "uint256"
        },
        {
          "indexed": false,
          "name": "_nextTapAmount",
          "type": "uint256"
        },
        {
          "indexed": false,
          "name": "_isDestruct",
          "type": "bool"
        }
      ],
      "name": "SubmittedProposal",
      "type": "event"
    },
    {
      "anonymous": false,
      "inputs": [
        {
          "indexed": false,
          "name": "_tapAmount",
          "type": "uint256"
        }
      ],
      "name": "ModifiedTap",
      "type": "event"
    },
    {
      "anonymous": false,
      "inputs": [
        {
          "indexed": false,
          "name": "_user",
          "type": "address"
        },
        {
          "indexed": false,
          "name": "_amount",
          "type": "uint256"
        },
        {
          "indexed": false,
          "name": "_time",
          "type": "uint256"
        }
      ],
      "name": "Withdraw",
      "type": "event"
    },
    {
      "anonymous": false,
      "inputs": [
        {
          "indexed": false,
          "name": "_user",
          "type": "address"
        },
        {
          "indexed": false,
          "name": "_amount",
          "type": "uint256"
        }
      ],
      "name": "Refund",
      "type": "event"
    },
    {
      "anonymous": false,
      "inputs": [
        {
          "indexed": false,
          "name": "user",
          "type": "address"
        },
        {
          "indexed": false,
          "name": "amount",
          "type": "uint256"
        }
      ],
      "name": "Donated",
      "type": "event"
    },
    {
      "anonymous": false,
      "inputs": [
        {
          "indexed": false,
          "name": "time",
          "type": "uint256"
        }
      ],
      "name": "Ended",
      "type": "event"
    },
    {
      "anonymous": false,
      "inputs": [
        {
          "indexed": true,
          "name": "previousOwner",
          "type": "address"
        },
        {
          "indexed": true,
          "name": "newOwner",
          "type": "address"
        }
      ],
      "name": "OwnershipTransferred",
      "type": "event"
    }
  ],
  "bytecode": "0x606060405234156200001057600080fd5b336000806101000a81548173ffffffffffffffffffffffffffffffffffffffff021916908373ffffffffffffffffffffffffffffffffffffffff1602179055506000600b60006101000a81548160ff021916908360028111156200007057fe5b0217905550600060078190555033600360006101000a81548173ffffffffffffffffffffffffffffffffffffffff021916908373ffffffffffffffffffffffffffffffffffffffff1602179055506040805190810160405280602081526020017f446169636f506f4420737472617465677920746f6b656e20776974682064616f815250600190805190602001906200010b929190620001a6565b506040805190810160405280600581526020017f302e392e330000000000000000000000000000000000000000000000000000008152506002908051906020019062000159929190620001a6565b506000600c819055506000600f819055506000601060006101000a81548160ff0219169083151502179055506000601260006101000a81548160ff02191690831515021790555062000255565b828054600181600116156101000203166002900490600052602060002090601f016020900481019282601f10620001e957805160ff19168380011785556200021a565b828001600101855582156200021a579182015b8281111562000219578251825591602001919060010190620001fc565b5b5090506200022991906200022d565b5090565b6200025291905b808211156200024e57600081600090555060010162000234565b5090565b90565b6123c380620002656000396000f30060606040526004361061018b576000357c0100000000000000000000000000000000000000000000000000000000900463ffffffff16806306fdde031461019657806309fc93c114610224578063112ed3f514610271578063200d2ed2146102c25780632bb7ba5c146102f95780633ccfd60b1461035157806342169e481461037e578063439f5ac2146103a7578063472c9fcc146103d05780634b94f50e146103f95780634b9f5c98146104225780635188875b1461045f578063521eb2731461048c57806354fd4d50146104e1578063590e1ae31461056f5780636215be771461059c5780636ccce7a8146105d757806383786f8c146106005780638da5cb5b1461064d5780638f85f92c146106a257806397722acf146106cf5780639b3dfce0146106f8578063a980ff0e14610725578063bf89662d1461074e578063c828371e1461077b578063d5466801146107a4578063e3e9dba914610820578063ed88c68e1461085b578063f2fde38b1461087d578063fc0c546a146108b6578063fd2210311461090b575b610193610934565b50005b34156101a157600080fd5b6101a9610a9f565b6040518080602001828103825283818151815260200191508051906020019080838360005b838110156101e95780820151818401526020810190506101ce565b50505050905090810190601f1680156102165780820380516001836020036101000a031916815260200191505b509250505060405180910390f35b341561022f57600080fd5b61025b600480803573ffffffffffffffffffffffffffffffffffffffff16906020019091905050610b3d565b6040518082815260200191505060405180910390f35b341561027c57600080fd5b6102a8600480803573ffffffffffffffffffffffffffffffffffffffff16906020019091905050610b86565b604051808215151515815260200191505060405180910390f35b34156102cd57600080fd5b6102d5610c64565b604051808260028111156102e557fe5b60ff16815260200191505060405180910390f35b341561030457600080fd5b61033760048080359060200190919080359060200190919080359060200190919080351515906020019091905050610c77565b604051808215151515815260200191505060405180910390f35b341561035c57600080fd5b610364610e61565b604051808215151515815260200191505060405180910390f35b341561038957600080fd5b610391610f9c565b6040518082815260200191505060405180910390f35b34156103b257600080fd5b6103ba610fa2565b6040518082815260200191505060405180910390f35b34156103db57600080fd5b6103e3610fac565b6040518082815260200191505060405180910390f35b341561040457600080fd5b61040c610fb2565b6040518082815260200191505060405180910390f35b341561042d57600080fd5b61044560048080351515906020019091905050610fbc565b604051808215151515815260200191505060405180910390f35b341561046a57600080fd5b610472611207565b604051808215151515815260200191505060405180910390f35b341561049757600080fd5b61049f6114dc565b604051808273ffffffffffffffffffffffffffffffffffffffff1673ffffffffffffffffffffffffffffffffffffffff16815260200191505060405180910390f35b34156104ec57600080fd5b6104f4611502565b6040518080602001828103825283818151815260200191508051906020019080838360005b83811015610534578082015181840152602081019050610519565b50505050905090810190601f1680156105615780820380516001836020036101000a031916815260200191505b509250505060405180910390f35b341561057a57600080fd5b6105826115a0565b604051808215151515815260200191505060405180910390f35b34156105a757600080fd5b6105bd600480803590602001909190505061180a565b604051808215151515815260200191505060405180910390f35b34156105e257600080fd5b6105ea611a74565b6040518082815260200191505060405180910390f35b341561060b57600080fd5b610637600480803573ffffffffffffffffffffffffffffffffffffffff16906020019091905050611a7e565b6040518082815260200191505060405180910390f35b341561065857600080fd5b610660611aae565b604051808273ffffffffffffffffffffffffffffffffffffffff1673ffffffffffffffffffffffffffffffffffffffff16815260200191505060405180910390f35b34156106ad57600080fd5b6106b5611ad3565b604051808215151515815260200191505060405180910390f35b34156106da57600080fd5b6106e2611b13565b6040518082815260200191505060405180910390f35b341561070357600080fd5b61070b611b1d565b604051808215151515815260200191505060405180910390f35b341561073057600080fd5b610738611b5e565b6040518082815260200191505060405180910390f35b341561075957600080fd5b610761611d4e565b604051808215151515815260200191505060405180910390f35b341561078657600080fd5b61078e611d61565b6040518082815260200191505060405180910390f35b34156107af57600080fd5b610806600480803573ffffffffffffffffffffffffffffffffffffffff1690602001909190803560ff1690602001909190803573ffffffffffffffffffffffffffffffffffffffff16906020019091905050611d6b565b604051808215151515815260200191505060405180910390f35b341561082b57600080fd5b6108416004808035906020019091905050611fd5565b604051808215151515815260200191505060405180910390f35b610863610934565b604051808215151515815260200191505060405180910390f35b341561088857600080fd5b6108b4600480803573ffffffffffffffffffffffffffffffffffffffff16906020019091905050612056565b005b34156108c157600080fd5b6108c96121ab565b604051808273ffffffffffffffffffffffffffffffffffffffff1673ffffffffffffffffffffffffffffffffffffffff16815260200191505060405180910390f35b341561091657600080fd5b61091e6121d1565b6040518082815260200191505060405180910390f35b60006001600281111561094357fe5b600b60009054906101000a900460ff16600281111561095e57fe5b14151561096a57600080fd5b600454421015151561097b57600080fd5b6412a05f20003a1115151561098f57600080fd5b60003411151561099e57600080fd5b6109a7336121d7565b1515610a1257426005819055506002600b60006101000a81548160ff021916908360028111156109d357fe5b02179055507f601095663bda08ac0f932087ef2eb08e42e4bcd1927f3a8d9500f6ad2c5aef906005546040518082815260200191505060405180910390a15b610a273460075461220790919063ffffffff16565b6007819055507f2a01595cddf097c90216094025db714da3f4e5bd8877b56ba86a24ecead8e5433334604051808373ffffffffffffffffffffffffffffffffffffffff1673ffffffffffffffffffffffffffffffffffffffff1681526020018281526020019250505060405180910390a16001905090565b60018054600181600116156101000203166002900480601f016020809104026020016040519081016040528092919081815260200182805460018160011615610100020316600290048015610b355780601f10610b0a57610100808354040283529160200191610b35565b820191906000526020600020905b815481529060010190602001808311610b1857829003601f168201915b505050505081565b6000600a60008373ffffffffffffffffffffffffffffffffffffffff1673ffffffffffffffffffffffffffffffffffffffff168152602001908152602001600020549050919050565b60008060009054906101000a900473ffffffffffffffffffffffffffffffffffffffff1673ffffffffffffffffffffffffffffffffffffffff163373ffffffffffffffffffffffffffffffffffffffff16141515610be357600080fd5b600280811115610bef57fe5b600b60009054906101000a900460ff166002811115610c0a57fe5b141515610c1657600080fd5b6000600a60008473ffffffffffffffffffffffffffffffffffffffff1673ffffffffffffffffffffffffffffffffffffffff1681526020019081526020016000208190555060019050919050565b600b60009054906101000a900460ff1681565b6000610c816122e0565b854210151515610c9057600080fd5b610ca662093a808761220790919063ffffffff16565b8510151515610cb457600080fd5b610ccb61753060115461222590919063ffffffff16565b600e60003373ffffffffffffffffffffffffffffffffffffffff1673ffffffffffffffffffffffffffffffffffffffff1681526020019081526020016000205410151515610d1857600080fd5b83600c54101515610d2857600080fd5b601260009054906101000a900460ff16151515610d4457600080fd5b60a06040519081016040528087815260200186815260200160008152602001858152602001841515815250905060138054806001018281610d859190612312565b916000526020600020906007020160008390919091506000820151816000015560208201518160010155604082015181600201556060820151816003015560808201518160040160006101000a81548160ff0219169083151502179055505050506001601260006101000a81548160ff0219169083151502179055507f3d696996f2abbf583fc358a5daf3973152258eac6db8e20775d34ecbc8b8995f86868686604051808581526020018481526020018381526020018215151515815260200194505050505060405180910390a16001915050949350505050565b600080610e7c62278d00600d5461220790919063ffffffff16565b42111515610e8957600080fd5b600c54600d544203029050600360009054906101000a900473ffffffffffffffffffffffffffffffffffffffff1673ffffffffffffffffffffffffffffffffffffffff166108fc829081150290604051600060405180830381858888f193505050501515610ef657600080fd5b42600d819055507ff279e6a1f5e320cca91135676d9cb6e44ca8a08c0b88342bcdb1144f6511b568600360009054906101000a900473ffffffffffffffffffffffffffffffffffffffff1682600d54604051808473ffffffffffffffffffffffffffffffffffffffff1673ffffffffffffffffffffffffffffffffffffffff168152602001838152602001828152602001935050505060405180910390a1600191505090565b600f5481565b6000600554905090565b600d5481565b6000600654905090565b6000806013600160138054905003815481101515610fd657fe5b9060005260206000209060070201905080600001544210151515610ff957600080fd5b80600101544210151561100b57600080fd5b8060060160003373ffffffffffffffffffffffffffffffffffffffff1673ffffffffffffffffffffffffffffffffffffffff16815260200190815260200160002060009054906101000a900460ff1615151561106657600080fd5b61107d613a9860115461222590919063ffffffff16565b600e60003373ffffffffffffffffffffffffffffffffffffffff1673ffffffffffffffffffffffffffffffffffffffff16815260200190815260200160002054101515156110ca57600080fd5b60018160060160003373ffffffffffffffffffffffffffffffffffffffff1673ffffffffffffffffffffffffffffffffffffffff16815260200190815260200160002060006101000a81548160ff0219169083151502179055506111516001826005016000861515151581526020019081526020016000205461220790919063ffffffff16565b81600501600085151515158152602001908152602001600020819055506111866001826002015461220790919063ffffffff16565b81600201819055507f8eb81cb806dbb3d8a2f94981614331a55dfd90e06a42fdc362ca3ca96981d92f3384604051808373ffffffffffffffffffffffffffffffffffffffff1673ffffffffffffffffffffffffffffffffffffffff168152602001821515151581526020019250505060405180910390a16001915050919050565b6000806000601360016013805490500381548110151561122357fe5b906000526020600020906007020191508160060160003373ffffffffffffffffffffffffffffffffffffffff1673ffffffffffffffffffffffffffffffffffffffff16815260200190815260200160002060009054906101000a900460ff1615151561128e57600080fd5b600e60003373ffffffffffffffffffffffffffffffffffffffff1673ffffffffffffffffffffffffffffffffffffffff1681526020019081526020016000205490506000811115156112df57600080fd5b601060019054906101000a900473ffffffffffffffffffffffffffffffffffffffff1673ffffffffffffffffffffffffffffffffffffffff1663a9059cbb33600e60003373ffffffffffffffffffffffffffffffffffffffff1673ffffffffffffffffffffffffffffffffffffffff168152602001908152602001600020546000604051602001526040518363ffffffff167c0100000000000000000000000000000000000000000000000000000000028152600401808373ffffffffffffffffffffffffffffffffffffffff1673ffffffffffffffffffffffffffffffffffffffff16815260200182815260200192505050602060405180830381600087803b15156113eb57600080fd5b6102c65a03f115156113fc57600080fd5b505050604051805190505061141d6001600f5461225890919063ffffffff16565b600f819055506000600e60003373ffffffffffffffffffffffffffffffffffffffff1673ffffffffffffffffffffffffffffffffffffffff168152602001908152602001600020819055507fc7007e57228f610de89c329174bb69f87ecbecaf8e44c0e45ef6c83c21a802793382604051808373ffffffffffffffffffffffffffffffffffffffff1673ffffffffffffffffffffffffffffffffffffffff1681526020018281526020019250505060405180910390a160019250505090565b600360009054906101000a900473ffffffffffffffffffffffffffffffffffffffff1681565b60028054600181600116156101000203166002900480601f0160208091040260200160405190810160405280929190818152602001828054600181600116156101000203166002900480156115985780601f1061156d57610100808354040283529160200191611598565b820191906000526020600020905b81548152906001019060200180831161157b57829003601f168201915b505050505081565b600080601060009054906101000a900460ff1615156115be57600080fd5b601060019054906101000a900473ffffffffffffffffffffffffffffffffffffffff1673ffffffffffffffffffffffffffffffffffffffff166370a08231306000604051602001526040518263ffffffff167c0100000000000000000000000000000000000000000000000000000000028152600401808273ffffffffffffffffffffffffffffffffffffffff1673ffffffffffffffffffffffffffffffffffffffff168152602001915050602060405180830381600087803b151561168357600080fd5b6102c65a03f1151561169457600080fd5b50505060405180519050600e60003373ffffffffffffffffffffffffffffffffffffffff1673ffffffffffffffffffffffffffffffffffffffff168152602001908152602001600020543073ffffffffffffffffffffffffffffffffffffffff16310281151561170057fe5b04905060008111151561171257600080fd5b3373ffffffffffffffffffffffffffffffffffffffff166108fc829081150290604051600060405180830381858888f19350505050151561175257600080fd5b6000600e60003373ffffffffffffffffffffffffffffffffffffffff1673ffffffffffffffffffffffffffffffffffffffff168152602001908152602001600020819055507fbb28353e4598c3b9199101a66e0989549b659a59a54d2c27fbb183f1932c8e6d3382604051808373ffffffffffffffffffffffffffffffffffffffff1673ffffffffffffffffffffffffffffffffffffffff1681526020018281526020019250505060405180910390a1600191505090565b6000601060009054906101000a900460ff1615151561182857600080fd5b601060019054906101000a900473ffffffffffffffffffffffffffffffffffffffff1673ffffffffffffffffffffffffffffffffffffffff166323b872dd3330856000604051602001526040518463ffffffff167c0100000000000000000000000000000000000000000000000000000000028152600401808473ffffffffffffffffffffffffffffffffffffffff1673ffffffffffffffffffffffffffffffffffffffff1681526020018373ffffffffffffffffffffffffffffffffffffffff1673ffffffffffffffffffffffffffffffffffffffff1681526020018281526020019350505050602060405180830381600087803b151561192957600080fd5b6102c65a03f1151561193a57600080fd5b50505060405180519050151561194f57600080fd5b6119a182600e60003373ffffffffffffffffffffffffffffffffffffffff1673ffffffffffffffffffffffffffffffffffffffff1681526020019081526020016000205461220790919063ffffffff16565b600e60003373ffffffffffffffffffffffffffffffffffffffff1673ffffffffffffffffffffffffffffffffffffffff168152602001908152602001600020819055506119fa6001600f5461220790919063ffffffff16565b600f819055507f2d0c0a8842b9944ece1495eb61121621b5e36bd6af3bba0318c695f525aef79f3383604051808373ffffffffffffffffffffffffffffffffffffffff1673ffffffffffffffffffffffffffffffffffffffff1681526020018281526020019250505060405180910390a160019050919050565b6000600954905090565b6000808273ffffffffffffffffffffffffffffffffffffffff1614151515611aa557600080fd5b60009050919050565b6000809054906101000a900473ffffffffffffffffffffffffffffffffffffffff1681565b6000600280811115611ae157fe5b600b60009054906101000a900460ff166002811115611afc57fe5b1415611b0b5760019050611b10565b600090505b90565b6000600854905090565b600060016002811115611b2c57fe5b600b60009054906101000a900460ff166002811115611b4757fe5b1415611b565760019050611b5b565b600090505b90565b60008060008060006013600160138054905003815481101515611b7d57fe5b9060005260206000209060070201935083600101544210151515611ba057600080fd5b601060009054906101000a900460ff16151515611bbc57600080fd5b611c02846005016000801515151581526020019081526020016000205485600501600060011515151581526020019081526020016000205461220790919063ffffffff16565b92506000601260006101000a81548160ff021916908315150217905550601483111515611c325760009450611d47565b611c4783600f5461225890919063ffffffff16565b9150611c716006611c636127108561222590919063ffffffff16565b61227190919063ffffffff16565b9050611cb381611ca5612710876005016000801515151581526020019081526020016000205461222590919063ffffffff16565b61220790919063ffffffff16565b611ce261271086600501600060011515151581526020019081526020016000205461222590919063ffffffff16565b1115611d42578360040160009054906101000a900460ff1615611d2b576001601060006101000a81548160ff0219169083151502179055506000600c8190555060029450611d47565b611d38846003015461228c565b5060019450611d47565b600094505b5050505090565b601060009054906101000a900460ff1681565b6000600454905090565b60008060009054906101000a900473ffffffffffffffffffffffffffffffffffffffff1673ffffffffffffffffffffffffffffffffffffffff163373ffffffffffffffffffffffffffffffffffffffff16141515611dc857600080fd5b60006002811115611dd557fe5b600b60009054906101000a900460ff166002811115611df057fe5b141515611dfc57600080fd5b60008473ffffffffffffffffffffffffffffffffffffffff1614151515611e2257600080fd5b83600360006101000a81548173ffffffffffffffffffffffffffffffffffffffff021916908373ffffffffffffffffffffffffffffffffffffffff1602179055504260048190555081601060016101000a81548173ffffffffffffffffffffffffffffffffffffffff021916908373ffffffffffffffffffffffffffffffffffffffff1602179055508260ff16600a0a6011819055506000601060019054906101000a900473ffffffffffffffffffffffffffffffffffffffff1673ffffffffffffffffffffffffffffffffffffffff166370a08231306000604051602001526040518263ffffffff167c0100000000000000000000000000000000000000000000000000000000028152600401808273ffffffffffffffffffffffffffffffffffffffff1673ffffffffffffffffffffffffffffffffffffffff168152602001915050602060405180830381600087803b1515611f7f57600080fd5b6102c65a03f11515611f9057600080fd5b50505060405180519050141515611fa657600080fd5b6001600b60006101000a81548160ff02191690836002811115611fc557fe5b0217905550600190509392505050565b6000600360009054906101000a900473ffffffffffffffffffffffffffffffffffffffff1673ffffffffffffffffffffffffffffffffffffffff163373ffffffffffffffffffffffffffffffffffffffff1614151561203357600080fd5b81600c5411151561204357600080fd5b61204c8261228c565b5060019050919050565b6000809054906101000a900473ffffffffffffffffffffffffffffffffffffffff1673ffffffffffffffffffffffffffffffffffffffff163373ffffffffffffffffffffffffffffffffffffffff161415156120b157600080fd5b600073ffffffffffffffffffffffffffffffffffffffff168173ffffffffffffffffffffffffffffffffffffffff16141515156120ed57600080fd5b8073ffffffffffffffffffffffffffffffffffffffff166000809054906101000a900473ffffffffffffffffffffffffffffffffffffffff1673ffffffffffffffffffffffffffffffffffffffff167f8be0079c531659141344cd1fd0a4f28419497f9722a3daafe3b4186f6b6457e060405160405180910390a3806000806101000a81548173ffffffffffffffffffffffffffffffffffffffff021916908373ffffffffffffffffffffffffffffffffffffffff16021790555050565b601060019054906101000a900473ffffffffffffffffffffffffffffffffffffffff1681565b600c5481565b6000808273ffffffffffffffffffffffffffffffffffffffff16141515156121fe57600080fd5b60019050919050565b600080828401905083811015151561221b57fe5b8091505092915050565b60008082840290506000841480612246575082848281151561224357fe5b04145b151561224e57fe5b8091505092915050565b600082821115151561226657fe5b818303905092915050565b600080828481151561227f57fe5b0490508091505092915050565b6000612296610e61565b5081600c819055507f854be63a6bb4d6f59d1fe51181de4ea09125dcb6b8c80a70add4f70e50a96cb7600c546040518082815260200191505060405180910390a160019050919050565b60a060405190810160405280600081526020016000815260200160008152602001600081526020016000151581525090565b81548183558181151161233f5760070281600702836000526020600020918201910161233e9190612344565b5b505050565b61239491905b80821115612390576000808201600090556001820160009055600282016000905560038201600090556004820160006101000a81549060ff02191690555060070161234a565b5090565b905600a165627a7a72305820eac400df628350ba9fd3ba7a84bd151c375f46f1e6e8a8d55cf88fc64c4cb2c10029",
  "source": "pragma solidity ^0.4.18;\nimport \"../PoD.sol\";\nimport \"../EIP20StandardToken.sol\";\n\n/// @title DaicoPoD - DaicoPoD contract\n/// @author - Yusaku Senga - <senga@dri.network>\n/// license let's see in LICENSE\n\ncontract DaicoPoD is PoD {\n\n  // The tap is withdrawal limit (wei / sec) of founder's multisig wallet.\n  uint256 public tap;\n  // Latest withdrawal time.\n  uint256 public lastWithdrawn;\n  // Locked token balances of users.\n  mapping(address => uint256) lockedTokenBalances; \n  // Contract has total number of all voters.\n  uint256 public voterCount;\n  // Contract should be called refund funtion if contract is refundable (withdraw mode).\n  bool public refundable;\n  // EIP20 token that locked to vote.\n  EIP20StandardToken public token;\n  // Token tokenMultiplier; e.g. 10 ** uint256(18)\n  uint256 tokenMultiplier;\n  // Flag that whether proposed vote or not.\n  bool isProposed;\n\n  // proposal for DAICO proposal\n  struct Proposal {\n    // Starting vote process at openVoteTime. \n    uint256 openVoteTime;\n    // Closing vote process at openVoteTime. \n    uint256 closeVoteTime;\n    // Ensure totalVoted Counter in a proposal. \n    uint256 totalVoted;\n    // Update tap value if proposal approved.\n    uint256 newTap;\n    // Represent the flag this proposal contain a Destructor call\n    bool isDestruct;\n    // Represent a voter's intention counter; e.g. Yes[true] of No[false]\n    mapping(bool => uint256) voted;\n    // Represent the flag to whether a voter voted or not.\n    mapping(address => bool) isVote;\n  }\n  // Storage of proposals.\n  Proposal[] proposals;\n    \n  /**\n   * Events\n   */\n\n  event Voted(address _user, bool _flag);\n  event DepositToken(address _user, uint256 _amount);\n  event WithdrawalToken(address _user, uint256 _amount);\n  event SubmittedProposal(uint256 _nextOpenTime, uint256 _nextCloseTime, uint256 _nextTapAmount, bool _isDestruct);\n  event ModifiedTap(uint256 _tapAmount);\n  event Withdraw(address _user, uint256 _amount, uint256 _time);\n  event Refund(address _user, uint256 _amount);\n\n\n  /**\n   * Constructor\n   * @dev Set the owner when this contract deployed.\n   */\n  \n  function DaicoPoD() public {\n    name = \"DaicoPoD strategy token with dao\";\n    version = \"0.9.3\";\n    tap = 0;\n    voterCount = 0;\n    refundable = false;\n    isProposed = false;\n  }\n\n\n  /**\n   * @dev Initialized PoD.\n   * @param _wallet            Address of founder's multisig wallet.\n   * @param _tokenDecimals     Token decimals for EIP20 token contract.\n   * @param _token             Address of EIP20 token contract.\n   */\n  function init(\n    address _wallet, \n    uint8 _tokenDecimals, \n    address _token\n  ) \n  public onlyOwner() returns (bool) \n  {\n    require(status == Status.PoDDeployed);\n    require(_wallet != 0x0);\n    wallet = _wallet;\n    startTime = block.timestamp;\n    token = EIP20StandardToken(_token);\n    tokenMultiplier = 10 ** uint256(_tokenDecimals);\n    // The first time of contract deployed, contract's token balance should be zero.\n    require(token.balanceOf(this) == 0);\n    status = Status.PoDStarted;\n    return true;\n  }\n\n  /**\n   * Public fucntions.\n   */\n\n\n  /**\n   * @dev Deposit token to this contract for EIP20 token format.\n   * And lockedTokenBalances represents amount of deposited token.\n   * @param _amount            The Amount of token allowed.\n   */\n  function depositToken(uint256 _amount) public returns (bool) {\n\n    require(!refundable);\n\n    require(token.transferFrom(msg.sender, this, _amount));\n\n    lockedTokenBalances[msg.sender] = lockedTokenBalances[msg.sender].add(_amount);\n\n    voterCount = voterCount.add(1);\n\n    DepositToken(msg.sender, _amount);\n\n    return true;\n  }\n\n  /**\n   * @dev Withdraw token from this contract.\n   */\n  function withdrawalToken() public returns (bool) {\n    \n    Proposal storage proposal = proposals[proposals.length-1];\n\n    require(!proposal.isVote[msg.sender]);\n\n    uint256 amount = lockedTokenBalances[msg.sender];\n\n    require(amount > 0);\n\n    token.transfer(msg.sender, lockedTokenBalances[msg.sender]);\n\n    voterCount = voterCount.sub(1);\n\n    lockedTokenBalances[msg.sender] = 0;\n\n    WithdrawalToken(msg.sender, amount);\n    return true;\n  }\n\n\n  /**\n   * @dev Calling vote is available while proposal is opening.\n   * @param _flag            The Flag of voter's intention.\n   */\n\n  function vote(bool _flag) public returns (bool) {\n\n    Proposal storage proposal = proposals[proposals.length-1];\n\n    require(block.timestamp >= proposal.openVoteTime);\n    require(block.timestamp < proposal.closeVoteTime);\n\n    require(!proposal.isVote[msg.sender]);\n\n    require(lockedTokenBalances[msg.sender] >= tokenMultiplier.mul(15000));\n\n    proposal.isVote[msg.sender] = true;\n    proposal.voted[_flag] = proposal.voted[_flag].add(1);\n    proposal.totalVoted = proposal.totalVoted.add(1);\n\n    Voted(msg.sender, _flag);\n\n    return true;\n  }\n\n  /**\n   * @dev Submitting proposal to increase tap or destruct funds.\n   * @param _nextOpenTime        The open time of next propsoal.\n   * @param _nextCloseTime       The close time of next propsoal.\n   * @param _nextTapAmount       The newTap num ( wei / sec ).\n   * @param _isDestruct          The flag to whether a voter voted or not.\n   */\n\n  function submitProposal(uint256 _nextOpenTime, uint256 _nextCloseTime, uint256 _nextTapAmount, bool _isDestruct) public returns (bool) {\n\n    require(block.timestamp >= _nextOpenTime);\n    require(_nextCloseTime >= _nextOpenTime.add(7 days));\n\n    require(lockedTokenBalances[msg.sender] >= tokenMultiplier.mul(30000));\n\n    require(tap < _nextTapAmount);\n\n    require(!isProposed);\n\n    Proposal memory newProposal = Proposal({\n      openVoteTime: _nextOpenTime,\n      closeVoteTime: _nextCloseTime,\n      newTap: _nextTapAmount,\n      isDestruct: _isDestruct,\n      totalVoted: 0\n    });\n\n    proposals.push(newProposal);\n\n    isProposed = true;\n\n    SubmittedProposal(_nextOpenTime, _nextCloseTime, _nextTapAmount, _isDestruct);\n    return true;\n  }\n\n  /**\n   * @dev Aggregate the voted results.\n   * return uint 0 => No executed, 1 => Modified tap num, 2 => Transition to withdraw mode\n   */\n\n  function aggregateVotes() public returns (uint) {\n    \n    Proposal storage proposal = proposals[proposals.length-1];\n    \n    require(block.timestamp >= proposal.closeVoteTime);\n\n    require(!refundable);\n\n    uint votedUsers = proposal.voted[true].add(proposal.voted[false]);\n\n    isProposed = false;\n\n    if (votedUsers <= 20) {\n      return 0;\n    }\n\n    uint absent = voterCount.sub(votedUsers);\n\n    uint threshold = absent.mul(10000).div(6);\n\n    if (proposal.voted[true].mul(10000) > proposal.voted[false].mul(10000).add(threshold)) {\n      if (proposal.isDestruct) {\n        refundable = true;\n        tap = 0;\n        return 2;\n      } else {\n        modifyTap(proposal.newTap);\n        return 1;\n      }\n    }\n    return 0;\n  }\n\n  /**\n   * @dev Founder can withdraw ether from contract.\n   * receiver `wallet` whould be called failback function to receiving ether.\n   */\n\n  function withdraw() public returns (bool) {\n\n    require(block.timestamp > lastWithdrawn.add(30 days));\n\n    uint256 amount = (block.timestamp - lastWithdrawn) * tap;\n    wallet.transfer(amount);\n\n    lastWithdrawn = block.timestamp;\n    \n    Withdraw(wallet, amount, lastWithdrawn);\n    return true;\n  }\n\n  /**\n   * @dev Founder can decrease the tap amount at anytime.\n   * @param _newTap        The new tap quantity.\n   */\n\n  function decreaseTap(uint256 _newTap) public returns (bool) {\n    // Only called by foudner's multisig wallet.\n    require(msg.sender == wallet); \n\n    require(tap > _newTap);\n\n    modifyTap(_newTap);\n\n    return true;\n  }\n\n  /**\n   * @dev If contract to be refundable, project supporter can withdraw ether from contract.\n   * Basically, supporter gets the amount of ether has dependent by a locked amount of token.\n   */\n\n  function refund() public returns (bool) {\n\n    require(refundable);\n\n    uint refundAmount = this.balance * lockedTokenBalances[msg.sender] / token.balanceOf(this);\n\n    require(refundAmount > 0);\n\n    msg.sender.transfer(refundAmount);\n\n    lockedTokenBalances[msg.sender] = 0;\n    \n    Refund(msg.sender, refundAmount);\n    return true;\n  }\n\n\n  /**\n   * Private fucntions.\n   */\n\n\n  /**\n   * @dev modify tap num. \n   * @param newTap       The withdrawal limit for project owner tap = (wei / sec).\n   */\n\n  function modifyTap(uint256 newTap) internal returns (bool) {\n    withdraw();\n    tap = newTap;\n    ModifiedTap(tap);\n    return true;\n  }\n\n  /**\n   * Defined fucntions of RICO's PoD architecture. \n   */\n\n  /**\n   * @dev Called by fallback function. (dependent PoD architecture).\n   * Assumed that this contract received ether re-directly from other contract based on PoD\n   */\n\n  function processDonate(address _user) internal returns (bool) {\n    require(_user != 0x0);\n    return true;\n  }\n\n  \n  /**\n   * @dev get reserved token balances of _user. inherits PoD architecture. (Not used).\n   */\n  function getBalanceOfToken(address _user) public constant returns (uint256) {\n    require(_user != 0x0);\n    return 0;\n  }\n}\n",
  "sourcePath": "/Users/sengayusaku/repo/RICO/contracts/PoDs/DaicoPoD.sol",
  "compiler": {
    "name": "solc",
    "version": "0.4.18+commit.9cf6e910.Emscripten.clang"
  },
  "schemaVersion": "1.0.1",
  "updatedAt": "2018-01-15T16:10:12.648Z"
}