{
  "contractName": "DutchAuctionPoD",
  "abi": [
    {
      "constant": true,
      "inputs": [],
      "name": "name",
      "outputs": [
        {
          "name": "",
          "type": "string"
        }
      ],
      "payable": false,
      "stateMutability": "view",
      "type": "function"
    },
    {
      "constant": true,
      "inputs": [
        {
          "name": "_user",
          "type": "address"
        }
      ],
      "name": "getBalanceOfWei",
      "outputs": [
        {
          "name": "",
          "type": "uint256"
        }
      ],
      "payable": false,
      "stateMutability": "view",
      "type": "function"
    },
    {
      "constant": false,
      "inputs": [
        {
          "name": "_user",
          "type": "address"
        }
      ],
      "name": "resetWeiBalance",
      "outputs": [
        {
          "name": "",
          "type": "bool"
        }
      ],
      "payable": false,
      "stateMutability": "nonpayable",
      "type": "function"
    },
    {
      "constant": true,
      "inputs": [],
      "name": "priceStart",
      "outputs": [
        {
          "name": "",
          "type": "uint256"
        }
      ],
      "payable": false,
      "stateMutability": "view",
      "type": "function"
    },
    {
      "constant": true,
      "inputs": [],
      "name": "status",
      "outputs": [
        {
          "name": "",
          "type": "uint8"
        }
      ],
      "payable": false,
      "stateMutability": "view",
      "type": "function"
    },
    {
      "constant": false,
      "inputs": [
        {
          "name": "_tokenDecimals",
          "type": "uint8"
        },
        {
          "name": "_priceStart",
          "type": "uint256"
        },
        {
          "name": "_priceConstant",
          "type": "uint256"
        },
        {
          "name": "_priceExponent",
          "type": "uint32"
        },
        {
          "name": "_capOfToken",
          "type": "uint256"
        }
      ],
      "name": "setConfig",
      "outputs": [
        {
          "name": "",
          "type": "bool"
        }
      ],
      "payable": false,
      "stateMutability": "nonpayable",
      "type": "function"
    },
    {
      "constant": true,
      "inputs": [],
      "name": "getEndTime",
      "outputs": [
        {
          "name": "",
          "type": "uint256"
        }
      ],
      "payable": false,
      "stateMutability": "view",
      "type": "function"
    },
    {
      "constant": true,
      "inputs": [],
      "name": "getTokenPrice",
      "outputs": [
        {
          "name": "",
          "type": "uint256"
        }
      ],
      "payable": false,
      "stateMutability": "view",
      "type": "function"
    },
    {
      "constant": true,
      "inputs": [],
      "name": "wallet",
      "outputs": [
        {
          "name": "",
          "type": "address"
        }
      ],
      "payable": false,
      "stateMutability": "view",
      "type": "function"
    },
    {
      "constant": true,
      "inputs": [],
      "name": "priceConstant",
      "outputs": [
        {
          "name": "",
          "type": "uint256"
        }
      ],
      "payable": false,
      "stateMutability": "view",
      "type": "function"
    },
    {
      "constant": true,
      "inputs": [],
      "name": "version",
      "outputs": [
        {
          "name": "",
          "type": "string"
        }
      ],
      "payable": false,
      "stateMutability": "view",
      "type": "function"
    },
    {
      "constant": true,
      "inputs": [],
      "name": "priceExponent",
      "outputs": [
        {
          "name": "",
          "type": "uint32"
        }
      ],
      "payable": false,
      "stateMutability": "view",
      "type": "function"
    },
    {
      "constant": true,
      "inputs": [],
      "name": "getCapOfWei",
      "outputs": [
        {
          "name": "",
          "type": "uint256"
        }
      ],
      "payable": false,
      "stateMutability": "view",
      "type": "function"
    },
    {
      "constant": true,
      "inputs": [],
      "name": "podType",
      "outputs": [
        {
          "name": "",
          "type": "uint256"
        }
      ],
      "payable": false,
      "stateMutability": "view",
      "type": "function"
    },
    {
      "constant": true,
      "inputs": [
        {
          "name": "_user",
          "type": "address"
        }
      ],
      "name": "getBalanceOfToken",
      "outputs": [
        {
          "name": "",
          "type": "uint256"
        }
      ],
      "payable": false,
      "stateMutability": "view",
      "type": "function"
    },
    {
      "constant": true,
      "inputs": [],
      "name": "owner",
      "outputs": [
        {
          "name": "",
          "type": "address"
        }
      ],
      "payable": false,
      "stateMutability": "view",
      "type": "function"
    },
    {
      "constant": true,
      "inputs": [],
      "name": "isPoDEnded",
      "outputs": [
        {
          "name": "",
          "type": "bool"
        }
      ],
      "payable": false,
      "stateMutability": "view",
      "type": "function"
    },
    {
      "constant": true,
      "inputs": [],
      "name": "getCapOfToken",
      "outputs": [
        {
          "name": "",
          "type": "uint256"
        }
      ],
      "payable": false,
      "stateMutability": "view",
      "type": "function"
    },
    {
      "constant": true,
      "inputs": [],
      "name": "isPoDStarted",
      "outputs": [
        {
          "name": "",
          "type": "bool"
        }
      ],
      "payable": false,
      "stateMutability": "view",
      "type": "function"
    },
    {
      "constant": true,
      "inputs": [],
      "name": "price",
      "outputs": [
        {
          "name": "",
          "type": "uint256"
        }
      ],
      "payable": false,
      "stateMutability": "view",
      "type": "function"
    },
    {
      "constant": true,
      "inputs": [],
      "name": "tokenMultiplier",
      "outputs": [
        {
          "name": "",
          "type": "uint256"
        }
      ],
      "payable": false,
      "stateMutability": "view",
      "type": "function"
    },
    {
      "constant": true,
      "inputs": [],
      "name": "missingFundsToEndAuction",
      "outputs": [
        {
          "name": "",
          "type": "uint256"
        }
      ],
      "payable": false,
      "stateMutability": "view",
      "type": "function"
    },
    {
      "constant": true,
      "inputs": [],
      "name": "getStartTime",
      "outputs": [
        {
          "name": "",
          "type": "uint256"
        }
      ],
      "payable": false,
      "stateMutability": "view",
      "type": "function"
    },
    {
      "constant": false,
      "inputs": [],
      "name": "donate",
      "outputs": [
        {
          "name": "",
          "type": "bool"
        }
      ],
      "payable": true,
      "stateMutability": "payable",
      "type": "function"
    },
    {
      "constant": false,
      "inputs": [
        {
          "name": "newOwner",
          "type": "address"
        }
      ],
      "name": "transferOwnership",
      "outputs": [],
      "payable": false,
      "stateMutability": "nonpayable",
      "type": "function"
    },
    {
      "constant": false,
      "inputs": [],
      "name": "finalizeAuction",
      "outputs": [],
      "payable": false,
      "stateMutability": "nonpayable",
      "type": "function"
    },
    {
      "inputs": [],
      "payable": false,
      "stateMutability": "nonpayable",
      "type": "constructor"
    },
    {
      "payable": true,
      "stateMutability": "payable",
      "type": "fallback"
    },
    {
      "anonymous": false,
      "inputs": [
        {
          "indexed": true,
          "name": "_startPrice",
          "type": "uint256"
        },
        {
          "indexed": true,
          "name": "_priceConstant",
          "type": "uint256"
        },
        {
          "indexed": true,
          "name": "_priceExponent",
          "type": "uint32"
        }
      ],
      "name": "Setup",
      "type": "event"
    },
    {
      "anonymous": false,
      "inputs": [
        {
          "indexed": true,
          "name": "_startTime",
          "type": "uint256"
        },
        {
          "indexed": true,
          "name": "_blockNumber",
          "type": "uint256"
        }
      ],
      "name": "AuctionStarted",
      "type": "event"
    },
    {
      "anonymous": false,
      "inputs": [
        {
          "indexed": true,
          "name": "_sender",
          "type": "address"
        },
        {
          "indexed": false,
          "name": "_amount",
          "type": "uint256"
        },
        {
          "indexed": false,
          "name": "_missingFunds",
          "type": "uint256"
        }
      ],
      "name": "BidSubmission",
      "type": "event"
    },
    {
      "anonymous": false,
      "inputs": [
        {
          "indexed": false,
          "name": "_finalPrice",
          "type": "uint256"
        }
      ],
      "name": "AuctionEnded",
      "type": "event"
    },
    {
      "anonymous": false,
      "inputs": [
        {
          "indexed": false,
          "name": "user",
          "type": "address"
        },
        {
          "indexed": false,
          "name": "amount",
          "type": "uint256"
        }
      ],
      "name": "Donated",
      "type": "event"
    },
    {
      "anonymous": false,
      "inputs": [
        {
          "indexed": false,
          "name": "wallet",
          "type": "address"
        }
      ],
      "name": "Initialized",
      "type": "event"
    },
    {
      "anonymous": false,
      "inputs": [
        {
          "indexed": false,
          "name": "time",
          "type": "uint256"
        }
      ],
      "name": "Started",
      "type": "event"
    },
    {
      "anonymous": false,
      "inputs": [
        {
          "indexed": false,
          "name": "time",
          "type": "uint256"
        }
      ],
      "name": "Ended",
      "type": "event"
    },
    {
      "anonymous": false,
      "inputs": [
        {
          "indexed": true,
          "name": "previousOwner",
          "type": "address"
        },
        {
          "indexed": true,
          "name": "newOwner",
          "type": "address"
        }
      ],
      "name": "OwnershipTransferred",
      "type": "event"
    }
  ],
  "bytecode": "0x606060405234156200001057600080fd5b336000806101000a81548173ffffffffffffffffffffffffffffffffffffffff021916908373ffffffffffffffffffffffffffffffffffffffff1602179055506000600c60006101000a81548160ff021916908360028111156200007057fe5b021790555060006008819055506040805190810160405280601981526020017f447574636841756374696f6e20737472617465677920506f440000000000000081525060019080519060200190620000ca9291906200011f565b506040805190810160405280600381526020017f302e31000000000000000000000000000000000000000000000000000000000081525060039080519060200190620001189291906200011f565b50620001ce565b828054600181600116156101000203166002900490600052602060002090601f016020900481019282601f106200016257805160ff191683800117855562000193565b8280016001018555821562000193579182015b828111156200019257825182559160200191906001019062000175565b5b509050620001a29190620001a6565b5090565b620001cb91905b80821115620001c7576000816000905550600101620001ad565b5090565b90565b6113ad80620001de6000396000f300606060405260043610610154576000357c0100000000000000000000000000000000000000000000000000000000900463ffffffff16806306fdde031461015f57806309fc93c1146101ed578063112ed3f51461023a578063173067a31461028b578063200d2ed2146102b457806325f3820e146102eb578063439f5ac2146103535780634b94f50e1461037c578063521eb273146103a5578063533e2526146103fa57806354fd4d5014610423578063624e1d19146104b15780636ccce7a8146104e65780636ec533a11461050f57806383786f8c146105385780638da5cb5b146105855780638f85f92c146105da57806397722acf146106075780639b3dfce014610630578063a035b1fe1461065d578063ba3f5a1214610686578063c5cd88db146106af578063c828371e146106d8578063ed88c68e14610701578063f2fde38b14610723578063f77282ab1461075c575b61015c610771565b50005b341561016a57600080fd5b610172610939565b6040518080602001828103825283818151815260200191508051906020019080838360005b838110156101b2578082015181840152602081019050610197565b50505050905090810190601f1680156101df5780820380516001836020036101000a031916815260200191505b509250505060405180910390f35b34156101f857600080fd5b610224600480803573ffffffffffffffffffffffffffffffffffffffff169060200190919050506109d7565b6040518082815260200191505060405180910390f35b341561024557600080fd5b610271600480803573ffffffffffffffffffffffffffffffffffffffff16906020019091905050610a20565b604051808215151515815260200191505060405180910390f35b341561029657600080fd5b61029e610afe565b6040518082815260200191505060405180910390f35b34156102bf57600080fd5b6102c7610b04565b604051808260028111156102d757fe5b60ff16815260200191505060405180910390f35b34156102f657600080fd5b610339600480803560ff1690602001909190803590602001909190803590602001909190803563ffffffff16906020019091908035906020019091905050610b17565b604051808215151515815260200191505060405180910390f35b341561035e57600080fd5b610366610c60565b6040518082815260200191505060405180910390f35b341561038757600080fd5b61038f610c6a565b6040518082815260200191505060405180910390f35b34156103b057600080fd5b6103b8610c74565b604051808273ffffffffffffffffffffffffffffffffffffffff1673ffffffffffffffffffffffffffffffffffffffff16815260200191505060405180910390f35b341561040557600080fd5b61040d610c9a565b6040518082815260200191505060405180910390f35b341561042e57600080fd5b610436610ca0565b6040518080602001828103825283818151815260200191508051906020019080838360005b8381101561047657808201518184015260208101905061045b565b50505050905090810190601f1680156104a35780820380516001836020036101000a031916815260200191505b509250505060405180910390f35b34156104bc57600080fd5b6104c4610d3e565b604051808263ffffffff1663ffffffff16815260200191505060405180910390f35b34156104f157600080fd5b6104f9610d54565b6040518082815260200191505060405180910390f35b341561051a57600080fd5b610522610d5e565b6040518082815260200191505060405180910390f35b341561054357600080fd5b61056f600480803573ffffffffffffffffffffffffffffffffffffffff16906020019091905050610d64565b6040518082815260200191505060405180910390f35b341561059057600080fd5b610598610dc3565b604051808273ffffffffffffffffffffffffffffffffffffffff1673ffffffffffffffffffffffffffffffffffffffff16815260200191505060405180910390f35b34156105e557600080fd5b6105ed610de8565b604051808215151515815260200191505060405180910390f35b341561061257600080fd5b61061a610e28565b6040518082815260200191505060405180910390f35b341561063b57600080fd5b610643610e32565b604051808215151515815260200191505060405180910390f35b341561066857600080fd5b610670610e73565b6040518082815260200191505060405180910390f35b341561069157600080fd5b610699610eb9565b6040518082815260200191505060405180910390f35b34156106ba57600080fd5b6106c2610ebf565b6040518082815260200191505060405180910390f35b34156106e357600080fd5b6106eb610efd565b6040518082815260200191505060405180910390f35b610709610771565b604051808215151515815260200191505060405180910390f35b341561072e57600080fd5b61075a600480803573ffffffffffffffffffffffffffffffffffffffff16906020019091905050610f07565b005b341561076757600080fd5b61076f61105c565b005b60006001600281111561078057fe5b600c60009054906101000a900460ff16600281111561079b57fe5b1415156107a757600080fd5b60055442101515156107b857600080fd5b6412a05f20003a111515156107cc57600080fd5b6107d53361113c565b151561084057426006819055506002600c60006101000a81548160ff0219169083600281111561080157fe5b02179055507f601095663bda08ac0f932087ef2eb08e42e4bcd1927f3a8d9500f6ad2c5aef906006546040518082815260200191505060405180910390a15b610855346008546112df90919063ffffffff16565b60088190555060003411156108c757600460009054906101000a900473ffffffffffffffffffffffffffffffffffffffff1673ffffffffffffffffffffffffffffffffffffffff166108fc349081150290604051600060405180830381858888f1935050505015156108c657600080fd5b5b7f2a01595cddf097c90216094025db714da3f4e5bd8877b56ba86a24ecead8e5433334604051808373ffffffffffffffffffffffffffffffffffffffff1673ffffffffffffffffffffffffffffffffffffffff1681526020018281526020019250505060405180910390a16001905090565b60018054600181600116156101000203166002900480601f0160208091040260200160405190810160405280929190818152602001828054600181600116156101000203166002900480156109cf5780601f106109a4576101008083540402835291602001916109cf565b820191906000526020600020905b8154815290600101906020018083116109b257829003601f168201915b505050505081565b6000600b60008373ffffffffffffffffffffffffffffffffffffffff1673ffffffffffffffffffffffffffffffffffffffff168152602001908152602001600020549050919050565b60008060009054906101000a900473ffffffffffffffffffffffffffffffffffffffff1673ffffffffffffffffffffffffffffffffffffffff163373ffffffffffffffffffffffffffffffffffffffff16141515610a7d57600080fd5b600280811115610a8957fe5b600c60009054906101000a900460ff166002811115610aa457fe5b141515610ab057600080fd5b6000600b60008473ffffffffffffffffffffffffffffffffffffffff1673ffffffffffffffffffffffffffffffffffffffff1681526020019081526020016000208190555060019050919050565b600d5481565b600c60009054906101000a900460ff1681565b60008060009054906101000a900473ffffffffffffffffffffffffffffffffffffffff1673ffffffffffffffffffffffffffffffffffffffff163373ffffffffffffffffffffffffffffffffffffffff16141515610b7457600080fd5b6000806002811115610b8257fe5b600c60009054906101000a900460ff166002811115610b9d57fe5b141515610ba957600080fd5b60008760ff1614151515610bbc57600080fd5b600086111515610bcb57600080fd5b600085111515610bda57600080fd5b8660ff16600a0a60108190555085600d8190555084600e8190555083600f60006101000a81548163ffffffff021916908363ffffffff160217905550826011819055508363ffffffff1685877faa9c446bf9d81a4cadd0511e53a9b49a7391402b523dcec61d7272141929458960405160405180910390a4600191505095945050505050565b6000600654905090565b6000600754905090565b600460009054906101000a900473ffffffffffffffffffffffffffffffffffffffff1681565b600e5481565b60038054600181600116156101000203166002900480601f016020809104026020016040519081016040528092919081815260200182805460018160011615610100020316600290048015610d365780601f10610d0b57610100808354040283529160200191610d36565b820191906000526020600020905b815481529060010190602001808311610d1957829003601f168201915b505050505081565b600f60009054906101000a900463ffffffff1681565b6000600a54905090565b60025481565b600080600754600b60008573ffffffffffffffffffffffffffffffffffffffff1673ffffffffffffffffffffffffffffffffffffffff1681526020019081526020016000205460105402811515610db757fe5b04905080915050919050565b6000809054906101000a900473ffffffffffffffffffffffffffffffffffffffff1681565b6000600280811115610df657fe5b600c60009054906101000a900460ff166002811115610e1157fe5b1415610e205760019050610e25565b600090505b90565b6000600954905090565b600060016002811115610e4157fe5b600c60009054906101000a900460ff166002811115610e5c57fe5b1415610e6b5760019050610e70565b600090505b90565b6000600280811115610e8157fe5b600c60009054906101000a900460ff166002811115610e9c57fe5b1415610eab5760009050610eb6565b610eb36112fd565b90505b90565b60105481565b600080601054610ecd610e73565b60115402811515610eda57fe5b04905060085481111515610ef15760009150610ef9565b600854810391505b5090565b6000600554905090565b6000809054906101000a900473ffffffffffffffffffffffffffffffffffffffff1673ffffffffffffffffffffffffffffffffffffffff163373ffffffffffffffffffffffffffffffffffffffff16141515610f6257600080fd5b600073ffffffffffffffffffffffffffffffffffffffff168173ffffffffffffffffffffffffffffffffffffffff1614151515610f9e57600080fd5b8073ffffffffffffffffffffffffffffffffffffffff166000809054906101000a900473ffffffffffffffffffffffffffffffffffffffff1673ffffffffffffffffffffffffffffffffffffffff167f8be0079c531659141344cd1fd0a4f28419497f9722a3daafe3b4186f6b6457e060405160405180910390a3806000806101000a81548173ffffffffffffffffffffffffffffffffffffffff021916908373ffffffffffffffffffffffffffffffffffffffff16021790555050565b6000600180600281111561106c57fe5b600c60009054906101000a900460ff16600281111561108757fe5b14151561109357600080fd5b61109b610ebf565b91506000821415156110ac57600080fd5b601154600854601054028115156110bf57fe5b04600781905550426006819055507f45806e512b1f4f10e33e8b3cb64d1d11d998d8c554a95e0841fc1c701278bd5d6007546040518082815260200191505060405180910390a16002600c60006101000a81548160ff0219169083600281111561112557fe5b0217905550600060075411151561113857fe5b5050565b60008060003411151561114e57600080fd5b60008373ffffffffffffffffffffffffffffffffffffffff161415151561117457600080fd5b346111c734600b60008773ffffffffffffffffffffffffffffffffffffffff1673ffffffffffffffffffffffffffffffffffffffff168152602001908152602001600020546112df90919063ffffffff16565b101515156111d157fe5b6111d9610ebf565b90508034111515156111ea57600080fd5b61123c34600b60008673ffffffffffffffffffffffffffffffffffffffff1673ffffffffffffffffffffffffffffffffffffffff168152602001908152602001600020546112df90919063ffffffff16565b600b60008573ffffffffffffffffffffffffffffffffffffffff1673ffffffffffffffffffffffffffffffffffffffff168152602001908152602001600020819055503373ffffffffffffffffffffffffffffffffffffffff167fc9c6176cbf7c0a8c29655fe8ccbe5e28382ca11459d145223308723bfc6975453483604051808381526020018281526020019250505060405180910390a26001915050919050565b60008082840190508381101515156112f357fe5b8091505092915050565b60008060006001600281111561130f57fe5b600c60009054906101000a900460ff16600281111561132a57fe5b141561133857600554420391505b600e54600f60009054906101000a900463ffffffff1663ffffffff16830a81151561135f57fe5b04905080826001010182600101600d540281151561137957fe5b0492505050905600a165627a7a7230582057fe7280c902dca699dea6b8a6b9e2935abd65cbc6297100d93cb35af55e8bb50029",
  "source": "pragma solidity ^0.4.18;\nimport \"../PoD.sol\";\n\n/// @title DutchAuctionPoD - DutchAuction module contract\n/// @author - Yusaku Senga - <senga@dri.network>\n/// license let's see in LICENSE\n\ncontract DutchAuctionPoD is PoD {\n\n  /*\n   * Storage\n   */\n\n  // Starting price in WEI; e.g. 2 * 10 ** 18\n  uint256 public priceStart;\n\n  // Divisor constant; e.g. 524880000\n  uint256 public priceConstant;\n  // Divisor exponent; e.g. 3\n  uint32 public priceExponent;\n  // Token tokenMultiplier; e.g. 18\n  uint256 public tokenMultiplier;\n\n  uint256 proofOfDonationCapOfToken;\n  uint256 proofOfDonationCapOfWei;\n  /*\n   * Modifiers\n   */\n  modifier atStatus(Status _status) {\n    require(status == _status);\n    _;\n  }\n\n  /*\n   * Events\n   */\n\n  event Setup(uint indexed _startPrice, uint indexed _priceConstant, uint32 indexed _priceExponent);\n  event AuctionStarted(uint indexed _startTime, uint indexed _blockNumber);\n  event BidSubmission(address indexed _sender, uint _amount, uint _missingFunds);\n  event AuctionEnded(uint _finalPrice);\n\n  /*\n   * Public functions\n   */\n\n  /// @dev Contract constructor function \n  function DutchAuctionPoD() public { \n    name = \"DutchAuction strategy PoD\";\n    version = \"0.1\";\n  }\n\n  function setConfig(\n    uint8 _tokenDecimals,\n    uint _priceStart,\n    uint _priceConstant,\n    uint32 _priceExponent,\n    uint256 _capOfToken\n  )\n  public onlyOwner() atStatus(Status.PoDDeployed) returns(bool)\n  {\n    require(_tokenDecimals != 0);\n    require(_priceStart > 0);\n    require(_priceConstant > 0);\n    tokenMultiplier = 10 ** uint256(_tokenDecimals);\n    priceStart = _priceStart;\n    priceConstant = _priceConstant;\n    priceExponent = _priceExponent;\n    proofOfDonationCapOfToken = _capOfToken;\n    Setup(_priceStart, _priceConstant, _priceExponent);\n    \n    return true;\n  }\n\n  /// --------------------------------- Auction Functions ------------------\n\n  /// @notice Finalize the auction - sets the final Token price and changes the auction\n  /// stage after no bids are allowed anymore.\n  /// @dev Finalize auction and set the final Token price.\n  function finalizeAuction() public atStatus(Status.PoDStarted) {\n    // Missing funds should be 0 at this point\n    uint missingFunds = missingFundsToEndAuction();\n    require(missingFunds == 0);\n\n    // Calculate the final price = WEI / Token\n    // Reminder: num_tokens_auctioned is the number of Rei (Token * token_multiplier) that are auctioned\n    tokenPrice = tokenMultiplier * totalReceivedWei / proofOfDonationCapOfToken;\n\n    endTime = now;\n\n    AuctionEnded(tokenPrice);\n\n    status = Status.PoDEnded;\n\n    assert(tokenPrice > 0);\n  }\n\n\n\n  /// @notice Get the Token price in WEI during the auction, at the time of\n  /// calling this function. Returns `0` if auction has ended.\n  /// Returns `price_start` before auction has started.\n  /// @dev Calculates the current Token price in WEI.\n  /// @return Returns WEI per Token (token_multiplier * Rei).\n  function price() public constant returns(uint) {\n    if (status == Status.PoDEnded) {\n      return 0;\n    }\n    return calcTokenPrice();\n  }\n\n  /// @notice Get the missing funds needed to end the auction,\n  /// calculated at the current Token price in WEI.\n  /// @dev The missing funds amount necessary to end the auction at the current Token price in WEI.\n  /// @return Returns the missing funds amount in WEI.\n  function missingFundsToEndAuction() public constant returns(uint) {\n\n    // num_tokens_auctioned = total number of Rei (Token * token_multiplier) that is auctioned\n    uint requiredWeiAtPrice = proofOfDonationCapOfToken * price() / tokenMultiplier;\n    if (requiredWeiAtPrice <= totalReceivedWei) {\n      return 0;\n    }\n\n    // assert(required_wei_at_price - received_wei > 0);\n    return requiredWeiAtPrice - totalReceivedWei;\n  }\n\n  /*\n   *  Private functions\n   */\n\n  /// @dev Calculates the token price (WEI / Token) at the current timestamp\n  /// during the auction; elapsed time = 0 before auction starts.\n  /// Based on the provided parameters, the price does not change in the first\n  /// `price_constant^(1/price_exponent)` seconds due to rounding.\n  /// Rounding in `decay_rate` also produces values that increase instead of decrease\n  /// in the beginning; these spikes decrease over time and are noticeable\n  /// only in first hours. This should be calculated before usage.\n  /// @return Returns the token price - Wei per Token.\n  function calcTokenPrice() constant private returns(uint) {\n    uint elapsed;\n    if (status == Status.PoDStarted) {\n      elapsed = now - startTime;\n    }\n\n    uint decayRate = elapsed ** priceExponent / priceConstant;\n    return priceStart * (1 + elapsed) / (1 + elapsed + decayRate);\n  }\n\n  /// Inherited functions\n\n\n  /// @notice Send `msg.value` WEI to the auction from the `msg.sender` account.\n  /// @dev Allows to send a bid to the auction.\n  function processDonate(address _user) internal returns (bool) {\n    require(msg.value > 0);\n    require(_user != 0x0);\n    assert(weiBalances[_user].add(msg.value) >= msg.value);\n\n    // Missing funds without the current bid value\n    uint missingFunds = missingFundsToEndAuction();\n\n    // We require bid values to be less than the funds missing to end the auction\n    // at the current price.\n    require(msg.value <= missingFunds);\n\n    weiBalances[_user] = weiBalances[_user].add(msg.value);\n\n    // Send bid amount to wallet\n    BidSubmission(msg.sender, msg.value, missingFunds);\n\n    //assert(totalReceivedWei >= msg.value);\n    return true;\n  }\n\n  function getBalanceOfToken(address _user) public constant returns(uint) {\n    \n    uint num = (tokenMultiplier * weiBalances[_user]) / tokenPrice;\n    return num;\n  }\n}\n",
  "sourcePath": "/Users/sengayusaku/repo/test/RICO/contracts/PoDs/DutchAuctionPoD.sol",
  "compiler": {
    "name": "solc",
    "version": "0.4.18+commit.9cf6e910.Emscripten.clang"
  },
  "schemaVersion": "1.0.1",
  "updatedAt": "2017-12-25T21:07:40.984Z"
}