{
  "contractName": "DutchAuctionPoD",
  "abi": [
    {
      "constant": true,
      "inputs": [],
      "name": "name",
      "outputs": [
        {
          "name": "",
          "type": "string"
        }
      ],
      "payable": false,
      "stateMutability": "view",
      "type": "function"
    },
    {
      "constant": true,
      "inputs": [
        {
          "name": "_user",
          "type": "address"
        }
      ],
      "name": "getBalanceOfWei",
      "outputs": [
        {
          "name": "",
          "type": "uint256"
        }
      ],
      "payable": false,
      "stateMutability": "view",
      "type": "function"
    },
    {
      "constant": false,
      "inputs": [
        {
          "name": "_user",
          "type": "address"
        }
      ],
      "name": "resetWeiBalance",
      "outputs": [
        {
          "name": "",
          "type": "bool"
        }
      ],
      "payable": false,
      "stateMutability": "nonpayable",
      "type": "function"
    },
    {
      "constant": true,
      "inputs": [],
      "name": "priceStart",
      "outputs": [
        {
          "name": "",
          "type": "uint256"
        }
      ],
      "payable": false,
      "stateMutability": "view",
      "type": "function"
    },
    {
      "constant": true,
      "inputs": [],
      "name": "status",
      "outputs": [
        {
          "name": "",
          "type": "uint8"
        }
      ],
      "payable": false,
      "stateMutability": "view",
      "type": "function"
    },
    {
      "constant": true,
      "inputs": [],
      "name": "getEndTime",
      "outputs": [
        {
          "name": "",
          "type": "uint256"
        }
      ],
      "payable": false,
      "stateMutability": "view",
      "type": "function"
    },
    {
      "constant": true,
      "inputs": [],
      "name": "getTokenPrice",
      "outputs": [
        {
          "name": "",
          "type": "uint256"
        }
      ],
      "payable": false,
      "stateMutability": "view",
      "type": "function"
    },
    {
      "constant": true,
      "inputs": [],
      "name": "wallet",
      "outputs": [
        {
          "name": "",
          "type": "address"
        }
      ],
      "payable": false,
      "stateMutability": "view",
      "type": "function"
    },
    {
      "constant": true,
      "inputs": [],
      "name": "priceConstant",
      "outputs": [
        {
          "name": "",
          "type": "uint256"
        }
      ],
      "payable": false,
      "stateMutability": "view",
      "type": "function"
    },
    {
      "constant": true,
      "inputs": [],
      "name": "version",
      "outputs": [
        {
          "name": "",
          "type": "string"
        }
      ],
      "payable": false,
      "stateMutability": "view",
      "type": "function"
    },
    {
      "constant": true,
      "inputs": [],
      "name": "priceExponent",
      "outputs": [
        {
          "name": "",
          "type": "uint32"
        }
      ],
      "payable": false,
      "stateMutability": "view",
      "type": "function"
    },
    {
      "constant": true,
      "inputs": [],
      "name": "getCapOfWei",
      "outputs": [
        {
          "name": "",
          "type": "uint256"
        }
      ],
      "payable": false,
      "stateMutability": "view",
      "type": "function"
    },
    {
      "constant": true,
      "inputs": [
        {
          "name": "_user",
          "type": "address"
        }
      ],
      "name": "getBalanceOfToken",
      "outputs": [
        {
          "name": "",
          "type": "uint256"
        }
      ],
      "payable": false,
      "stateMutability": "view",
      "type": "function"
    },
    {
      "constant": false,
      "inputs": [
        {
          "name": "_wallet",
          "type": "address"
        },
        {
          "name": "_tokenDecimals",
          "type": "uint8"
        },
        {
          "name": "_startTime",
          "type": "uint256"
        },
        {
          "name": "_priceStart",
          "type": "uint256"
        },
        {
          "name": "_priceConstant",
          "type": "uint256"
        },
        {
          "name": "_priceExponent",
          "type": "uint32"
        },
        {
          "name": "_capOfToken",
          "type": "uint256"
        }
      ],
      "name": "init",
      "outputs": [
        {
          "name": "",
          "type": "bool"
        }
      ],
      "payable": false,
      "stateMutability": "nonpayable",
      "type": "function"
    },
    {
      "constant": true,
      "inputs": [],
      "name": "owner",
      "outputs": [
        {
          "name": "",
          "type": "address"
        }
      ],
      "payable": false,
      "stateMutability": "view",
      "type": "function"
    },
    {
      "constant": true,
      "inputs": [],
      "name": "isPoDEnded",
      "outputs": [
        {
          "name": "",
          "type": "bool"
        }
      ],
      "payable": false,
      "stateMutability": "view",
      "type": "function"
    },
    {
      "constant": true,
      "inputs": [],
      "name": "getCapOfToken",
      "outputs": [
        {
          "name": "",
          "type": "uint256"
        }
      ],
      "payable": false,
      "stateMutability": "view",
      "type": "function"
    },
    {
      "constant": true,
      "inputs": [],
      "name": "isPoDStarted",
      "outputs": [
        {
          "name": "",
          "type": "bool"
        }
      ],
      "payable": false,
      "stateMutability": "view",
      "type": "function"
    },
    {
      "constant": true,
      "inputs": [],
      "name": "price",
      "outputs": [
        {
          "name": "",
          "type": "uint256"
        }
      ],
      "payable": false,
      "stateMutability": "view",
      "type": "function"
    },
    {
      "constant": true,
      "inputs": [],
      "name": "tokenMultiplier",
      "outputs": [
        {
          "name": "",
          "type": "uint256"
        }
      ],
      "payable": false,
      "stateMutability": "view",
      "type": "function"
    },
    {
      "constant": true,
      "inputs": [],
      "name": "missingFundsToEndAuction",
      "outputs": [
        {
          "name": "",
          "type": "uint256"
        }
      ],
      "payable": false,
      "stateMutability": "view",
      "type": "function"
    },
    {
      "constant": true,
      "inputs": [],
      "name": "getStartTime",
      "outputs": [
        {
          "name": "",
          "type": "uint256"
        }
      ],
      "payable": false,
      "stateMutability": "view",
      "type": "function"
    },
    {
      "constant": false,
      "inputs": [],
      "name": "donate",
      "outputs": [
        {
          "name": "",
          "type": "bool"
        }
      ],
      "payable": true,
      "stateMutability": "payable",
      "type": "function"
    },
    {
      "constant": false,
      "inputs": [
        {
          "name": "newOwner",
          "type": "address"
        }
      ],
      "name": "transferOwnership",
      "outputs": [],
      "payable": false,
      "stateMutability": "nonpayable",
      "type": "function"
    },
    {
      "constant": false,
      "inputs": [],
      "name": "finalizeAuction",
      "outputs": [],
      "payable": false,
      "stateMutability": "nonpayable",
      "type": "function"
    },
    {
      "inputs": [],
      "payable": false,
      "stateMutability": "nonpayable",
      "type": "constructor"
    },
    {
      "payable": true,
      "stateMutability": "payable",
      "type": "fallback"
    },
    {
      "anonymous": false,
      "inputs": [
        {
          "indexed": true,
          "name": "_startPrice",
          "type": "uint256"
        },
        {
          "indexed": true,
          "name": "_priceConstant",
          "type": "uint256"
        },
        {
          "indexed": true,
          "name": "_priceExponent",
          "type": "uint32"
        }
      ],
      "name": "Setup",
      "type": "event"
    },
    {
      "anonymous": false,
      "inputs": [
        {
          "indexed": true,
          "name": "_startTime",
          "type": "uint256"
        },
        {
          "indexed": true,
          "name": "_blockNumber",
          "type": "uint256"
        }
      ],
      "name": "AuctionStarted",
      "type": "event"
    },
    {
      "anonymous": false,
      "inputs": [
        {
          "indexed": true,
          "name": "_sender",
          "type": "address"
        },
        {
          "indexed": false,
          "name": "_amount",
          "type": "uint256"
        },
        {
          "indexed": false,
          "name": "_missingFunds",
          "type": "uint256"
        }
      ],
      "name": "BidSubmission",
      "type": "event"
    },
    {
      "anonymous": false,
      "inputs": [
        {
          "indexed": false,
          "name": "_finalPrice",
          "type": "uint256"
        }
      ],
      "name": "AuctionEnded",
      "type": "event"
    },
    {
      "anonymous": false,
      "inputs": [
        {
          "indexed": false,
          "name": "user",
          "type": "address"
        },
        {
          "indexed": false,
          "name": "amount",
          "type": "uint256"
        }
      ],
      "name": "Donated",
      "type": "event"
    },
    {
      "anonymous": false,
      "inputs": [
        {
          "indexed": false,
          "name": "time",
          "type": "uint256"
        }
      ],
      "name": "Ended",
      "type": "event"
    },
    {
      "anonymous": false,
      "inputs": [
        {
          "indexed": true,
          "name": "previousOwner",
          "type": "address"
        },
        {
          "indexed": true,
          "name": "newOwner",
          "type": "address"
        }
      ],
      "name": "OwnershipTransferred",
      "type": "event"
    }
  ],
  "bytecode": "0x606060405234156200001057600080fd5b336000806101000a81548173ffffffffffffffffffffffffffffffffffffffff021916908373ffffffffffffffffffffffffffffffffffffffff1602179055506000600b60006101000a81548160ff021916908360028111156200007057fe5b0217905550600060078190555033600360006101000a81548173ffffffffffffffffffffffffffffffffffffffff021916908373ffffffffffffffffffffffffffffffffffffffff1602179055506040805190810160405280601981526020017f447574636841756374696f6e20737472617465677920506f4400000000000000815250600190805190602001906200010b92919062000160565b506040805190810160405280600581526020017f302e392e33000000000000000000000000000000000000000000000000000000815250600290805190602001906200015992919062000160565b506200020f565b828054600181600116156101000203166002900490600052602060002090601f016020900481019282601f10620001a357805160ff1916838001178555620001d4565b82800160010185558215620001d4579182015b82811115620001d3578251825591602001919060010190620001b6565b5b509050620001e39190620001e7565b5090565b6200020c91905b8082111562000208576000816000905550600101620001ee565b5090565b90565b611333806200021f6000396000f300606060405260043610610149576000357c0100000000000000000000000000000000000000000000000000000000900463ffffffff16806306fdde031461015457806309fc93c1146101e2578063112ed3f51461022f578063173067a314610280578063200d2ed2146102a9578063439f5ac2146102e05780634b94f50e14610309578063521eb27314610332578063533e25261461038757806354fd4d50146103b0578063624e1d191461043e5780636ccce7a81461047357806383786f8c1461049c5780638c73596c146104e95780638da5cb5b146105795780638f85f92c146105ce57806397722acf146105fb5780639b3dfce014610624578063a035b1fe14610651578063ba3f5a121461067a578063c5cd88db146106a3578063c828371e146106cc578063ed88c68e146106f5578063f2fde38b14610717578063f77282ab14610750575b610151610765565b50005b341561015f57600080fd5b6101676108d0565b6040518080602001828103825283818151815260200191508051906020019080838360005b838110156101a757808201518184015260208101905061018c565b50505050905090810190601f1680156101d45780820380516001836020036101000a031916815260200191505b509250505060405180910390f35b34156101ed57600080fd5b610219600480803573ffffffffffffffffffffffffffffffffffffffff1690602001909190505061096e565b6040518082815260200191505060405180910390f35b341561023a57600080fd5b610266600480803573ffffffffffffffffffffffffffffffffffffffff169060200190919050506109b7565b604051808215151515815260200191505060405180910390f35b341561028b57600080fd5b610293610a95565b6040518082815260200191505060405180910390f35b34156102b457600080fd5b6102bc610a9b565b604051808260028111156102cc57fe5b60ff16815260200191505060405180910390f35b34156102eb57600080fd5b6102f3610aae565b6040518082815260200191505060405180910390f35b341561031457600080fd5b61031c610ab8565b6040518082815260200191505060405180910390f35b341561033d57600080fd5b610345610ac2565b604051808273ffffffffffffffffffffffffffffffffffffffff1673ffffffffffffffffffffffffffffffffffffffff16815260200191505060405180910390f35b341561039257600080fd5b61039a610ae8565b6040518082815260200191505060405180910390f35b34156103bb57600080fd5b6103c3610aee565b6040518080602001828103825283818151815260200191508051906020019080838360005b838110156104035780820151818401526020810190506103e8565b50505050905090810190601f1680156104305780820380516001836020036101000a031916815260200191505b509250505060405180910390f35b341561044957600080fd5b610451610b8c565b604051808263ffffffff1663ffffffff16815260200191505060405180910390f35b341561047e57600080fd5b610486610ba2565b6040518082815260200191505060405180910390f35b34156104a757600080fd5b6104d3600480803573ffffffffffffffffffffffffffffffffffffffff16906020019091905050610bac565b6040518082815260200191505060405180910390f35b34156104f457600080fd5b61055f600480803573ffffffffffffffffffffffffffffffffffffffff1690602001909190803560ff1690602001909190803590602001909190803590602001909190803590602001909190803563ffffffff16906020019091908035906020019091905050610c0b565b604051808215151515815260200191505060405180910390f35b341561058457600080fd5b61058c610de8565b604051808273ffffffffffffffffffffffffffffffffffffffff1673ffffffffffffffffffffffffffffffffffffffff16815260200191505060405180910390f35b34156105d957600080fd5b6105e1610e0d565b604051808215151515815260200191505060405180910390f35b341561060657600080fd5b61060e610e4d565b6040518082815260200191505060405180910390f35b341561062f57600080fd5b610637610e57565b604051808215151515815260200191505060405180910390f35b341561065c57600080fd5b610664610e98565b6040518082815260200191505060405180910390f35b341561068557600080fd5b61068d610ede565b6040518082815260200191505060405180910390f35b34156106ae57600080fd5b6106b6610ee4565b6040518082815260200191505060405180910390f35b34156106d757600080fd5b6106df610f22565b6040518082815260200191505060405180910390f35b6106fd610765565b604051808215151515815260200191505060405180910390f35b341561072257600080fd5b61074e600480803573ffffffffffffffffffffffffffffffffffffffff16906020019091905050610f2c565b005b341561075b57600080fd5b610763611081565b005b60006001600281111561077457fe5b600b60009054906101000a900460ff16600281111561078f57fe5b14151561079b57600080fd5b60045442101515156107ac57600080fd5b6412a05f20003a111515156107c057600080fd5b6000341115156107cf57600080fd5b6107d833611161565b151561084357426005819055506002600b60006101000a81548160ff0219169083600281111561080457fe5b02179055507f601095663bda08ac0f932087ef2eb08e42e4bcd1927f3a8d9500f6ad2c5aef906005546040518082815260200191505060405180910390a15b6108583460075461126590919063ffffffff16565b6007819055507f2a01595cddf097c90216094025db714da3f4e5bd8877b56ba86a24ecead8e5433334604051808373ffffffffffffffffffffffffffffffffffffffff1673ffffffffffffffffffffffffffffffffffffffff1681526020018281526020019250505060405180910390a16001905090565b60018054600181600116156101000203166002900480601f0160208091040260200160405190810160405280929190818152602001828054600181600116156101000203166002900480156109665780601f1061093b57610100808354040283529160200191610966565b820191906000526020600020905b81548152906001019060200180831161094957829003601f168201915b505050505081565b6000600a60008373ffffffffffffffffffffffffffffffffffffffff1673ffffffffffffffffffffffffffffffffffffffff168152602001908152602001600020549050919050565b60008060009054906101000a900473ffffffffffffffffffffffffffffffffffffffff1673ffffffffffffffffffffffffffffffffffffffff163373ffffffffffffffffffffffffffffffffffffffff16141515610a1457600080fd5b600280811115610a2057fe5b600b60009054906101000a900460ff166002811115610a3b57fe5b141515610a4757600080fd5b6000600a60008473ffffffffffffffffffffffffffffffffffffffff1673ffffffffffffffffffffffffffffffffffffffff1681526020019081526020016000208190555060019050919050565b600c5481565b600b60009054906101000a900460ff1681565b6000600554905090565b6000600654905090565b600360009054906101000a900473ffffffffffffffffffffffffffffffffffffffff1681565b600d5481565b60028054600181600116156101000203166002900480601f016020809104026020016040519081016040528092919081815260200182805460018160011615610100020316600290048015610b845780601f10610b5957610100808354040283529160200191610b84565b820191906000526020600020905b815481529060010190602001808311610b6757829003601f168201915b505050505081565b600e60009054906101000a900463ffffffff1681565b6000600954905090565b600080600654600a60008573ffffffffffffffffffffffffffffffffffffffff1673ffffffffffffffffffffffffffffffffffffffff16815260200190815260200160002054600f5402811515610bff57fe5b04905080915050919050565b60008060009054906101000a900473ffffffffffffffffffffffffffffffffffffffff1673ffffffffffffffffffffffffffffffffffffffff163373ffffffffffffffffffffffffffffffffffffffff16141515610c6857600080fd5b6000806002811115610c7657fe5b600b60009054906101000a900460ff166002811115610c9157fe5b141515610c9d57600080fd5b60008860ff1614151515610cb057600080fd5b600086111515610cbf57600080fd5b600085111515610cce57600080fd5b60008973ffffffffffffffffffffffffffffffffffffffff1614151515610cf457600080fd5b88600360006101000a81548173ffffffffffffffffffffffffffffffffffffffff021916908373ffffffffffffffffffffffffffffffffffffffff1602179055508760ff16600a0a600f819055508660048190555085600c8190555084600d8190555083600e60006101000a81548163ffffffff021916908363ffffffff160217905550826010819055506001600b60006101000a81548160ff02191690836002811115610d9e57fe5b02179055508363ffffffff1685877faa9c446bf9d81a4cadd0511e53a9b49a7391402b523dcec61d7272141929458960405160405180910390a46001915050979650505050505050565b6000809054906101000a900473ffffffffffffffffffffffffffffffffffffffff1681565b6000600280811115610e1b57fe5b600b60009054906101000a900460ff166002811115610e3657fe5b1415610e455760019050610e4a565b600090505b90565b6000600854905090565b600060016002811115610e6657fe5b600b60009054906101000a900460ff166002811115610e8157fe5b1415610e905760019050610e95565b600090505b90565b6000600280811115610ea657fe5b600b60009054906101000a900460ff166002811115610ec157fe5b1415610ed05760009050610edb565b610ed8611283565b90505b90565b600f5481565b600080600f54610ef2610e98565b60105402811515610eff57fe5b04905060075481111515610f165760009150610f1e565b600754810391505b5090565b6000600454905090565b6000809054906101000a900473ffffffffffffffffffffffffffffffffffffffff1673ffffffffffffffffffffffffffffffffffffffff163373ffffffffffffffffffffffffffffffffffffffff16141515610f8757600080fd5b600073ffffffffffffffffffffffffffffffffffffffff168173ffffffffffffffffffffffffffffffffffffffff1614151515610fc357600080fd5b8073ffffffffffffffffffffffffffffffffffffffff166000809054906101000a900473ffffffffffffffffffffffffffffffffffffffff1673ffffffffffffffffffffffffffffffffffffffff167f8be0079c531659141344cd1fd0a4f28419497f9722a3daafe3b4186f6b6457e060405160405180910390a3806000806101000a81548173ffffffffffffffffffffffffffffffffffffffff021916908373ffffffffffffffffffffffffffffffffffffffff16021790555050565b6000600180600281111561109157fe5b600b60009054906101000a900460ff1660028111156110ac57fe5b1415156110b857600080fd5b6110c0610ee4565b91506000821415156110d157600080fd5b601054600754600f54028115156110e457fe5b04600681905550426005819055507f45806e512b1f4f10e33e8b3cb64d1d11d998d8c554a95e0841fc1c701278bd5d6006546040518082815260200191505060405180910390a16002600b60006101000a81548160ff0219169083600281111561114a57fe5b0217905550600060065411151561115d57fe5b5050565b60008060008373ffffffffffffffffffffffffffffffffffffffff161415151561118a57600080fd5b611192610ee4565b90508034111515156111a357600080fd5b600360009054906101000a900473ffffffffffffffffffffffffffffffffffffffff1673ffffffffffffffffffffffffffffffffffffffff166108fc349081150290604051600060405180830381858888f19350505050151561120557600080fd5b3373ffffffffffffffffffffffffffffffffffffffff167fc9c6176cbf7c0a8c29655fe8ccbe5e28382ca11459d145223308723bfc6975453483604051808381526020018281526020019250505060405180910390a26001915050919050565b600080828401905083811015151561127957fe5b8091505092915050565b60008060006001600281111561129557fe5b600b60009054906101000a900460ff1660028111156112b057fe5b14156112be57600454420391505b600d54600e60009054906101000a900463ffffffff1663ffffffff16830a8115156112e557fe5b04905080826001010182600101600c54028115156112ff57fe5b0492505050905600a165627a7a72305820cce0d8c9d8328db88eb9ce254ad4e6fb184c45c92b0097f3facc6fc842b3946a0029",
  "source": "pragma solidity ^0.4.18;\nimport \"../PoD.sol\";\n\n/// @title DutchAuctionPoD - DutchAuction module contract\n/// @author - Yusaku Senga - <senga@dri.network>\n/// license - Please check the LICENSE at github.com/DRI-network/RICO\n\ncontract DutchAuctionPoD is PoD {\n\n  /*\n   * Storage\n   */\n\n  // Starting price in WEI; e.g. 2 * 10 ** 18\n  uint256 public priceStart;\n\n  // Divisor constant; e.g. 524880000\n  uint256 public priceConstant;\n  // Divisor exponent; e.g. 3\n  uint32 public priceExponent;\n  // Token tokenMultiplier; e.g. 18\n  uint256 public tokenMultiplier;\n\n  uint256 proofOfDonationCapOfToken;\n  uint256 proofOfDonationCapOfWei;\n  /*\n   * Modifiers\n   */\n  modifier atStatus(Status _status) {\n    require(status == _status);\n    _;\n  }\n\n  /*\n   * Events\n   */\n\n  event Setup(uint indexed _startPrice, uint indexed _priceConstant, uint32 indexed _priceExponent);\n  event AuctionStarted(uint indexed _startTime, uint indexed _blockNumber);\n  event BidSubmission(address indexed _sender, uint _amount, uint _missingFunds);\n  event AuctionEnded(uint _finalPrice);\n\n  /*\n   * Public functions\n   */\n\n  /// @dev Contract constructor function \n  function DutchAuctionPoD() public { \n    name = \"DutchAuction strategy PoD\";\n    version = \"0.9.3\";\n  }\n\n  function init(\n    address _wallet,\n    uint8 _tokenDecimals,\n    uint256 _startTime,\n    uint _priceStart,\n    uint _priceConstant,\n    uint32 _priceExponent,\n    uint256 _capOfToken\n  )\n  public onlyOwner() atStatus(Status.PoDDeployed) returns(bool)\n  {\n    require(_tokenDecimals != 0);\n    require(_priceStart > 0);\n    require(_priceConstant > 0);\n    require(_wallet != 0x0);\n    wallet = _wallet;\n    tokenMultiplier = 10 ** uint256(_tokenDecimals);\n    startTime = _startTime;\n    priceStart = _priceStart;\n    priceConstant = _priceConstant;\n    priceExponent = _priceExponent;\n    proofOfDonationCapOfToken = _capOfToken;\n    status = Status.PoDStarted;\n    Setup(_priceStart, _priceConstant, _priceExponent);\n    \n    return true;\n  }\n\n  /// --------------------------------- Auction Functions ------------------\n\n  /// @notice Finalize the auction - sets the final Token price and changes the auction\n  /// stage after no bids are allowed anymore.\n  /// @dev Finalize auction and set the final Token price.\n  function finalizeAuction() public atStatus(Status.PoDStarted) {\n    // Missing funds should be 0 at this point\n    uint missingFunds = missingFundsToEndAuction();\n    require(missingFunds == 0);\n\n    // Calculate the final price = WEI / Token\n    // Reminder: num_tokens_auctioned is the number of Rei (Token * token_multiplier) that are auctioned\n    tokenPrice = tokenMultiplier * totalReceivedWei / proofOfDonationCapOfToken;\n\n    endTime = now;\n\n    AuctionEnded(tokenPrice);\n\n    status = Status.PoDEnded;\n\n    assert(tokenPrice > 0);\n  }\n\n\n\n  /// @notice Get the Token price in WEI during the auction, at the time of\n  /// calling this function. Returns `0` if auction has ended.\n  /// Returns `price_start` before auction has started.\n  /// @dev Calculates the current Token price in WEI.\n  /// @return Returns WEI per Token (token_multiplier * Rei).\n  function price() public constant returns(uint) {\n    if (status == Status.PoDEnded) {\n      return 0;\n    }\n    return calcTokenPrice();\n  }\n\n  /// @notice Get the missing funds needed to end the auction,\n  /// calculated at the current Token price in WEI.\n  /// @dev The missing funds amount necessary to end the auction at the current Token price in WEI.\n  /// @return Returns the missing funds amount in WEI.\n  function missingFundsToEndAuction() public constant returns(uint) {\n\n    // num_tokens_auctioned = total number of Rei (Token * token_multiplier) that is auctioned\n    uint requiredWeiAtPrice = proofOfDonationCapOfToken * price() / tokenMultiplier;\n    if (requiredWeiAtPrice <= totalReceivedWei) {\n      return 0;\n    }\n\n    // assert(required_wei_at_price - received_wei > 0);\n    return requiredWeiAtPrice - totalReceivedWei;\n  }\n\n  /*\n   *  Private functions\n   */\n\n  /// @dev Calculates the token price (WEI / Token) at the current timestamp\n  /// during the auction; elapsed time = 0 before auction starts.\n  /// Based on the provided parameters, the price does not change in the first\n  /// `price_constant^(1/price_exponent)` seconds due to rounding.\n  /// Rounding in `decay_rate` also produces values that increase instead of decrease\n  /// in the beginning; these spikes decrease over time and are noticeable\n  /// only in first hours. This should be calculated before usage.\n  /// @return Returns the token price - Wei per Token.\n  function calcTokenPrice() constant private returns(uint) {\n    uint elapsed;\n    if (status == Status.PoDStarted) {\n      elapsed = now - startTime;\n    }\n\n    uint decayRate = elapsed ** priceExponent / priceConstant;\n    return priceStart * (1 + elapsed) / (1 + elapsed + decayRate);\n  }\n\n  /// Inherited functions\n\n\n  /// @notice Send `msg.value` WEI to the auction from the `msg.sender` account.\n  /// @dev Allows to send a bid to the auction.\n  function processDonate(address _user) internal returns (bool) {\n    require(_user != 0x0);\n    // Missing funds without the current bid value\n    uint missingFunds = missingFundsToEndAuction();\n\n    // We require bid values to be less than the funds missing to end the auction\n    // at the current price.\n    require(msg.value <= missingFunds);\n\n    // distribute ether to wallet.\n    wallet.transfer(msg.value);\n\n    // Send bid amount to wallet\n    BidSubmission(msg.sender, msg.value, missingFunds);\n\n    //assert(totalReceivedWei >= msg.value);\n    return true;\n  }\n\n  function getBalanceOfToken(address _user) public constant returns(uint) {\n    \n    uint num = (tokenMultiplier * weiBalances[_user]) / tokenPrice;\n    return num;\n  }\n}\n",
  "sourcePath": "/Users/lucaban/.ghq/github.com/DRI-network/RICO/contracts/PoDs/DutchAuctionPoD.sol",
  "compiler": {
    "name": "solc",
    "version": "0.4.18+commit.9cf6e910.Emscripten.clang"
  },
  "schemaVersion": "1.0.1",
  "updatedAt": "2018-03-07T05:10:52.558Z"
}