{
  "contractName": "Launcher",
  "abi": [
    {
      "constant": true,
      "inputs": [],
      "name": "name",
      "outputs": [
        {
          "name": "",
          "type": "string"
        }
      ],
      "payable": false,
      "stateMutability": "view",
      "type": "function"
    },
    {
      "constant": false,
      "inputs": [
        {
          "name": "_rico",
          "type": "address"
        },
        {
          "name": "_name",
          "type": "string"
        },
        {
          "name": "_symbol",
          "type": "string"
        },
        {
          "name": "_decimals",
          "type": "uint8"
        },
        {
          "name": "_mode",
          "type": "uint256"
        },
        {
          "name": "tobParams",
          "type": "uint256[]"
        },
        {
          "name": "podParams",
          "type": "uint256[]"
        },
        {
          "name": "_owners",
          "type": "address[2]"
        },
        {
          "name": "_marketMakers",
          "type": "address[]"
        }
      ],
      "name": "kickStart",
      "outputs": [],
      "payable": false,
      "stateMutability": "nonpayable",
      "type": "function"
    },
    {
      "constant": true,
      "inputs": [],
      "name": "version",
      "outputs": [
        {
          "name": "",
          "type": "string"
        }
      ],
      "payable": false,
      "stateMutability": "view",
      "type": "function"
    },
    {
      "inputs": [],
      "payable": false,
      "stateMutability": "nonpayable",
      "type": "constructor"
    }
  ],
  "bytecode": "0x60606040526040805190810160405280600d81526020017f5249434f204c61756e63686572000000000000000000000000000000000000008152506000908051906020019061004f9291906100ac565b506040805190810160405280600581526020017f302e392e320000000000000000000000000000000000000000000000000000008152506001908051906020019061009b9291906100ac565b5034156100a757600080fd5b610151565b828054600181600116156101000203166002900490600052602060002090601f016020900481019282601f106100ed57805160ff191683800117855561011b565b8280016001018555821561011b579182015b8281111561011a5782518255916020019190600101906100ff565b5b509050610128919061012c565b5090565b61014e91905b8082111561014a576000816000905550600101610132565b5090565b90565b613492806101606000396000f300606060405260043610610057576000357c0100000000000000000000000000000000000000000000000000000000900463ffffffff16806306fdde031461005c5780631d220574146100ea57806354fd4d50146102aa575b600080fd5b341561006757600080fd5b61006f610338565b6040518080602001828103825283818151815260200191508051906020019080838360005b838110156100af578082015181840152602081019050610094565b50505050905090810190601f1680156100dc5780820380516001836020036101000a031916815260200191505b509250505060405180910390f35b34156100f557600080fd5b6102a8600480803573ffffffffffffffffffffffffffffffffffffffff1690602001909190803590602001908201803590602001908080601f0160208091040260200160405190810160405280939291908181526020018383808284378201915050505050509190803590602001908201803590602001908080601f0160208091040260200160405190810160405280939291908181526020018383808284378201915050505050509190803560ff1690602001909190803590602001909190803590602001908201803590602001908080602002602001604051908101604052809392919081815260200183836020028082843782019150505050505091908035906020019082018035906020019080806020026020016040519081016040528093929190818152602001838360200280828437820191505050505050919080604001906002806020026040519081016040528092919082600260200280828437820191505050505091908035906020019082018035906020019080806020026020016040519081016040528093929190818152602001838360200280828437820191505050505050919050506103d6565b005b34156102b557600080fd5b6102bd610973565b6040518080602001828103825283818151815260200191508051906020019080838360005b838110156102fd5780820151818401526020810190506102e2565b50505050905090810190601f16801561032a5780820380516001836020036101000a031916815260200191505b509250505060405180910390f35b60008054600181600116156101000203166002900480601f0160208091040260200160405190810160405280929190818152602001828054600181600116156101000203166002900480156103ce5780601f106103a3576101008083540402835291602001916103ce565b820191906000526020600020905b8154815290600101906020018083116103b157829003601f168201915b505050505081565b6103de610a11565b6000806000808914156109645760026040518059106103fa5750595b90808252806020026020018201604052509350610415610a25565b604051809103906000f080151561042b57600080fd5b92508273ffffffffffffffffffffffffffffffffffffffff1663f231af1389600081518110151561045857fe5b906020019060200201518c8b600181518110151561047257fe5b906020019060200201518c600281518110151561048b57fe5b906020019060200201518b8b8f60038151811015156104a657fe5b906020019060200201516000604051602001526040518863ffffffff167c0100000000000000000000000000000000000000000000000000000000028152600401808881526020018760ff1660ff16815260200186815260200185815260200184600260200280838360005b8381101561052d578082015181840152602081019050610512565b5050505090500180602001838152602001828103825284818151815260200191508051906020019060200280838360005b8381101561057957808201518184015260208101905061055e565b5050505090500198505050505050505050602060405180830381600087803b15156105a357600080fd5b6102c65a03f115156105b457600080fd5b5050506040518051905050828460008151811015156105cf57fe5b9060200190602002019073ffffffffffffffffffffffffffffffffffffffff16908173ffffffffffffffffffffffffffffffffffffffff1681525050610613610a35565b604051809103906000f080151561062957600080fd5b91508173ffffffffffffffffffffffffffffffffffffffff1663c62095653389600081518110151561065757fe5b906020019060200201518d8b600181518110151561067157fe5b906020019060200201518c600281518110151561068a57fe5b906020019060200201516000604051602001526040518663ffffffff167c0100000000000000000000000000000000000000000000000000000000028152600401808673ffffffffffffffffffffffffffffffffffffffff1673ffffffffffffffffffffffffffffffffffffffff1681526020018581526020018460ff1660ff16815260200183815260200182815260200195505050505050602060405180830381600087803b151561073c57600080fd5b6102c65a03f1151561074d57600080fd5b50505060405180519050508184600181518110151561076857fe5b9060200190602002019073ffffffffffffffffffffffffffffffffffffffff16908173ffffffffffffffffffffffffffffffffffffffff16815250508c90508073ffffffffffffffffffffffffffffffffffffffff1663c65f0de78d8d8d886000604051602001526040518563ffffffff167c01000000000000000000000000000000000000000000000000000000000281526004018080602001806020018560ff1660ff16815260200180602001848103845288818151815260200191508051906020019080838360005b8381101561084f578082015181840152602081019050610834565b50505050905090810190601f16801561087c5780820380516001836020036101000a031916815260200191505b50848103835287818151815260200191508051906020019080838360005b838110156108b557808201518184015260208101905061089a565b50505050905090810190601f1680156108e25780820380516001836020036101000a031916815260200191505b50848103825285818151815260200191508051906020019060200280838360005b8381101561091e578082015181840152602081019050610903565b50505050905001975050505050505050602060405180830381600087803b151561094757600080fd5b6102c65a03f1151561095857600080fd5b50505060405180519050505b50505050505050505050505050565b60018054600181600116156101000203166002900480601f016020809104026020016040519081016040528092919081815260200182805460018160011615610100020316600290048015610a095780601f106109de57610100808354040283529160200191610a09565b820191906000526020600020905b8154815290600101906020018083116109ec57829003601f168201915b505050505081565b602060405190810160405280600081525090565b6040516117ac80610a4683390190565b604051611275806121f2833901905600606060405234156200001057600080fd5b336000806101000a81548173ffffffffffffffffffffffffffffffffffffffff021916908373ffffffffffffffffffffffffffffffffffffffff1602179055506000600c60006101000a81548160ff021916908360028111156200007057fe5b02179055506000600881905550606060405190810160405280603281526020017f5374616e64617264506f4420737472617465677920746f6b656e20707269636581526020017f203d20636170546f6b656e2f636170576569000000000000000000000000000081525060019080519060200190620000f19291906200014e565b506040805190810160405280600381526020017f302e310000000000000000000000000000000000000000000000000000000000815250600390805190602001906200013f9291906200014e565b50606e600281905550620001fd565b828054600181600116156101000203166002900490600052602060002090601f016020900481019282601f106200019157805160ff1916838001178555620001c2565b82800160010185558215620001c2579182015b82811115620001c1578251825591602001919060010190620001a4565b5b509050620001d19190620001d5565b5090565b620001fa91905b80821115620001f6576000816000905550600101620001dc565b5090565b90565b61159f806200020d6000396000f30060606040526004361061013e576000357c0100000000000000000000000000000000000000000000000000000000900463ffffffff16806306fdde031461014957806309fc93c1146101d7578063112ed3f514610224578063200d2ed214610275578063439f5ac2146102ac5780634b94f50e146102d5578063521eb273146102fe57806354fd4d50146103535780636ccce7a8146103e15780636ec533a11461040a5780637150d8ae1461043357806383786f8c146104885780638da5cb5b146104d55780638f85f92c1461052a57806397722acf146105575780639b3dfce014610580578063aa985a63146105ad578063ba3f5a12146105f1578063c828371e1461061a578063df7271bc14610643578063ea750d29146106a6578063ed88c68e146106cf578063f231af13146106f1578063f2fde38b146107bf575b6101466107f8565b50005b341561015457600080fd5b61015c6109c0565b6040518080602001828103825283818151815260200191508051906020019080838360005b8381101561019c578082015181840152602081019050610181565b50505050905090810190601f1680156101c95780820380516001836020036101000a031916815260200191505b509250505060405180910390f35b34156101e257600080fd5b61020e600480803573ffffffffffffffffffffffffffffffffffffffff16906020019091905050610a5e565b6040518082815260200191505060405180910390f35b341561022f57600080fd5b61025b600480803573ffffffffffffffffffffffffffffffffffffffff16906020019091905050610aa7565b604051808215151515815260200191505060405180910390f35b341561028057600080fd5b610288610b85565b6040518082600281111561029857fe5b60ff16815260200191505060405180910390f35b34156102b757600080fd5b6102bf610b98565b6040518082815260200191505060405180910390f35b34156102e057600080fd5b6102e8610ba2565b6040518082815260200191505060405180910390f35b341561030957600080fd5b610311610bac565b604051808273ffffffffffffffffffffffffffffffffffffffff1673ffffffffffffffffffffffffffffffffffffffff16815260200191505060405180910390f35b341561035e57600080fd5b610366610bd2565b6040518080602001828103825283818151815260200191508051906020019080838360005b838110156103a657808201518184015260208101905061038b565b50505050905090810190601f1680156103d35780820380516001836020036101000a031916815260200191505b509250505060405180910390f35b34156103ec57600080fd5b6103f4610c70565b6040518082815260200191505060405180910390f35b341561041557600080fd5b61041d610c7a565b6040518082815260200191505060405180910390f35b341561043e57600080fd5b610446610c80565b604051808273ffffffffffffffffffffffffffffffffffffffff1673ffffffffffffffffffffffffffffffffffffffff16815260200191505060405180910390f35b341561049357600080fd5b6104bf600480803573ffffffffffffffffffffffffffffffffffffffff16906020019091905050610ca6565b6040518082815260200191505060405180910390f35b34156104e057600080fd5b6104e8610dca565b604051808273ffffffffffffffffffffffffffffffffffffffff1673ffffffffffffffffffffffffffffffffffffffff16815260200191505060405180910390f35b341561053557600080fd5b61053d610def565b604051808215151515815260200191505060405180910390f35b341561056257600080fd5b61056a610e2f565b6040518082815260200191505060405180910390f35b341561058b57600080fd5b610593610e39565b604051808215151515815260200191505060405180910390f35b34156105b857600080fd5b6105d76004808035906020019091908035906020019091905050610e7a565b604051808215151515815260200191505060405180910390f35b34156105fc57600080fd5b610604610f82565b6040518082815260200191505060405180910390f35b341561062557600080fd5b61062d610f88565b6040518082815260200191505060405180910390f35b341561064e57600080fd5b6106646004808035906020019091905050610f92565b604051808273ffffffffffffffffffffffffffffffffffffffff1673ffffffffffffffffffffffffffffffffffffffff16815260200191505060405180910390f35b34156106b157600080fd5b6106b9610fd1565b6040518082815260200191505060405180910390f35b6106d76107f8565b604051808215151515815260200191505060405180910390f35b34156106fc57600080fd5b6107a5600480803590602001909190803560ff16906020019091908035906020019091908035906020019091908060400190600280602002604051908101604052809291908260026020028082843782019150505050509190803590602001908201803590602001908080602002602001604051908101604052809392919081815260200183836020028082843782019150505050505091908035906020019091905050610fd7565b604051808215151515815260200191505060405180910390f35b34156107ca57600080fd5b6107f6600480803573ffffffffffffffffffffffffffffffffffffffff169060200190919050506111e2565b005b60006001600281111561080757fe5b600c60009054906101000a900460ff16600281111561082257fe5b14151561082e57600080fd5b600554421015151561083f57600080fd5b6412a05f20003a1115151561085357600080fd5b61085c33611337565b15156108c757426006819055506002600c60006101000a81548160ff0219169083600281111561088857fe5b02179055507f601095663bda08ac0f932087ef2eb08e42e4bcd1927f3a8d9500f6ad2c5aef906006546040518082815260200191505060405180910390a15b6108dc3460085461146f90919063ffffffff16565b600881905550600034111561094e57600460009054906101000a900473ffffffffffffffffffffffffffffffffffffffff1673ffffffffffffffffffffffffffffffffffffffff166108fc349081150290604051600060405180830381858888f19350505050151561094d57600080fd5b5b7f2a01595cddf097c90216094025db714da3f4e5bd8877b56ba86a24ecead8e5433334604051808373ffffffffffffffffffffffffffffffffffffffff1673ffffffffffffffffffffffffffffffffffffffff1681526020018281526020019250505060405180910390a16001905090565b60018054600181600116156101000203166002900480601f016020809104026020016040519081016040528092919081815260200182805460018160011615610100020316600290048015610a565780601f10610a2b57610100808354040283529160200191610a56565b820191906000526020600020905b815481529060010190602001808311610a3957829003601f168201915b505050505081565b6000600b60008373ffffffffffffffffffffffffffffffffffffffff1673ffffffffffffffffffffffffffffffffffffffff168152602001908152602001600020549050919050565b60008060009054906101000a900473ffffffffffffffffffffffffffffffffffffffff1673ffffffffffffffffffffffffffffffffffffffff163373ffffffffffffffffffffffffffffffffffffffff16141515610b0457600080fd5b600280811115610b1057fe5b600c60009054906101000a900460ff166002811115610b2b57fe5b141515610b3757600080fd5b6000600b60008473ffffffffffffffffffffffffffffffffffffffff1673ffffffffffffffffffffffffffffffffffffffff1681526020019081526020016000208190555060019050919050565b600c60009054906101000a900460ff1681565b6000600654905090565b6000600754905090565b600460009054906101000a900473ffffffffffffffffffffffffffffffffffffffff1681565b60038054600181600116156101000203166002900480601f016020809104026020016040519081016040528092919081815260200182805460018160011615610100020316600290048015610c685780601f10610c3d57610100808354040283529160200191610c68565b820191906000526020600020905b815481529060010190602001808311610c4b57829003601f168201915b505050505081565b6000600a54905090565b60025481565b600c60019054906101000a900473ffffffffffffffffffffffffffffffffffffffff1681565b6000610cc062ed4e0060055461146f90919063ffffffff16565b421015610cd05760009050610dc5565b600c60019054906101000a900473ffffffffffffffffffffffffffffffffffffffff1673ffffffffffffffffffffffffffffffffffffffff168273ffffffffffffffffffffffffffffffffffffffff161415610d7e57600754600b60008473ffffffffffffffffffffffffffffffffffffffff1673ffffffffffffffffffffffffffffffffffffffff16815260200190815260200160002054600e5402811515610d7657fe5b049050610dc5565b600b60008373ffffffffffffffffffffffffffffffffffffffff1673ffffffffffffffffffffffffffffffffffffffff16815260200190815260200160002054600f540290505b919050565b6000809054906101000a900473ffffffffffffffffffffffffffffffffffffffff1681565b6000600280811115610dfd57fe5b600c60009054906101000a900460ff166002811115610e1857fe5b1415610e275760019050610e2c565b600090505b90565b6000600954905090565b600060016002811115610e4857fe5b600c60009054906101000a900460ff166002811115610e6357fe5b1415610e725760019050610e77565b600090505b90565b6000600c60019054906101000a900473ffffffffffffffffffffffffffffffffffffffff1673ffffffffffffffffffffffffffffffffffffffff163373ffffffffffffffffffffffffffffffffffffffff16141515610ed857600080fd5b3073ffffffffffffffffffffffffffffffffffffffff16318211151515610efe57600080fd5b600d83815481101515610f0d57fe5b906000526020600020900160009054906101000a900473ffffffffffffffffffffffffffffffffffffffff1673ffffffffffffffffffffffffffffffffffffffff166108fc839081150290604051600060405180830381858888f193505050501515610f7857600080fd5b6001905092915050565b600e5481565b6000600554905090565b600d81815481101515610fa157fe5b90600052602060002090016000915054906101000a900473ffffffffffffffffffffffffffffffffffffffff1681565b600f5481565b60008060009054906101000a900473ffffffffffffffffffffffffffffffffffffffff1673ffffffffffffffffffffffffffffffffffffffff163373ffffffffffffffffffffffffffffffffffffffff1614151561103457600080fd5b6000600281111561104157fe5b600c60009054906101000a900460ff16600281111561105c57fe5b14151561106857600080fd5b8760058190555030600460006101000a81548173ffffffffffffffffffffffffffffffffffffffff021916908373ffffffffffffffffffffffffffffffffffffffff16021790555082600d90805190602001906110c69291906114a6565b508660ff16600a0a600e819055508560098190555084600a81905550600954600a54600e54028115156110f557fe5b0460078190555083600060028110151561110b57fe5b6020020151600c60016101000a81548173ffffffffffffffffffffffffffffffffffffffff021916908373ffffffffffffffffffffffffffffffffffffffff1602179055506001600b600086600160028110151561116557fe5b602002015173ffffffffffffffffffffffffffffffffffffffff1673ffffffffffffffffffffffffffffffffffffffff1681526020019081526020016000208190555081600f819055506001600c60006101000a81548160ff021916908360028111156111ce57fe5b021790555060019050979650505050505050565b6000809054906101000a900473ffffffffffffffffffffffffffffffffffffffff1673ffffffffffffffffffffffffffffffffffffffff163373ffffffffffffffffffffffffffffffffffffffff1614151561123d57600080fd5b600073ffffffffffffffffffffffffffffffffffffffff168173ffffffffffffffffffffffffffffffffffffffff161415151561127957600080fd5b8073ffffffffffffffffffffffffffffffffffffffff166000809054906101000a900473ffffffffffffffffffffffffffffffffffffffff1673ffffffffffffffffffffffffffffffffffffffff167f8be0079c531659141344cd1fd0a4f28419497f9722a3daafe3b4186f6b6457e060405160405180910390a3806000806101000a81548173ffffffffffffffffffffffffffffffffffffffff021916908373ffffffffffffffffffffffffffffffffffffffff16021790555050565b600080600c60019054906101000a900473ffffffffffffffffffffffffffffffffffffffff1673ffffffffffffffffffffffffffffffffffffffff163373ffffffffffffffffffffffffffffffffffffffff1614151561139657600080fd5b6113ad600854600a5461148d90919063ffffffff16565b90508034111515156113be57600080fd5b61141034600b60008673ffffffffffffffffffffffffffffffffffffffff1673ffffffffffffffffffffffffffffffffffffffff1681526020019081526020016000205461146f90919063ffffffff16565b600b60008573ffffffffffffffffffffffffffffffffffffffff1673ffffffffffffffffffffffffffffffffffffffff16815260200190815260200160002081905550803414156114645760009150611469565b600191505b50919050565b600080828401905083811015151561148357fe5b8091505092915050565b600082821115151561149b57fe5b818303905092915050565b82805482825590600052602060002090810192821561151f579160200282015b8281111561151e5782518260006101000a81548173ffffffffffffffffffffffffffffffffffffffff021916908373ffffffffffffffffffffffffffffffffffffffff160217905550916020019190600101906114c6565b5b50905061152c9190611530565b5090565b61157091905b8082111561156c57600081816101000a81549073ffffffffffffffffffffffffffffffffffffffff021916905550600101611536565b5090565b905600a165627a7a723058203430fb20a4a93456ea36eebe7205f6feae3512ea8e8a9de53942978cd8d1ee930029606060405234156200001057600080fd5b336000806101000a81548173ffffffffffffffffffffffffffffffffffffffff021916908373ffffffffffffffffffffffffffffffffffffffff1602179055506000600c60006101000a81548160ff021916908360028111156200007057fe5b02179055506000600881905550606060405190810160405280603081526020017f53696d706c65506f4420737472617465677920746f6b656e207072696365203d81526020017f20636170546f6b656e2f6361705765690000000000000000000000000000000081525060019080519060200190620000f19291906200014e565b506040805190810160405280600381526020017f302e310000000000000000000000000000000000000000000000000000000000815250600390805190602001906200013f9291906200014e565b50606f600281905550620001fd565b828054600181600116156101000203166002900490600052602060002090601f016020900481019282601f106200019157805160ff1916838001178555620001c2565b82800160010185558215620001c2579182015b82811115620001c1578251825591602001919060010190620001a4565b5b509050620001d19190620001d5565b5090565b620001fa91905b80821115620001f6576000816000905550600101620001dc565b5090565b90565b611068806200020d6000396000f30060606040526004361061011d576000357c0100000000000000000000000000000000000000000000000000000000900463ffffffff16806306fdde031461012857806309fc93c1146101b6578063112ed3f514610203578063200d2ed214610254578063439f5ac21461028b5780634b94f50e146102b4578063521eb273146102dd57806354fd4d50146103325780636ccce7a8146103c05780636ec533a1146103e957806383786f8c146104125780638da5cb5b1461045f5780638f85f92c146104b457806397722acf146104e15780639b3dfce01461050a578063ba3f5a1214610537578063c620956514610560578063c828371e146105d8578063ed88c68e14610601578063ef78d4fd14610623578063f2fde38b1461064c575b610125610685565b50005b341561013357600080fd5b61013b61084d565b6040518080602001828103825283818151815260200191508051906020019080838360005b8381101561017b578082015181840152602081019050610160565b50505050905090810190601f1680156101a85780820380516001836020036101000a031916815260200191505b509250505060405180910390f35b34156101c157600080fd5b6101ed600480803573ffffffffffffffffffffffffffffffffffffffff169060200190919050506108eb565b6040518082815260200191505060405180910390f35b341561020e57600080fd5b61023a600480803573ffffffffffffffffffffffffffffffffffffffff16906020019091905050610934565b604051808215151515815260200191505060405180910390f35b341561025f57600080fd5b610267610a12565b6040518082600281111561027757fe5b60ff16815260200191505060405180910390f35b341561029657600080fd5b61029e610a25565b6040518082815260200191505060405180910390f35b34156102bf57600080fd5b6102c7610a2f565b6040518082815260200191505060405180910390f35b34156102e857600080fd5b6102f0610a39565b604051808273ffffffffffffffffffffffffffffffffffffffff1673ffffffffffffffffffffffffffffffffffffffff16815260200191505060405180910390f35b341561033d57600080fd5b610345610a5f565b6040518080602001828103825283818151815260200191508051906020019080838360005b8381101561038557808201518184015260208101905061036a565b50505050905090810190601f1680156103b25780820380516001836020036101000a031916815260200191505b509250505060405180910390f35b34156103cb57600080fd5b6103d3610afd565b6040518082815260200191505060405180910390f35b34156103f457600080fd5b6103fc610b07565b6040518082815260200191505060405180910390f35b341561041d57600080fd5b610449600480803573ffffffffffffffffffffffffffffffffffffffff16906020019091905050610b0d565b6040518082815260200191505060405180910390f35b341561046a57600080fd5b610472610b67565b604051808273ffffffffffffffffffffffffffffffffffffffff1673ffffffffffffffffffffffffffffffffffffffff16815260200191505060405180910390f35b34156104bf57600080fd5b6104c7610b8c565b604051808215151515815260200191505060405180910390f35b34156104ec57600080fd5b6104f4610bcc565b6040518082815260200191505060405180910390f35b341561051557600080fd5b61051d610bd6565b604051808215151515815260200191505060405180910390f35b341561054257600080fd5b61054a610c17565b6040518082815260200191505060405180910390f35b341561056b57600080fd5b6105be600480803573ffffffffffffffffffffffffffffffffffffffff1690602001909190803590602001909190803560ff16906020019091908035906020019091908035906020019091905050610c1d565b604051808215151515815260200191505060405180910390f35b34156105e357600080fd5b6105eb610dc4565b6040518082815260200191505060405180910390f35b610609610685565b604051808215151515815260200191505060405180910390f35b341561062e57600080fd5b610636610dce565b6040518082815260200191505060405180910390f35b341561065757600080fd5b610683600480803573ffffffffffffffffffffffffffffffffffffffff16906020019091905050610dd4565b005b60006001600281111561069457fe5b600c60009054906101000a900460ff1660028111156106af57fe5b1415156106bb57600080fd5b60055442101515156106cc57600080fd5b6412a05f20003a111515156106e057600080fd5b6106e933610f29565b151561075457426006819055506002600c60006101000a81548160ff0219169083600281111561071557fe5b02179055507f601095663bda08ac0f932087ef2eb08e42e4bcd1927f3a8d9500f6ad2c5aef906006546040518082815260200191505060405180910390a15b6107693460085461100590919063ffffffff16565b60088190555060003411156107db57600460009054906101000a900473ffffffffffffffffffffffffffffffffffffffff1673ffffffffffffffffffffffffffffffffffffffff166108fc349081150290604051600060405180830381858888f1935050505015156107da57600080fd5b5b7f2a01595cddf097c90216094025db714da3f4e5bd8877b56ba86a24ecead8e5433334604051808373ffffffffffffffffffffffffffffffffffffffff1673ffffffffffffffffffffffffffffffffffffffff1681526020018281526020019250505060405180910390a16001905090565b60018054600181600116156101000203166002900480601f0160208091040260200160405190810160405280929190818152602001828054600181600116156101000203166002900480156108e35780601f106108b8576101008083540402835291602001916108e3565b820191906000526020600020905b8154815290600101906020018083116108c657829003601f168201915b505050505081565b6000600b60008373ffffffffffffffffffffffffffffffffffffffff1673ffffffffffffffffffffffffffffffffffffffff168152602001908152602001600020549050919050565b60008060009054906101000a900473ffffffffffffffffffffffffffffffffffffffff1673ffffffffffffffffffffffffffffffffffffffff163373ffffffffffffffffffffffffffffffffffffffff1614151561099157600080fd5b60028081111561099d57fe5b600c60009054906101000a900460ff1660028111156109b857fe5b1415156109c457600080fd5b6000600b60008473ffffffffffffffffffffffffffffffffffffffff1673ffffffffffffffffffffffffffffffffffffffff1681526020019081526020016000208190555060019050919050565b600c60009054906101000a900460ff1681565b6000600654905090565b6000600754905090565b600460009054906101000a900473ffffffffffffffffffffffffffffffffffffffff1681565b60038054600181600116156101000203166002900480601f016020809104026020016040519081016040528092919081815260200182805460018160011615610100020316600290048015610af55780601f10610aca57610100808354040283529160200191610af5565b820191906000526020600020905b815481529060010190602001808311610ad857829003601f168201915b505050505081565b6000600a54905090565b60025481565b6000600754600b60008473ffffffffffffffffffffffffffffffffffffffff1673ffffffffffffffffffffffffffffffffffffffff16815260200190815260200160002054600d5402811515610b5f57fe5b049050919050565b6000809054906101000a900473ffffffffffffffffffffffffffffffffffffffff1681565b6000600280811115610b9a57fe5b600c60009054906101000a900460ff166002811115610bb557fe5b1415610bc45760019050610bc9565b600090505b90565b6000600954905090565b600060016002811115610be557fe5b600c60009054906101000a900460ff166002811115610c0057fe5b1415610c0f5760019050610c14565b600090505b90565b600d5481565b60008060009054906101000a900473ffffffffffffffffffffffffffffffffffffffff1673ffffffffffffffffffffffffffffffffffffffff163373ffffffffffffffffffffffffffffffffffffffff16141515610c7a57600080fd5b60006002811115610c8757fe5b600c60009054906101000a900460ff166002811115610ca257fe5b141515610cae57600080fd5b60008673ffffffffffffffffffffffffffffffffffffffff1614151515610cd457600080fd5b8460058190555085600460006101000a81548173ffffffffffffffffffffffffffffffffffffffff021916908373ffffffffffffffffffffffffffffffffffffffff1602179055508360ff16600a0a600d819055508260098190555081600a81905550600954600a54600d5402811515610d4a57fe5b0460078190555062093a80600e819055506001600c60006101000a81548160ff02191690836002811115610d7a57fe5b02179055507e6e0c97de781a7389d44ba8fd35d1467cabb17ed04d038d166d34ab819213f36005546040518082815260200191505060405180910390a16001905095945050505050565b6000600554905090565b600e5481565b6000809054906101000a900473ffffffffffffffffffffffffffffffffffffffff1673ffffffffffffffffffffffffffffffffffffffff163373ffffffffffffffffffffffffffffffffffffffff16141515610e2f57600080fd5b600073ffffffffffffffffffffffffffffffffffffffff168173ffffffffffffffffffffffffffffffffffffffff1614151515610e6b57600080fd5b8073ffffffffffffffffffffffffffffffffffffffff166000809054906101000a900473ffffffffffffffffffffffffffffffffffffffff1673ffffffffffffffffffffffffffffffffffffffff167f8be0079c531659141344cd1fd0a4f28419497f9722a3daafe3b4186f6b6457e060405160405180910390a3806000806101000a81548173ffffffffffffffffffffffffffffffffffffffff021916908373ffffffffffffffffffffffffffffffffffffffff16021790555050565b600080610f43600854600a5461102390919063ffffffff16565b9050803411151515610f5457600080fd5b610fa634600b60008673ffffffffffffffffffffffffffffffffffffffff1673ffffffffffffffffffffffffffffffffffffffff1681526020019081526020016000205461100590919063ffffffff16565b600b60008573ffffffffffffffffffffffffffffffffffffffff1673ffffffffffffffffffffffffffffffffffffffff1681526020019081526020016000208190555080341415610ffa5760009150610fff565b600191505b50919050565b600080828401905083811015151561101957fe5b8091505092915050565b600082821115151561103157fe5b8183039050929150505600a165627a7a723058204746b367d3fc55ec8b55bbd7377e4a963046ef971769be6ec9fad582cfdc22600029a165627a7a72305820b1af96276c6d2decc2e2348bdf0e2bf7cf0e17ecd863ecada9274ada36b43f7f0029",
  "source": "pragma solidity ^0.4.18;\n\nimport \"./PoDs/DutchAuctionPoD.sol\";\nimport \"./PoDs/SimplePoD.sol\";\nimport \"./PoDs/StandardPoD.sol\";\nimport \"./RICO.sol\";\n\n/// @title Launcher - RICO Launcher contract\n/// @author - Yusaku Senga - <senga@dri.network>\n/// license let's see in LICENSE\n/// @notice TokenRound chose a index for pod execute modes. \n/// 0. Attach ToB pod. podType == 101\n/// 1~ Attach Custom pod. podType == 111\n\ncontract Launcher {\n\n  /**\n   * Storage\n   */\n  string public name = \"RICO Launcher\";\n  string public version = \"0.9.2\";\n\n  /**\n   * constructor\n   * @dev define owner when this contract deployed.\n   */\n\n  function Launcher() public { }\n\n  /**\n   * @dev newToken token meta Data implement for ERC-20 Token Standard Format.\n   * @param _name         set Token name of RICO format.\n   * @param _symbol       set Token symbol of RICO format.\n   * @param _decimals     set Token decimals of RICO format.\n   */\n  function kickStart(\n    address _rico,\n    string _name, \n    string _symbol, \n    uint8 _decimals, \n    uint _mode,\n    uint256[] tobParams,\n    uint256[] podParams,\n    address[2] _owners,\n    address[] _marketMakers\n  ) \n  public \n  {\n    if (_mode == 0) {\n      address[] memory pods = new address[](2);\n      StandardPoD tob = new StandardPoD();\n      tob.init(tobParams[0], _decimals, tobParams[1], tobParams[2], _owners, _marketMakers, tobParams[3]);\n      pods[0] = address(tob);\n\n      SimplePoD pod = new SimplePoD();\n      pod.init(msg.sender, podParams[0], _decimals, podParams[1], podParams[2]);\n      pods[1] = address(pod);\n\n      RICO rico = RICO(_rico);\n      rico.newProject(_name, _symbol, _decimals, pods);\n    }\n  }\n}",
  "sourcePath": "/Users/sengayusaku/repo/test/RICO/contracts/Launcher.sol",
  "compiler": {
    "name": "solc",
    "version": "0.4.18+commit.9cf6e910.Emscripten.clang"
  },
  "schemaVersion": "1.0.1",
  "updatedAt": "2017-12-25T21:07:40.950Z"
}