{
  "contractName": "Launcher",
  "abi": [
    {
      "constant": true,
      "inputs": [],
      "name": "rico",
      "outputs": [
        {
          "name": "",
          "type": "address"
        }
      ],
      "payable": false,
      "stateMutability": "view",
      "type": "function"
    },
    {
      "constant": true,
      "inputs": [],
      "name": "name",
      "outputs": [
        {
          "name": "",
          "type": "string"
        }
      ],
      "payable": false,
      "stateMutability": "view",
      "type": "function"
    },
    {
      "constant": true,
      "inputs": [],
      "name": "version",
      "outputs": [
        {
          "name": "",
          "type": "string"
        }
      ],
      "payable": false,
      "stateMutability": "view",
      "type": "function"
    },
    {
      "constant": false,
      "inputs": [
        {
          "name": "_name",
          "type": "string"
        },
        {
          "name": "_symbol",
          "type": "string"
        },
        {
          "name": "_decimals",
          "type": "uint8"
        },
        {
          "name": "_wallet",
          "type": "address"
        },
        {
          "name": "_bidParams",
          "type": "uint256[]"
        },
        {
          "name": "_podParams",
          "type": "uint256[]"
        },
        {
          "name": "_owners",
          "type": "address[2]"
        },
        {
          "name": "_marketMakers",
          "type": "address[]"
        }
      ],
      "name": "standardICO",
      "outputs": [
        {
          "name": "",
          "type": "address"
        }
      ],
      "payable": false,
      "stateMutability": "nonpayable",
      "type": "function"
    },
    {
      "constant": true,
      "inputs": [],
      "name": "cm",
      "outputs": [
        {
          "name": "",
          "type": "address"
        }
      ],
      "payable": false,
      "stateMutability": "view",
      "type": "function"
    },
    {
      "constant": false,
      "inputs": [
        {
          "name": "_name",
          "type": "string"
        },
        {
          "name": "_symbol",
          "type": "string"
        },
        {
          "name": "_decimals",
          "type": "uint8"
        },
        {
          "name": "_wallet",
          "type": "address"
        },
        {
          "name": "_podParams",
          "type": "uint256[]"
        },
        {
          "name": "_mintParams",
          "type": "uint256[]"
        }
      ],
      "name": "simpleICO",
      "outputs": [
        {
          "name": "",
          "type": "address"
        }
      ],
      "payable": false,
      "stateMutability": "nonpayable",
      "type": "function"
    },
    {
      "constant": false,
      "inputs": [
        {
          "name": "_rico",
          "type": "address"
        },
        {
          "name": "_cm",
          "type": "address"
        }
      ],
      "name": "init",
      "outputs": [],
      "payable": false,
      "stateMutability": "nonpayable",
      "type": "function"
    },
    {
      "inputs": [],
      "payable": false,
      "stateMutability": "nonpayable",
      "type": "constructor"
    }
  ],
  "bytecode": "0x60606040526040805190810160405280600d81526020017f5249434f204c61756e63686572000000000000000000000000000000000000008152506000908051906020019062000051929190620000cd565b506040805190810160405280600581526020017f302e392e33000000000000000000000000000000000000000000000000000000815250600190805190602001906200009f929190620000cd565b506000600360146101000a81548160ff0219169083151502179055503415620000c757600080fd5b6200017c565b828054600181600116156101000203166002900490600052602060002090601f016020900481019282601f106200011057805160ff191683800117855562000141565b8280016001018555821562000141579182015b828111156200014057825182559160200191906001019062000123565b5b50905062000150919062000154565b5090565b6200017991905b80821115620001755760008160009055506001016200015b565b5090565b90565b612ce4806200018c6000396000f300606060405260043610610083576000357c0100000000000000000000000000000000000000000000000000000000900463ffffffff16806306029ec21461008857806306fdde03146100dd57806354fd4d501461016b5780638c6fc437146101f957806393181620146103f0578063a4b8457a14610445578063f09a4016146105d0575b600080fd5b341561009357600080fd5b61009b610628565b604051808273ffffffffffffffffffffffffffffffffffffffff1673ffffffffffffffffffffffffffffffffffffffff16815260200191505060405180910390f35b34156100e857600080fd5b6100f061064e565b6040518080602001828103825283818151815260200191508051906020019080838360005b83811015610130578082015181840152602081019050610115565b50505050905090810190601f16801561015d5780820380516001836020036101000a031916815260200191505b509250505060405180910390f35b341561017657600080fd5b61017e6106ec565b6040518080602001828103825283818151815260200191508051906020019080838360005b838110156101be5780820151818401526020810190506101a3565b50505050905090810190601f1680156101eb5780820380516001836020036101000a031916815260200191505b509250505060405180910390f35b341561020457600080fd5b6103ae600480803590602001908201803590602001908080601f0160208091040260200160405190810160405280939291908181526020018383808284378201915050505050509190803590602001908201803590602001908080601f0160208091040260200160405190810160405280939291908181526020018383808284378201915050505050509190803560ff1690602001909190803573ffffffffffffffffffffffffffffffffffffffff16906020019091908035906020019082018035906020019080806020026020016040519081016040528093929190818152602001838360200280828437820191505050505050919080359060200190820180359060200190808060200260200160405190810160405280939291908181526020018383602002808284378201915050505050509190806040019060028060200260405190810160405280929190826002602002808284378201915050505050919080359060200190820180359060200190808060200260200160405190810160405280939291908181526020018383602002808284378201915050505050509190505061078a565b604051808273ffffffffffffffffffffffffffffffffffffffff1673ffffffffffffffffffffffffffffffffffffffff16815260200191505060405180910390f35b34156103fb57600080fd5b610403610e88565b604051808273ffffffffffffffffffffffffffffffffffffffff1673ffffffffffffffffffffffffffffffffffffffff16815260200191505060405180910390f35b341561045057600080fd5b61058e600480803590602001908201803590602001908080601f0160208091040260200160405190810160405280939291908181526020018383808284378201915050505050509190803590602001908201803590602001908080601f0160208091040260200160405190810160405280939291908181526020018383808284378201915050505050509190803560ff1690602001909190803573ffffffffffffffffffffffffffffffffffffffff169060200190919080359060200190820180359060200190808060200260200160405190810160405280939291908181526020018383602002808284378201915050505050509190803590602001908201803590602001908080602002602001604051908101604052809392919081815260200183836020028082843782019150505050505091905050610eae565b604051808273ffffffffffffffffffffffffffffffffffffffff1673ffffffffffffffffffffffffffffffffffffffff16815260200191505060405180910390f35b34156105db57600080fd5b610626600480803573ffffffffffffffffffffffffffffffffffffffff1690602001909190803573ffffffffffffffffffffffffffffffffffffffff169060200190919050506114ba565b005b600260009054906101000a900473ffffffffffffffffffffffffffffffffffffffff1681565b60008054600181600116156101000203166002900480601f0160208091040260200160405190810160405280929190818152602001828054600181600116156101000203166002900480156106e45780601f106106b9576101008083540402835291602001916106e4565b820191906000526020600020905b8154815290600101906020018083116106c757829003601f168201915b505050505081565b60018054600181600116156101000203166002900480601f0160208091040260200160405190810160405280929190818152602001828054600181600116156101000203166002900480156107825780601f1061075757610100808354040283529160200191610782565b820191906000526020600020905b81548152906001019060200180831161076557829003601f168201915b505050505081565b6000610794611577565b600060026040518059106107a55750595b908082528060200260200182016040525091506107c061158b565b604051809103906000f08015156107d657600080fd5b90508073ffffffffffffffffffffffffffffffffffffffff166318deb0668a89600081518110151561080457fe5b906020019060200201518a600181518110151561081d57fe5b906020019060200201518b600281518110151561083657fe5b906020019060200201518a8a8e600381518110151561085157fe5b906020019060200201516000604051602001526040518863ffffffff167c0100000000000000000000000000000000000000000000000000000000028152600401808860ff1660ff16815260200187815260200186815260200185815260200184600260200280838360005b838110156108d85780820151818401526020810190506108bd565b5050505090500180602001838152602001828103825284818151815260200191508051906020019060200280838360005b83811015610924578082015181840152602081019050610909565b5050505090500198505050505050505050602060405180830381600087803b151561094e57600080fd5b6102c65a03f1151561095f57600080fd5b50505060405180519050508073ffffffffffffffffffffffffffffffffffffffff1663f2fde38b600260009054906101000a900473ffffffffffffffffffffffffffffffffffffffff166040518263ffffffff167c0100000000000000000000000000000000000000000000000000000000028152600401808273ffffffffffffffffffffffffffffffffffffffff1673ffffffffffffffffffffffffffffffffffffffff168152602001915050600060405180830381600087803b1515610a2657600080fd5b6102c65a03f11515610a3757600080fd5b50505080826000815181101515610a4a57fe5b9060200190602002019073ffffffffffffffffffffffffffffffffffffffff16908173ffffffffffffffffffffffffffffffffffffffff1681525050600360009054906101000a900473ffffffffffffffffffffffffffffffffffffffff1673ffffffffffffffffffffffffffffffffffffffff1663a07da887600260009054906101000a900473ffffffffffffffffffffffffffffffffffffffff1660008c8c8b6000604051602001526040518663ffffffff167c0100000000000000000000000000000000000000000000000000000000028152600401808673ffffffffffffffffffffffffffffffffffffffff1673ffffffffffffffffffffffffffffffffffffffff1681526020018581526020018460ff1660ff1681526020018373ffffffffffffffffffffffffffffffffffffffff1673ffffffffffffffffffffffffffffffffffffffff16815260200180602001828103825283818151815260200191508051906020019060200280838360005b83811015610bd9578082015181840152602081019050610bbe565b505050509050019650505050505050602060405180830381600087803b1515610c0157600080fd5b6102c65a03f11515610c1257600080fd5b50505060405180519050826001815181101515610c2b57fe5b9060200190602002019073ffffffffffffffffffffffffffffffffffffffff16908173ffffffffffffffffffffffffffffffffffffffff1681525050600260009054906101000a900473ffffffffffffffffffffffffffffffffffffffff1673ffffffffffffffffffffffffffffffffffffffff16631db4012d8c8c8c868d6000604051602001526040518663ffffffff167c01000000000000000000000000000000000000000000000000000000000281526004018080602001806020018660ff1660ff168152602001806020018573ffffffffffffffffffffffffffffffffffffffff1673ffffffffffffffffffffffffffffffffffffffff168152602001848103845289818151815260200191508051906020019080838360005b83811015610d64578082015181840152602081019050610d49565b50505050905090810190601f168015610d915780820380516001836020036101000a031916815260200191505b50848103835288818151815260200191508051906020019080838360005b83811015610dca578082015181840152602081019050610daf565b50505050905090810190601f168015610df75780820380516001836020036101000a031916815260200191505b50848103825286818151815260200191508051906020019060200280838360005b83811015610e33578082015181840152602081019050610e18565b5050505090500198505050505050505050602060405180830381600087803b1515610e5d57600080fd5b6102c65a03f11515610e6e57600080fd5b505050604051805190509250505098975050505050505050565b600360009054906101000a900473ffffffffffffffffffffffffffffffffffffffff1681565b6000610eb8611577565b6002604051805910610ec75750595b90808252806020026020018201604052509050600360009054906101000a900473ffffffffffffffffffffffffffffffffffffffff1673ffffffffffffffffffffffffffffffffffffffff1663a07da887600260009054906101000a900473ffffffffffffffffffffffffffffffffffffffff1660008989896000604051602001526040518663ffffffff167c0100000000000000000000000000000000000000000000000000000000028152600401808673ffffffffffffffffffffffffffffffffffffffff1673ffffffffffffffffffffffffffffffffffffffff1681526020018581526020018460ff1660ff1681526020018373ffffffffffffffffffffffffffffffffffffffff1673ffffffffffffffffffffffffffffffffffffffff16815260200180602001828103825283818151815260200191508051906020019060200280838360005b8381101561102d578082015181840152602081019050611012565b505050509050019650505050505050602060405180830381600087803b151561105557600080fd5b6102c65a03f1151561106657600080fd5b5050506040518051905081600081518110151561107f57fe5b9060200190602002019073ffffffffffffffffffffffffffffffffffffffff16908173ffffffffffffffffffffffffffffffffffffffff1681525050600360009054906101000a900473ffffffffffffffffffffffffffffffffffffffff1673ffffffffffffffffffffffffffffffffffffffff1663a07da887600260009054906101000a900473ffffffffffffffffffffffffffffffffffffffff1660018989886000604051602001526040518663ffffffff167c0100000000000000000000000000000000000000000000000000000000028152600401808673ffffffffffffffffffffffffffffffffffffffff1673ffffffffffffffffffffffffffffffffffffffff1681526020018581526020018460ff1660ff1681526020018373ffffffffffffffffffffffffffffffffffffffff1673ffffffffffffffffffffffffffffffffffffffff16815260200180602001828103825283818151815260200191508051906020019060200280838360005b8381101561120e5780820151818401526020810190506111f3565b505050509050019650505050505050602060405180830381600087803b151561123657600080fd5b6102c65a03f1151561124757600080fd5b5050506040518051905081600181518110151561126057fe5b9060200190602002019073ffffffffffffffffffffffffffffffffffffffff16908173ffffffffffffffffffffffffffffffffffffffff1681525050600260009054906101000a900473ffffffffffffffffffffffffffffffffffffffff1673ffffffffffffffffffffffffffffffffffffffff16631db4012d898989858a6000604051602001526040518663ffffffff167c01000000000000000000000000000000000000000000000000000000000281526004018080602001806020018660ff1660ff168152602001806020018573ffffffffffffffffffffffffffffffffffffffff1673ffffffffffffffffffffffffffffffffffffffff168152602001848103845289818151815260200191508051906020019080838360005b8381101561139957808201518184015260208101905061137e565b50505050905090810190601f1680156113c65780820380516001836020036101000a031916815260200191505b50848103835288818151815260200191508051906020019080838360005b838110156113ff5780820151818401526020810190506113e4565b50505050905090810190601f16801561142c5780820380516001836020036101000a031916815260200191505b50848103825286818151815260200191508051906020019060200280838360005b8381101561146857808201518184015260208101905061144d565b5050505090500198505050505050505050602060405180830381600087803b151561149257600080fd5b6102c65a03f115156114a357600080fd5b505050604051805190509150509695505050505050565b600360149054906101000a900460ff161515156114d657600080fd5b81600260006101000a81548173ffffffffffffffffffffffffffffffffffffffff021916908373ffffffffffffffffffffffffffffffffffffffff16021790555080600360006101000a81548173ffffffffffffffffffffffffffffffffffffffff021916908373ffffffffffffffffffffffffffffffffffffffff1602179055506001600360146101000a81548160ff0219169083151502179055505050565b602060405190810160405280600081525090565b60405161171c806200159d833901905600606060405234156200001057600080fd5b336000806101000a81548173ffffffffffffffffffffffffffffffffffffffff021916908373ffffffffffffffffffffffffffffffffffffffff1602179055506000600b60006101000a81548160ff021916908360028111156200007057fe5b0217905550600060078190555033600360006101000a81548173ffffffffffffffffffffffffffffffffffffffff021916908373ffffffffffffffffffffffffffffffffffffffff160217905550606060405190810160405280603181526020017f5374616e64617264506f4420737472617465677920746f6b656e50726963652081526020017f3d20636170546f6b656e2f636170576569000000000000000000000000000000815250600190805190602001906200013292919062000187565b506040805190810160405280600581526020017f302e392e33000000000000000000000000000000000000000000000000000000815250600290805190602001906200018092919062000187565b5062000236565b828054600181600116156101000203166002900490600052602060002090601f016020900481019282601f10620001ca57805160ff1916838001178555620001fb565b82800160010185558215620001fb579182015b82811115620001fa578251825591602001919060010190620001dd565b5b5090506200020a91906200020e565b5090565b6200023391905b808211156200022f57600081600090555060010162000215565b5090565b90565b6114d680620002466000396000f300606060405260043610610133576000357c0100000000000000000000000000000000000000000000000000000000900463ffffffff16806306fdde031461013e57806309fc93c1146101cc578063112ed3f51461021957806318deb0661461026a578063200d2ed214610338578063439f5ac21461036f5780634b94f50e14610398578063521eb273146103c157806354fd4d50146104165780636ccce7a8146104a45780637150d8ae146104cd57806383786f8c146105225780638da5cb5b1461056f5780638f85f92c146105c457806397722acf146105f15780639b3dfce01461061a578063aa985a6314610647578063ba3f5a121461068b578063c828371e146106b4578063df7271bc146106dd578063ea750d2914610740578063ed88c68e14610769578063f2fde38b1461078b575b61013b6107c4565b50005b341561014957600080fd5b61015161092f565b6040518080602001828103825283818151815260200191508051906020019080838360005b83811015610191578082015181840152602081019050610176565b50505050905090810190601f1680156101be5780820380516001836020036101000a031916815260200191505b509250505060405180910390f35b34156101d757600080fd5b610203600480803573ffffffffffffffffffffffffffffffffffffffff169060200190919050506109cd565b6040518082815260200191505060405180910390f35b341561022457600080fd5b610250600480803573ffffffffffffffffffffffffffffffffffffffff16906020019091905050610a16565b604051808215151515815260200191505060405180910390f35b341561027557600080fd5b61031e600480803560ff16906020019091908035906020019091908035906020019091908035906020019091908060400190600280602002604051908101604052809291908260026020028082843782019150505050509190803590602001908201803590602001908080602002602001604051908101604052809392919081815260200183836020028082843782019150505050505091908035906020019091905050610af4565b604051808215151515815260200191505060405180910390f35b341561034357600080fd5b61034b610ccd565b6040518082600281111561035b57fe5b60ff16815260200191505060405180910390f35b341561037a57600080fd5b610382610ce0565b6040518082815260200191505060405180910390f35b34156103a357600080fd5b6103ab610cea565b6040518082815260200191505060405180910390f35b34156103cc57600080fd5b6103d4610cf4565b604051808273ffffffffffffffffffffffffffffffffffffffff1673ffffffffffffffffffffffffffffffffffffffff16815260200191505060405180910390f35b341561042157600080fd5b610429610d1a565b6040518080602001828103825283818151815260200191508051906020019080838360005b8381101561046957808201518184015260208101905061044e565b50505050905090810190601f1680156104965780820380516001836020036101000a031916815260200191505b509250505060405180910390f35b34156104af57600080fd5b6104b7610db8565b6040518082815260200191505060405180910390f35b34156104d857600080fd5b6104e0610dc2565b604051808273ffffffffffffffffffffffffffffffffffffffff1673ffffffffffffffffffffffffffffffffffffffff16815260200191505060405180910390f35b341561052d57600080fd5b610559600480803573ffffffffffffffffffffffffffffffffffffffff16906020019091905050610de8565b6040518082815260200191505060405180910390f35b341561057a57600080fd5b610582610f0c565b604051808273ffffffffffffffffffffffffffffffffffffffff1673ffffffffffffffffffffffffffffffffffffffff16815260200191505060405180910390f35b34156105cf57600080fd5b6105d7610f31565b604051808215151515815260200191505060405180910390f35b34156105fc57600080fd5b610604610f71565b6040518082815260200191505060405180910390f35b341561062557600080fd5b61062d610f7b565b604051808215151515815260200191505060405180910390f35b341561065257600080fd5b6106716004808035906020019091908035906020019091905050610fbc565b604051808215151515815260200191505060405180910390f35b341561069657600080fd5b61069e6110c4565b6040518082815260200191505060405180910390f35b34156106bf57600080fd5b6106c76110ca565b6040518082815260200191505060405180910390f35b34156106e857600080fd5b6106fe60048080359060200190919050506110d4565b604051808273ffffffffffffffffffffffffffffffffffffffff1673ffffffffffffffffffffffffffffffffffffffff16815260200191505060405180910390f35b341561074b57600080fd5b610753611113565b6040518082815260200191505060405180910390f35b6107716107c4565b604051808215151515815260200191505060405180910390f35b341561079657600080fd5b6107c2600480803573ffffffffffffffffffffffffffffffffffffffff16906020019091905050611119565b005b6000600160028111156107d357fe5b600b60009054906101000a900460ff1660028111156107ee57fe5b1415156107fa57600080fd5b600454421015151561080b57600080fd5b6412a05f20003a1115151561081f57600080fd5b60003411151561082e57600080fd5b6108373361126e565b15156108a257426005819055506002600b60006101000a81548160ff0219169083600281111561086357fe5b02179055507f601095663bda08ac0f932087ef2eb08e42e4bcd1927f3a8d9500f6ad2c5aef906005546040518082815260200191505060405180910390a15b6108b7346007546113a690919063ffffffff16565b6007819055507f2a01595cddf097c90216094025db714da3f4e5bd8877b56ba86a24ecead8e5433334604051808373ffffffffffffffffffffffffffffffffffffffff1673ffffffffffffffffffffffffffffffffffffffff1681526020018281526020019250505060405180910390a16001905090565b60018054600181600116156101000203166002900480601f0160208091040260200160405190810160405280929190818152602001828054600181600116156101000203166002900480156109c55780601f1061099a576101008083540402835291602001916109c5565b820191906000526020600020905b8154815290600101906020018083116109a857829003601f168201915b505050505081565b6000600a60008373ffffffffffffffffffffffffffffffffffffffff1673ffffffffffffffffffffffffffffffffffffffff168152602001908152602001600020549050919050565b60008060009054906101000a900473ffffffffffffffffffffffffffffffffffffffff1673ffffffffffffffffffffffffffffffffffffffff163373ffffffffffffffffffffffffffffffffffffffff16141515610a7357600080fd5b600280811115610a7f57fe5b600b60009054906101000a900460ff166002811115610a9a57fe5b141515610aa657600080fd5b6000600a60008473ffffffffffffffffffffffffffffffffffffffff1673ffffffffffffffffffffffffffffffffffffffff1681526020019081526020016000208190555060019050919050565b60008060009054906101000a900473ffffffffffffffffffffffffffffffffffffffff1673ffffffffffffffffffffffffffffffffffffffff163373ffffffffffffffffffffffffffffffffffffffff16141515610b5157600080fd5b60006002811115610b5e57fe5b600b60009054906101000a900460ff166002811115610b7957fe5b141515610b8557600080fd5b428710151515610b9457600080fd5b8660048190555082600c9080519060200190610bb19291906113dd565b508760ff16600a0a600d819055508560088190555084600981905550600854600954600d5402811515610be057fe5b04600681905550836000600281101515610bf657fe5b6020020151600b60016101000a81548173ffffffffffffffffffffffffffffffffffffffff021916908373ffffffffffffffffffffffffffffffffffffffff1602179055506001600a6000866001600281101515610c5057fe5b602002015173ffffffffffffffffffffffffffffffffffffffff1673ffffffffffffffffffffffffffffffffffffffff1681526020019081526020016000208190555081600e819055506001600b60006101000a81548160ff02191690836002811115610cb957fe5b021790555060019050979650505050505050565b600b60009054906101000a900460ff1681565b6000600554905090565b6000600654905090565b600360009054906101000a900473ffffffffffffffffffffffffffffffffffffffff1681565b60028054600181600116156101000203166002900480601f016020809104026020016040519081016040528092919081815260200182805460018160011615610100020316600290048015610db05780601f10610d8557610100808354040283529160200191610db0565b820191906000526020600020905b815481529060010190602001808311610d9357829003601f168201915b505050505081565b6000600954905090565b600b60019054906101000a900473ffffffffffffffffffffffffffffffffffffffff1681565b6000610e0262ed4e006004546113a690919063ffffffff16565b421015610e125760009050610f07565b600b60019054906101000a900473ffffffffffffffffffffffffffffffffffffffff1673ffffffffffffffffffffffffffffffffffffffff168273ffffffffffffffffffffffffffffffffffffffff161415610ec057600654600a60008473ffffffffffffffffffffffffffffffffffffffff1673ffffffffffffffffffffffffffffffffffffffff16815260200190815260200160002054600d5402811515610eb857fe5b049050610f07565b600a60008373ffffffffffffffffffffffffffffffffffffffff1673ffffffffffffffffffffffffffffffffffffffff16815260200190815260200160002054600e540290505b919050565b6000809054906101000a900473ffffffffffffffffffffffffffffffffffffffff1681565b6000600280811115610f3f57fe5b600b60009054906101000a900460ff166002811115610f5a57fe5b1415610f695760019050610f6e565b600090505b90565b6000600854905090565b600060016002811115610f8a57fe5b600b60009054906101000a900460ff166002811115610fa557fe5b1415610fb45760019050610fb9565b600090505b90565b6000600b60019054906101000a900473ffffffffffffffffffffffffffffffffffffffff1673ffffffffffffffffffffffffffffffffffffffff163373ffffffffffffffffffffffffffffffffffffffff1614151561101a57600080fd5b3073ffffffffffffffffffffffffffffffffffffffff1631821115151561104057600080fd5b600c8381548110151561104f57fe5b906000526020600020900160009054906101000a900473ffffffffffffffffffffffffffffffffffffffff1673ffffffffffffffffffffffffffffffffffffffff166108fc839081150290604051600060405180830381858888f1935050505015156110ba57600080fd5b6001905092915050565b600d5481565b6000600454905090565b600c818154811015156110e357fe5b90600052602060002090016000915054906101000a900473ffffffffffffffffffffffffffffffffffffffff1681565b600e5481565b6000809054906101000a900473ffffffffffffffffffffffffffffffffffffffff1673ffffffffffffffffffffffffffffffffffffffff163373ffffffffffffffffffffffffffffffffffffffff1614151561117457600080fd5b600073ffffffffffffffffffffffffffffffffffffffff168173ffffffffffffffffffffffffffffffffffffffff16141515156111b057600080fd5b8073ffffffffffffffffffffffffffffffffffffffff166000809054906101000a900473ffffffffffffffffffffffffffffffffffffffff1673ffffffffffffffffffffffffffffffffffffffff167f8be0079c531659141344cd1fd0a4f28419497f9722a3daafe3b4186f6b6457e060405160405180910390a3806000806101000a81548173ffffffffffffffffffffffffffffffffffffffff021916908373ffffffffffffffffffffffffffffffffffffffff16021790555050565b600080600b60019054906101000a900473ffffffffffffffffffffffffffffffffffffffff1673ffffffffffffffffffffffffffffffffffffffff168373ffffffffffffffffffffffffffffffffffffffff161415156112cd57600080fd5b6112e46007546009546113c490919063ffffffff16565b90508034111515156112f557600080fd5b61134734600a60008673ffffffffffffffffffffffffffffffffffffffff1673ffffffffffffffffffffffffffffffffffffffff168152602001908152602001600020546113a690919063ffffffff16565b600a60008573ffffffffffffffffffffffffffffffffffffffff1673ffffffffffffffffffffffffffffffffffffffff168152602001908152602001600020819055508034141561139b57600091506113a0565b600191505b50919050565b60008082840190508381101515156113ba57fe5b8091505092915050565b60008282111515156113d257fe5b818303905092915050565b828054828255906000526020600020908101928215611456579160200282015b828111156114555782518260006101000a81548173ffffffffffffffffffffffffffffffffffffffff021916908373ffffffffffffffffffffffffffffffffffffffff160217905550916020019190600101906113fd565b5b5090506114639190611467565b5090565b6114a791905b808211156114a357600081816101000a81549073ffffffffffffffffffffffffffffffffffffffff02191690555060010161146d565b5090565b905600a165627a7a723058203347779edfc3a0f6305b461b9ad27f1a3b65f81a3de0b455a90fee8da7731d530029a165627a7a72305820e06e163e2b65dec70a67225f5e2beedb5ab0c529a1484b7616e05132f4b283bd0029",
  "source": "pragma solidity ^0.4.18;\n\nimport \"./ContractManager.sol\";\nimport \"./PoDs/RICOStandardPoD.sol\";\nimport \"./RICO.sol\";\n\n/// @title Launcher - RICO Launcher contract\n/// @author - Yusaku Senga - <senga@dri.network>\n/// license let's see in LICENSE\n\ncontract Launcher {\n\n  /**\n   * Storage\n   */\n  string public name = \"RICO Launcher\";\n  string public version = \"0.9.3\";\n  RICO public rico;\n  ContractManager public cm;\n  bool state = false;\n  /**\n   * constructor\n   * @dev define owner when this contract deployed.\n   */\n\n  function Launcher() public {}\n\n  /**\n   * @dev init rico contract.\n   * @param _rico         set rico address.\n   */\n  function init(address _rico, address _cm) public {\n    require(!state);\n    rico = RICO(_rico);\n    cm = ContractManager(_cm);\n    state = true;\n  }\n\n\n  /**\n   * @dev standardICO uses 2 pods RICOStandardPoD and SimplePoD.\n   * @param _name         Token name of RICO format.\n   * @param _symbol       Token symbol of RICO format.\n   * @param _decimals     Token decimals of RICO format.\n   * @param _wallet       Founder's multisigWallet.\n   * @param _bidParams    params of RICOStandardPoD pod.\n   * @param _podParams    params of SimplePoD pod.\n   * @param _owners       array of owners address, 0:bid executor, 1: founder.\n   * @param _marketMakers array of marketMakers address of project \n   */\n\n  function standardICO(\n    string _name, \n    string _symbol, \n    uint8 _decimals, \n    address _wallet,\n    uint256[] _bidParams,\n    uint256[] _podParams,\n    address[2] _owners,\n    address[] _marketMakers\n  ) \n  public returns (address)\n  {\n    address[] memory pods = new address[](2);\n\n    RICOStandardPoD rsp = new RICOStandardPoD();\n    rsp.init(_decimals, _bidParams[0], _bidParams[1], _bidParams[2], _owners, _marketMakers, _bidParams[3]);\n    rsp.transferOwnership(rico);\n\n    pods[0] = address(rsp);\n    pods[1] = cm.deploy(rico, 0, _decimals, _wallet, _podParams);\n\n    return rico.newProject(_name, _symbol, _decimals, pods, _wallet);\n  }\n\n\n  /**\n   * @dev simpleICO uses 2 pods SimplePoD and TokenMintPoD.\n   * @param _name         Token name of RICO format.\n   * @param _symbol       Token symbol of RICO format.\n   * @param _decimals     Token decimals of RICO format.\n   * @param _wallet       Founder's multisigWallet.\n   * @param _podParams    params of SimplePoD pod.\n   * @param _mintParams   params of TokenMintPoD pod.\n   */\n\n  function simpleICO(\n    string _name, \n    string _symbol, \n    uint8 _decimals, \n    address _wallet,\n    uint256[] _podParams,\n    uint256[] _mintParams\n  ) \n  public returns (address)\n  {\n    address[] memory pods = new address[](2);\n    pods[0] = cm.deploy(rico, 0, _decimals, _wallet, _podParams);\n    pods[1] = cm.deploy(rico, 1, _decimals, _wallet, _mintParams);\n\n    return rico.newProject(_name, _symbol, _decimals, pods, _wallet);\n\n  }\n}\n\n",
  "sourcePath": "/Users/sengayusaku/repo/RICO/contracts/Launcher.sol",
  "compiler": {
    "name": "solc",
    "version": "0.4.18+commit.9cf6e910.Emscripten.clang"
  },
  "schemaVersion": "1.0.1",
  "updatedAt": "2018-01-15T16:10:12.638Z"
}