{
  "contractName": "LimitedWalletPoD",
  "abi": [
    {
      "constant": true,
      "inputs": [],
      "name": "name",
      "outputs": [
        {
          "name": "",
          "type": "string"
        }
      ],
      "payable": false,
      "stateMutability": "view",
      "type": "function"
    },
    {
      "constant": true,
      "inputs": [
        {
          "name": "_user",
          "type": "address"
        }
      ],
      "name": "getBalanceOfWei",
      "outputs": [
        {
          "name": "",
          "type": "uint256"
        }
      ],
      "payable": false,
      "stateMutability": "view",
      "type": "function"
    },
    {
      "constant": false,
      "inputs": [
        {
          "name": "_user",
          "type": "address"
        }
      ],
      "name": "resetWeiBalance",
      "outputs": [
        {
          "name": "",
          "type": "bool"
        }
      ],
      "payable": false,
      "stateMutability": "nonpayable",
      "type": "function"
    },
    {
      "constant": true,
      "inputs": [],
      "name": "status",
      "outputs": [
        {
          "name": "",
          "type": "uint8"
        }
      ],
      "payable": false,
      "stateMutability": "view",
      "type": "function"
    },
    {
      "constant": true,
      "inputs": [],
      "name": "getEndTime",
      "outputs": [
        {
          "name": "",
          "type": "uint256"
        }
      ],
      "payable": false,
      "stateMutability": "view",
      "type": "function"
    },
    {
      "constant": true,
      "inputs": [],
      "name": "getTokenPrice",
      "outputs": [
        {
          "name": "",
          "type": "uint256"
        }
      ],
      "payable": false,
      "stateMutability": "view",
      "type": "function"
    },
    {
      "constant": true,
      "inputs": [],
      "name": "wallet",
      "outputs": [
        {
          "name": "",
          "type": "address"
        }
      ],
      "payable": false,
      "stateMutability": "view",
      "type": "function"
    },
    {
      "constant": true,
      "inputs": [],
      "name": "version",
      "outputs": [
        {
          "name": "",
          "type": "string"
        }
      ],
      "payable": false,
      "stateMutability": "view",
      "type": "function"
    },
    {
      "constant": true,
      "inputs": [],
      "name": "getCapOfWei",
      "outputs": [
        {
          "name": "",
          "type": "uint256"
        }
      ],
      "payable": false,
      "stateMutability": "view",
      "type": "function"
    },
    {
      "constant": true,
      "inputs": [],
      "name": "podType",
      "outputs": [
        {
          "name": "",
          "type": "uint256"
        }
      ],
      "payable": false,
      "stateMutability": "view",
      "type": "function"
    },
    {
      "constant": true,
      "inputs": [
        {
          "name": "_user",
          "type": "address"
        }
      ],
      "name": "getBalanceOfToken",
      "outputs": [
        {
          "name": "",
          "type": "uint256"
        }
      ],
      "payable": false,
      "stateMutability": "view",
      "type": "function"
    },
    {
      "constant": true,
      "inputs": [],
      "name": "owner",
      "outputs": [
        {
          "name": "",
          "type": "address"
        }
      ],
      "payable": false,
      "stateMutability": "view",
      "type": "function"
    },
    {
      "constant": true,
      "inputs": [],
      "name": "isPoDEnded",
      "outputs": [
        {
          "name": "",
          "type": "bool"
        }
      ],
      "payable": false,
      "stateMutability": "view",
      "type": "function"
    },
    {
      "constant": true,
      "inputs": [],
      "name": "getCapOfToken",
      "outputs": [
        {
          "name": "",
          "type": "uint256"
        }
      ],
      "payable": false,
      "stateMutability": "view",
      "type": "function"
    },
    {
      "constant": true,
      "inputs": [],
      "name": "isPoDStarted",
      "outputs": [
        {
          "name": "",
          "type": "bool"
        }
      ],
      "payable": false,
      "stateMutability": "view",
      "type": "function"
    },
    {
      "constant": true,
      "inputs": [
        {
          "name": "",
          "type": "address"
        },
        {
          "name": "",
          "type": "uint256"
        }
      ],
      "name": "wLimitWei",
      "outputs": [
        {
          "name": "",
          "type": "uint256"
        }
      ],
      "payable": false,
      "stateMutability": "view",
      "type": "function"
    },
    {
      "constant": true,
      "inputs": [],
      "name": "getStartTime",
      "outputs": [
        {
          "name": "",
          "type": "uint256"
        }
      ],
      "payable": false,
      "stateMutability": "view",
      "type": "function"
    },
    {
      "constant": false,
      "inputs": [],
      "name": "donate",
      "outputs": [
        {
          "name": "",
          "type": "bool"
        }
      ],
      "payable": true,
      "stateMutability": "payable",
      "type": "function"
    },
    {
      "constant": false,
      "inputs": [
        {
          "name": "_users",
          "type": "address[]"
        },
        {
          "name": "_limitWeis",
          "type": "uint256[]"
        },
        {
          "name": "_periods",
          "type": "uint256[]"
        }
      ],
      "name": "setConfig",
      "outputs": [
        {
          "name": "",
          "type": "bool"
        }
      ],
      "payable": false,
      "stateMutability": "nonpayable",
      "type": "function"
    },
    {
      "constant": false,
      "inputs": [
        {
          "name": "newOwner",
          "type": "address"
        }
      ],
      "name": "transferOwnership",
      "outputs": [],
      "payable": false,
      "stateMutability": "nonpayable",
      "type": "function"
    },
    {
      "constant": false,
      "inputs": [
        {
          "name": "_user",
          "type": "address"
        },
        {
          "name": "_amount",
          "type": "uint256"
        }
      ],
      "name": "withdraw",
      "outputs": [
        {
          "name": "",
          "type": "bool"
        }
      ],
      "payable": false,
      "stateMutability": "nonpayable",
      "type": "function"
    },
    {
      "inputs": [],
      "payable": false,
      "stateMutability": "nonpayable",
      "type": "constructor"
    },
    {
      "payable": true,
      "stateMutability": "payable",
      "type": "fallback"
    },
    {
      "anonymous": false,
      "inputs": [
        {
          "indexed": false,
          "name": "user",
          "type": "address"
        },
        {
          "indexed": false,
          "name": "amount",
          "type": "uint256"
        }
      ],
      "name": "Donated",
      "type": "event"
    },
    {
      "anonymous": false,
      "inputs": [
        {
          "indexed": false,
          "name": "wallet",
          "type": "address"
        }
      ],
      "name": "Initialized",
      "type": "event"
    },
    {
      "anonymous": false,
      "inputs": [
        {
          "indexed": false,
          "name": "time",
          "type": "uint256"
        }
      ],
      "name": "Started",
      "type": "event"
    },
    {
      "anonymous": false,
      "inputs": [
        {
          "indexed": false,
          "name": "time",
          "type": "uint256"
        }
      ],
      "name": "Ended",
      "type": "event"
    },
    {
      "anonymous": false,
      "inputs": [
        {
          "indexed": true,
          "name": "previousOwner",
          "type": "address"
        },
        {
          "indexed": true,
          "name": "newOwner",
          "type": "address"
        }
      ],
      "name": "OwnershipTransferred",
      "type": "event"
    }
  ],
  "bytecode": "0x606060405234156200001057600080fd5b336000806101000a81548173ffffffffffffffffffffffffffffffffffffffff021916908373ffffffffffffffffffffffffffffffffffffffff1602179055506000600c60006101000a81548160ff021916908360028111156200007057fe5b02179055506000600881905550608060405190810160405280604581526020017f4c696d6974656457616c6c6574506f44202d207468652077616c6c657420706f81526020017f64207769746820776964746864726177616c4c696d697420656163682061646481526020017f726573732e000000000000000000000000000000000000000000000000000000815250600190805190602001906200011792919062000174565b506040805190810160405280600381526020017f302e310000000000000000000000000000000000000000000000000000000000815250600390805190602001906200016592919062000174565b50606f60028190555062000223565b828054600181600116156101000203166002900490600052602060002090601f016020900481019282601f10620001b757805160ff1916838001178555620001e8565b82800160010185558215620001e8579182015b82811115620001e7578251825591602001919060010190620001ca565b5b509050620001f79190620001fb565b5090565b6200022091905b808211156200021c57600081600090555060010162000202565b5090565b90565b61118280620002336000396000f30060606040526004361061011d576000357c0100000000000000000000000000000000000000000000000000000000900463ffffffff16806306fdde031461012857806309fc93c1146101b6578063112ed3f514610203578063200d2ed214610254578063439f5ac21461028b5780634b94f50e146102b4578063521eb273146102dd57806354fd4d50146103325780636ccce7a8146103c05780636ec533a1146103e957806383786f8c146104125780638da5cb5b1461045f5780638f85f92c146104b457806397722acf146104e15780639b3dfce01461050a578063c606827514610537578063c828371e1461058d578063ed88c68e146105b6578063ee1370dc146105d8578063f2fde38b146106ca578063f3fef3a314610703575b61012561075d565b50005b341561013357600080fd5b61013b610925565b6040518080602001828103825283818151815260200191508051906020019080838360005b8381101561017b578082015181840152602081019050610160565b50505050905090810190601f1680156101a85780820380516001836020036101000a031916815260200191505b509250505060405180910390f35b34156101c157600080fd5b6101ed600480803573ffffffffffffffffffffffffffffffffffffffff169060200190919050506109c3565b6040518082815260200191505060405180910390f35b341561020e57600080fd5b61023a600480803573ffffffffffffffffffffffffffffffffffffffff16906020019091905050610a0c565b604051808215151515815260200191505060405180910390f35b341561025f57600080fd5b610267610aea565b6040518082600281111561027757fe5b60ff16815260200191505060405180910390f35b341561029657600080fd5b61029e610afd565b6040518082815260200191505060405180910390f35b34156102bf57600080fd5b6102c7610b07565b6040518082815260200191505060405180910390f35b34156102e857600080fd5b6102f0610b11565b604051808273ffffffffffffffffffffffffffffffffffffffff1673ffffffffffffffffffffffffffffffffffffffff16815260200191505060405180910390f35b341561033d57600080fd5b610345610b37565b6040518080602001828103825283818151815260200191508051906020019080838360005b8381101561038557808201518184015260208101905061036a565b50505050905090810190601f1680156103b25780820380516001836020036101000a031916815260200191505b509250505060405180910390f35b34156103cb57600080fd5b6103d3610bd5565b6040518082815260200191505060405180910390f35b34156103f457600080fd5b6103fc610bdf565b6040518082815260200191505060405180910390f35b341561041d57600080fd5b610449600480803573ffffffffffffffffffffffffffffffffffffffff16906020019091905050610be5565b6040518082815260200191505060405180910390f35b341561046a57600080fd5b610472610c12565b604051808273ffffffffffffffffffffffffffffffffffffffff1673ffffffffffffffffffffffffffffffffffffffff16815260200191505060405180910390f35b34156104bf57600080fd5b6104c7610c37565b604051808215151515815260200191505060405180910390f35b34156104ec57600080fd5b6104f4610c77565b6040518082815260200191505060405180910390f35b341561051557600080fd5b61051d610c81565b604051808215151515815260200191505060405180910390f35b341561054257600080fd5b610577600480803573ffffffffffffffffffffffffffffffffffffffff16906020019091908035906020019091905050610cc2565b6040518082815260200191505060405180910390f35b341561059857600080fd5b6105a0610ce7565b6040518082815260200191505060405180910390f35b6105be61075d565b604051808215151515815260200191505060405180910390f35b34156105e357600080fd5b6106b06004808035906020019082018035906020019080806020026020016040519081016040528093929190818152602001838360200280828437820191505050505050919080359060200190820180359060200190808060200260200160405190810160405280939291908181526020018383602002808284378201915050505050509190803590602001908201803590602001908080602002602001604051908101604052809392919081815260200183836020028082843782019150505050505091905050610cf1565b604051808215151515815260200191505060405180910390f35b34156106d557600080fd5b610701600480803573ffffffffffffffffffffffffffffffffffffffff16906020019091905050610e6d565b005b341561070e57600080fd5b610743600480803573ffffffffffffffffffffffffffffffffffffffff16906020019091908035906020019091905050610fc2565b604051808215151515815260200191505060405180910390f35b60006001600281111561076c57fe5b600c60009054906101000a900460ff16600281111561078757fe5b14151561079357600080fd5b60055442101515156107a457600080fd5b6412a05f20003a111515156107b857600080fd5b6107c13361110b565b151561082c57426006819055506002600c60006101000a81548160ff021916908360028111156107ed57fe5b02179055507f601095663bda08ac0f932087ef2eb08e42e4bcd1927f3a8d9500f6ad2c5aef906006546040518082815260200191505060405180910390a15b6108413460085461113890919063ffffffff16565b60088190555060003411156108b357600460009054906101000a900473ffffffffffffffffffffffffffffffffffffffff1673ffffffffffffffffffffffffffffffffffffffff166108fc349081150290604051600060405180830381858888f1935050505015156108b257600080fd5b5b7f2a01595cddf097c90216094025db714da3f4e5bd8877b56ba86a24ecead8e5433334604051808373ffffffffffffffffffffffffffffffffffffffff1673ffffffffffffffffffffffffffffffffffffffff1681526020018281526020019250505060405180910390a16001905090565b60018054600181600116156101000203166002900480601f0160208091040260200160405190810160405280929190818152602001828054600181600116156101000203166002900480156109bb5780601f10610990576101008083540402835291602001916109bb565b820191906000526020600020905b81548152906001019060200180831161099e57829003601f168201915b505050505081565b6000600b60008373ffffffffffffffffffffffffffffffffffffffff1673ffffffffffffffffffffffffffffffffffffffff168152602001908152602001600020549050919050565b60008060009054906101000a900473ffffffffffffffffffffffffffffffffffffffff1673ffffffffffffffffffffffffffffffffffffffff163373ffffffffffffffffffffffffffffffffffffffff16141515610a6957600080fd5b600280811115610a7557fe5b600c60009054906101000a900460ff166002811115610a9057fe5b141515610a9c57600080fd5b6000600b60008473ffffffffffffffffffffffffffffffffffffffff1673ffffffffffffffffffffffffffffffffffffffff1681526020019081526020016000208190555060019050919050565b600c60009054906101000a900460ff1681565b6000600654905090565b6000600754905090565b600460009054906101000a900473ffffffffffffffffffffffffffffffffffffffff1681565b60038054600181600116156101000203166002900480601f016020809104026020016040519081016040528092919081815260200182805460018160011615610100020316600290048015610bcd5780601f10610ba257610100808354040283529160200191610bcd565b820191906000526020600020905b815481529060010190602001808311610bb057829003601f168201915b505050505081565b6000600a54905090565b60025481565b6000808273ffffffffffffffffffffffffffffffffffffffff1614151515610c0957fe5b60009050919050565b6000809054906101000a900473ffffffffffffffffffffffffffffffffffffffff1681565b6000600280811115610c4557fe5b600c60009054906101000a900460ff166002811115610c6057fe5b1415610c6f5760019050610c74565b600090505b90565b6000600954905090565b600060016002811115610c9057fe5b600c60009054906101000a900460ff166002811115610cab57fe5b1415610cba5760019050610cbf565b600090505b90565b600d602052816000526040600020602052806000526040600020600091509150505481565b6000600554905090565b6000806000809054906101000a900473ffffffffffffffffffffffffffffffffffffffff1673ffffffffffffffffffffffffffffffffffffffff163373ffffffffffffffffffffffffffffffffffffffff16141515610d4f57600080fd5b60006002811115610d5c57fe5b600c60009054906101000a900460ff166002811115610d7757fe5b141515610d8357600080fd5b600090505b6001855103811015610e61578281815181101515610da257fe5b906020019060200201514211151515610dba57600080fd5b8281815181101515610dc857fe5b90602001906020020151600d60008784815181101515610de457fe5b9060200190602002015173ffffffffffffffffffffffffffffffffffffffff1673ffffffffffffffffffffffffffffffffffffffff16815260200190815260200160002060008684815181101515610e3857fe5b906020019060200201518152602001908152602001600020819055508080600101915050610d88565b60019150509392505050565b6000809054906101000a900473ffffffffffffffffffffffffffffffffffffffff1673ffffffffffffffffffffffffffffffffffffffff163373ffffffffffffffffffffffffffffffffffffffff16141515610ec857600080fd5b600073ffffffffffffffffffffffffffffffffffffffff168173ffffffffffffffffffffffffffffffffffffffff1614151515610f0457600080fd5b8073ffffffffffffffffffffffffffffffffffffffff166000809054906101000a900473ffffffffffffffffffffffffffffffffffffffff1673ffffffffffffffffffffffffffffffffffffffff167f8be0079c531659141344cd1fd0a4f28419497f9722a3daafe3b4186f6b6457e060405160405180910390a3806000806101000a81548173ffffffffffffffffffffffffffffffffffffffff021916908373ffffffffffffffffffffffffffffffffffffffff16021790555050565b60008042600d60008673ffffffffffffffffffffffffffffffffffffffff1673ffffffffffffffffffffffffffffffffffffffff1681526020019081526020016000206000858152602001908152602001600020541115151561102457600080fd5b60009050823073ffffffffffffffffffffffffffffffffffffffff16311015611066573073ffffffffffffffffffffffffffffffffffffffff1631905061106a565b8290505b8373ffffffffffffffffffffffffffffffffffffffff166108fc829081150290604051600060405180830381858888f1935050505015156110aa57600080fd5b6000600d60008673ffffffffffffffffffffffffffffffffffffffff1673ffffffffffffffffffffffffffffffffffffffff168152602001908152602001600020600085815260200190815260200160002081905550600191505092915050565b6000808273ffffffffffffffffffffffffffffffffffffffff161415151561112f57fe5b60019050919050565b600080828401905083811015151561114c57fe5b80915050929150505600a165627a7a72305820683b066cacee972c5f1e29a70b63042f282da1ced8509a4325ebe8bd01a9fdf00029",
  "source": "pragma solidity ^0.4.18;\nimport \"../PoD.sol\";\n\n/// @title LimitedWalletPoD - LimitedWalletPoD contract\n/// @author - Yusaku Senga - <senga@dri.network>\n/// license let's see in LICENSE\n\ncontract LimitedWalletPoD is PoD {\n\n  mapping(address => mapping(uint256 => uint256)) public wLimitWei;\n\n  function LimitedWalletPoD() public {\n    name = \"LimitedWalletPoD - the wallet pod with widthdrawalLimit each address.\";\n    version = \"0.1\";\n    podType = 111;\n  }\n\n  function setConfig(\n    address[] _users, \n    uint256[] _limitWeis,\n    uint256[] _periods\n  ) \n  public onlyOwner() returns (bool) \n  {\n    require(status == Status.PoDDeployed);\n    for (uint i = 0; i < _users.length - 1; i++) {\n      require(block.timestamp <= _periods[i]);\n      wLimitWei[_users[i]][_limitWeis[i]] = _periods[i];\n    }\n    return true;\n  }\n\n  function withdraw(address _user, uint256 _amount) public returns (bool) {\n\n    require(wLimitWei[_user][_amount] <= block.timestamp);\n\n    uint256 amount = 0;\n    if (this.balance < _amount) {\n      amount = this.balance;\n    } else {\n      amount = _amount;\n    }\n    require(_user.send(amount));\n\n    wLimitWei[_user][_amount] = 0;\n\n    return true;\n  }\n\n  function processDonate(address _user) internal returns (bool) {\n    assert(_user != 0x0);\n    return true;\n  }\n\n  function getBalanceOfToken(address _user) public constant returns (uint256) {\n    assert(_user != 0x0);\n    return 0;\n  }\n}\n",
  "sourcePath": "/Users/sengayusaku/repo/test/RICO/contracts/PoDs/LimitedWalletPoD.sol",
  "compiler": {
    "name": "solc",
    "version": "0.4.18+commit.9cf6e910.Emscripten.clang"
  },
  "schemaVersion": "1.0.1",
  "updatedAt": "2017-12-25T22:10:11.064Z"
}