{
  "contractName": "MultiSigWallet",
  "abi": [
    {
      "constant": true,
      "inputs": [
        {
          "name": "",
          "type": "uint256"
        }
      ],
      "name": "owners",
      "outputs": [
        {
          "name": "",
          "type": "address"
        }
      ],
      "payable": false,
      "stateMutability": "view",
      "type": "function"
    },
    {
      "constant": false,
      "inputs": [
        {
          "name": "owner",
          "type": "address"
        }
      ],
      "name": "removeOwner",
      "outputs": [],
      "payable": false,
      "stateMutability": "nonpayable",
      "type": "function"
    },
    {
      "constant": false,
      "inputs": [
        {
          "name": "transactionId",
          "type": "uint256"
        }
      ],
      "name": "revokeConfirmation",
      "outputs": [],
      "payable": false,
      "stateMutability": "nonpayable",
      "type": "function"
    },
    {
      "constant": true,
      "inputs": [
        {
          "name": "",
          "type": "address"
        }
      ],
      "name": "isOwner",
      "outputs": [
        {
          "name": "",
          "type": "bool"
        }
      ],
      "payable": false,
      "stateMutability": "view",
      "type": "function"
    },
    {
      "constant": true,
      "inputs": [
        {
          "name": "",
          "type": "uint256"
        },
        {
          "name": "",
          "type": "address"
        }
      ],
      "name": "confirmations",
      "outputs": [
        {
          "name": "",
          "type": "bool"
        }
      ],
      "payable": false,
      "stateMutability": "view",
      "type": "function"
    },
    {
      "constant": true,
      "inputs": [
        {
          "name": "pending",
          "type": "bool"
        },
        {
          "name": "executed",
          "type": "bool"
        }
      ],
      "name": "getTransactionCount",
      "outputs": [
        {
          "name": "count",
          "type": "uint256"
        }
      ],
      "payable": false,
      "stateMutability": "view",
      "type": "function"
    },
    {
      "constant": false,
      "inputs": [
        {
          "name": "owner",
          "type": "address"
        }
      ],
      "name": "addOwner",
      "outputs": [],
      "payable": false,
      "stateMutability": "nonpayable",
      "type": "function"
    },
    {
      "constant": true,
      "inputs": [
        {
          "name": "transactionId",
          "type": "uint256"
        }
      ],
      "name": "isConfirmed",
      "outputs": [
        {
          "name": "",
          "type": "bool"
        }
      ],
      "payable": false,
      "stateMutability": "view",
      "type": "function"
    },
    {
      "constant": true,
      "inputs": [
        {
          "name": "transactionId",
          "type": "uint256"
        }
      ],
      "name": "getConfirmationCount",
      "outputs": [
        {
          "name": "count",
          "type": "uint256"
        }
      ],
      "payable": false,
      "stateMutability": "view",
      "type": "function"
    },
    {
      "constant": true,
      "inputs": [
        {
          "name": "",
          "type": "uint256"
        }
      ],
      "name": "transactions",
      "outputs": [
        {
          "name": "destination",
          "type": "address"
        },
        {
          "name": "value",
          "type": "uint256"
        },
        {
          "name": "data",
          "type": "bytes"
        },
        {
          "name": "executed",
          "type": "bool"
        }
      ],
      "payable": false,
      "stateMutability": "view",
      "type": "function"
    },
    {
      "constant": true,
      "inputs": [],
      "name": "getOwners",
      "outputs": [
        {
          "name": "",
          "type": "address[]"
        }
      ],
      "payable": false,
      "stateMutability": "view",
      "type": "function"
    },
    {
      "constant": true,
      "inputs": [
        {
          "name": "from",
          "type": "uint256"
        },
        {
          "name": "to",
          "type": "uint256"
        },
        {
          "name": "pending",
          "type": "bool"
        },
        {
          "name": "executed",
          "type": "bool"
        }
      ],
      "name": "getTransactionIds",
      "outputs": [
        {
          "name": "_transactionIds",
          "type": "uint256[]"
        }
      ],
      "payable": false,
      "stateMutability": "view",
      "type": "function"
    },
    {
      "constant": true,
      "inputs": [
        {
          "name": "transactionId",
          "type": "uint256"
        }
      ],
      "name": "getConfirmations",
      "outputs": [
        {
          "name": "_confirmations",
          "type": "address[]"
        }
      ],
      "payable": false,
      "stateMutability": "view",
      "type": "function"
    },
    {
      "constant": true,
      "inputs": [],
      "name": "transactionCount",
      "outputs": [
        {
          "name": "",
          "type": "uint256"
        }
      ],
      "payable": false,
      "stateMutability": "view",
      "type": "function"
    },
    {
      "constant": false,
      "inputs": [
        {
          "name": "_required",
          "type": "uint256"
        }
      ],
      "name": "changeRequirement",
      "outputs": [],
      "payable": false,
      "stateMutability": "nonpayable",
      "type": "function"
    },
    {
      "constant": false,
      "inputs": [
        {
          "name": "transactionId",
          "type": "uint256"
        }
      ],
      "name": "confirmTransaction",
      "outputs": [],
      "payable": false,
      "stateMutability": "nonpayable",
      "type": "function"
    },
    {
      "constant": false,
      "inputs": [
        {
          "name": "destination",
          "type": "address"
        },
        {
          "name": "value",
          "type": "uint256"
        },
        {
          "name": "data",
          "type": "bytes"
        }
      ],
      "name": "submitTransaction",
      "outputs": [
        {
          "name": "transactionId",
          "type": "uint256"
        }
      ],
      "payable": false,
      "stateMutability": "nonpayable",
      "type": "function"
    },
    {
      "constant": true,
      "inputs": [],
      "name": "MAX_OWNER_COUNT",
      "outputs": [
        {
          "name": "",
          "type": "uint256"
        }
      ],
      "payable": false,
      "stateMutability": "view",
      "type": "function"
    },
    {
      "constant": true,
      "inputs": [],
      "name": "required",
      "outputs": [
        {
          "name": "",
          "type": "uint256"
        }
      ],
      "payable": false,
      "stateMutability": "view",
      "type": "function"
    },
    {
      "constant": false,
      "inputs": [
        {
          "name": "owner",
          "type": "address"
        },
        {
          "name": "newOwner",
          "type": "address"
        }
      ],
      "name": "replaceOwner",
      "outputs": [],
      "payable": false,
      "stateMutability": "nonpayable",
      "type": "function"
    },
    {
      "constant": false,
      "inputs": [
        {
          "name": "transactionId",
          "type": "uint256"
        }
      ],
      "name": "executeTransaction",
      "outputs": [],
      "payable": false,
      "stateMutability": "nonpayable",
      "type": "function"
    },
    {
      "inputs": [
        {
          "name": "_owners",
          "type": "address[]"
        },
        {
          "name": "_required",
          "type": "uint256"
        }
      ],
      "payable": false,
      "stateMutability": "nonpayable",
      "type": "constructor"
    },
    {
      "payable": true,
      "stateMutability": "payable",
      "type": "fallback"
    },
    {
      "anonymous": false,
      "inputs": [
        {
          "indexed": true,
          "name": "sender",
          "type": "address"
        },
        {
          "indexed": true,
          "name": "transactionId",
          "type": "uint256"
        }
      ],
      "name": "Confirmation",
      "type": "event"
    },
    {
      "anonymous": false,
      "inputs": [
        {
          "indexed": true,
          "name": "sender",
          "type": "address"
        },
        {
          "indexed": true,
          "name": "transactionId",
          "type": "uint256"
        }
      ],
      "name": "Revocation",
      "type": "event"
    },
    {
      "anonymous": false,
      "inputs": [
        {
          "indexed": true,
          "name": "transactionId",
          "type": "uint256"
        }
      ],
      "name": "Submission",
      "type": "event"
    },
    {
      "anonymous": false,
      "inputs": [
        {
          "indexed": true,
          "name": "transactionId",
          "type": "uint256"
        }
      ],
      "name": "Execution",
      "type": "event"
    },
    {
      "anonymous": false,
      "inputs": [
        {
          "indexed": true,
          "name": "transactionId",
          "type": "uint256"
        }
      ],
      "name": "ExecutionFailure",
      "type": "event"
    },
    {
      "anonymous": false,
      "inputs": [
        {
          "indexed": true,
          "name": "sender",
          "type": "address"
        },
        {
          "indexed": false,
          "name": "value",
          "type": "uint256"
        }
      ],
      "name": "Deposit",
      "type": "event"
    },
    {
      "anonymous": false,
      "inputs": [
        {
          "indexed": true,
          "name": "owner",
          "type": "address"
        }
      ],
      "name": "OwnerAddition",
      "type": "event"
    },
    {
      "anonymous": false,
      "inputs": [
        {
          "indexed": true,
          "name": "owner",
          "type": "address"
        }
      ],
      "name": "OwnerRemoval",
      "type": "event"
    },
    {
      "anonymous": false,
      "inputs": [
        {
          "indexed": false,
          "name": "required",
          "type": "uint256"
        }
      ],
      "name": "RequirementChange",
      "type": "event"
    }
  ],
  "bytecode": "0x606060405234156200001057600080fd5b604051620023c6380380620023c683398101604052808051820191906020018051906020019091905050600082518260328211806200004e57508181115b806200005a5750600081145b80620000665750600082145b156200007157600080fd5b600092505b8451831015620001a8576002600086858151811015156200009357fe5b9060200190602002015173ffffffffffffffffffffffffffffffffffffffff1673ffffffffffffffffffffffffffffffffffffffff16815260200190815260200160002060009054906101000a900460ff16806200011f575060008584815181101515620000fd57fe5b9060200190602002015173ffffffffffffffffffffffffffffffffffffffff16145b156200012a57600080fd5b60016002600087868151811015156200013f57fe5b9060200190602002015173ffffffffffffffffffffffffffffffffffffffff1673ffffffffffffffffffffffffffffffffffffffff16815260200190815260200160002060006101000a81548160ff021916908315150217905550828060010193505062000076565b8460039080519060200190620001c0929190620001d3565b50836004819055505050505050620002a8565b8280548282559060005260206000209081019282156200024f579160200282015b828111156200024e5782518260006101000a81548173ffffffffffffffffffffffffffffffffffffffff021916908373ffffffffffffffffffffffffffffffffffffffff16021790555091602001919060010190620001f4565b5b5090506200025e919062000262565b5090565b620002a591905b80821115620002a157600081816101000a81549073ffffffffffffffffffffffffffffffffffffffff02191690555060010162000269565b5090565b90565b61210e80620002b86000396000f30060606040526004361061011d576000357c0100000000000000000000000000000000000000000000000000000000900463ffffffff168063025e7c2714610177578063173825d9146101da57806320ea8d86146102135780632f54bf6e146102365780633411c81c1461028757806354741525146102e15780637065cb4814610325578063784547a71461035e5780638b51d13f146103995780639ace38c2146103d0578063a0e67e2b146104ce578063a8abe69a14610538578063b5dc40c3146105cf578063b77bf60014610647578063ba51a6df14610670578063c01a8c8414610693578063c6427474146106b6578063d74f8edd1461074f578063dc8452cd14610778578063e20056e6146107a1578063ee22610b146107f9575b6000341115610175573373ffffffffffffffffffffffffffffffffffffffff167fe1fffcc4923d04b559f4d29a8bfc6cda04eb5b0d3c460751c2402c5c5cc9109c346040518082815260200191505060405180910390a25b005b341561018257600080fd5b610198600480803590602001909190505061081c565b604051808273ffffffffffffffffffffffffffffffffffffffff1673ffffffffffffffffffffffffffffffffffffffff16815260200191505060405180910390f35b34156101e557600080fd5b610211600480803573ffffffffffffffffffffffffffffffffffffffff1690602001909190505061085b565b005b341561021e57600080fd5b6102346004808035906020019091905050610af7565b005b341561024157600080fd5b61026d600480803573ffffffffffffffffffffffffffffffffffffffff16906020019091905050610c9d565b604051808215151515815260200191505060405180910390f35b341561029257600080fd5b6102c7600480803590602001909190803573ffffffffffffffffffffffffffffffffffffffff16906020019091905050610cbd565b604051808215151515815260200191505060405180910390f35b34156102ec57600080fd5b61030f600480803515159060200190919080351515906020019091905050610cec565b6040518082815260200191505060405180910390f35b341561033057600080fd5b61035c600480803573ffffffffffffffffffffffffffffffffffffffff16906020019091905050610d7e565b005b341561036957600080fd5b61037f6004808035906020019091905050610f74565b604051808215151515815260200191505060405180910390f35b34156103a457600080fd5b6103ba600480803590602001909190505061105a565b6040518082815260200191505060405180910390f35b34156103db57600080fd5b6103f16004808035906020019091905050611126565b604051808573ffffffffffffffffffffffffffffffffffffffff1673ffffffffffffffffffffffffffffffffffffffff16815260200184815260200180602001831515151581526020018281038252848181546001816001161561010002031660029004815260200191508054600181600116156101000203166002900480156104bc5780601f10610491576101008083540402835291602001916104bc565b820191906000526020600020905b81548152906001019060200180831161049f57829003601f168201915b50509550505050505060405180910390f35b34156104d957600080fd5b6104e1611182565b6040518080602001828103825283818151815260200191508051906020019060200280838360005b83811015610524578082015181840152602081019050610509565b505050509050019250505060405180910390f35b341561054357600080fd5b610578600480803590602001909190803590602001909190803515159060200190919080351515906020019091905050611216565b6040518080602001828103825283818151815260200191508051906020019060200280838360005b838110156105bb5780820151818401526020810190506105a0565b505050509050019250505060405180910390f35b34156105da57600080fd5b6105f06004808035906020019091905050611372565b6040518080602001828103825283818151815260200191508051906020019060200280838360005b83811015610633578082015181840152602081019050610618565b505050509050019250505060405180910390f35b341561065257600080fd5b61065a61159c565b6040518082815260200191505060405180910390f35b341561067b57600080fd5b61069160048080359060200190919050506115a2565b005b341561069e57600080fd5b6106b46004808035906020019091905050611654565b005b34156106c157600080fd5b610739600480803573ffffffffffffffffffffffffffffffffffffffff1690602001909190803590602001909190803590602001908201803590602001908080601f0160208091040260200160405190810160405280939291908181526020018383808284378201915050505050509190505061182d565b6040518082815260200191505060405180910390f35b341561075a57600080fd5b61076261184c565b6040518082815260200191505060405180910390f35b341561078357600080fd5b61078b611851565b6040518082815260200191505060405180910390f35b34156107ac57600080fd5b6107f7600480803573ffffffffffffffffffffffffffffffffffffffff1690602001909190803573ffffffffffffffffffffffffffffffffffffffff16906020019091905050611857565b005b341561080457600080fd5b61081a6004808035906020019091905050611b6c565b005b60038181548110151561082b57fe5b90600052602060002090016000915054906101000a900473ffffffffffffffffffffffffffffffffffffffff1681565b60003073ffffffffffffffffffffffffffffffffffffffff163373ffffffffffffffffffffffffffffffffffffffff1614151561089757600080fd5b81600260008273ffffffffffffffffffffffffffffffffffffffff1673ffffffffffffffffffffffffffffffffffffffff16815260200190815260200160002060009054906101000a900460ff1615156108f057600080fd5b6000600260008573ffffffffffffffffffffffffffffffffffffffff1673ffffffffffffffffffffffffffffffffffffffff16815260200190815260200160002060006101000a81548160ff021916908315150217905550600091505b600160038054905003821015610a78578273ffffffffffffffffffffffffffffffffffffffff1660038381548110151561098357fe5b906000526020600020900160009054906101000a900473ffffffffffffffffffffffffffffffffffffffff1673ffffffffffffffffffffffffffffffffffffffff161415610a6b5760036001600380549050038154811015156109e257fe5b906000526020600020900160009054906101000a900473ffffffffffffffffffffffffffffffffffffffff16600383815481101515610a1d57fe5b906000526020600020900160006101000a81548173ffffffffffffffffffffffffffffffffffffffff021916908373ffffffffffffffffffffffffffffffffffffffff160217905550610a78565b818060010192505061094d565b6001600381818054905003915081610a909190611f62565b506003805490506004541115610aaf57610aae6003805490506115a2565b5b8273ffffffffffffffffffffffffffffffffffffffff167f8001553a916ef2f495d26a907cc54d96ed840d7bda71e73194bf5a9df7a76b9060405160405180910390a2505050565b33600260008273ffffffffffffffffffffffffffffffffffffffff1673ffffffffffffffffffffffffffffffffffffffff16815260200190815260200160002060009054906101000a900460ff161515610b5057600080fd5b81336001600083815260200190815260200160002060008273ffffffffffffffffffffffffffffffffffffffff1673ffffffffffffffffffffffffffffffffffffffff16815260200190815260200160002060009054906101000a900460ff161515610bbb57600080fd5b8360008082815260200190815260200160002060030160009054906101000a900460ff1615610be957600080fd5b60006001600087815260200190815260200160002060003373ffffffffffffffffffffffffffffffffffffffff1673ffffffffffffffffffffffffffffffffffffffff16815260200190815260200160002060006101000a81548160ff021916908315150217905550843373ffffffffffffffffffffffffffffffffffffffff167ff6a317157440607f36269043eb55f1287a5a19ba2216afeab88cd46cbcfb88e960405160405180910390a35050505050565b60026020528060005260406000206000915054906101000a900460ff1681565b60016020528160005260406000206020528060005260406000206000915091509054906101000a900460ff1681565b600080600090505b600554811015610d7757838015610d2b575060008082815260200190815260200160002060030160009054906101000a900460ff16155b80610d5e5750828015610d5d575060008082815260200190815260200160002060030160009054906101000a900460ff165b5b15610d6a576001820191505b8080600101915050610cf4565b5092915050565b3073ffffffffffffffffffffffffffffffffffffffff163373ffffffffffffffffffffffffffffffffffffffff16141515610db857600080fd5b80600260008273ffffffffffffffffffffffffffffffffffffffff1673ffffffffffffffffffffffffffffffffffffffff16815260200190815260200160002060009054906101000a900460ff1615610e1057600080fd5b8160008173ffffffffffffffffffffffffffffffffffffffff161415610e3557600080fd5b6001600380549050016004546032821180610e4f57508181115b80610e5a5750600081145b80610e655750600082145b15610e6f57600080fd5b6001600260008773ffffffffffffffffffffffffffffffffffffffff1673ffffffffffffffffffffffffffffffffffffffff16815260200190815260200160002060006101000a81548160ff02191690831515021790555060038054806001018281610edb9190611f8e565b9160005260206000209001600087909190916101000a81548173ffffffffffffffffffffffffffffffffffffffff021916908373ffffffffffffffffffffffffffffffffffffffff160217905550508473ffffffffffffffffffffffffffffffffffffffff167ff39e6e1eb0edcf53c221607b54b00cd28f3196fed0a24994dc308b8f611b682d60405160405180910390a25050505050565b6000806000809150600090505b60038054905081101561105257600160008581526020019081526020016000206000600383815481101515610fb257fe5b906000526020600020900160009054906101000a900473ffffffffffffffffffffffffffffffffffffffff1673ffffffffffffffffffffffffffffffffffffffff1673ffffffffffffffffffffffffffffffffffffffff16815260200190815260200160002060009054906101000a900460ff1615611032576001820191505b6004548214156110455760019250611053565b8080600101915050610f81565b5b5050919050565b600080600090505b6003805490508110156111205760016000848152602001908152602001600020600060038381548110151561109357fe5b906000526020600020900160009054906101000a900473ffffffffffffffffffffffffffffffffffffffff1673ffffffffffffffffffffffffffffffffffffffff1673ffffffffffffffffffffffffffffffffffffffff16815260200190815260200160002060009054906101000a900460ff1615611113576001820191505b8080600101915050611062565b50919050565b60006020528060005260406000206000915090508060000160009054906101000a900473ffffffffffffffffffffffffffffffffffffffff169080600101549080600201908060030160009054906101000a900460ff16905084565b61118a611fba565b600380548060200260200160405190810160405280929190818152602001828054801561120c57602002820191906000526020600020905b8160009054906101000a900473ffffffffffffffffffffffffffffffffffffffff1673ffffffffffffffffffffffffffffffffffffffff16815260200190600101908083116111c2575b5050505050905090565b61121e611fce565b611226611fce565b6000806005546040518059106112395750595b9080825280602002602001820160405250925060009150600090505b6005548110156112f55785801561128c575060008082815260200190815260200160002060030160009054906101000a900460ff16155b806112bf57508480156112be575060008082815260200190815260200160002060030160009054906101000a900460ff165b5b156112e8578083838151811015156112d357fe5b90602001906020020181815250506001820191505b8080600101915050611255565b8787036040518059106113055750595b908082528060200260200182016040525093508790505b8681101561136757828181518110151561133257fe5b906020019060200201518489830381518110151561134c57fe5b9060200190602002018181525050808060010191505061131c565b505050949350505050565b61137a611fba565b611382611fba565b6000806003805490506040518059106113985750595b9080825280602002602001820160405250925060009150600090505b6003805490508110156114f7576001600086815260200190815260200160002060006003838154811015156113e557fe5b906000526020600020900160009054906101000a900473ffffffffffffffffffffffffffffffffffffffff1673ffffffffffffffffffffffffffffffffffffffff1673ffffffffffffffffffffffffffffffffffffffff16815260200190815260200160002060009054906101000a900460ff16156114ea5760038181548110151561146d57fe5b906000526020600020900160009054906101000a900473ffffffffffffffffffffffffffffffffffffffff1683838151811015156114a757fe5b9060200190602002019073ffffffffffffffffffffffffffffffffffffffff16908173ffffffffffffffffffffffffffffffffffffffff16815250506001820191505b80806001019150506113b4565b816040518059106115055750595b90808252806020026020018201604052509350600090505b8181101561159457828181518110151561153357fe5b90602001906020020151848281518110151561154b57fe5b9060200190602002019073ffffffffffffffffffffffffffffffffffffffff16908173ffffffffffffffffffffffffffffffffffffffff1681525050808060010191505061151d565b505050919050565b60055481565b3073ffffffffffffffffffffffffffffffffffffffff163373ffffffffffffffffffffffffffffffffffffffff161415156115dc57600080fd5b6003805490508160328211806115f157508181115b806115fc5750600081145b806116075750600082145b1561161157600080fd5b826004819055507fa3f1ee9126a074d9326c682f561767f710e927faa811f7a99829d49dc421797a836040518082815260200191505060405180910390a1505050565b33600260008273ffffffffffffffffffffffffffffffffffffffff1673ffffffffffffffffffffffffffffffffffffffff16815260200190815260200160002060009054906101000a900460ff1615156116ad57600080fd5b81600080600083815260200190815260200160002060000160009054906101000a900473ffffffffffffffffffffffffffffffffffffffff1673ffffffffffffffffffffffffffffffffffffffff16141561170757600080fd5b82336001600083815260200190815260200160002060008273ffffffffffffffffffffffffffffffffffffffff1673ffffffffffffffffffffffffffffffffffffffff16815260200190815260200160002060009054906101000a900460ff161561177157600080fd5b600180600087815260200190815260200160002060003373ffffffffffffffffffffffffffffffffffffffff1673ffffffffffffffffffffffffffffffffffffffff16815260200190815260200160002060006101000a81548160ff021916908315150217905550843373ffffffffffffffffffffffffffffffffffffffff167f4a504a94899432a9846e1aa406dceb1bcfd538bb839071d49d1e5e23f5be30ef60405160405180910390a361182685611b6c565b5050505050565b600061183a848484611e12565b905061184581611654565b9392505050565b603281565b60045481565b60003073ffffffffffffffffffffffffffffffffffffffff163373ffffffffffffffffffffffffffffffffffffffff1614151561189357600080fd5b82600260008273ffffffffffffffffffffffffffffffffffffffff1673ffffffffffffffffffffffffffffffffffffffff16815260200190815260200160002060009054906101000a900460ff1615156118ec57600080fd5b82600260008273ffffffffffffffffffffffffffffffffffffffff1673ffffffffffffffffffffffffffffffffffffffff16815260200190815260200160002060009054906101000a900460ff161561194457600080fd5b600092505b600380549050831015611a2f578473ffffffffffffffffffffffffffffffffffffffff1660038481548110151561197c57fe5b906000526020600020900160009054906101000a900473ffffffffffffffffffffffffffffffffffffffff1673ffffffffffffffffffffffffffffffffffffffff161415611a2257836003848154811015156119d457fe5b906000526020600020900160006101000a81548173ffffffffffffffffffffffffffffffffffffffff021916908373ffffffffffffffffffffffffffffffffffffffff160217905550611a2f565b8280600101935050611949565b6000600260008773ffffffffffffffffffffffffffffffffffffffff1673ffffffffffffffffffffffffffffffffffffffff16815260200190815260200160002060006101000a81548160ff0219169083151502179055506001600260008673ffffffffffffffffffffffffffffffffffffffff1673ffffffffffffffffffffffffffffffffffffffff16815260200190815260200160002060006101000a81548160ff0219169083151502179055508473ffffffffffffffffffffffffffffffffffffffff167f8001553a916ef2f495d26a907cc54d96ed840d7bda71e73194bf5a9df7a76b9060405160405180910390a28373ffffffffffffffffffffffffffffffffffffffff167ff39e6e1eb0edcf53c221607b54b00cd28f3196fed0a24994dc308b8f611b682d60405160405180910390a25050505050565b611b74611fe2565b8160008082815260200190815260200160002060030160009054906101000a900460ff1615611ba257600080fd5b611bab83610f74565b15611e0d57600080848152602001908152602001600020608060405190810160405290816000820160009054906101000a900473ffffffffffffffffffffffffffffffffffffffff1673ffffffffffffffffffffffffffffffffffffffff1673ffffffffffffffffffffffffffffffffffffffff16815260200160018201548152602001600282018054600181600116156101000203166002900480601f016020809104026020016040519081016040528092919081815260200182805460018160011615610100020316600290048015611cc75780601f10611c9c57610100808354040283529160200191611cc7565b820191906000526020600020905b815481529060010190602001808311611caa57829003601f168201915b505050505081526020016003820160009054906101000a900460ff16151515158152505091506001826060019015159081151581525050816000015173ffffffffffffffffffffffffffffffffffffffff168260200151836040015160405180828051906020019080838360005b83811015611d50578082015181840152602081019050611d35565b50505050905090810190601f168015611d7d5780820380516001836020036101000a031916815260200191505b5091505060006040518083038185876187965a03f19250505015611dcd57827f33e13ecb54c3076d8e8bb8c2881800a4d972b792045ffae98fdf46df365fed7560405160405180910390a2611e0c565b827f526441bb6c1aba3c9a4a6ca1d6545da9c2333c8c48343ef398eb858d72b7923660405160405180910390a260008260600190151590811515815250505b5b505050565b60008360008173ffffffffffffffffffffffffffffffffffffffff161415611e3957600080fd5b60055491506080604051908101604052808673ffffffffffffffffffffffffffffffffffffffff1681526020018581526020018481526020016000151581525060008084815260200190815260200160002060008201518160000160006101000a81548173ffffffffffffffffffffffffffffffffffffffff021916908373ffffffffffffffffffffffffffffffffffffffff160217905550602082015181600101556040820151816002019080519060200190611ef8929190612029565b5060608201518160030160006101000a81548160ff0219169083151502179055509050506001600560008282540192505081905550817fc0ba8fe4b176c1714197d43b9cc6bcf797a4a7461c5fe8d0ef6e184ae7601e5160405160405180910390a2509392505050565b815481835581811511611f8957818360005260206000209182019101611f8891906120a9565b5b505050565b815481835581811511611fb557818360005260206000209182019101611fb491906120a9565b5b505050565b602060405190810160405280600081525090565b602060405190810160405280600081525090565b608060405190810160405280600073ffffffffffffffffffffffffffffffffffffffff1681526020016000815260200161201a6120ce565b81526020016000151581525090565b828054600181600116156101000203166002900490600052602060002090601f016020900481019282601f1061206a57805160ff1916838001178555612098565b82800160010185558215612098579182015b8281111561209757825182559160200191906001019061207c565b5b5090506120a591906120a9565b5090565b6120cb91905b808211156120c75760008160009055506001016120af565b5090565b90565b6020604051908101604052806000815250905600a165627a7a72305820cd253a8cea5bdcfaff40388c6dc8dfe690c9e2be558414c74846434d404013670029",
  "source": "pragma solidity 0.4.18;\n\n/// @title Multisignature wallet - Allows multiple parties to agree on transactions before execution.\n/// https://github.com/ConsenSys/MultiSigWallet/blob/master/contracts/solidity/MultiSigWallet.sol\n/// @author Stefan George - <stefan.george@consensys.net> @modify Yusaku Senga - <senga@dri.network>\n/// license let's see in LICENSE\n\ncontract MultiSigWallet {\n\n  uint constant public MAX_OWNER_COUNT = 50;\n\n  event Confirmation(address indexed sender, uint indexed transactionId);\n  event Revocation(address indexed sender, uint indexed transactionId);\n  event Submission(uint indexed transactionId);\n  event Execution(uint indexed transactionId);\n  event ExecutionFailure(uint indexed transactionId);\n  event Deposit(address indexed sender, uint value);\n  event OwnerAddition(address indexed owner);\n  event OwnerRemoval(address indexed owner);\n  event RequirementChange(uint required);\n\n  mapping(uint => Transaction) public transactions;\n  mapping(uint => mapping(address => bool)) public confirmations;\n  mapping(address => bool) public isOwner;\n  address[] public owners;\n  uint public required;\n  uint public transactionCount;\n\n  struct Transaction {\n    address destination;\n    uint value;\n    bytes data;\n    bool executed;\n  }\n\n  modifier onlyWallet() {\n    if (msg.sender != address(this))\n      revert();\n    _;\n  }\n\n  modifier ownerDoesNotExist(address owner) {\n    if (isOwner[owner])\n      revert();\n    _;\n  }\n\n  modifier ownerExists(address owner) {\n    if (!isOwner[owner])\n      revert();\n    _;\n  }\n\n  modifier transactionExists(uint transactionId) {\n    if (transactions[transactionId].destination == 0)\n      revert();\n    _;\n  }\n\n  modifier confirmed(uint transactionId, address owner) {\n    if (!confirmations[transactionId][owner])\n      revert();\n    _;\n  }\n\n  modifier notConfirmed(uint transactionId, address owner) {\n    if (confirmations[transactionId][owner])\n      revert();\n    _;\n  }\n\n  modifier notExecuted(uint transactionId) {\n    if (transactions[transactionId].executed)\n      revert();\n    _;\n  }\n\n  modifier notNull(address _address) {\n    if (_address == 0)\n      revert();\n    _;\n  }\n\n  modifier validRequirement(uint ownerCount, uint _required) {\n    if (ownerCount > MAX_OWNER_COUNT || _required > ownerCount || _required == 0 || ownerCount == 0)\n      revert();\n    _;\n  }\n\n  /// @dev Fallback function allows to deposit ether.\n  function () public payable {\n    if (msg.value > 0)\n      Deposit(msg.sender, msg.value);\n  }\n\n  /*\n   * Public functions\n   */\n  /// @dev Contract constructor sets initial owners and required number of confirmations.\n  /// @param _owners List of initial owners.\n  /// @param _required Number of required confirmations.\n  function MultiSigWallet(address[] _owners, uint _required) public validRequirement(_owners.length, _required) {\n    for (uint i = 0; i < _owners.length; i++) {\n      if (isOwner[_owners[i]] || _owners[i] == 0)\n        revert();\n      isOwner[_owners[i]] = true;\n    }\n    owners = _owners;\n    required = _required;\n  }\n\n  /// @dev Allows to add a new owner. Transaction has to be sent by wallet.\n  /// @param owner Address of new owner.\n  function addOwner(address owner) public onlyWallet ownerDoesNotExist(owner) notNull(owner) validRequirement(owners.length + 1, required) {\n    isOwner[owner] = true;\n    owners.push(owner);\n    OwnerAddition(owner);\n  }\n\n  /// @dev Allows to remove an owner. Transaction has to be sent by wallet.\n  /// @param owner Address of owner.\n  function removeOwner(address owner) public onlyWallet ownerExists(owner) {\n    isOwner[owner] = false;\n    for (uint i = 0; i < owners.length - 1; i++) {\n      if (owners[i] == owner) {\n        owners[i] = owners[owners.length - 1];\n        break;\n      }\n    }\n    owners.length -= 1;\n    if (required > owners.length)\n      changeRequirement(owners.length);\n    OwnerRemoval(owner);\n  }\n\n  /// @dev Allows to replace an owner with a new owner. Transaction has to be sent by wallet.\n  /// @param owner Address of owner to be replaced.\n  /// @param owner Address of new owner.\n  function replaceOwner(address owner, address newOwner) public onlyWallet ownerExists(owner) ownerDoesNotExist(newOwner) {\n    for (uint i = 0; i < owners.length; i++) {\n      if (owners[i] == owner) {\n        owners[i] = newOwner;\n        break;\n      }\n    }\n    isOwner[owner] = false;\n    isOwner[newOwner] = true;\n    OwnerRemoval(owner);\n    OwnerAddition(newOwner);\n  }\n\n  /// @dev Allows to change the number of required confirmations. Transaction has to be sent by wallet.\n  /// @param _required Number of required confirmations.\n  function changeRequirement(uint _required) public onlyWallet validRequirement(owners.length, _required) {\n    required = _required;\n    RequirementChange(_required);\n  }\n\n  /// @dev Allows an owner to submit and confirm a transaction.\n  /// @param destination Transaction target address.\n  /// @param value Transaction ether value.\n  /// @param data Transaction data payload.\n  /// @return Returns transaction ID.\n  function submitTransaction(address destination, uint value, bytes data) public returns(uint transactionId) {\n    transactionId = addTransaction(destination, value, data);\n    confirmTransaction(transactionId);\n  }\n\n  /// @dev Allows an owner to confirm a transaction.\n  /// @param transactionId Transaction ID.\n  function confirmTransaction(uint transactionId) public ownerExists(msg.sender) transactionExists(transactionId) notConfirmed(transactionId, msg.sender) {\n    confirmations[transactionId][msg.sender] = true;\n    Confirmation(msg.sender, transactionId);\n    executeTransaction(transactionId);\n  }\n\n  /// @dev Allows an owner to revoke a confirmation for a transaction.\n  /// @param transactionId Transaction ID.\n  function revokeConfirmation(uint transactionId) public ownerExists(msg.sender) confirmed(transactionId, msg.sender) notExecuted(transactionId) {\n    confirmations[transactionId][msg.sender] = false;\n    Revocation(msg.sender, transactionId);\n  }\n\n  /// @dev Allows anyone to execute a confirmed transaction.\n  /// @param transactionId Transaction ID.\n  function executeTransaction(uint transactionId) public notExecuted(transactionId) {\n    if (isConfirmed(transactionId)) {\n      Transaction memory t = transactions[transactionId];\n      t.executed = true;\n      if (t.destination.call.value(t.value)(t.data)) {\n        Execution(transactionId);\n\n      } else {\n        ExecutionFailure(transactionId);\n        t.executed = false;\n      }\n    }\n  }\n\n  /// @dev Returns the confirmation status of a transaction.\n  /// @param transactionId Transaction ID.\n  /// @return Confirmation status.\n  function isConfirmed(uint transactionId) public constant returns(bool) {\n    uint count = 0;\n    for (uint i = 0; i < owners.length; i++) {\n      if (confirmations[transactionId][owners[i]])\n        count += 1;\n      if (count == required)\n        return true;\n    }\n  }\n\n  /*\n   * Internal functions\n   */\n  /// @dev Adds a new transaction to the transaction mapping, if transaction does not exist yet.\n  /// @param destination Transaction target address.\n  /// @param value Transaction ether value.\n  /// @param data Transaction data payload.\n  /// @return Returns transaction ID.\n  function addTransaction(address destination, uint value, bytes data) internal notNull(destination) returns(uint transactionId) {\n    transactionId = transactionCount;\n    transactions[transactionId] = Transaction({\n      destination: destination,\n      value: value,\n      data: data,\n      executed: false\n    });\n    transactionCount += 1;\n    Submission(transactionId);\n  }\n\n  /*\n   * Web3 call functions\n   */\n  /// @dev Returns number of confirmations of a transaction.\n  /// @param transactionId Transaction ID.\n  /// @return Number of confirmations.\n  function getConfirmationCount(uint transactionId) public constant returns(uint count) {\n    for (uint i = 0; i < owners.length; i++) {\n      if (confirmations[transactionId][owners[i]])\n        count += 1;\n    }\n\n  }\n\n  /// @dev Returns total number of transactions after filers are applied.\n  /// @param pending Include pending transactions.\n  /// @param executed Include executed transactions.\n  /// @return Total number of transactions after filters are applied.\n  function getTransactionCount(bool pending, bool executed) public constant returns(uint count) {\n    for (uint i = 0; i < transactionCount; i++) {\n      if (pending && !transactions[i].executed ||\n        executed && transactions[i].executed)\n        count += 1;\n    }\n  }\n\n  /// @dev Returns list of owners.\n  /// @return List of owner addresses.\n  function getOwners() public constant returns(address[]) {\n    return owners;\n  }\n\n  /// @dev Returns array with owner addresses, which confirmed transaction.\n  /// @param transactionId Transaction ID.\n  /// @return Returns array of owner addresses.\n  function getConfirmations(uint transactionId) public constant returns(address[] _confirmations) {\n    address[] memory confirmationsTemp = new address[](owners.length);\n    uint count = 0;\n    uint i;\n    for (i = 0; i < owners.length; i++) {\n      if (confirmations[transactionId][owners[i]]) {\n        confirmationsTemp[count] = owners[i];\n        count += 1;\n      }\n    }\n    _confirmations = new address[](count);\n    for (i = 0; i < count; i++) {\n      _confirmations[i] = confirmationsTemp[i];\n    }\n  }\n\n\n  /// @dev Returns list of transaction IDs in defined range.\n  /// @param from Index start position of transaction array.\n  /// @param to Index end position of transaction array.\n  /// @param pending Include pending transactions.\n  /// @param executed Include executed transactions.\n  /// @return Returns array of transaction IDs.\n  function getTransactionIds(uint from, uint to, bool pending, bool executed) public constant returns(uint[] _transactionIds) {\n    uint[] memory transactionIdsTemp = new uint[](transactionCount);\n    uint count = 0;\n    uint i;\n    for (i = 0; i < transactionCount; i++) {\n      if (pending && !transactions[i].executed ||\n        executed && transactions[i].executed) {\n        transactionIdsTemp[count] = i;\n        count += 1;\n      }\n    }\n    _transactionIds = new uint[](to - from);\n    for (i = from; i < to; i++) {\n      _transactionIds[i - from] = transactionIdsTemp[i];\n    }\n  }\n}",
  "sourcePath": "/Users/sengayusaku/repo/test/RICO/contracts/MultisigWallet.sol",
  "compiler": {
    "name": "solc",
    "version": "0.4.18+commit.9cf6e910.Emscripten.clang"
  },
  "schemaVersion": "1.0.1",
  "updatedAt": "2017-12-25T10:57:45.681Z"
}