{
  "contractName": "RICO",
  "abi": [
    {
      "constant": true,
      "inputs": [
        {
          "name": "_token",
          "type": "address"
        }
      ],
      "name": "getTokenPods",
      "outputs": [
        {
          "name": "",
          "type": "address[]"
        }
      ],
      "payable": false,
      "stateMutability": "view",
      "type": "function"
    },
    {
      "constant": true,
      "inputs": [],
      "name": "name",
      "outputs": [
        {
          "name": "",
          "type": "string"
        }
      ],
      "payable": false,
      "stateMutability": "view",
      "type": "function"
    },
    {
      "constant": false,
      "inputs": [
        {
          "name": "_name",
          "type": "string"
        },
        {
          "name": "_symbol",
          "type": "string"
        },
        {
          "name": "_decimals",
          "type": "uint8"
        },
        {
          "name": "_pods",
          "type": "address[]"
        },
        {
          "name": "_projectOwner",
          "type": "address"
        }
      ],
      "name": "newProject",
      "outputs": [
        {
          "name": "",
          "type": "address"
        }
      ],
      "payable": false,
      "stateMutability": "nonpayable",
      "type": "function"
    },
    {
      "constant": true,
      "inputs": [
        {
          "name": "",
          "type": "uint256"
        }
      ],
      "name": "tokens",
      "outputs": [
        {
          "name": "",
          "type": "address"
        }
      ],
      "payable": false,
      "stateMutability": "view",
      "type": "function"
    },
    {
      "constant": true,
      "inputs": [],
      "name": "version",
      "outputs": [
        {
          "name": "",
          "type": "string"
        }
      ],
      "payable": false,
      "stateMutability": "view",
      "type": "function"
    },
    {
      "constant": false,
      "inputs": [
        {
          "name": "_tokenAddr",
          "type": "address"
        },
        {
          "name": "_index",
          "type": "uint256"
        },
        {
          "name": "_user",
          "type": "address"
        }
      ],
      "name": "mintToken",
      "outputs": [
        {
          "name": "",
          "type": "bool"
        }
      ],
      "payable": false,
      "stateMutability": "nonpayable",
      "type": "function"
    },
    {
      "constant": true,
      "inputs": [],
      "name": "owner",
      "outputs": [
        {
          "name": "",
          "type": "address"
        }
      ],
      "payable": false,
      "stateMutability": "view",
      "type": "function"
    },
    {
      "constant": true,
      "inputs": [
        {
          "name": "",
          "type": "address"
        }
      ],
      "name": "maxSupplies",
      "outputs": [
        {
          "name": "",
          "type": "uint256"
        }
      ],
      "payable": false,
      "stateMutability": "view",
      "type": "function"
    },
    {
      "constant": false,
      "inputs": [
        {
          "name": "newOwner",
          "type": "address"
        }
      ],
      "name": "transferOwnership",
      "outputs": [],
      "payable": false,
      "stateMutability": "nonpayable",
      "type": "function"
    },
    {
      "inputs": [],
      "payable": false,
      "stateMutability": "nonpayable",
      "type": "constructor"
    },
    {
      "anonymous": false,
      "inputs": [
        {
          "indexed": false,
          "name": "name",
          "type": "string"
        },
        {
          "indexed": false,
          "name": "symbol",
          "type": "string"
        },
        {
          "indexed": false,
          "name": "decimals",
          "type": "uint8"
        },
        {
          "indexed": false,
          "name": "supply",
          "type": "uint256"
        },
        {
          "indexed": false,
          "name": "pods",
          "type": "address[]"
        },
        {
          "indexed": false,
          "name": "token",
          "type": "address"
        }
      ],
      "name": "CreatedNewProject",
      "type": "event"
    },
    {
      "anonymous": false,
      "inputs": [
        {
          "indexed": false,
          "name": "pod",
          "type": "address"
        },
        {
          "indexed": false,
          "name": "supply",
          "type": "uint256"
        }
      ],
      "name": "CheckedPodsToken",
      "type": "event"
    },
    {
      "anonymous": false,
      "inputs": [
        {
          "indexed": true,
          "name": "previousOwner",
          "type": "address"
        },
        {
          "indexed": true,
          "name": "newOwner",
          "type": "address"
        }
      ],
      "name": "OwnershipTransferred",
      "type": "event"
    }
  ],
  "bytecode": "0x60606040526040805190810160405280600d81526020017f5249434f20636f6e7472616374000000000000000000000000000000000000008152506001908051906020019062000051929190620000f2565b506040805190810160405280600581526020017f302e392e33000000000000000000000000000000000000000000000000000000815250600290805190602001906200009f929190620000f2565b503415620000ac57600080fd5b336000806101000a81548173ffffffffffffffffffffffffffffffffffffffff021916908373ffffffffffffffffffffffffffffffffffffffff160217905550620001a1565b828054600181600116156101000203166002900490600052602060002090601f016020900481019282601f106200013557805160ff191683800117855562000166565b8280016001018555821562000166579182015b828111156200016557825182559160200191906001019062000148565b5b50905062000175919062000179565b5090565b6200019e91905b808211156200019a57600081600090555060010162000180565b5090565b90565b612abe80620001b16000396000f300606060405260043610610099576000357c0100000000000000000000000000000000000000000000000000000000900463ffffffff16806305ef68481461009e57806306fdde031461012c5780631db4012d146101ba5780634f64b2be1461030557806354fd4d50146103685780636dfada86146103f65780638da5cb5b1461046f578063932852af146104c4578063f2fde38b14610511575b600080fd5b34156100a957600080fd5b6100d5600480803573ffffffffffffffffffffffffffffffffffffffff1690602001909190505061054a565b6040518080602001828103825283818151815260200191508051906020019060200280838360005b838110156101185780820151818401526020810190506100fd565b505050509050019250505060405180910390f35b341561013757600080fd5b61013f61061d565b6040518080602001828103825283818151815260200191508051906020019080838360005b8381101561017f578082015181840152602081019050610164565b50505050905090810190601f1680156101ac5780820380516001836020036101000a031916815260200191505b509250505060405180910390f35b34156101c557600080fd5b6102c3600480803590602001908201803590602001908080601f0160208091040260200160405190810160405280939291908181526020018383808284378201915050505050509190803590602001908201803590602001908080601f0160208091040260200160405190810160405280939291908181526020018383808284378201915050505050509190803560ff169060200190919080359060200190820180359060200190808060200260200160405190810160405280939291908181526020018383602002808284378201915050505050509190803573ffffffffffffffffffffffffffffffffffffffff169060200190919050506106bb565b604051808273ffffffffffffffffffffffffffffffffffffffff1673ffffffffffffffffffffffffffffffffffffffff16815260200191505060405180910390f35b341561031057600080fd5b6103266004808035906020019091905050610b46565b604051808273ffffffffffffffffffffffffffffffffffffffff1673ffffffffffffffffffffffffffffffffffffffff16815260200191505060405180910390f35b341561037357600080fd5b61037b610b85565b6040518080602001828103825283818151815260200191508051906020019080838360005b838110156103bb5780820151818401526020810190506103a0565b50505050905090810190601f1680156103e85780820380516001836020036101000a031916815260200191505b509250505060405180910390f35b341561040157600080fd5b610455600480803573ffffffffffffffffffffffffffffffffffffffff1690602001909190803590602001909190803573ffffffffffffffffffffffffffffffffffffffff16906020019091905050610c23565b604051808215151515815260200191505060405180910390f35b341561047a57600080fd5b610482611076565b604051808273ffffffffffffffffffffffffffffffffffffffff1673ffffffffffffffffffffffffffffffffffffffff16815260200191505060405180910390f35b34156104cf57600080fd5b6104fb600480803573ffffffffffffffffffffffffffffffffffffffff1690602001909190505061109b565b6040518082815260200191505060405180910390f35b341561051c57600080fd5b610548600480803573ffffffffffffffffffffffffffffffffffffffff169060200190919050506110b3565b005b610552611418565b600460008373ffffffffffffffffffffffffffffffffffffffff1673ffffffffffffffffffffffffffffffffffffffff16815260200190815260200160002080548060200260200160405190810160405280929190818152602001828054801561061157602002820191906000526020600020905b8160009054906101000a900473ffffffffffffffffffffffffffffffffffffffff1673ffffffffffffffffffffffffffffffffffffffff16815260200190600101908083116105c7575b50505050509050919050565b60018054600181600116156101000203166002900480601f0160208091040260200160405190810160405280929190818152602001828054600181600116156101000203166002900480156106b35780601f10610688576101008083540402835291602001916106b3565b820191906000526020600020905b81548152906001019060200180831161069657829003601f168201915b505050505081565b60008060006106c985611208565b91506000821115156106da57600080fd5b6106e261142c565b604051809103906000f08015156106f857600080fd5b90508073ffffffffffffffffffffffffffffffffffffffff166398cbefbe898989886000604051602001526040518563ffffffff167c01000000000000000000000000000000000000000000000000000000000281526004018080602001806020018560ff1660ff1681526020018473ffffffffffffffffffffffffffffffffffffffff1673ffffffffffffffffffffffffffffffffffffffff168152602001838103835287818151815260200191508051906020019080838360005b838110156107d05780820151818401526020810190506107b5565b50505050905090810190601f1680156107fd5780820380516001836020036101000a031916815260200191505b50838103825286818151815260200191508051906020019080838360005b8381101561083657808201518184015260208101905061081b565b50505050905090810190601f1680156108635780820380516001836020036101000a031916815260200191505b509650505050505050602060405180830381600087803b151561088557600080fd5b6102c65a03f1151561089657600080fd5b505050604051805190505084600460008373ffffffffffffffffffffffffffffffffffffffff1673ffffffffffffffffffffffffffffffffffffffff16815260200190815260200160002090805190602001906108f492919061143c565b5081600560008373ffffffffffffffffffffffffffffffffffffffff1673ffffffffffffffffffffffffffffffffffffffff168152602001908152602001600020819055506003805480600101828161094d91906114c6565b9160005260206000209001600083909190916101000a81548173ffffffffffffffffffffffffffffffffffffffff021916908373ffffffffffffffffffffffffffffffffffffffff160217905550507f3c2cba77c9f52a23d345af4adc0a71124e8121df1f17d857055c2e3c08e74b438888888589866040518080602001806020018760ff1660ff168152602001868152602001806020018573ffffffffffffffffffffffffffffffffffffffff1673ffffffffffffffffffffffffffffffffffffffff16815260200184810384528a818151815260200191508051906020019080838360005b83811015610a4f578082015181840152602081019050610a34565b50505050905090810190601f168015610a7c5780820380516001836020036101000a031916815260200191505b50848103835289818151815260200191508051906020019080838360005b83811015610ab5578082015181840152602081019050610a9a565b50505050905090810190601f168015610ae25780820380516001836020036101000a031916815260200191505b50848103825286818151815260200191508051906020019060200280838360005b83811015610b1e578082015181840152602081019050610b03565b50505050905001995050505050505050505060405180910390a1809250505095945050505050565b600381815481101515610b5557fe5b90600052602060002090016000915054906101000a900473ffffffffffffffffffffffffffffffffffffffff1681565b60028054600181600116156101000203166002900480601f016020809104026020016040519081016040528092919081815260200182805460018160011615610100020316600290048015610c1b5780601f10610bf057610100808354040283529160200191610c1b565b820191906000526020600020905b815481529060010190602001808311610bfe57829003601f168201915b505050505081565b600080600080600033935060008673ffffffffffffffffffffffffffffffffffffffff16141515610c52578593505b6000600460008a73ffffffffffffffffffffffffffffffffffffffff1673ffffffffffffffffffffffffffffffffffffffff16815260200190815260200160002088815481101515610ca057fe5b906000526020600020900160009054906101000a900473ffffffffffffffffffffffffffffffffffffffff1673ffffffffffffffffffffffffffffffffffffffff1614151515610cef57600080fd5b600460008973ffffffffffffffffffffffffffffffffffffffff1673ffffffffffffffffffffffffffffffffffffffff16815260200190815260200160002087815481101515610d3b57fe5b906000526020600020900160009054906101000a900473ffffffffffffffffffffffffffffffffffffffff1692508273ffffffffffffffffffffffffffffffffffffffff16638f85f92c6000604051602001526040518163ffffffff167c0100000000000000000000000000000000000000000000000000000000028152600401602060405180830381600087803b1515610dd557600080fd5b6102c65a03f11515610de657600080fd5b505050604051805190501515610dfb57600080fd5b8273ffffffffffffffffffffffffffffffffffffffff166383786f8c856000604051602001526040518263ffffffff167c0100000000000000000000000000000000000000000000000000000000028152600401808273ffffffffffffffffffffffffffffffffffffffff1673ffffffffffffffffffffffffffffffffffffffff168152602001915050602060405180830381600087803b1515610e9e57600080fd5b6102c65a03f11515610eaf57600080fd5b505050604051805190509150600082111515610eca57600080fd5b8790508073ffffffffffffffffffffffffffffffffffffffff166340c10f1985846000604051602001526040518363ffffffff167c0100000000000000000000000000000000000000000000000000000000028152600401808373ffffffffffffffffffffffffffffffffffffffff1673ffffffffffffffffffffffffffffffffffffffff16815260200182815260200192505050602060405180830381600087803b1515610f7857600080fd5b6102c65a03f11515610f8957600080fd5b505050604051805190501515610f9e57600080fd5b8273ffffffffffffffffffffffffffffffffffffffff1663112ed3f5856000604051602001526040518263ffffffff167c0100000000000000000000000000000000000000000000000000000000028152600401808273ffffffffffffffffffffffffffffffffffffffff1673ffffffffffffffffffffffffffffffffffffffff168152602001915050602060405180830381600087803b151561104157600080fd5b6102c65a03f1151561105257600080fd5b50505060405180519050151561106757600080fd5b60019450505050509392505050565b6000809054906101000a900473ffffffffffffffffffffffffffffffffffffffff1681565b60056020528060005260406000206000915090505481565b6000809054906101000a900473ffffffffffffffffffffffffffffffffffffffff1673ffffffffffffffffffffffffffffffffffffffff163373ffffffffffffffffffffffffffffffffffffffff1614151561110e57600080fd5b600073ffffffffffffffffffffffffffffffffffffffff168173ffffffffffffffffffffffffffffffffffffffff161415151561114a57600080fd5b8073ffffffffffffffffffffffffffffffffffffffff166000809054906101000a900473ffffffffffffffffffffffffffffffffffffffff1673ffffffffffffffffffffffffffffffffffffffff167f8be0079c531659141344cd1fd0a4f28419497f9722a3daafe3b4186f6b6457e060405160405180910390a3806000806101000a81548173ffffffffffffffffffffffffffffffffffffffff021916908373ffffffffffffffffffffffffffffffffffffffff16021790555050565b60008060008060008060009450600093505b86518410156113ec57868481518110151561123157fe5b9060200190602002015192508291508173ffffffffffffffffffffffffffffffffffffffff16639b3dfce06000604051602001526040518163ffffffff167c0100000000000000000000000000000000000000000000000000000000028152600401602060405180830381600087803b15156112ac57600080fd5b6102c65a03f115156112bd57600080fd5b5050506040518051905015156112d657600095506113f0565b8173ffffffffffffffffffffffffffffffffffffffff166397722acf6000604051602001526040518163ffffffff167c0100000000000000000000000000000000000000000000000000000000028152600401602060405180830381600087803b151561134257600080fd5b6102c65a03f1151561135357600080fd5b50505060405180519050905061137281866113fa90919063ffffffff16565b94507f73d563903347723905a32c77ec9e60577b6f569b3cbcb367d71dd532c52d469f8282604051808373ffffffffffffffffffffffffffffffffffffffff1673ffffffffffffffffffffffffffffffffffffffff1681526020018281526020019250505060405180910390a1838060010194505061121a565b8495505b5050505050919050565b600080828401905083811015151561140e57fe5b8091505092915050565b602060405190810160405280600081525090565b6040516115388061155b83390190565b8280548282559060005260206000209081019282156114b5579160200282015b828111156114b45782518260006101000a81548173ffffffffffffffffffffffffffffffffffffffff021916908373ffffffffffffffffffffffffffffffffffffffff1602179055509160200191906001019061145c565b5b5090506114c291906114f2565b5090565b8154818355818115116114ed578183600052602060002091820191016114ec9190611535565b5b505050565b61153291905b8082111561152e57600081816101000a81549073ffffffffffffffffffffffffffffffffffffffff0219169055506001016114f8565b5090565b90565b61155791905b8082111561155357600081600090555060010161153b565b5090565b90560060606040526000600360146101000a81548160ff0219169083151502179055506000600360156101000a81548160ff021916908315150217905550341561004557600080fd5b33600360006101000a81548173ffffffffffffffffffffffffffffffffffffffff021916908373ffffffffffffffffffffffffffffffffffffffff1602179055506114a3806100956000396000f3006060604052600436106100f1576000357c0100000000000000000000000000000000000000000000000000000000900463ffffffff16806305d2035b146100f657806306fdde0314610123578063095ea7b3146101b1578063158ef93e1461020b57806318160ddd1461023857806323b872dd14610261578063313ce567146102da57806340c10f191461030957806370a08231146103635780637d64bcb4146103b05780638da5cb5b146103dd57806395d89b411461043257806398cbefbe146104c0578063a4475ce4146105a3578063a9059cbb146105f8578063dd62ed3e14610652578063f2fde38b146106be575b600080fd5b341561010157600080fd5b6101096106f7565b604051808215151515815260200191505060405180910390f35b341561012e57600080fd5b61013661070a565b6040518080602001828103825283818151815260200191508051906020019080838360005b8381101561017657808201518184015260208101905061015b565b50505050905090810190601f1680156101a35780820380516001836020036101000a031916815260200191505b509250505060405180910390f35b34156101bc57600080fd5b6101f1600480803573ffffffffffffffffffffffffffffffffffffffff169060200190919080359060200190919050506107a8565b604051808215151515815260200191505060405180910390f35b341561021657600080fd5b61021e61089a565b604051808215151515815260200191505060405180910390f35b341561024357600080fd5b61024b6108ad565b6040518082815260200191505060405180910390f35b341561026c57600080fd5b6102c0600480803573ffffffffffffffffffffffffffffffffffffffff1690602001909190803573ffffffffffffffffffffffffffffffffffffffff169060200190919080359060200190919050506108b3565b604051808215151515815260200191505060405180910390f35b34156102e557600080fd5b6102ed610b4d565b604051808260ff1660ff16815260200191505060405180910390f35b341561031457600080fd5b610349600480803573ffffffffffffffffffffffffffffffffffffffff16906020019091908035906020019091905050610b60565b604051808215151515815260200191505060405180910390f35b341561036e57600080fd5b61039a600480803573ffffffffffffffffffffffffffffffffffffffff16906020019091905050610d48565b6040518082815260200191505060405180910390f35b34156103bb57600080fd5b6103c3610d91565b604051808215151515815260200191505060405180910390f35b34156103e857600080fd5b6103f0610e59565b604051808273ffffffffffffffffffffffffffffffffffffffff1673ffffffffffffffffffffffffffffffffffffffff16815260200191505060405180910390f35b341561043d57600080fd5b610445610e7f565b6040518080602001828103825283818151815260200191508051906020019080838360005b8381101561048557808201518184015260208101905061046a565b50505050905090810190601f1680156104b25780820380516001836020036101000a031916815260200191505b509250505060405180910390f35b34156104cb57600080fd5b610589600480803590602001908201803590602001908080601f0160208091040260200160405190810160405280939291908181526020018383808284378201915050505050509190803590602001908201803590602001908080601f0160208091040260200160405190810160405280939291908181526020018383808284378201915050505050509190803560ff1690602001909190803573ffffffffffffffffffffffffffffffffffffffff16906020019091905050610f1d565b604051808215151515815260200191505060405180910390f35b34156105ae57600080fd5b6105b6611056565b604051808273ffffffffffffffffffffffffffffffffffffffff1673ffffffffffffffffffffffffffffffffffffffff16815260200191505060405180910390f35b341561060357600080fd5b610638600480803573ffffffffffffffffffffffffffffffffffffffff1690602001909190803590602001909190505061107c565b604051808215151515815260200191505060405180910390f35b341561065d57600080fd5b6106a8600480803573ffffffffffffffffffffffffffffffffffffffff1690602001909190803573ffffffffffffffffffffffffffffffffffffffff169060200190919050506111d5565b6040518082815260200191505060405180910390f35b34156106c957600080fd5b6106f5600480803573ffffffffffffffffffffffffffffffffffffffff1690602001909190505061125c565b005b600360149054906101000a900460ff1681565b60048054600181600116156101000203166002900480601f0160208091040260200160405190810160405280929190818152602001828054600181600116156101000203166002900480156107a05780601f10610775576101008083540402835291602001916107a0565b820191906000526020600020905b81548152906001019060200180831161078357829003601f168201915b505050505081565b600081600260003373ffffffffffffffffffffffffffffffffffffffff1673ffffffffffffffffffffffffffffffffffffffff16815260200190815260200160002060008573ffffffffffffffffffffffffffffffffffffffff1673ffffffffffffffffffffffffffffffffffffffff168152602001908152602001600020819055508273ffffffffffffffffffffffffffffffffffffffff163373ffffffffffffffffffffffffffffffffffffffff167f8c5be1e5ebec7d5bd14f71427d1e84f3dd0314c0f7b2291e5b200ac8c7c3b925846040518082815260200191505060405180910390a36001905092915050565b600360159054906101000a900460ff1681565b60005481565b600080600260008673ffffffffffffffffffffffffffffffffffffffff1673ffffffffffffffffffffffffffffffffffffffff16815260200190815260200160002060003373ffffffffffffffffffffffffffffffffffffffff1673ffffffffffffffffffffffffffffffffffffffff16815260200190815260200160002054905082600160008773ffffffffffffffffffffffffffffffffffffffff1673ffffffffffffffffffffffffffffffffffffffff16815260200190815260200160002054101580156109845750828110155b151561098f57600080fd5b82600160008673ffffffffffffffffffffffffffffffffffffffff1673ffffffffffffffffffffffffffffffffffffffff1681526020019081526020016000206000828254019250508190555082600160008773ffffffffffffffffffffffffffffffffffffffff1673ffffffffffffffffffffffffffffffffffffffff168152602001908152602001600020600082825403925050819055507fffffffffffffffffffffffffffffffffffffffffffffffffffffffffffffffff811015610adc5782600260008773ffffffffffffffffffffffffffffffffffffffff1673ffffffffffffffffffffffffffffffffffffffff16815260200190815260200160002060003373ffffffffffffffffffffffffffffffffffffffff1673ffffffffffffffffffffffffffffffffffffffff168152602001908152602001600020600082825403925050819055505b8373ffffffffffffffffffffffffffffffffffffffff168573ffffffffffffffffffffffffffffffffffffffff167fddf252ad1be2c89b69c2b068fc378daa952ba7f163c4a11628f55a4df523b3ef856040518082815260200191505060405180910390a360019150509392505050565b600660009054906101000a900460ff1681565b6000600360009054906101000a900473ffffffffffffffffffffffffffffffffffffffff1673ffffffffffffffffffffffffffffffffffffffff163373ffffffffffffffffffffffffffffffffffffffff16141515610bbe57600080fd5b600360149054906101000a900460ff16151515610bda57600080fd5b610bef826000546113b490919063ffffffff16565b600081905550610c4782600160008673ffffffffffffffffffffffffffffffffffffffff1673ffffffffffffffffffffffffffffffffffffffff168152602001908152602001600020546113b490919063ffffffff16565b600160008573ffffffffffffffffffffffffffffffffffffffff1673ffffffffffffffffffffffffffffffffffffffff168152602001908152602001600020819055508273ffffffffffffffffffffffffffffffffffffffff167f0f6798a560793a54c3bcfe86a93cde1e73087d944c0ea20544137d4121396885836040518082815260200191505060405180910390a28273ffffffffffffffffffffffffffffffffffffffff16600073ffffffffffffffffffffffffffffffffffffffff167fddf252ad1be2c89b69c2b068fc378daa952ba7f163c4a11628f55a4df523b3ef846040518082815260200191505060405180910390a36001905092915050565b6000600160008373ffffffffffffffffffffffffffffffffffffffff1673ffffffffffffffffffffffffffffffffffffffff168152602001908152602001600020549050919050565b6000600360149054906101000a900460ff16151515610daf57600080fd5b600660019054906101000a900473ffffffffffffffffffffffffffffffffffffffff1673ffffffffffffffffffffffffffffffffffffffff163373ffffffffffffffffffffffffffffffffffffffff16141515610e0b57600080fd5b6001600360146101000a81548160ff0219169083151502179055507fae5184fba832cb2b1f702aca6117b8d265eaf03ad33eb133f19dde0f5920fa0860405160405180910390a16001905090565b600360009054906101000a900473ffffffffffffffffffffffffffffffffffffffff1681565b60058054600181600116156101000203166002900480601f016020809104026020016040519081016040528092919081815260200182805460018160011615610100020316600290048015610f155780601f10610eea57610100808354040283529160200191610f15565b820191906000526020600020905b815481529060010190602001808311610ef857829003601f168201915b505050505081565b6000600360009054906101000a900473ffffffffffffffffffffffffffffffffffffffff1673ffffffffffffffffffffffffffffffffffffffff163373ffffffffffffffffffffffffffffffffffffffff16141515610f7b57600080fd5b600360159054906101000a900460ff16151515610f9757600080fd5b8460049080519060200190610fad9291906113d2565b508360059080519060200190610fc49291906113d2565b5082600660006101000a81548160ff021916908360ff16021790555081600660016101000a81548173ffffffffffffffffffffffffffffffffffffffff021916908373ffffffffffffffffffffffffffffffffffffffff1602179055506001600360156101000a81548160ff021916908315150217905550600360159054906101000a900460ff169050949350505050565b600660019054906101000a900473ffffffffffffffffffffffffffffffffffffffff1681565b600081600160003373ffffffffffffffffffffffffffffffffffffffff1673ffffffffffffffffffffffffffffffffffffffff16815260200190815260200160002054101515156110cc57600080fd5b81600160003373ffffffffffffffffffffffffffffffffffffffff1673ffffffffffffffffffffffffffffffffffffffff1681526020019081526020016000206000828254039250508190555081600160008573ffffffffffffffffffffffffffffffffffffffff1673ffffffffffffffffffffffffffffffffffffffff168152602001908152602001600020600082825401925050819055508273ffffffffffffffffffffffffffffffffffffffff163373ffffffffffffffffffffffffffffffffffffffff167fddf252ad1be2c89b69c2b068fc378daa952ba7f163c4a11628f55a4df523b3ef846040518082815260200191505060405180910390a36001905092915050565b6000600260008473ffffffffffffffffffffffffffffffffffffffff1673ffffffffffffffffffffffffffffffffffffffff16815260200190815260200160002060008373ffffffffffffffffffffffffffffffffffffffff1673ffffffffffffffffffffffffffffffffffffffff16815260200190815260200160002054905092915050565b600360009054906101000a900473ffffffffffffffffffffffffffffffffffffffff1673ffffffffffffffffffffffffffffffffffffffff163373ffffffffffffffffffffffffffffffffffffffff161415156112b857600080fd5b600073ffffffffffffffffffffffffffffffffffffffff168173ffffffffffffffffffffffffffffffffffffffff16141515156112f457600080fd5b8073ffffffffffffffffffffffffffffffffffffffff16600360009054906101000a900473ffffffffffffffffffffffffffffffffffffffff1673ffffffffffffffffffffffffffffffffffffffff167f8be0079c531659141344cd1fd0a4f28419497f9722a3daafe3b4186f6b6457e060405160405180910390a380600360006101000a81548173ffffffffffffffffffffffffffffffffffffffff021916908373ffffffffffffffffffffffffffffffffffffffff16021790555050565b60008082840190508381101515156113c857fe5b8091505092915050565b828054600181600116156101000203166002900490600052602060002090601f016020900481019282601f1061141357805160ff1916838001178555611441565b82800160010185558215611441579182015b82811115611440578251825591602001919060010190611425565b5b50905061144e9190611452565b5090565b61147491905b80821115611470576000816000905550600101611458565b5090565b905600a165627a7a7230582030424aa297a962eda3a5a1cf5e0bb176027c175379943b311a8664d8e429e4940029a165627a7a72305820330ef8403799788dde5d871110b8b01b22d0476c5c7b5bc5138d30a6a04c51480029",
  "source": "pragma solidity ^0.4.18;\nimport \"./MintableToken.sol\";\nimport \"./AbsPoD.sol\";\n\n/// @title RICO - Responsible Initial Coin Offering\n/// @author - Yusaku Senga - <senga@dri.network>\n/// license let's see in LICENSE\n\ncontract RICO is Ownable {\n  /// using safemath\n  using SafeMath for uint256;\n  /**\n   * Events \n   */\n\n  event CreatedNewProject(string name, string symbol, uint8 decimals, uint256 supply, address[] pods, address token);\n  event CheckedPodsToken(address pod, uint256 supply);\n\n  /**\n   * Storage\n   */\n\n  string public name = \"RICO contract\";\n  string public version = \"0.9.3\";\n  address[] public tokens;\n\n  mapping(address => address[]) tokenToPods;\n  mapping(address => uint256) public maxSupplies;\n  /**\n   * constructor\n   * @dev define owner when this contract deployed.\n   */\n\n  function RICO() public { }\n\n  /**\n   * @dev newToken token meta Data implement for ERC-20 Token Standard Format.\n   * @param _name         set Token name of RICO format.\n   * @param _symbol       set Token symbol of RICO format.\n   * @param _decimals     set Token decimals of RICO format.\n   * @param _pods         set PoD contract addresses.\n   * @param _projectOwner set Token's owner.\n   */\n  function newProject(\n    string _name, \n    string _symbol, \n    uint8 _decimals, \n    address[] _pods,\n    address _projectOwner\n  ) \n  public returns (address) \n  {\n    uint256 totalSupply = checkPoDs(_pods);\n\n    require(totalSupply > 0);\n    \n    //generate a ERC20 mintable token.\n    MintableToken token = new MintableToken();\n\n    token.init(_name, _symbol, _decimals, _projectOwner);\n\n    tokenToPods[token] = _pods;\n\n    maxSupplies[token] = totalSupply;\n\n    tokens.push(token);\n\n    CreatedNewProject(_name, _symbol, _decimals, totalSupply, _pods, token);\n\n    return address(token);\n  }\n\n\n  /**\n   * @dev To confirm pods and check the token maximum supplies.\n   * @param _pods         set PoD contract addresses.\n   */\n\n  function checkPoDs(address[] _pods) internal returns (uint256) {\n    uint256 nowSupply = 0;\n    for (uint i = 0; i < _pods.length; i++) {\n      address podAddr = _pods[i];\n      AbsPoD pod = AbsPoD(podAddr);\n\n      if (!pod.isPoDStarted())\n        return 0;\n      \n      uint256 capOfToken = pod.getCapOfToken();\n      nowSupply = nowSupply.add(capOfToken);\n      CheckedPodsToken(address(pod), capOfToken);\n    }\n\n    return nowSupply;\n  }\n\n  /**\n   * @dev executes claim token when pod's status was ended.\n   * @param _tokenAddr         set the project's token address.\n   * @param _index             set a pods num of registered array.\n   * @param _user              set a minter address.\n   */\n\n  function mintToken(address _tokenAddr, uint _index, address _user) public returns(bool) {\n\n    address user = msg.sender;\n \n    if (_user != 0x0) {\n      user = _user;\n    }\n\n    require(tokenToPods[_tokenAddr][_index] != 0x0);\n\n    AbsPoD pod = AbsPoD(tokenToPods[_tokenAddr][_index]);\n\n    require(pod.isPoDEnded());\n\n    uint256 tokenValue = pod.getBalanceOfToken(user);\n\n    require(tokenValue > 0);\n\n    MintableToken token = MintableToken(_tokenAddr);\n\n    require(token.mint(user, tokenValue));\n\n    require(pod.resetWeiBalance(user));\n\n    return true;\n  }\n  \n\n  /**\n   * @dev To get pods addresses attached to token.\n   */\n\n  function getTokenPods(address _token) public constant returns (address[]) {\n    return tokenToPods[_token];\n  }\n}",
  "sourcePath": "/Users/sengayusaku/repo/RICO/contracts/RICO.sol",
  "compiler": {
    "name": "solc",
    "version": "0.4.18+commit.9cf6e910.Emscripten.clang"
  },
  "schemaVersion": "1.0.1",
  "updatedAt": "2018-01-09T18:07:15.433Z"
}