{
  "contractName": "RICO",
  "abi": [
    {
      "constant": true,
      "inputs": [],
      "name": "name",
      "outputs": [
        {
          "name": "",
          "type": "string"
        }
      ],
      "payable": false,
      "stateMutability": "view",
      "type": "function"
    },
    {
      "constant": true,
      "inputs": [
        {
          "name": "",
          "type": "uint256"
        }
      ],
      "name": "tokens",
      "outputs": [
        {
          "name": "",
          "type": "address"
        }
      ],
      "payable": false,
      "stateMutability": "view",
      "type": "function"
    },
    {
      "constant": true,
      "inputs": [],
      "name": "version",
      "outputs": [
        {
          "name": "",
          "type": "string"
        }
      ],
      "payable": false,
      "stateMutability": "view",
      "type": "function"
    },
    {
      "constant": false,
      "inputs": [
        {
          "name": "_tokenAddr",
          "type": "address"
        },
        {
          "name": "_pod",
          "type": "uint256"
        },
        {
          "name": "_user",
          "type": "address"
        }
      ],
      "name": "mintToken",
      "outputs": [
        {
          "name": "",
          "type": "bool"
        }
      ],
      "payable": false,
      "stateMutability": "nonpayable",
      "type": "function"
    },
    {
      "constant": true,
      "inputs": [],
      "name": "owner",
      "outputs": [
        {
          "name": "",
          "type": "address"
        }
      ],
      "payable": false,
      "stateMutability": "view",
      "type": "function"
    },
    {
      "constant": true,
      "inputs": [
        {
          "name": "",
          "type": "address"
        },
        {
          "name": "",
          "type": "uint256"
        }
      ],
      "name": "tokenToPods",
      "outputs": [
        {
          "name": "",
          "type": "address"
        }
      ],
      "payable": false,
      "stateMutability": "view",
      "type": "function"
    },
    {
      "constant": true,
      "inputs": [
        {
          "name": "",
          "type": "address"
        }
      ],
      "name": "totalSupplies",
      "outputs": [
        {
          "name": "",
          "type": "uint256"
        }
      ],
      "payable": false,
      "stateMutability": "view",
      "type": "function"
    },
    {
      "constant": false,
      "inputs": [
        {
          "name": "_name",
          "type": "string"
        },
        {
          "name": "_symbol",
          "type": "string"
        },
        {
          "name": "_decimals",
          "type": "uint8"
        },
        {
          "name": "_pods",
          "type": "address[]"
        }
      ],
      "name": "newProject",
      "outputs": [
        {
          "name": "",
          "type": "address"
        }
      ],
      "payable": false,
      "stateMutability": "nonpayable",
      "type": "function"
    },
    {
      "constant": false,
      "inputs": [
        {
          "name": "newOwner",
          "type": "address"
        }
      ],
      "name": "transferOwnership",
      "outputs": [],
      "payable": false,
      "stateMutability": "nonpayable",
      "type": "function"
    },
    {
      "inputs": [],
      "payable": false,
      "stateMutability": "nonpayable",
      "type": "constructor"
    },
    {
      "anonymous": false,
      "inputs": [
        {
          "indexed": false,
          "name": "name",
          "type": "string"
        },
        {
          "indexed": false,
          "name": "symbol",
          "type": "string"
        },
        {
          "indexed": false,
          "name": "decimals",
          "type": "uint8"
        },
        {
          "indexed": false,
          "name": "supply",
          "type": "uint256"
        },
        {
          "indexed": false,
          "name": "pods",
          "type": "address[]"
        },
        {
          "indexed": false,
          "name": "token",
          "type": "address"
        }
      ],
      "name": "CreatedNewProject",
      "type": "event"
    },
    {
      "anonymous": false,
      "inputs": [
        {
          "indexed": false,
          "name": "pod",
          "type": "address"
        },
        {
          "indexed": false,
          "name": "supply",
          "type": "uint256"
        }
      ],
      "name": "CheckedPodsToken",
      "type": "event"
    },
    {
      "anonymous": false,
      "inputs": [
        {
          "indexed": true,
          "name": "previousOwner",
          "type": "address"
        },
        {
          "indexed": true,
          "name": "newOwner",
          "type": "address"
        }
      ],
      "name": "OwnershipTransferred",
      "type": "event"
    }
  ],
  "bytecode": "0x60606040526040805190810160405280600d81526020017f5249434f20636f6e7472616374000000000000000000000000000000000000008152506001908051906020019062000051929190620000f2565b506040805190810160405280600581526020017f302e392e33000000000000000000000000000000000000000000000000000000815250600290805190602001906200009f929190620000f2565b503415620000ac57600080fd5b336000806101000a81548173ffffffffffffffffffffffffffffffffffffffff021916908373ffffffffffffffffffffffffffffffffffffffff160217905550620001a1565b828054600181600116156101000203166002900490600052602060002090601f016020900481019282601f106200013557805160ff191683800117855562000166565b8280016001018555821562000166579182015b828111156200016557825182559160200191906001019062000148565b5b50905062000175919062000179565b5090565b6200019e91905b808211156200019a57600081600090555060010162000180565b5090565b90565b6128b480620001b16000396000f300606060405260043610610099576000357c0100000000000000000000000000000000000000000000000000000000900463ffffffff16806306fdde031461009e5780634f64b2be1461012c57806354fd4d501461018f5780636dfada861461021d5780638da5cb5b1461029657806393c3dc1d146102eb5780639782e8211461036d578063c65f0de7146103ba578063f2fde38b146104e6575b600080fd5b34156100a957600080fd5b6100b161051f565b6040518080602001828103825283818151815260200191508051906020019080838360005b838110156100f15780820151818401526020810190506100d6565b50505050905090810190601f16801561011e5780820380516001836020036101000a031916815260200191505b509250505060405180910390f35b341561013757600080fd5b61014d60048080359060200190919050506105bd565b604051808273ffffffffffffffffffffffffffffffffffffffff1673ffffffffffffffffffffffffffffffffffffffff16815260200191505060405180910390f35b341561019a57600080fd5b6101a26105fc565b6040518080602001828103825283818151815260200191508051906020019080838360005b838110156101e25780820151818401526020810190506101c7565b50505050905090810190601f16801561020f5780820380516001836020036101000a031916815260200191505b509250505060405180910390f35b341561022857600080fd5b61027c600480803573ffffffffffffffffffffffffffffffffffffffff1690602001909190803590602001909190803573ffffffffffffffffffffffffffffffffffffffff1690602001909190505061069a565b604051808215151515815260200191505060405180910390f35b34156102a157600080fd5b6102a9610ac3565b604051808273ffffffffffffffffffffffffffffffffffffffff1673ffffffffffffffffffffffffffffffffffffffff16815260200191505060405180910390f35b34156102f657600080fd5b61032b600480803573ffffffffffffffffffffffffffffffffffffffff16906020019091908035906020019091905050610ae8565b604051808273ffffffffffffffffffffffffffffffffffffffff1673ffffffffffffffffffffffffffffffffffffffff16815260200191505060405180910390f35b341561037857600080fd5b6103a4600480803573ffffffffffffffffffffffffffffffffffffffff16906020019091905050610b36565b6040518082815260200191505060405180910390f35b34156103c557600080fd5b6104a4600480803590602001908201803590602001908080601f0160208091040260200160405190810160405280939291908181526020018383808284378201915050505050509190803590602001908201803590602001908080601f0160208091040260200160405190810160405280939291908181526020018383808284378201915050505050509190803560ff1690602001909190803590602001908201803590602001908080602002602001604051908101604052809392919081815260200183836020028082843782019150505050505091905050610b4e565b604051808273ffffffffffffffffffffffffffffffffffffffff1673ffffffffffffffffffffffffffffffffffffffff16815260200191505060405180910390f35b34156104f157600080fd5b61051d600480803573ffffffffffffffffffffffffffffffffffffffff16906020019091905050610fa4565b005b60018054600181600116156101000203166002900480601f0160208091040260200160405190810160405280929190818152602001828054600181600116156101000203166002900480156105b55780601f1061058a576101008083540402835291602001916105b5565b820191906000526020600020905b81548152906001019060200180831161059857829003601f168201915b505050505081565b6003818154811015156105cc57fe5b90600052602060002090016000915054906101000a900473ffffffffffffffffffffffffffffffffffffffff1681565b60028054600181600116156101000203166002900480601f0160208091040260200160405190810160405280929190818152602001828054600181600116156101000203166002900480156106925780601f1061066757610100808354040283529160200191610692565b820191906000526020600020905b81548152906001019060200180831161067557829003601f168201915b505050505081565b6000806000806000600460008973ffffffffffffffffffffffffffffffffffffffff1673ffffffffffffffffffffffffffffffffffffffff168152602001908152602001600020878154811015156106ee57fe5b906000526020600020900160009054906101000a900473ffffffffffffffffffffffffffffffffffffffff1673ffffffffffffffffffffffffffffffffffffffff161415151561073d57600080fd5b600460008873ffffffffffffffffffffffffffffffffffffffff1673ffffffffffffffffffffffffffffffffffffffff1681526020019081526020016000208681548110151561078957fe5b906000526020600020900160009054906101000a900473ffffffffffffffffffffffffffffffffffffffff1692508273ffffffffffffffffffffffffffffffffffffffff16638f85f92c6000604051602001526040518163ffffffff167c0100000000000000000000000000000000000000000000000000000000028152600401602060405180830381600087803b151561082357600080fd5b6102c65a03f1151561083457600080fd5b50505060405180519050151561084957600080fd5b8273ffffffffffffffffffffffffffffffffffffffff166383786f8c866000604051602001526040518263ffffffff167c0100000000000000000000000000000000000000000000000000000000028152600401808273ffffffffffffffffffffffffffffffffffffffff1673ffffffffffffffffffffffffffffffffffffffff168152602001915050602060405180830381600087803b15156108ec57600080fd5b6102c65a03f115156108fd57600080fd5b50505060405180519050915060008211151561091857600080fd5b8690508073ffffffffffffffffffffffffffffffffffffffff166340c10f1986846000604051602001526040518363ffffffff167c0100000000000000000000000000000000000000000000000000000000028152600401808373ffffffffffffffffffffffffffffffffffffffff1673ffffffffffffffffffffffffffffffffffffffff16815260200182815260200192505050602060405180830381600087803b15156109c657600080fd5b6102c65a03f115156109d757600080fd5b5050506040518051905015156109ec57600080fd5b8273ffffffffffffffffffffffffffffffffffffffff1663112ed3f5866000604051602001526040518263ffffffff167c0100000000000000000000000000000000000000000000000000000000028152600401808273ffffffffffffffffffffffffffffffffffffffff1673ffffffffffffffffffffffffffffffffffffffff168152602001915050602060405180830381600087803b1515610a8f57600080fd5b6102c65a03f11515610aa057600080fd5b505050604051805190501515610ab557600080fd5b600193505050509392505050565b6000809054906101000a900473ffffffffffffffffffffffffffffffffffffffff1681565b600460205281600052604060002081815481101515610b0357fe5b90600052602060002090016000915091509054906101000a900473ffffffffffffffffffffffffffffffffffffffff1681565b60056020528060005260406000206000915090505481565b6000806000610b5c846110f9565b9150600082111515610b6d57600080fd5b610b75611309565b604051809103906000f0801515610b8b57600080fd5b90508073ffffffffffffffffffffffffffffffffffffffff1663f57b01828888886000604051602001526040518463ffffffff167c01000000000000000000000000000000000000000000000000000000000281526004018080602001806020018460ff1660ff168152602001838103835286818151815260200191508051906020019080838360005b83811015610c30578082015181840152602081019050610c15565b50505050905090810190601f168015610c5d5780820380516001836020036101000a031916815260200191505b50838103825285818151815260200191508051906020019080838360005b83811015610c96578082015181840152602081019050610c7b565b50505050905090810190601f168015610cc35780820380516001836020036101000a031916815260200191505b5095505050505050602060405180830381600087803b1515610ce457600080fd5b6102c65a03f11515610cf557600080fd5b505050604051805190505083600460008373ffffffffffffffffffffffffffffffffffffffff1673ffffffffffffffffffffffffffffffffffffffff1681526020019081526020016000209080519060200190610d53929190611319565b5081600560008373ffffffffffffffffffffffffffffffffffffffff1673ffffffffffffffffffffffffffffffffffffffff1681526020019081526020016000208190555060038054806001018281610dac91906113a3565b9160005260206000209001600083909190916101000a81548173ffffffffffffffffffffffffffffffffffffffff021916908373ffffffffffffffffffffffffffffffffffffffff160217905550507f3c2cba77c9f52a23d345af4adc0a71124e8121df1f17d857055c2e3c08e74b438787878588866040518080602001806020018760ff1660ff168152602001868152602001806020018573ffffffffffffffffffffffffffffffffffffffff1673ffffffffffffffffffffffffffffffffffffffff16815260200184810384528a818151815260200191508051906020019080838360005b83811015610eae578082015181840152602081019050610e93565b50505050905090810190601f168015610edb5780820380516001836020036101000a031916815260200191505b50848103835289818151815260200191508051906020019080838360005b83811015610f14578082015181840152602081019050610ef9565b50505050905090810190601f168015610f415780820380516001836020036101000a031916815260200191505b50848103825286818151815260200191508051906020019060200280838360005b83811015610f7d578082015181840152602081019050610f62565b50505050905001995050505050505050505060405180910390a18092505050949350505050565b6000809054906101000a900473ffffffffffffffffffffffffffffffffffffffff1673ffffffffffffffffffffffffffffffffffffffff163373ffffffffffffffffffffffffffffffffffffffff16141515610fff57600080fd5b600073ffffffffffffffffffffffffffffffffffffffff168173ffffffffffffffffffffffffffffffffffffffff161415151561103b57600080fd5b8073ffffffffffffffffffffffffffffffffffffffff166000809054906101000a900473ffffffffffffffffffffffffffffffffffffffff1673ffffffffffffffffffffffffffffffffffffffff167f8be0079c531659141344cd1fd0a4f28419497f9722a3daafe3b4186f6b6457e060405160405180910390a3806000806101000a81548173ffffffffffffffffffffffffffffffffffffffff021916908373ffffffffffffffffffffffffffffffffffffffff16021790555050565b60008060008060008060009450600093505b86518410156112dd57868481518110151561112257fe5b9060200190602002015192508291508173ffffffffffffffffffffffffffffffffffffffff16639b3dfce06000604051602001526040518163ffffffff167c0100000000000000000000000000000000000000000000000000000000028152600401602060405180830381600087803b151561119d57600080fd5b6102c65a03f115156111ae57600080fd5b5050506040518051905015156111c757600095506112e1565b8173ffffffffffffffffffffffffffffffffffffffff166397722acf6000604051602001526040518163ffffffff167c0100000000000000000000000000000000000000000000000000000000028152600401602060405180830381600087803b151561123357600080fd5b6102c65a03f1151561124457600080fd5b50505060405180519050905061126381866112eb90919063ffffffff16565b94507f73d563903347723905a32c77ec9e60577b6f569b3cbcb367d71dd532c52d469f8282604051808373ffffffffffffffffffffffffffffffffffffffff1673ffffffffffffffffffffffffffffffffffffffff1681526020018281526020019250505060405180910390a1838060010194505061110b565b8495505b5050505050919050565b60008082840190508381101515156112ff57fe5b8091505092915050565b6040516114518061143883390190565b828054828255906000526020600020908101928215611392579160200282015b828111156113915782518260006101000a81548173ffffffffffffffffffffffffffffffffffffffff021916908373ffffffffffffffffffffffffffffffffffffffff16021790555091602001919060010190611339565b5b50905061139f91906113cf565b5090565b8154818355818115116113ca578183600052602060002091820191016113c99190611412565b5b505050565b61140f91905b8082111561140b57600081816101000a81549073ffffffffffffffffffffffffffffffffffffffff0219169055506001016113d5565b5090565b90565b61143491905b80821115611430576000816000905550600101611418565b5090565b90560060606040526000600360146101000a81548160ff0219169083151502179055506000600360156101000a81548160ff021916908315150217905550341561004557600080fd5b33600360006101000a81548173ffffffffffffffffffffffffffffffffffffffff021916908373ffffffffffffffffffffffffffffffffffffffff1602179055506113bc806100956000396000f3006060604052600436106100e6576000357c0100000000000000000000000000000000000000000000000000000000900463ffffffff16806305d2035b146100eb57806306fdde0314610118578063095ea7b3146101a6578063158ef93e1461020057806318160ddd1461022d57806323b872dd14610256578063313ce567146102cf57806340c10f19146102fe57806370a08231146103585780637d64bcb4146103a55780638da5cb5b146103d257806395d89b4114610427578063a9059cbb146104b5578063dd62ed3e1461050f578063f2fde38b1461057b578063f57b0182146105b4575b600080fd5b34156100f657600080fd5b6100fe610678565b604051808215151515815260200191505060405180910390f35b341561012357600080fd5b61012b61068b565b6040518080602001828103825283818151815260200191508051906020019080838360005b8381101561016b578082015181840152602081019050610150565b50505050905090810190601f1680156101985780820380516001836020036101000a031916815260200191505b509250505060405180910390f35b34156101b157600080fd5b6101e6600480803573ffffffffffffffffffffffffffffffffffffffff16906020019091908035906020019091905050610729565b604051808215151515815260200191505060405180910390f35b341561020b57600080fd5b61021361081b565b604051808215151515815260200191505060405180910390f35b341561023857600080fd5b61024061082e565b6040518082815260200191505060405180910390f35b341561026157600080fd5b6102b5600480803573ffffffffffffffffffffffffffffffffffffffff1690602001909190803573ffffffffffffffffffffffffffffffffffffffff16906020019091908035906020019091905050610834565b604051808215151515815260200191505060405180910390f35b34156102da57600080fd5b6102e2610ace565b604051808260ff1660ff16815260200191505060405180910390f35b341561030957600080fd5b61033e600480803573ffffffffffffffffffffffffffffffffffffffff16906020019091908035906020019091905050610ae1565b604051808215151515815260200191505060405180910390f35b341561036357600080fd5b61038f600480803573ffffffffffffffffffffffffffffffffffffffff16906020019091905050610cc9565b6040518082815260200191505060405180910390f35b34156103b057600080fd5b6103b8610d12565b604051808215151515815260200191505060405180910390f35b34156103dd57600080fd5b6103e5610dda565b604051808273ffffffffffffffffffffffffffffffffffffffff1673ffffffffffffffffffffffffffffffffffffffff16815260200191505060405180910390f35b341561043257600080fd5b61043a610e00565b6040518080602001828103825283818151815260200191508051906020019080838360005b8381101561047a57808201518184015260208101905061045f565b50505050905090810190601f1680156104a75780820380516001836020036101000a031916815260200191505b509250505060405180910390f35b34156104c057600080fd5b6104f5600480803573ffffffffffffffffffffffffffffffffffffffff16906020019091908035906020019091905050610e9e565b604051808215151515815260200191505060405180910390f35b341561051a57600080fd5b610565600480803573ffffffffffffffffffffffffffffffffffffffff1690602001909190803573ffffffffffffffffffffffffffffffffffffffff16906020019091905050610ff7565b6040518082815260200191505060405180910390f35b341561058657600080fd5b6105b2600480803573ffffffffffffffffffffffffffffffffffffffff1690602001909190505061107e565b005b34156105bf57600080fd5b61065e600480803590602001908201803590602001908080601f0160208091040260200160405190810160405280939291908181526020018383808284378201915050505050509190803590602001908201803590602001908080601f0160208091040260200160405190810160405280939291908181526020018383808284378201915050505050509190803560ff169060200190919050506111d6565b604051808215151515815260200191505060405180910390f35b600360149054906101000a900460ff1681565b60048054600181600116156101000203166002900480601f0160208091040260200160405190810160405280929190818152602001828054600181600116156101000203166002900480156107215780601f106106f657610100808354040283529160200191610721565b820191906000526020600020905b81548152906001019060200180831161070457829003601f168201915b505050505081565b600081600260003373ffffffffffffffffffffffffffffffffffffffff1673ffffffffffffffffffffffffffffffffffffffff16815260200190815260200160002060008573ffffffffffffffffffffffffffffffffffffffff1673ffffffffffffffffffffffffffffffffffffffff168152602001908152602001600020819055508273ffffffffffffffffffffffffffffffffffffffff163373ffffffffffffffffffffffffffffffffffffffff167f8c5be1e5ebec7d5bd14f71427d1e84f3dd0314c0f7b2291e5b200ac8c7c3b925846040518082815260200191505060405180910390a36001905092915050565b600360159054906101000a900460ff1681565b60005481565b600080600260008673ffffffffffffffffffffffffffffffffffffffff1673ffffffffffffffffffffffffffffffffffffffff16815260200190815260200160002060003373ffffffffffffffffffffffffffffffffffffffff1673ffffffffffffffffffffffffffffffffffffffff16815260200190815260200160002054905082600160008773ffffffffffffffffffffffffffffffffffffffff1673ffffffffffffffffffffffffffffffffffffffff16815260200190815260200160002054101580156109055750828110155b151561091057600080fd5b82600160008673ffffffffffffffffffffffffffffffffffffffff1673ffffffffffffffffffffffffffffffffffffffff1681526020019081526020016000206000828254019250508190555082600160008773ffffffffffffffffffffffffffffffffffffffff1673ffffffffffffffffffffffffffffffffffffffff168152602001908152602001600020600082825403925050819055507fffffffffffffffffffffffffffffffffffffffffffffffffffffffffffffffff811015610a5d5782600260008773ffffffffffffffffffffffffffffffffffffffff1673ffffffffffffffffffffffffffffffffffffffff16815260200190815260200160002060003373ffffffffffffffffffffffffffffffffffffffff1673ffffffffffffffffffffffffffffffffffffffff168152602001908152602001600020600082825403925050819055505b8373ffffffffffffffffffffffffffffffffffffffff168573ffffffffffffffffffffffffffffffffffffffff167fddf252ad1be2c89b69c2b068fc378daa952ba7f163c4a11628f55a4df523b3ef856040518082815260200191505060405180910390a360019150509392505050565b600660009054906101000a900460ff1681565b6000600360009054906101000a900473ffffffffffffffffffffffffffffffffffffffff1673ffffffffffffffffffffffffffffffffffffffff163373ffffffffffffffffffffffffffffffffffffffff16141515610b3f57600080fd5b600360149054906101000a900460ff16151515610b5b57600080fd5b610b70826000546112cd90919063ffffffff16565b600081905550610bc882600160008673ffffffffffffffffffffffffffffffffffffffff1673ffffffffffffffffffffffffffffffffffffffff168152602001908152602001600020546112cd90919063ffffffff16565b600160008573ffffffffffffffffffffffffffffffffffffffff1673ffffffffffffffffffffffffffffffffffffffff168152602001908152602001600020819055508273ffffffffffffffffffffffffffffffffffffffff167f0f6798a560793a54c3bcfe86a93cde1e73087d944c0ea20544137d4121396885836040518082815260200191505060405180910390a28273ffffffffffffffffffffffffffffffffffffffff16600073ffffffffffffffffffffffffffffffffffffffff167fddf252ad1be2c89b69c2b068fc378daa952ba7f163c4a11628f55a4df523b3ef846040518082815260200191505060405180910390a36001905092915050565b6000600160008373ffffffffffffffffffffffffffffffffffffffff1673ffffffffffffffffffffffffffffffffffffffff168152602001908152602001600020549050919050565b6000600360009054906101000a900473ffffffffffffffffffffffffffffffffffffffff1673ffffffffffffffffffffffffffffffffffffffff163373ffffffffffffffffffffffffffffffffffffffff16141515610d7057600080fd5b600360149054906101000a900460ff16151515610d8c57600080fd5b6001600360146101000a81548160ff0219169083151502179055507fae5184fba832cb2b1f702aca6117b8d265eaf03ad33eb133f19dde0f5920fa0860405160405180910390a16001905090565b600360009054906101000a900473ffffffffffffffffffffffffffffffffffffffff1681565b60058054600181600116156101000203166002900480601f016020809104026020016040519081016040528092919081815260200182805460018160011615610100020316600290048015610e965780601f10610e6b57610100808354040283529160200191610e96565b820191906000526020600020905b815481529060010190602001808311610e7957829003601f168201915b505050505081565b600081600160003373ffffffffffffffffffffffffffffffffffffffff1673ffffffffffffffffffffffffffffffffffffffff1681526020019081526020016000205410151515610eee57600080fd5b81600160003373ffffffffffffffffffffffffffffffffffffffff1673ffffffffffffffffffffffffffffffffffffffff1681526020019081526020016000206000828254039250508190555081600160008573ffffffffffffffffffffffffffffffffffffffff1673ffffffffffffffffffffffffffffffffffffffff168152602001908152602001600020600082825401925050819055508273ffffffffffffffffffffffffffffffffffffffff163373ffffffffffffffffffffffffffffffffffffffff167fddf252ad1be2c89b69c2b068fc378daa952ba7f163c4a11628f55a4df523b3ef846040518082815260200191505060405180910390a36001905092915050565b6000600260008473ffffffffffffffffffffffffffffffffffffffff1673ffffffffffffffffffffffffffffffffffffffff16815260200190815260200160002060008373ffffffffffffffffffffffffffffffffffffffff1673ffffffffffffffffffffffffffffffffffffffff16815260200190815260200160002054905092915050565b600360009054906101000a900473ffffffffffffffffffffffffffffffffffffffff1673ffffffffffffffffffffffffffffffffffffffff163373ffffffffffffffffffffffffffffffffffffffff161415156110da57600080fd5b600073ffffffffffffffffffffffffffffffffffffffff168173ffffffffffffffffffffffffffffffffffffffff161415151561111657600080fd5b8073ffffffffffffffffffffffffffffffffffffffff16600360009054906101000a900473ffffffffffffffffffffffffffffffffffffffff1673ffffffffffffffffffffffffffffffffffffffff167f8be0079c531659141344cd1fd0a4f28419497f9722a3daafe3b4186f6b6457e060405160405180910390a380600360006101000a81548173ffffffffffffffffffffffffffffffffffffffff021916908373ffffffffffffffffffffffffffffffffffffffff16021790555050565b6000600360009054906101000a900473ffffffffffffffffffffffffffffffffffffffff1673ffffffffffffffffffffffffffffffffffffffff163373ffffffffffffffffffffffffffffffffffffffff1614151561123457600080fd5b600360159054906101000a900460ff1615151561125057600080fd5b83600490805190602001906112669291906112eb565b50826005908051906020019061127d9291906112eb565b5081600660006101000a81548160ff021916908360ff1602179055506001600360156101000a81548160ff021916908315150217905550600360159054906101000a900460ff1690509392505050565b60008082840190508381101515156112e157fe5b8091505092915050565b828054600181600116156101000203166002900490600052602060002090601f016020900481019282601f1061132c57805160ff191683800117855561135a565b8280016001018555821561135a579182015b8281111561135957825182559160200191906001019061133e565b5b509050611367919061136b565b5090565b61138d91905b80821115611389576000816000905550600101611371565b5090565b905600a165627a7a723058204e5efb90bea7368a8e027f56f0e696dcf960e3406887c785f2fcf2f7f82890620029a165627a7a723058201b41a4952da282a3d0d3af1c33b6922c6b61d28023212c33f88c4b7dc06eb9310029",
  "source": "pragma solidity ^0.4.18;\nimport \"./MintableToken.sol\";\nimport \"./AbsPoD.sol\";\n\n/// @title RICO - Responsible Initial Coin Offering\n/// @author - Yusaku Senga - <senga@dri.network>\n/// license let's see in LICENSE\n/// @notice TokenRound chose a index for pod execute modes. \n/// 0. Attach ToB pod. podType == 101\n/// 1~ Attach Custom pod. podType == 111\n\ncontract RICO is Ownable {\n  /// using safemath\n  using SafeMath for uint256;\n  /**\n   * Events \n   */\n\n  event CreatedNewProject(string name, string symbol, uint8 decimals, uint256 supply, address[] pods, address token);\n  event CheckedPodsToken(address pod, uint256 supply);\n\n  /**\n   * Storage\n   */\n\n  string public name = \"RICO contract\";\n  string public version = \"0.9.3\";\n  address[] public tokens;\n\n  mapping(address => address[]) public tokenToPods;\n  mapping(address => uint256) public totalSupplies;\n  /**\n   * constructor\n   * @dev define owner when this contract deployed.\n   */\n\n  function RICO() public { }\n\n  /**\n   * @dev newToken token meta Data implement for ERC-20 Token Standard Format.\n   * @param _name         set Token name of RICO format.\n   * @param _symbol       set Token symbol of RICO format.\n   * @param _decimals     set Token decimals of RICO format.\n   */\n  function newProject(\n    string _name, \n    string _symbol, \n    uint8 _decimals, \n    address[] _pods\n  ) \n  public returns (address) \n  {\n    uint256 totalSupply = checkPoDs(_pods);\n\n    require(totalSupply > 0);\n    \n    //generate a ERC20 mintable token.\n    MintableToken token = new MintableToken();\n\n    token.init(_name, _symbol, _decimals);\n\n    tokenToPods[token] = _pods;\n\n    totalSupplies[token] = totalSupply;\n\n    tokens.push(token);\n\n    CreatedNewProject(_name, _symbol, _decimals, totalSupply, _pods, token);\n\n    return address(token);\n  }\n\n\n  /**\n   * @dev confirm token creation strategy by projectOwner.\n   */\n\n  function checkPoDs(address[] _pods) internal returns (uint256) {\n    uint256 nowSupply = 0;\n    for (uint i = 0; i < _pods.length; i++) {\n      address podAddr = _pods[i];\n      AbsPoD pod = AbsPoD(podAddr);\n\n      if (!pod.isPoDStarted())\n        return 0;\n      \n      uint256 capOfToken = pod.getCapOfToken();\n      nowSupply = nowSupply.add(capOfToken);\n      CheckedPodsToken(address(pod), capOfToken);\n    }\n\n    return nowSupply;\n  }\n\n  /**\n   * @dev executes claim token when auction trading time elapsed.\n   */\n\n  function mintToken(address _tokenAddr, uint _pod, address _user) public returns(bool) {\n\n    require(tokenToPods[_tokenAddr][_pod] != 0x0);\n\n    AbsPoD pod = AbsPoD(tokenToPods[_tokenAddr][_pod]);\n\n    require(pod.isPoDEnded());\n\n    uint256 tokenValue = pod.getBalanceOfToken(_user);\n\n    require(tokenValue > 0);\n\n    MintableToken token = MintableToken(_tokenAddr);\n\n    require(token.mint(_user, tokenValue));\n\n    require(pod.resetWeiBalance(_user));\n\n    return true;\n  }\n}",
  "sourcePath": "/Users/sengayusaku/repo/test/RICO/contracts/RICO.sol",
  "compiler": {
    "name": "solc",
    "version": "0.4.18+commit.9cf6e910.Emscripten.clang"
  },
  "schemaVersion": "1.0.1",
  "updatedAt": "2017-12-25T21:07:40.945Z"
}