{
  "contractName": "RICOStandardPoD",
  "abi": [
    {
      "constant": true,
      "inputs": [],
      "name": "name",
      "outputs": [
        {
          "name": "",
          "type": "string"
        }
      ],
      "payable": false,
      "stateMutability": "view",
      "type": "function"
    },
    {
      "constant": true,
      "inputs": [
        {
          "name": "_user",
          "type": "address"
        }
      ],
      "name": "getBalanceOfWei",
      "outputs": [
        {
          "name": "",
          "type": "uint256"
        }
      ],
      "payable": false,
      "stateMutability": "view",
      "type": "function"
    },
    {
      "constant": false,
      "inputs": [
        {
          "name": "_user",
          "type": "address"
        }
      ],
      "name": "resetWeiBalance",
      "outputs": [
        {
          "name": "",
          "type": "bool"
        }
      ],
      "payable": false,
      "stateMutability": "nonpayable",
      "type": "function"
    },
    {
      "constant": false,
      "inputs": [
        {
          "name": "_tokenDecimals",
          "type": "uint8"
        },
        {
          "name": "_startTimeOfPoD",
          "type": "uint256"
        },
        {
          "name": "_capOfToken",
          "type": "uint256"
        },
        {
          "name": "_capOfWei",
          "type": "uint256"
        },
        {
          "name": "_owners",
          "type": "address[2]"
        },
        {
          "name": "_marketMakers",
          "type": "address[]"
        },
        {
          "name": "_secondCapOfToken",
          "type": "uint256"
        }
      ],
      "name": "init",
      "outputs": [
        {
          "name": "",
          "type": "bool"
        }
      ],
      "payable": false,
      "stateMutability": "nonpayable",
      "type": "function"
    },
    {
      "constant": true,
      "inputs": [],
      "name": "status",
      "outputs": [
        {
          "name": "",
          "type": "uint8"
        }
      ],
      "payable": false,
      "stateMutability": "view",
      "type": "function"
    },
    {
      "constant": true,
      "inputs": [],
      "name": "getEndTime",
      "outputs": [
        {
          "name": "",
          "type": "uint256"
        }
      ],
      "payable": false,
      "stateMutability": "view",
      "type": "function"
    },
    {
      "constant": true,
      "inputs": [],
      "name": "getTokenPrice",
      "outputs": [
        {
          "name": "",
          "type": "uint256"
        }
      ],
      "payable": false,
      "stateMutability": "view",
      "type": "function"
    },
    {
      "constant": true,
      "inputs": [],
      "name": "wallet",
      "outputs": [
        {
          "name": "",
          "type": "address"
        }
      ],
      "payable": false,
      "stateMutability": "view",
      "type": "function"
    },
    {
      "constant": true,
      "inputs": [],
      "name": "version",
      "outputs": [
        {
          "name": "",
          "type": "string"
        }
      ],
      "payable": false,
      "stateMutability": "view",
      "type": "function"
    },
    {
      "constant": true,
      "inputs": [],
      "name": "getCapOfWei",
      "outputs": [
        {
          "name": "",
          "type": "uint256"
        }
      ],
      "payable": false,
      "stateMutability": "view",
      "type": "function"
    },
    {
      "constant": true,
      "inputs": [],
      "name": "buyer",
      "outputs": [
        {
          "name": "",
          "type": "address"
        }
      ],
      "payable": false,
      "stateMutability": "view",
      "type": "function"
    },
    {
      "constant": true,
      "inputs": [
        {
          "name": "_user",
          "type": "address"
        }
      ],
      "name": "getBalanceOfToken",
      "outputs": [
        {
          "name": "",
          "type": "uint256"
        }
      ],
      "payable": false,
      "stateMutability": "view",
      "type": "function"
    },
    {
      "constant": true,
      "inputs": [],
      "name": "owner",
      "outputs": [
        {
          "name": "",
          "type": "address"
        }
      ],
      "payable": false,
      "stateMutability": "view",
      "type": "function"
    },
    {
      "constant": true,
      "inputs": [],
      "name": "isPoDEnded",
      "outputs": [
        {
          "name": "",
          "type": "bool"
        }
      ],
      "payable": false,
      "stateMutability": "view",
      "type": "function"
    },
    {
      "constant": true,
      "inputs": [],
      "name": "getCapOfToken",
      "outputs": [
        {
          "name": "",
          "type": "uint256"
        }
      ],
      "payable": false,
      "stateMutability": "view",
      "type": "function"
    },
    {
      "constant": true,
      "inputs": [],
      "name": "isPoDStarted",
      "outputs": [
        {
          "name": "",
          "type": "bool"
        }
      ],
      "payable": false,
      "stateMutability": "view",
      "type": "function"
    },
    {
      "constant": false,
      "inputs": [
        {
          "name": "_index",
          "type": "uint256"
        },
        {
          "name": "_amount",
          "type": "uint256"
        }
      ],
      "name": "distributeWei",
      "outputs": [
        {
          "name": "",
          "type": "bool"
        }
      ],
      "payable": false,
      "stateMutability": "nonpayable",
      "type": "function"
    },
    {
      "constant": true,
      "inputs": [],
      "name": "tokenMultiplier",
      "outputs": [
        {
          "name": "",
          "type": "uint256"
        }
      ],
      "payable": false,
      "stateMutability": "view",
      "type": "function"
    },
    {
      "constant": true,
      "inputs": [],
      "name": "getStartTime",
      "outputs": [
        {
          "name": "",
          "type": "uint256"
        }
      ],
      "payable": false,
      "stateMutability": "view",
      "type": "function"
    },
    {
      "constant": true,
      "inputs": [
        {
          "name": "",
          "type": "uint256"
        }
      ],
      "name": "marketMakers",
      "outputs": [
        {
          "name": "",
          "type": "address"
        }
      ],
      "payable": false,
      "stateMutability": "view",
      "type": "function"
    },
    {
      "constant": true,
      "inputs": [],
      "name": "secondCapOfToken",
      "outputs": [
        {
          "name": "",
          "type": "uint256"
        }
      ],
      "payable": false,
      "stateMutability": "view",
      "type": "function"
    },
    {
      "constant": false,
      "inputs": [],
      "name": "donate",
      "outputs": [
        {
          "name": "",
          "type": "bool"
        }
      ],
      "payable": true,
      "stateMutability": "payable",
      "type": "function"
    },
    {
      "constant": false,
      "inputs": [
        {
          "name": "newOwner",
          "type": "address"
        }
      ],
      "name": "transferOwnership",
      "outputs": [],
      "payable": false,
      "stateMutability": "nonpayable",
      "type": "function"
    },
    {
      "inputs": [],
      "payable": false,
      "stateMutability": "nonpayable",
      "type": "constructor"
    },
    {
      "payable": true,
      "stateMutability": "payable",
      "type": "fallback"
    },
    {
      "anonymous": false,
      "inputs": [
        {
          "indexed": false,
          "name": "user",
          "type": "address"
        },
        {
          "indexed": false,
          "name": "amount",
          "type": "uint256"
        }
      ],
      "name": "Donated",
      "type": "event"
    },
    {
      "anonymous": false,
      "inputs": [
        {
          "indexed": false,
          "name": "time",
          "type": "uint256"
        }
      ],
      "name": "Ended",
      "type": "event"
    },
    {
      "anonymous": false,
      "inputs": [
        {
          "indexed": true,
          "name": "previousOwner",
          "type": "address"
        },
        {
          "indexed": true,
          "name": "newOwner",
          "type": "address"
        }
      ],
      "name": "OwnershipTransferred",
      "type": "event"
    }
  ],
  "bytecode": "0x606060405234156200001057600080fd5b336000806101000a81548173ffffffffffffffffffffffffffffffffffffffff021916908373ffffffffffffffffffffffffffffffffffffffff1602179055506000600b60006101000a81548160ff021916908360028111156200007057fe5b0217905550600060078190555033600360006101000a81548173ffffffffffffffffffffffffffffffffffffffff021916908373ffffffffffffffffffffffffffffffffffffffff160217905550606060405190810160405280603181526020017f5374616e64617264506f4420737472617465677920746f6b656e50726963652081526020017f3d20636170546f6b656e2f636170576569000000000000000000000000000000815250600190805190602001906200013292919062000187565b506040805190810160405280600581526020017f302e392e33000000000000000000000000000000000000000000000000000000815250600290805190602001906200018092919062000187565b5062000236565b828054600181600116156101000203166002900490600052602060002090601f016020900481019282601f10620001ca57805160ff1916838001178555620001fb565b82800160010185558215620001fb579182015b82811115620001fa578251825591602001919060010190620001dd565b5b5090506200020a91906200020e565b5090565b6200023391905b808211156200022f57600081600090555060010162000215565b5090565b90565b61157480620002466000396000f300606060405260043610610133576000357c0100000000000000000000000000000000000000000000000000000000900463ffffffff16806306fdde031461013e57806309fc93c1146101cc578063112ed3f51461021957806318deb0661461026a578063200d2ed214610338578063439f5ac21461036f5780634b94f50e14610398578063521eb273146103c157806354fd4d50146104165780636ccce7a8146104a45780637150d8ae146104cd57806383786f8c146105225780638da5cb5b1461056f5780638f85f92c146105c457806397722acf146105f15780639b3dfce01461061a578063aa985a6314610647578063ba3f5a121461068b578063c828371e146106b4578063df7271bc146106dd578063ea750d2914610740578063ed88c68e14610769578063f2fde38b1461078b575b61013b6107c4565b50005b341561014957600080fd5b61015161098c565b6040518080602001828103825283818151815260200191508051906020019080838360005b83811015610191578082015181840152602081019050610176565b50505050905090810190601f1680156101be5780820380516001836020036101000a031916815260200191505b509250505060405180910390f35b34156101d757600080fd5b610203600480803573ffffffffffffffffffffffffffffffffffffffff16906020019091905050610a2a565b6040518082815260200191505060405180910390f35b341561022457600080fd5b610250600480803573ffffffffffffffffffffffffffffffffffffffff16906020019091905050610a73565b604051808215151515815260200191505060405180910390f35b341561027557600080fd5b61031e600480803560ff16906020019091908035906020019091908035906020019091908035906020019091908060400190600280602002604051908101604052809291908260026020028082843782019150505050509190803590602001908201803590602001908080602002602001604051908101604052809392919081815260200183836020028082843782019150505050505091908035906020019091905050610b51565b604051808215151515815260200191505060405180910390f35b341561034357600080fd5b61034b610d6b565b6040518082600281111561035b57fe5b60ff16815260200191505060405180910390f35b341561037a57600080fd5b610382610d7e565b6040518082815260200191505060405180910390f35b34156103a357600080fd5b6103ab610d88565b6040518082815260200191505060405180910390f35b34156103cc57600080fd5b6103d4610d92565b604051808273ffffffffffffffffffffffffffffffffffffffff1673ffffffffffffffffffffffffffffffffffffffff16815260200191505060405180910390f35b341561042157600080fd5b610429610db8565b6040518080602001828103825283818151815260200191508051906020019080838360005b8381101561046957808201518184015260208101905061044e565b50505050905090810190601f1680156104965780820380516001836020036101000a031916815260200191505b509250505060405180910390f35b34156104af57600080fd5b6104b7610e56565b6040518082815260200191505060405180910390f35b34156104d857600080fd5b6104e0610e60565b604051808273ffffffffffffffffffffffffffffffffffffffff1673ffffffffffffffffffffffffffffffffffffffff16815260200191505060405180910390f35b341561052d57600080fd5b610559600480803573ffffffffffffffffffffffffffffffffffffffff16906020019091905050610e86565b6040518082815260200191505060405180910390f35b341561057a57600080fd5b610582610faa565b604051808273ffffffffffffffffffffffffffffffffffffffff1673ffffffffffffffffffffffffffffffffffffffff16815260200191505060405180910390f35b34156105cf57600080fd5b6105d7610fcf565b604051808215151515815260200191505060405180910390f35b34156105fc57600080fd5b61060461100f565b6040518082815260200191505060405180910390f35b341561062557600080fd5b61062d611019565b604051808215151515815260200191505060405180910390f35b341561065257600080fd5b610671600480803590602001909190803590602001909190505061105a565b604051808215151515815260200191505060405180910390f35b341561069657600080fd5b61069e611162565b6040518082815260200191505060405180910390f35b34156106bf57600080fd5b6106c7611168565b6040518082815260200191505060405180910390f35b34156106e857600080fd5b6106fe6004808035906020019091905050611172565b604051808273ffffffffffffffffffffffffffffffffffffffff1673ffffffffffffffffffffffffffffffffffffffff16815260200191505060405180910390f35b341561074b57600080fd5b6107536111b1565b6040518082815260200191505060405180910390f35b6107716107c4565b604051808215151515815260200191505060405180910390f35b341561079657600080fd5b6107c2600480803573ffffffffffffffffffffffffffffffffffffffff169060200190919050506111b7565b005b6000600160028111156107d357fe5b600b60009054906101000a900460ff1660028111156107ee57fe5b1415156107fa57600080fd5b600454421015151561080b57600080fd5b6412a05f20003a1115151561081f57600080fd5b6108283361130c565b151561089357426005819055506002600b60006101000a81548160ff0219169083600281111561085457fe5b02179055507f601095663bda08ac0f932087ef2eb08e42e4bcd1927f3a8d9500f6ad2c5aef906005546040518082815260200191505060405180910390a15b6108a83460075461144490919063ffffffff16565b600781905550600034111561091a57600360009054906101000a900473ffffffffffffffffffffffffffffffffffffffff1673ffffffffffffffffffffffffffffffffffffffff166108fc349081150290604051600060405180830381858888f19350505050151561091957600080fd5b5b7f2a01595cddf097c90216094025db714da3f4e5bd8877b56ba86a24ecead8e5433334604051808373ffffffffffffffffffffffffffffffffffffffff1673ffffffffffffffffffffffffffffffffffffffff1681526020018281526020019250505060405180910390a16001905090565b60018054600181600116156101000203166002900480601f016020809104026020016040519081016040528092919081815260200182805460018160011615610100020316600290048015610a225780601f106109f757610100808354040283529160200191610a22565b820191906000526020600020905b815481529060010190602001808311610a0557829003601f168201915b505050505081565b6000600a60008373ffffffffffffffffffffffffffffffffffffffff1673ffffffffffffffffffffffffffffffffffffffff168152602001908152602001600020549050919050565b60008060009054906101000a900473ffffffffffffffffffffffffffffffffffffffff1673ffffffffffffffffffffffffffffffffffffffff163373ffffffffffffffffffffffffffffffffffffffff16141515610ad057600080fd5b600280811115610adc57fe5b600b60009054906101000a900460ff166002811115610af757fe5b141515610b0357600080fd5b6000600a60008473ffffffffffffffffffffffffffffffffffffffff1673ffffffffffffffffffffffffffffffffffffffff1681526020019081526020016000208190555060019050919050565b60008060009054906101000a900473ffffffffffffffffffffffffffffffffffffffff1673ffffffffffffffffffffffffffffffffffffffff163373ffffffffffffffffffffffffffffffffffffffff16141515610bae57600080fd5b60006002811115610bbb57fe5b600b60009054906101000a900460ff166002811115610bd657fe5b141515610be257600080fd5b428710151515610bf157600080fd5b8660048190555030600360006101000a81548173ffffffffffffffffffffffffffffffffffffffff021916908373ffffffffffffffffffffffffffffffffffffffff16021790555082600c9080519060200190610c4f92919061147b565b508760ff16600a0a600d819055508560088190555084600981905550600854600954600d5402811515610c7e57fe5b04600681905550836000600281101515610c9457fe5b6020020151600b60016101000a81548173ffffffffffffffffffffffffffffffffffffffff021916908373ffffffffffffffffffffffffffffffffffffffff1602179055506001600a6000866001600281101515610cee57fe5b602002015173ffffffffffffffffffffffffffffffffffffffff1673ffffffffffffffffffffffffffffffffffffffff1681526020019081526020016000208190555081600e819055506001600b60006101000a81548160ff02191690836002811115610d5757fe5b021790555060019050979650505050505050565b600b60009054906101000a900460ff1681565b6000600554905090565b6000600654905090565b600360009054906101000a900473ffffffffffffffffffffffffffffffffffffffff1681565b60028054600181600116156101000203166002900480601f016020809104026020016040519081016040528092919081815260200182805460018160011615610100020316600290048015610e4e5780601f10610e2357610100808354040283529160200191610e4e565b820191906000526020600020905b815481529060010190602001808311610e3157829003601f168201915b505050505081565b6000600954905090565b600b60019054906101000a900473ffffffffffffffffffffffffffffffffffffffff1681565b6000610ea062ed4e0060045461144490919063ffffffff16565b421015610eb05760009050610fa5565b600b60019054906101000a900473ffffffffffffffffffffffffffffffffffffffff1673ffffffffffffffffffffffffffffffffffffffff168273ffffffffffffffffffffffffffffffffffffffff161415610f5e57600654600a60008473ffffffffffffffffffffffffffffffffffffffff1673ffffffffffffffffffffffffffffffffffffffff16815260200190815260200160002054600d5402811515610f5657fe5b049050610fa5565b600a60008373ffffffffffffffffffffffffffffffffffffffff1673ffffffffffffffffffffffffffffffffffffffff16815260200190815260200160002054600e540290505b919050565b6000809054906101000a900473ffffffffffffffffffffffffffffffffffffffff1681565b6000600280811115610fdd57fe5b600b60009054906101000a900460ff166002811115610ff857fe5b1415611007576001905061100c565b600090505b90565b6000600854905090565b60006001600281111561102857fe5b600b60009054906101000a900460ff16600281111561104357fe5b14156110525760019050611057565b600090505b90565b6000600b60019054906101000a900473ffffffffffffffffffffffffffffffffffffffff1673ffffffffffffffffffffffffffffffffffffffff163373ffffffffffffffffffffffffffffffffffffffff161415156110b857600080fd5b3073ffffffffffffffffffffffffffffffffffffffff163182111515156110de57600080fd5b600c838154811015156110ed57fe5b906000526020600020900160009054906101000a900473ffffffffffffffffffffffffffffffffffffffff1673ffffffffffffffffffffffffffffffffffffffff166108fc839081150290604051600060405180830381858888f19350505050151561115857600080fd5b6001905092915050565b600d5481565b6000600454905090565b600c8181548110151561118157fe5b90600052602060002090016000915054906101000a900473ffffffffffffffffffffffffffffffffffffffff1681565b600e5481565b6000809054906101000a900473ffffffffffffffffffffffffffffffffffffffff1673ffffffffffffffffffffffffffffffffffffffff163373ffffffffffffffffffffffffffffffffffffffff1614151561121257600080fd5b600073ffffffffffffffffffffffffffffffffffffffff168173ffffffffffffffffffffffffffffffffffffffff161415151561124e57600080fd5b8073ffffffffffffffffffffffffffffffffffffffff166000809054906101000a900473ffffffffffffffffffffffffffffffffffffffff1673ffffffffffffffffffffffffffffffffffffffff167f8be0079c531659141344cd1fd0a4f28419497f9722a3daafe3b4186f6b6457e060405160405180910390a3806000806101000a81548173ffffffffffffffffffffffffffffffffffffffff021916908373ffffffffffffffffffffffffffffffffffffffff16021790555050565b600080600b60019054906101000a900473ffffffffffffffffffffffffffffffffffffffff1673ffffffffffffffffffffffffffffffffffffffff163373ffffffffffffffffffffffffffffffffffffffff1614151561136b57600080fd5b61138260075460095461146290919063ffffffff16565b905080341115151561139357600080fd5b6113e534600a60008673ffffffffffffffffffffffffffffffffffffffff1673ffffffffffffffffffffffffffffffffffffffff1681526020019081526020016000205461144490919063ffffffff16565b600a60008573ffffffffffffffffffffffffffffffffffffffff1673ffffffffffffffffffffffffffffffffffffffff1681526020019081526020016000208190555080341415611439576000915061143e565b600191505b50919050565b600080828401905083811015151561145857fe5b8091505092915050565b600082821115151561147057fe5b818303905092915050565b8280548282559060005260206000209081019282156114f4579160200282015b828111156114f35782518260006101000a81548173ffffffffffffffffffffffffffffffffffffffff021916908373ffffffffffffffffffffffffffffffffffffffff1602179055509160200191906001019061149b565b5b5090506115019190611505565b5090565b61154591905b8082111561154157600081816101000a81549073ffffffffffffffffffffffffffffffffffffffff02191690555060010161150b565b5090565b905600a165627a7a723058207de677f57b7da453fadbec68dee281f69243fa4141efb48e1bc8809c311924c00029",
  "source": "pragma solidity ^0.4.18;\nimport \"../PoD.sol\";\n\n/// @title RICOStandardPoD - RICOStandardPoD contract\n/// @author - Yusaku Senga - <senga@dri.network>\n/// license let's see in LICENSE\n\ncontract RICOStandardPoD is PoD {\n\n  address public buyer;\n  address[] public marketMakers;\n  uint256 public tokenMultiplier;\n  uint256 public secondCapOfToken;\n\n  function RICOStandardPoD() public {\n    name = \"StandardPoD strategy tokenPrice = capToken/capWei\";\n    version = \"0.9.3\";\n  }\n\n  function init(\n    uint8 _tokenDecimals, \n    uint256 _startTimeOfPoD,\n    uint256 _capOfToken, \n    uint256 _capOfWei, \n    address[2] _owners,\n    address[] _marketMakers,\n    uint256 _secondCapOfToken\n  ) \n  public onlyOwner() returns (bool) \n  {\n    require(status == Status.PoDDeployed);\n\n    require(_startTimeOfPoD >= block.timestamp);\n   \n    startTime = _startTimeOfPoD;\n  \n    wallet = this;\n\n    marketMakers = _marketMakers;\n\n    tokenMultiplier = 10 ** uint256(_tokenDecimals);\n\n    proofOfDonationCapOfToken = _capOfToken;\n    proofOfDonationCapOfWei = _capOfWei;\n\n    tokenPrice = tokenMultiplier * proofOfDonationCapOfWei / proofOfDonationCapOfToken;\n\n    buyer = _owners[0];\n    weiBalances[_owners[1]] = 1;\n\n    secondCapOfToken = _secondCapOfToken;\n\n    status = Status.PoDStarted;\n    \n    return true;\n  }\n\n  function processDonate(address _user) internal returns (bool) {\n    \n    require(msg.sender == buyer);\n    \n    uint256 remains = proofOfDonationCapOfWei.sub(totalReceivedWei);\n\n    require(msg.value <= remains);\n    \n    weiBalances[_user] = weiBalances[_user].add(msg.value);\n\n    if (msg.value == remains)\n      return false;\n    \n    return true;\n  }\n\n  function distributeWei(uint _index, uint256 _amount) public returns (bool) {\n\n    require(msg.sender == buyer);\n\n    require(_amount <= this.balance);\n\n    marketMakers[_index].transfer(_amount);\n\n    return true;\n  }\n\n\n  function getBalanceOfToken(address _user) public constant returns (uint256) {\n    if (block.timestamp < startTime.add(180 days))\n      return 0;\n\n    if (_user == buyer)\n      return (tokenMultiplier * weiBalances[_user]) / tokenPrice;\n    else \n      return secondCapOfToken * weiBalances[_user];\n  }\n\n  function resetWeiBalance(address _user) public onlyOwner() returns (bool) {\n\n    require(status == Status.PoDEnded);\n\n    weiBalances[_user] = 0;\n\n    return true;\n\n  }\n}\n",
  "sourcePath": "/Users/sengayusaku/repo/RICO/contracts/PoDs/RICOStandardPoD.sol",
  "compiler": {
    "name": "solc",
    "version": "0.4.18+commit.9cf6e910.Emscripten.clang"
  },
  "schemaVersion": "1.0.1",
  "updatedAt": "2018-01-09T18:07:13.608Z"
}