{
  "contractName": "SimplePoD",
  "abi": [
    {
      "constant": true,
      "inputs": [],
      "name": "name",
      "outputs": [
        {
          "name": "",
          "type": "string"
        }
      ],
      "payable": false,
      "stateMutability": "view",
      "type": "function"
    },
    {
      "constant": true,
      "inputs": [
        {
          "name": "_user",
          "type": "address"
        }
      ],
      "name": "getBalanceOfWei",
      "outputs": [
        {
          "name": "",
          "type": "uint256"
        }
      ],
      "payable": false,
      "stateMutability": "view",
      "type": "function"
    },
    {
      "constant": false,
      "inputs": [
        {
          "name": "_user",
          "type": "address"
        }
      ],
      "name": "resetWeiBalance",
      "outputs": [
        {
          "name": "",
          "type": "bool"
        }
      ],
      "payable": false,
      "stateMutability": "nonpayable",
      "type": "function"
    },
    {
      "constant": true,
      "inputs": [],
      "name": "status",
      "outputs": [
        {
          "name": "",
          "type": "uint8"
        }
      ],
      "payable": false,
      "stateMutability": "view",
      "type": "function"
    },
    {
      "constant": true,
      "inputs": [],
      "name": "getEndTime",
      "outputs": [
        {
          "name": "",
          "type": "uint256"
        }
      ],
      "payable": false,
      "stateMutability": "view",
      "type": "function"
    },
    {
      "constant": true,
      "inputs": [],
      "name": "getTokenPrice",
      "outputs": [
        {
          "name": "",
          "type": "uint256"
        }
      ],
      "payable": false,
      "stateMutability": "view",
      "type": "function"
    },
    {
      "constant": false,
      "inputs": [],
      "name": "finalize",
      "outputs": [],
      "payable": false,
      "stateMutability": "nonpayable",
      "type": "function"
    },
    {
      "constant": true,
      "inputs": [],
      "name": "wallet",
      "outputs": [
        {
          "name": "",
          "type": "address"
        }
      ],
      "payable": false,
      "stateMutability": "view",
      "type": "function"
    },
    {
      "constant": true,
      "inputs": [],
      "name": "version",
      "outputs": [
        {
          "name": "",
          "type": "string"
        }
      ],
      "payable": false,
      "stateMutability": "view",
      "type": "function"
    },
    {
      "constant": true,
      "inputs": [],
      "name": "getCapOfWei",
      "outputs": [
        {
          "name": "",
          "type": "uint256"
        }
      ],
      "payable": false,
      "stateMutability": "view",
      "type": "function"
    },
    {
      "constant": true,
      "inputs": [
        {
          "name": "_user",
          "type": "address"
        }
      ],
      "name": "getBalanceOfToken",
      "outputs": [
        {
          "name": "",
          "type": "uint256"
        }
      ],
      "payable": false,
      "stateMutability": "view",
      "type": "function"
    },
    {
      "constant": true,
      "inputs": [],
      "name": "owner",
      "outputs": [
        {
          "name": "",
          "type": "address"
        }
      ],
      "payable": false,
      "stateMutability": "view",
      "type": "function"
    },
    {
      "constant": true,
      "inputs": [],
      "name": "isPoDEnded",
      "outputs": [
        {
          "name": "",
          "type": "bool"
        }
      ],
      "payable": false,
      "stateMutability": "view",
      "type": "function"
    },
    {
      "constant": true,
      "inputs": [],
      "name": "getCapOfToken",
      "outputs": [
        {
          "name": "",
          "type": "uint256"
        }
      ],
      "payable": false,
      "stateMutability": "view",
      "type": "function"
    },
    {
      "constant": true,
      "inputs": [],
      "name": "isPoDStarted",
      "outputs": [
        {
          "name": "",
          "type": "bool"
        }
      ],
      "payable": false,
      "stateMutability": "view",
      "type": "function"
    },
    {
      "constant": true,
      "inputs": [],
      "name": "tokenMultiplier",
      "outputs": [
        {
          "name": "",
          "type": "uint256"
        }
      ],
      "payable": false,
      "stateMutability": "view",
      "type": "function"
    },
    {
      "constant": false,
      "inputs": [
        {
          "name": "_wallet",
          "type": "address"
        },
        {
          "name": "_tokenDecimals",
          "type": "uint8"
        },
        {
          "name": "_startTimeOfPoD",
          "type": "uint256"
        },
        {
          "name": "_capOfToken",
          "type": "uint256"
        },
        {
          "name": "_capOfWei",
          "type": "uint256"
        }
      ],
      "name": "init",
      "outputs": [
        {
          "name": "",
          "type": "bool"
        }
      ],
      "payable": false,
      "stateMutability": "nonpayable",
      "type": "function"
    },
    {
      "constant": true,
      "inputs": [],
      "name": "getStartTime",
      "outputs": [
        {
          "name": "",
          "type": "uint256"
        }
      ],
      "payable": false,
      "stateMutability": "view",
      "type": "function"
    },
    {
      "constant": false,
      "inputs": [],
      "name": "donate",
      "outputs": [
        {
          "name": "",
          "type": "bool"
        }
      ],
      "payable": true,
      "stateMutability": "payable",
      "type": "function"
    },
    {
      "constant": true,
      "inputs": [],
      "name": "period",
      "outputs": [
        {
          "name": "",
          "type": "uint256"
        }
      ],
      "payable": false,
      "stateMutability": "view",
      "type": "function"
    },
    {
      "constant": false,
      "inputs": [
        {
          "name": "newOwner",
          "type": "address"
        }
      ],
      "name": "transferOwnership",
      "outputs": [],
      "payable": false,
      "stateMutability": "nonpayable",
      "type": "function"
    },
    {
      "inputs": [],
      "payable": false,
      "stateMutability": "nonpayable",
      "type": "constructor"
    },
    {
      "payable": true,
      "stateMutability": "payable",
      "type": "fallback"
    },
    {
      "anonymous": false,
      "inputs": [
        {
          "indexed": false,
          "name": "user",
          "type": "address"
        },
        {
          "indexed": false,
          "name": "amount",
          "type": "uint256"
        }
      ],
      "name": "Donated",
      "type": "event"
    },
    {
      "anonymous": false,
      "inputs": [
        {
          "indexed": false,
          "name": "time",
          "type": "uint256"
        }
      ],
      "name": "Ended",
      "type": "event"
    },
    {
      "anonymous": false,
      "inputs": [
        {
          "indexed": true,
          "name": "previousOwner",
          "type": "address"
        },
        {
          "indexed": true,
          "name": "newOwner",
          "type": "address"
        }
      ],
      "name": "OwnershipTransferred",
      "type": "event"
    }
  ],
  "bytecode": "0x606060405234156200001057600080fd5b336000806101000a81548173ffffffffffffffffffffffffffffffffffffffff021916908373ffffffffffffffffffffffffffffffffffffffff1602179055506000600b60006101000a81548160ff021916908360028111156200007057fe5b0217905550600060078190555033600360006101000a81548173ffffffffffffffffffffffffffffffffffffffff021916908373ffffffffffffffffffffffffffffffffffffffff160217905550606060405190810160405280603081526020017f53696d706c65506f4420737472617465677920746f6b656e207072696365203d81526020017f20636170546f6b656e2f63617057656900000000000000000000000000000000815250600190805190602001906200013292919062000187565b506040805190810160405280600581526020017f302e392e33000000000000000000000000000000000000000000000000000000815250600290805190602001906200018092919062000187565b5062000236565b828054600181600116156101000203166002900490600052602060002090601f016020900481019282601f10620001ca57805160ff1916838001178555620001fb565b82800160010185558215620001fb579182015b82811115620001fa578251825591602001919060010190620001dd565b5b5090506200020a91906200020e565b5090565b6200023391905b808211156200022f57600081600090555060010162000215565b5090565b90565b6110f980620002466000396000f30060606040526004361061011d576000357c0100000000000000000000000000000000000000000000000000000000900463ffffffff16806306fdde031461012857806309fc93c1146101b6578063112ed3f514610203578063200d2ed214610254578063439f5ac21461028b5780634b94f50e146102b45780634bb278f3146102dd578063521eb273146102f257806354fd4d50146103475780636ccce7a8146103d557806383786f8c146103fe5780638da5cb5b1461044b5780638f85f92c146104a057806397722acf146104cd5780639b3dfce0146104f6578063ba3f5a1214610523578063c7d365b01461054c578063c828371e146105c4578063ed88c68e146105ed578063ef78d4fd1461060f578063f2fde38b14610638575b610125610671565b50005b341561013357600080fd5b61013b610839565b6040518080602001828103825283818151815260200191508051906020019080838360005b8381101561017b578082015181840152602081019050610160565b50505050905090810190601f1680156101a85780820380516001836020036101000a031916815260200191505b509250505060405180910390f35b34156101c157600080fd5b6101ed600480803573ffffffffffffffffffffffffffffffffffffffff169060200190919050506108d7565b6040518082815260200191505060405180910390f35b341561020e57600080fd5b61023a600480803573ffffffffffffffffffffffffffffffffffffffff16906020019091905050610920565b604051808215151515815260200191505060405180910390f35b341561025f57600080fd5b6102676109fe565b6040518082600281111561027757fe5b60ff16815260200191505060405180910390f35b341561029657600080fd5b61029e610a11565b6040518082815260200191505060405180910390f35b34156102bf57600080fd5b6102c7610a1b565b6040518082815260200191505060405180910390f35b34156102e857600080fd5b6102f0610a25565b005b34156102fd57600080fd5b610305610ae3565b604051808273ffffffffffffffffffffffffffffffffffffffff1673ffffffffffffffffffffffffffffffffffffffff16815260200191505060405180910390f35b341561035257600080fd5b61035a610b09565b6040518080602001828103825283818151815260200191508051906020019080838360005b8381101561039a57808201518184015260208101905061037f565b50505050905090810190601f1680156103c75780820380516001836020036101000a031916815260200191505b509250505060405180910390f35b34156103e057600080fd5b6103e8610ba7565b6040518082815260200191505060405180910390f35b341561040957600080fd5b610435600480803573ffffffffffffffffffffffffffffffffffffffff16906020019091905050610bb1565b6040518082815260200191505060405180910390f35b341561045657600080fd5b61045e610c0b565b604051808273ffffffffffffffffffffffffffffffffffffffff1673ffffffffffffffffffffffffffffffffffffffff16815260200191505060405180910390f35b34156104ab57600080fd5b6104b3610c30565b604051808215151515815260200191505060405180910390f35b34156104d857600080fd5b6104e0610c70565b6040518082815260200191505060405180910390f35b341561050157600080fd5b610509610c7a565b604051808215151515815260200191505060405180910390f35b341561052e57600080fd5b610536610cbb565b6040518082815260200191505060405180910390f35b341561055757600080fd5b6105aa600480803573ffffffffffffffffffffffffffffffffffffffff1690602001909190803560ff16906020019091908035906020019091908035906020019091908035906020019091905050610cc1565b604051808215151515815260200191505060405180910390f35b34156105cf57600080fd5b6105d7610e30565b6040518082815260200191505060405180910390f35b6105f5610671565b604051808215151515815260200191505060405180910390f35b341561061a57600080fd5b610622610e3a565b6040518082815260200191505060405180910390f35b341561064357600080fd5b61066f600480803573ffffffffffffffffffffffffffffffffffffffff16906020019091905050610e40565b005b60006001600281111561068057fe5b600b60009054906101000a900460ff16600281111561069b57fe5b1415156106a757600080fd5b60045442101515156106b857600080fd5b6412a05f20003a111515156106cc57600080fd5b6106d533610f95565b151561074057426005819055506002600b60006101000a81548160ff0219169083600281111561070157fe5b02179055507f601095663bda08ac0f932087ef2eb08e42e4bcd1927f3a8d9500f6ad2c5aef906005546040518082815260200191505060405180910390a15b6107553460075461109690919063ffffffff16565b60078190555060003411156107c757600360009054906101000a900473ffffffffffffffffffffffffffffffffffffffff1673ffffffffffffffffffffffffffffffffffffffff166108fc349081150290604051600060405180830381858888f1935050505015156107c657600080fd5b5b7f2a01595cddf097c90216094025db714da3f4e5bd8877b56ba86a24ecead8e5433334604051808373ffffffffffffffffffffffffffffffffffffffff1673ffffffffffffffffffffffffffffffffffffffff1681526020018281526020019250505060405180910390a16001905090565b60018054600181600116156101000203166002900480601f0160208091040260200160405190810160405280929190818152602001828054600181600116156101000203166002900480156108cf5780601f106108a4576101008083540402835291602001916108cf565b820191906000526020600020905b8154815290600101906020018083116108b257829003601f168201915b505050505081565b6000600a60008373ffffffffffffffffffffffffffffffffffffffff1673ffffffffffffffffffffffffffffffffffffffff168152602001908152602001600020549050919050565b60008060009054906101000a900473ffffffffffffffffffffffffffffffffffffffff1673ffffffffffffffffffffffffffffffffffffffff163373ffffffffffffffffffffffffffffffffffffffff1614151561097d57600080fd5b60028081111561098957fe5b600b60009054906101000a900460ff1660028111156109a457fe5b1415156109b057600080fd5b6000600a60008473ffffffffffffffffffffffffffffffffffffffff1673ffffffffffffffffffffffffffffffffffffffff1681526020019081526020016000208190555060019050919050565b600b60009054906101000a900460ff1681565b6000600554905090565b6000600654905090565b60016002811115610a3257fe5b600b60009054906101000a900460ff166002811115610a4d57fe5b141515610a5957600080fd5b610a70600d5460045461109690919063ffffffff16565b42111515610a7d57600080fd5b426005819055506002600b60006101000a81548160ff02191690836002811115610aa357fe5b02179055507f601095663bda08ac0f932087ef2eb08e42e4bcd1927f3a8d9500f6ad2c5aef906005546040518082815260200191505060405180910390a1565b600360009054906101000a900473ffffffffffffffffffffffffffffffffffffffff1681565b60028054600181600116156101000203166002900480601f016020809104026020016040519081016040528092919081815260200182805460018160011615610100020316600290048015610b9f5780601f10610b7457610100808354040283529160200191610b9f565b820191906000526020600020905b815481529060010190602001808311610b8257829003601f168201915b505050505081565b6000600954905090565b6000600654600a60008473ffffffffffffffffffffffffffffffffffffffff1673ffffffffffffffffffffffffffffffffffffffff16815260200190815260200160002054600c5402811515610c0357fe5b049050919050565b6000809054906101000a900473ffffffffffffffffffffffffffffffffffffffff1681565b6000600280811115610c3e57fe5b600b60009054906101000a900460ff166002811115610c5957fe5b1415610c685760019050610c6d565b600090505b90565b6000600854905090565b600060016002811115610c8957fe5b600b60009054906101000a900460ff166002811115610ca457fe5b1415610cb35760019050610cb8565b600090505b90565b600c5481565b60008060009054906101000a900473ffffffffffffffffffffffffffffffffffffffff1673ffffffffffffffffffffffffffffffffffffffff163373ffffffffffffffffffffffffffffffffffffffff16141515610d1e57600080fd5b60006002811115610d2b57fe5b600b60009054906101000a900460ff166002811115610d4657fe5b141515610d5257600080fd5b60008673ffffffffffffffffffffffffffffffffffffffff1614151515610d7857600080fd5b8360048190555085600360006101000a81548173ffffffffffffffffffffffffffffffffffffffff021916908373ffffffffffffffffffffffffffffffffffffffff1602179055508460ff16600a0a600c819055508260088190555081600981905550600854600954600c5402811515610dee57fe5b0460068190555062093a80600d819055506001600b60006101000a81548160ff02191690836002811115610e1e57fe5b02179055506001905095945050505050565b6000600454905090565b600d5481565b6000809054906101000a900473ffffffffffffffffffffffffffffffffffffffff1673ffffffffffffffffffffffffffffffffffffffff163373ffffffffffffffffffffffffffffffffffffffff16141515610e9b57600080fd5b600073ffffffffffffffffffffffffffffffffffffffff168173ffffffffffffffffffffffffffffffffffffffff1614151515610ed757600080fd5b8073ffffffffffffffffffffffffffffffffffffffff166000809054906101000a900473ffffffffffffffffffffffffffffffffffffffff1673ffffffffffffffffffffffffffffffffffffffff167f8be0079c531659141344cd1fd0a4f28419497f9722a3daafe3b4186f6b6457e060405160405180910390a3806000806101000a81548173ffffffffffffffffffffffffffffffffffffffff021916908373ffffffffffffffffffffffffffffffffffffffff16021790555050565b600080610faf600d5460045461109690919063ffffffff16565b4211151515610fbd57600080fd5b610fd46007546009546110b490919063ffffffff16565b9050803411151515610fe557600080fd5b61103734600a60008673ffffffffffffffffffffffffffffffffffffffff1673ffffffffffffffffffffffffffffffffffffffff1681526020019081526020016000205461109690919063ffffffff16565b600a60008573ffffffffffffffffffffffffffffffffffffffff1673ffffffffffffffffffffffffffffffffffffffff168152602001908152602001600020819055508034141561108b5760009150611090565b600191505b50919050565b60008082840190508381101515156110aa57fe5b8091505092915050565b60008282111515156110c257fe5b8183039050929150505600a165627a7a723058208769421199030cfd1bf862613429be2e632be8b03571c9a2d1c173dcfc4503850029",
  "source": "pragma solidity ^0.4.18;\nimport \"../PoD.sol\";\n\n/// @title SimplePoD - SimplePoD contract\n/// @author - Yusaku Senga - <senga@dri.network>\n/// license let's see in LICENSE\n\ncontract SimplePoD is PoD {\n\n  uint256 public tokenMultiplier;\n  uint256 public period;\n\n  function SimplePoD() public {\n    name = \"SimplePoD strategy token price = capToken/capWei\";\n    version = \"0.9.3\";\n  }\n\n  function init(\n    address _wallet, \n    uint8 _tokenDecimals,\n    uint256 _startTimeOfPoD,\n    uint256 _capOfToken, \n    uint256 _capOfWei\n  ) \n  public onlyOwner() returns (bool) \n  {\n    require(status == Status.PoDDeployed);\n    require(_wallet != 0x0);\n    startTime = _startTimeOfPoD;\n    wallet = _wallet;\n    tokenMultiplier = 10 ** uint256(_tokenDecimals);\n    proofOfDonationCapOfToken = _capOfToken;\n    proofOfDonationCapOfWei = _capOfWei;\n    tokenPrice = tokenMultiplier * proofOfDonationCapOfWei / proofOfDonationCapOfToken;\n    period = 7 days;\n    status = Status.PoDStarted;\n    return true;\n  }\n\n  function processDonate(address _user) internal returns (bool) {\n\n    require(block.timestamp <= startTime.add(period));\n\n    uint256 remains = proofOfDonationCapOfWei.sub(totalReceivedWei);\n\n    require(msg.value <= remains);\n    \n    weiBalances[_user] = weiBalances[_user].add(msg.value);\n\n    if (msg.value == remains)\n      return false;\n    \n    return true;\n  }\n\n  function finalize() public {\n\n    require(status == Status.PoDStarted);\n\n    require(block.timestamp > startTime.add(period));\n\n    endTime = now;\n\n    status = Status.PoDEnded;\n\n    Ended(endTime);\n  }\n\n  function getBalanceOfToken(address _user) public constant returns (uint256) {\n    return (tokenMultiplier * weiBalances[_user]) / tokenPrice;\n  }\n}\n",
  "sourcePath": "/Users/sengayusaku/repo/RICO/contracts/PoDs/SimplePoD.sol",
  "compiler": {
    "name": "solc",
    "version": "0.4.18+commit.9cf6e910.Emscripten.clang"
  },
  "schemaVersion": "1.0.1",
  "updatedAt": "2018-01-09T18:07:13.609Z"
}