{
  "contractName": "SimplePoD",
  "abi": [
    {
      "constant": true,
      "inputs": [],
      "name": "name",
      "outputs": [
        {
          "name": "",
          "type": "string"
        }
      ],
      "payable": false,
      "stateMutability": "view",
      "type": "function"
    },
    {
      "constant": true,
      "inputs": [
        {
          "name": "_user",
          "type": "address"
        }
      ],
      "name": "getBalanceOfWei",
      "outputs": [
        {
          "name": "",
          "type": "uint256"
        }
      ],
      "payable": false,
      "stateMutability": "view",
      "type": "function"
    },
    {
      "constant": false,
      "inputs": [
        {
          "name": "_user",
          "type": "address"
        }
      ],
      "name": "resetWeiBalance",
      "outputs": [
        {
          "name": "",
          "type": "bool"
        }
      ],
      "payable": false,
      "stateMutability": "nonpayable",
      "type": "function"
    },
    {
      "constant": true,
      "inputs": [],
      "name": "status",
      "outputs": [
        {
          "name": "",
          "type": "uint8"
        }
      ],
      "payable": false,
      "stateMutability": "view",
      "type": "function"
    },
    {
      "constant": true,
      "inputs": [],
      "name": "getEndTime",
      "outputs": [
        {
          "name": "",
          "type": "uint256"
        }
      ],
      "payable": false,
      "stateMutability": "view",
      "type": "function"
    },
    {
      "constant": true,
      "inputs": [],
      "name": "getTokenPrice",
      "outputs": [
        {
          "name": "",
          "type": "uint256"
        }
      ],
      "payable": false,
      "stateMutability": "view",
      "type": "function"
    },
    {
      "constant": true,
      "inputs": [],
      "name": "wallet",
      "outputs": [
        {
          "name": "",
          "type": "address"
        }
      ],
      "payable": false,
      "stateMutability": "view",
      "type": "function"
    },
    {
      "constant": true,
      "inputs": [],
      "name": "version",
      "outputs": [
        {
          "name": "",
          "type": "string"
        }
      ],
      "payable": false,
      "stateMutability": "view",
      "type": "function"
    },
    {
      "constant": true,
      "inputs": [],
      "name": "getCapOfWei",
      "outputs": [
        {
          "name": "",
          "type": "uint256"
        }
      ],
      "payable": false,
      "stateMutability": "view",
      "type": "function"
    },
    {
      "constant": true,
      "inputs": [],
      "name": "podType",
      "outputs": [
        {
          "name": "",
          "type": "uint256"
        }
      ],
      "payable": false,
      "stateMutability": "view",
      "type": "function"
    },
    {
      "constant": true,
      "inputs": [
        {
          "name": "_user",
          "type": "address"
        }
      ],
      "name": "getBalanceOfToken",
      "outputs": [
        {
          "name": "",
          "type": "uint256"
        }
      ],
      "payable": false,
      "stateMutability": "view",
      "type": "function"
    },
    {
      "constant": true,
      "inputs": [],
      "name": "owner",
      "outputs": [
        {
          "name": "",
          "type": "address"
        }
      ],
      "payable": false,
      "stateMutability": "view",
      "type": "function"
    },
    {
      "constant": true,
      "inputs": [],
      "name": "isPoDEnded",
      "outputs": [
        {
          "name": "",
          "type": "bool"
        }
      ],
      "payable": false,
      "stateMutability": "view",
      "type": "function"
    },
    {
      "constant": true,
      "inputs": [],
      "name": "getCapOfToken",
      "outputs": [
        {
          "name": "",
          "type": "uint256"
        }
      ],
      "payable": false,
      "stateMutability": "view",
      "type": "function"
    },
    {
      "constant": true,
      "inputs": [],
      "name": "isPoDStarted",
      "outputs": [
        {
          "name": "",
          "type": "bool"
        }
      ],
      "payable": false,
      "stateMutability": "view",
      "type": "function"
    },
    {
      "constant": true,
      "inputs": [],
      "name": "tokenMultiplier",
      "outputs": [
        {
          "name": "",
          "type": "uint256"
        }
      ],
      "payable": false,
      "stateMutability": "view",
      "type": "function"
    },
    {
      "constant": false,
      "inputs": [
        {
          "name": "_wallet",
          "type": "address"
        },
        {
          "name": "_startTimeOfPoD",
          "type": "uint256"
        },
        {
          "name": "_tokenDecimals",
          "type": "uint8"
        },
        {
          "name": "_capOfToken",
          "type": "uint256"
        },
        {
          "name": "_capOfWei",
          "type": "uint256"
        }
      ],
      "name": "init",
      "outputs": [
        {
          "name": "",
          "type": "bool"
        }
      ],
      "payable": false,
      "stateMutability": "nonpayable",
      "type": "function"
    },
    {
      "constant": true,
      "inputs": [],
      "name": "getStartTime",
      "outputs": [
        {
          "name": "",
          "type": "uint256"
        }
      ],
      "payable": false,
      "stateMutability": "view",
      "type": "function"
    },
    {
      "constant": false,
      "inputs": [],
      "name": "donate",
      "outputs": [
        {
          "name": "",
          "type": "bool"
        }
      ],
      "payable": true,
      "stateMutability": "payable",
      "type": "function"
    },
    {
      "constant": true,
      "inputs": [],
      "name": "period",
      "outputs": [
        {
          "name": "",
          "type": "uint256"
        }
      ],
      "payable": false,
      "stateMutability": "view",
      "type": "function"
    },
    {
      "constant": false,
      "inputs": [
        {
          "name": "newOwner",
          "type": "address"
        }
      ],
      "name": "transferOwnership",
      "outputs": [],
      "payable": false,
      "stateMutability": "nonpayable",
      "type": "function"
    },
    {
      "inputs": [],
      "payable": false,
      "stateMutability": "nonpayable",
      "type": "constructor"
    },
    {
      "payable": true,
      "stateMutability": "payable",
      "type": "fallback"
    },
    {
      "anonymous": false,
      "inputs": [
        {
          "indexed": false,
          "name": "user",
          "type": "address"
        },
        {
          "indexed": false,
          "name": "amount",
          "type": "uint256"
        }
      ],
      "name": "Donated",
      "type": "event"
    },
    {
      "anonymous": false,
      "inputs": [
        {
          "indexed": false,
          "name": "wallet",
          "type": "address"
        }
      ],
      "name": "Initialized",
      "type": "event"
    },
    {
      "anonymous": false,
      "inputs": [
        {
          "indexed": false,
          "name": "time",
          "type": "uint256"
        }
      ],
      "name": "Started",
      "type": "event"
    },
    {
      "anonymous": false,
      "inputs": [
        {
          "indexed": false,
          "name": "time",
          "type": "uint256"
        }
      ],
      "name": "Ended",
      "type": "event"
    },
    {
      "anonymous": false,
      "inputs": [
        {
          "indexed": true,
          "name": "previousOwner",
          "type": "address"
        },
        {
          "indexed": true,
          "name": "newOwner",
          "type": "address"
        }
      ],
      "name": "OwnershipTransferred",
      "type": "event"
    }
  ],
  "bytecode": "0x606060405234156200001057600080fd5b336000806101000a81548173ffffffffffffffffffffffffffffffffffffffff021916908373ffffffffffffffffffffffffffffffffffffffff1602179055506000600c60006101000a81548160ff021916908360028111156200007057fe5b02179055506000600881905550606060405190810160405280603081526020017f53696d706c65506f4420737472617465677920746f6b656e207072696365203d81526020017f20636170546f6b656e2f6361705765690000000000000000000000000000000081525060019080519060200190620000f19291906200014e565b506040805190810160405280600381526020017f302e310000000000000000000000000000000000000000000000000000000000815250600390805190602001906200013f9291906200014e565b50606f600281905550620001fd565b828054600181600116156101000203166002900490600052602060002090601f016020900481019282601f106200019157805160ff1916838001178555620001c2565b82800160010185558215620001c2579182015b82811115620001c1578251825591602001919060010190620001a4565b5b509050620001d19190620001d5565b5090565b620001fa91905b80821115620001f6576000816000905550600101620001dc565b5090565b90565b611068806200020d6000396000f30060606040526004361061011d576000357c0100000000000000000000000000000000000000000000000000000000900463ffffffff16806306fdde031461012857806309fc93c1146101b6578063112ed3f514610203578063200d2ed214610254578063439f5ac21461028b5780634b94f50e146102b4578063521eb273146102dd57806354fd4d50146103325780636ccce7a8146103c05780636ec533a1146103e957806383786f8c146104125780638da5cb5b1461045f5780638f85f92c146104b457806397722acf146104e15780639b3dfce01461050a578063ba3f5a1214610537578063c620956514610560578063c828371e146105d8578063ed88c68e14610601578063ef78d4fd14610623578063f2fde38b1461064c575b610125610685565b50005b341561013357600080fd5b61013b61084d565b6040518080602001828103825283818151815260200191508051906020019080838360005b8381101561017b578082015181840152602081019050610160565b50505050905090810190601f1680156101a85780820380516001836020036101000a031916815260200191505b509250505060405180910390f35b34156101c157600080fd5b6101ed600480803573ffffffffffffffffffffffffffffffffffffffff169060200190919050506108eb565b6040518082815260200191505060405180910390f35b341561020e57600080fd5b61023a600480803573ffffffffffffffffffffffffffffffffffffffff16906020019091905050610934565b604051808215151515815260200191505060405180910390f35b341561025f57600080fd5b610267610a12565b6040518082600281111561027757fe5b60ff16815260200191505060405180910390f35b341561029657600080fd5b61029e610a25565b6040518082815260200191505060405180910390f35b34156102bf57600080fd5b6102c7610a2f565b6040518082815260200191505060405180910390f35b34156102e857600080fd5b6102f0610a39565b604051808273ffffffffffffffffffffffffffffffffffffffff1673ffffffffffffffffffffffffffffffffffffffff16815260200191505060405180910390f35b341561033d57600080fd5b610345610a5f565b6040518080602001828103825283818151815260200191508051906020019080838360005b8381101561038557808201518184015260208101905061036a565b50505050905090810190601f1680156103b25780820380516001836020036101000a031916815260200191505b509250505060405180910390f35b34156103cb57600080fd5b6103d3610afd565b6040518082815260200191505060405180910390f35b34156103f457600080fd5b6103fc610b07565b6040518082815260200191505060405180910390f35b341561041d57600080fd5b610449600480803573ffffffffffffffffffffffffffffffffffffffff16906020019091905050610b0d565b6040518082815260200191505060405180910390f35b341561046a57600080fd5b610472610b67565b604051808273ffffffffffffffffffffffffffffffffffffffff1673ffffffffffffffffffffffffffffffffffffffff16815260200191505060405180910390f35b34156104bf57600080fd5b6104c7610b8c565b604051808215151515815260200191505060405180910390f35b34156104ec57600080fd5b6104f4610bcc565b6040518082815260200191505060405180910390f35b341561051557600080fd5b61051d610bd6565b604051808215151515815260200191505060405180910390f35b341561054257600080fd5b61054a610c17565b6040518082815260200191505060405180910390f35b341561056b57600080fd5b6105be600480803573ffffffffffffffffffffffffffffffffffffffff1690602001909190803590602001909190803560ff16906020019091908035906020019091908035906020019091905050610c1d565b604051808215151515815260200191505060405180910390f35b34156105e357600080fd5b6105eb610dc4565b6040518082815260200191505060405180910390f35b610609610685565b604051808215151515815260200191505060405180910390f35b341561062e57600080fd5b610636610dce565b6040518082815260200191505060405180910390f35b341561065757600080fd5b610683600480803573ffffffffffffffffffffffffffffffffffffffff16906020019091905050610dd4565b005b60006001600281111561069457fe5b600c60009054906101000a900460ff1660028111156106af57fe5b1415156106bb57600080fd5b60055442101515156106cc57600080fd5b6412a05f20003a111515156106e057600080fd5b6106e933610f29565b151561075457426006819055506002600c60006101000a81548160ff0219169083600281111561071557fe5b02179055507f601095663bda08ac0f932087ef2eb08e42e4bcd1927f3a8d9500f6ad2c5aef906006546040518082815260200191505060405180910390a15b6107693460085461100590919063ffffffff16565b60088190555060003411156107db57600460009054906101000a900473ffffffffffffffffffffffffffffffffffffffff1673ffffffffffffffffffffffffffffffffffffffff166108fc349081150290604051600060405180830381858888f1935050505015156107da57600080fd5b5b7f2a01595cddf097c90216094025db714da3f4e5bd8877b56ba86a24ecead8e5433334604051808373ffffffffffffffffffffffffffffffffffffffff1673ffffffffffffffffffffffffffffffffffffffff1681526020018281526020019250505060405180910390a16001905090565b60018054600181600116156101000203166002900480601f0160208091040260200160405190810160405280929190818152602001828054600181600116156101000203166002900480156108e35780601f106108b8576101008083540402835291602001916108e3565b820191906000526020600020905b8154815290600101906020018083116108c657829003601f168201915b505050505081565b6000600b60008373ffffffffffffffffffffffffffffffffffffffff1673ffffffffffffffffffffffffffffffffffffffff168152602001908152602001600020549050919050565b60008060009054906101000a900473ffffffffffffffffffffffffffffffffffffffff1673ffffffffffffffffffffffffffffffffffffffff163373ffffffffffffffffffffffffffffffffffffffff1614151561099157600080fd5b60028081111561099d57fe5b600c60009054906101000a900460ff1660028111156109b857fe5b1415156109c457600080fd5b6000600b60008473ffffffffffffffffffffffffffffffffffffffff1673ffffffffffffffffffffffffffffffffffffffff1681526020019081526020016000208190555060019050919050565b600c60009054906101000a900460ff1681565b6000600654905090565b6000600754905090565b600460009054906101000a900473ffffffffffffffffffffffffffffffffffffffff1681565b60038054600181600116156101000203166002900480601f016020809104026020016040519081016040528092919081815260200182805460018160011615610100020316600290048015610af55780601f10610aca57610100808354040283529160200191610af5565b820191906000526020600020905b815481529060010190602001808311610ad857829003601f168201915b505050505081565b6000600a54905090565b60025481565b6000600754600b60008473ffffffffffffffffffffffffffffffffffffffff1673ffffffffffffffffffffffffffffffffffffffff16815260200190815260200160002054600d5402811515610b5f57fe5b049050919050565b6000809054906101000a900473ffffffffffffffffffffffffffffffffffffffff1681565b6000600280811115610b9a57fe5b600c60009054906101000a900460ff166002811115610bb557fe5b1415610bc45760019050610bc9565b600090505b90565b6000600954905090565b600060016002811115610be557fe5b600c60009054906101000a900460ff166002811115610c0057fe5b1415610c0f5760019050610c14565b600090505b90565b600d5481565b60008060009054906101000a900473ffffffffffffffffffffffffffffffffffffffff1673ffffffffffffffffffffffffffffffffffffffff163373ffffffffffffffffffffffffffffffffffffffff16141515610c7a57600080fd5b60006002811115610c8757fe5b600c60009054906101000a900460ff166002811115610ca257fe5b141515610cae57600080fd5b60008673ffffffffffffffffffffffffffffffffffffffff1614151515610cd457600080fd5b8460058190555085600460006101000a81548173ffffffffffffffffffffffffffffffffffffffff021916908373ffffffffffffffffffffffffffffffffffffffff1602179055508360ff16600a0a600d819055508260098190555081600a81905550600954600a54600d5402811515610d4a57fe5b0460078190555062093a80600e819055506001600c60006101000a81548160ff02191690836002811115610d7a57fe5b02179055507e6e0c97de781a7389d44ba8fd35d1467cabb17ed04d038d166d34ab819213f36005546040518082815260200191505060405180910390a16001905095945050505050565b6000600554905090565b600e5481565b6000809054906101000a900473ffffffffffffffffffffffffffffffffffffffff1673ffffffffffffffffffffffffffffffffffffffff163373ffffffffffffffffffffffffffffffffffffffff16141515610e2f57600080fd5b600073ffffffffffffffffffffffffffffffffffffffff168173ffffffffffffffffffffffffffffffffffffffff1614151515610e6b57600080fd5b8073ffffffffffffffffffffffffffffffffffffffff166000809054906101000a900473ffffffffffffffffffffffffffffffffffffffff1673ffffffffffffffffffffffffffffffffffffffff167f8be0079c531659141344cd1fd0a4f28419497f9722a3daafe3b4186f6b6457e060405160405180910390a3806000806101000a81548173ffffffffffffffffffffffffffffffffffffffff021916908373ffffffffffffffffffffffffffffffffffffffff16021790555050565b600080610f43600854600a5461102390919063ffffffff16565b9050803411151515610f5457600080fd5b610fa634600b60008673ffffffffffffffffffffffffffffffffffffffff1673ffffffffffffffffffffffffffffffffffffffff1681526020019081526020016000205461100590919063ffffffff16565b600b60008573ffffffffffffffffffffffffffffffffffffffff1673ffffffffffffffffffffffffffffffffffffffff1681526020019081526020016000208190555080341415610ffa5760009150610fff565b600191505b50919050565b600080828401905083811015151561101957fe5b8091505092915050565b600082821115151561103157fe5b8183039050929150505600a165627a7a723058204746b367d3fc55ec8b55bbd7377e4a963046ef971769be6ec9fad582cfdc22600029",
  "source": "pragma solidity ^0.4.18;\nimport \"../PoD.sol\";\n\n/// @title SimplePoD - SimplePoD contract\n/// @author - Yusaku Senga - <senga@dri.network>\n/// license let's see in LICENSE\n\ncontract SimplePoD is PoD {\n\n  uint256 public tokenMultiplier;\n  uint256 public period;\n\n  function SimplePoD() public {\n    name = \"SimplePoD strategy token price = capToken/capWei\";\n    version = \"0.1\";\n    podType = 111;\n  }\n\n  function init(\n    address _wallet, \n    uint256 _startTimeOfPoD,\n    uint8 _tokenDecimals,\n    uint256 _capOfToken, \n    uint256 _capOfWei\n  ) \n  public onlyOwner() returns (bool) \n  {\n    require(status == Status.PoDDeployed);\n    require(_wallet != 0x0);\n    startTime = _startTimeOfPoD;\n    wallet = _wallet;\n    tokenMultiplier = 10 ** uint256(_tokenDecimals);\n    proofOfDonationCapOfToken = _capOfToken;\n    proofOfDonationCapOfWei = _capOfWei;\n    tokenPrice = tokenMultiplier * proofOfDonationCapOfWei / proofOfDonationCapOfToken;\n    period = 7 days;\n    status = Status.PoDStarted;\n    Started(startTime);\n    return true;\n  }\n\n  function processDonate(address _user) internal returns (bool) {\n\n    uint256 remains = proofOfDonationCapOfWei.sub(totalReceivedWei);\n\n    require(msg.value <= remains);\n    \n    weiBalances[_user] = weiBalances[_user].add(msg.value);\n\n    if (msg.value == remains)\n      return false;\n    \n    return true;\n  }\n\n\n  function getBalanceOfToken(address _user) public constant returns (uint256) {\n    \n    return (tokenMultiplier * weiBalances[_user]) / tokenPrice;\n  }\n}\n",
  "sourcePath": "/Users/sengayusaku/repo/test/RICO/contracts/PoDs/SimplePoD.sol",
  "compiler": {
    "name": "solc",
    "version": "0.4.18+commit.9cf6e910.Emscripten.clang"
  },
  "schemaVersion": "1.0.1",
  "updatedAt": "2017-12-31T10:24:59.138Z"
}