{
  "contractName": "StandardPoD",
  "abi": [
    {
      "constant": true,
      "inputs": [],
      "name": "name",
      "outputs": [
        {
          "name": "",
          "type": "string"
        }
      ],
      "payable": false,
      "stateMutability": "view",
      "type": "function"
    },
    {
      "constant": true,
      "inputs": [
        {
          "name": "_user",
          "type": "address"
        }
      ],
      "name": "getBalanceOfWei",
      "outputs": [
        {
          "name": "",
          "type": "uint256"
        }
      ],
      "payable": false,
      "stateMutability": "view",
      "type": "function"
    },
    {
      "constant": false,
      "inputs": [
        {
          "name": "_user",
          "type": "address"
        }
      ],
      "name": "resetWeiBalance",
      "outputs": [
        {
          "name": "",
          "type": "bool"
        }
      ],
      "payable": false,
      "stateMutability": "nonpayable",
      "type": "function"
    },
    {
      "constant": true,
      "inputs": [],
      "name": "status",
      "outputs": [
        {
          "name": "",
          "type": "uint8"
        }
      ],
      "payable": false,
      "stateMutability": "view",
      "type": "function"
    },
    {
      "constant": true,
      "inputs": [],
      "name": "getEndTime",
      "outputs": [
        {
          "name": "",
          "type": "uint256"
        }
      ],
      "payable": false,
      "stateMutability": "view",
      "type": "function"
    },
    {
      "constant": true,
      "inputs": [],
      "name": "getTokenPrice",
      "outputs": [
        {
          "name": "",
          "type": "uint256"
        }
      ],
      "payable": false,
      "stateMutability": "view",
      "type": "function"
    },
    {
      "constant": true,
      "inputs": [],
      "name": "wallet",
      "outputs": [
        {
          "name": "",
          "type": "address"
        }
      ],
      "payable": false,
      "stateMutability": "view",
      "type": "function"
    },
    {
      "constant": true,
      "inputs": [],
      "name": "version",
      "outputs": [
        {
          "name": "",
          "type": "string"
        }
      ],
      "payable": false,
      "stateMutability": "view",
      "type": "function"
    },
    {
      "constant": true,
      "inputs": [],
      "name": "getCapOfWei",
      "outputs": [
        {
          "name": "",
          "type": "uint256"
        }
      ],
      "payable": false,
      "stateMutability": "view",
      "type": "function"
    },
    {
      "constant": true,
      "inputs": [],
      "name": "podType",
      "outputs": [
        {
          "name": "",
          "type": "uint256"
        }
      ],
      "payable": false,
      "stateMutability": "view",
      "type": "function"
    },
    {
      "constant": true,
      "inputs": [],
      "name": "buyer",
      "outputs": [
        {
          "name": "",
          "type": "address"
        }
      ],
      "payable": false,
      "stateMutability": "view",
      "type": "function"
    },
    {
      "constant": true,
      "inputs": [
        {
          "name": "_user",
          "type": "address"
        }
      ],
      "name": "getBalanceOfToken",
      "outputs": [
        {
          "name": "",
          "type": "uint256"
        }
      ],
      "payable": false,
      "stateMutability": "view",
      "type": "function"
    },
    {
      "constant": true,
      "inputs": [],
      "name": "owner",
      "outputs": [
        {
          "name": "",
          "type": "address"
        }
      ],
      "payable": false,
      "stateMutability": "view",
      "type": "function"
    },
    {
      "constant": true,
      "inputs": [],
      "name": "isPoDEnded",
      "outputs": [
        {
          "name": "",
          "type": "bool"
        }
      ],
      "payable": false,
      "stateMutability": "view",
      "type": "function"
    },
    {
      "constant": true,
      "inputs": [],
      "name": "getCapOfToken",
      "outputs": [
        {
          "name": "",
          "type": "uint256"
        }
      ],
      "payable": false,
      "stateMutability": "view",
      "type": "function"
    },
    {
      "constant": true,
      "inputs": [],
      "name": "isPoDStarted",
      "outputs": [
        {
          "name": "",
          "type": "bool"
        }
      ],
      "payable": false,
      "stateMutability": "view",
      "type": "function"
    },
    {
      "constant": false,
      "inputs": [
        {
          "name": "_index",
          "type": "uint256"
        },
        {
          "name": "_amount",
          "type": "uint256"
        }
      ],
      "name": "distributeWei",
      "outputs": [
        {
          "name": "",
          "type": "bool"
        }
      ],
      "payable": false,
      "stateMutability": "nonpayable",
      "type": "function"
    },
    {
      "constant": true,
      "inputs": [],
      "name": "tokenMultiplier",
      "outputs": [
        {
          "name": "",
          "type": "uint256"
        }
      ],
      "payable": false,
      "stateMutability": "view",
      "type": "function"
    },
    {
      "constant": true,
      "inputs": [],
      "name": "getStartTime",
      "outputs": [
        {
          "name": "",
          "type": "uint256"
        }
      ],
      "payable": false,
      "stateMutability": "view",
      "type": "function"
    },
    {
      "constant": true,
      "inputs": [
        {
          "name": "",
          "type": "uint256"
        }
      ],
      "name": "marketMakers",
      "outputs": [
        {
          "name": "",
          "type": "address"
        }
      ],
      "payable": false,
      "stateMutability": "view",
      "type": "function"
    },
    {
      "constant": true,
      "inputs": [],
      "name": "secondCapOfToken",
      "outputs": [
        {
          "name": "",
          "type": "uint256"
        }
      ],
      "payable": false,
      "stateMutability": "view",
      "type": "function"
    },
    {
      "constant": false,
      "inputs": [],
      "name": "donate",
      "outputs": [
        {
          "name": "",
          "type": "bool"
        }
      ],
      "payable": true,
      "stateMutability": "payable",
      "type": "function"
    },
    {
      "constant": false,
      "inputs": [
        {
          "name": "_startTimeOfPoD",
          "type": "uint256"
        },
        {
          "name": "_tokenDecimals",
          "type": "uint8"
        },
        {
          "name": "_capOfToken",
          "type": "uint256"
        },
        {
          "name": "_capOfWei",
          "type": "uint256"
        },
        {
          "name": "_owners",
          "type": "address[2]"
        },
        {
          "name": "_marketMakers",
          "type": "address[]"
        },
        {
          "name": "_secondCapOfToken",
          "type": "uint256"
        }
      ],
      "name": "init",
      "outputs": [
        {
          "name": "",
          "type": "bool"
        }
      ],
      "payable": false,
      "stateMutability": "nonpayable",
      "type": "function"
    },
    {
      "constant": false,
      "inputs": [
        {
          "name": "newOwner",
          "type": "address"
        }
      ],
      "name": "transferOwnership",
      "outputs": [],
      "payable": false,
      "stateMutability": "nonpayable",
      "type": "function"
    },
    {
      "inputs": [],
      "payable": false,
      "stateMutability": "nonpayable",
      "type": "constructor"
    },
    {
      "payable": true,
      "stateMutability": "payable",
      "type": "fallback"
    },
    {
      "anonymous": false,
      "inputs": [
        {
          "indexed": false,
          "name": "user",
          "type": "address"
        },
        {
          "indexed": false,
          "name": "amount",
          "type": "uint256"
        }
      ],
      "name": "Donated",
      "type": "event"
    },
    {
      "anonymous": false,
      "inputs": [
        {
          "indexed": false,
          "name": "wallet",
          "type": "address"
        }
      ],
      "name": "Initialized",
      "type": "event"
    },
    {
      "anonymous": false,
      "inputs": [
        {
          "indexed": false,
          "name": "time",
          "type": "uint256"
        }
      ],
      "name": "Started",
      "type": "event"
    },
    {
      "anonymous": false,
      "inputs": [
        {
          "indexed": false,
          "name": "time",
          "type": "uint256"
        }
      ],
      "name": "Ended",
      "type": "event"
    },
    {
      "anonymous": false,
      "inputs": [
        {
          "indexed": true,
          "name": "previousOwner",
          "type": "address"
        },
        {
          "indexed": true,
          "name": "newOwner",
          "type": "address"
        }
      ],
      "name": "OwnershipTransferred",
      "type": "event"
    }
  ],
  "bytecode": "0x606060405234156200001057600080fd5b336000806101000a81548173ffffffffffffffffffffffffffffffffffffffff021916908373ffffffffffffffffffffffffffffffffffffffff1602179055506000600c60006101000a81548160ff021916908360028111156200007057fe5b02179055506000600881905550606060405190810160405280603281526020017f5374616e64617264506f4420737472617465677920746f6b656e20707269636581526020017f203d20636170546f6b656e2f636170576569000000000000000000000000000081525060019080519060200190620000f19291906200014e565b506040805190810160405280600381526020017f302e310000000000000000000000000000000000000000000000000000000000815250600390805190602001906200013f9291906200014e565b50606e600281905550620001fd565b828054600181600116156101000203166002900490600052602060002090601f016020900481019282601f106200019157805160ff1916838001178555620001c2565b82800160010185558215620001c2579182015b82811115620001c1578251825591602001919060010190620001a4565b5b509050620001d19190620001d5565b5090565b620001fa91905b80821115620001f6576000816000905550600101620001dc565b5090565b90565b61159f806200020d6000396000f30060606040526004361061013e576000357c0100000000000000000000000000000000000000000000000000000000900463ffffffff16806306fdde031461014957806309fc93c1146101d7578063112ed3f514610224578063200d2ed214610275578063439f5ac2146102ac5780634b94f50e146102d5578063521eb273146102fe57806354fd4d50146103535780636ccce7a8146103e15780636ec533a11461040a5780637150d8ae1461043357806383786f8c146104885780638da5cb5b146104d55780638f85f92c1461052a57806397722acf146105575780639b3dfce014610580578063aa985a63146105ad578063ba3f5a12146105f1578063c828371e1461061a578063df7271bc14610643578063ea750d29146106a6578063ed88c68e146106cf578063f231af13146106f1578063f2fde38b146107bf575b6101466107f8565b50005b341561015457600080fd5b61015c6109c0565b6040518080602001828103825283818151815260200191508051906020019080838360005b8381101561019c578082015181840152602081019050610181565b50505050905090810190601f1680156101c95780820380516001836020036101000a031916815260200191505b509250505060405180910390f35b34156101e257600080fd5b61020e600480803573ffffffffffffffffffffffffffffffffffffffff16906020019091905050610a5e565b6040518082815260200191505060405180910390f35b341561022f57600080fd5b61025b600480803573ffffffffffffffffffffffffffffffffffffffff16906020019091905050610aa7565b604051808215151515815260200191505060405180910390f35b341561028057600080fd5b610288610b85565b6040518082600281111561029857fe5b60ff16815260200191505060405180910390f35b34156102b757600080fd5b6102bf610b98565b6040518082815260200191505060405180910390f35b34156102e057600080fd5b6102e8610ba2565b6040518082815260200191505060405180910390f35b341561030957600080fd5b610311610bac565b604051808273ffffffffffffffffffffffffffffffffffffffff1673ffffffffffffffffffffffffffffffffffffffff16815260200191505060405180910390f35b341561035e57600080fd5b610366610bd2565b6040518080602001828103825283818151815260200191508051906020019080838360005b838110156103a657808201518184015260208101905061038b565b50505050905090810190601f1680156103d35780820380516001836020036101000a031916815260200191505b509250505060405180910390f35b34156103ec57600080fd5b6103f4610c70565b6040518082815260200191505060405180910390f35b341561041557600080fd5b61041d610c7a565b6040518082815260200191505060405180910390f35b341561043e57600080fd5b610446610c80565b604051808273ffffffffffffffffffffffffffffffffffffffff1673ffffffffffffffffffffffffffffffffffffffff16815260200191505060405180910390f35b341561049357600080fd5b6104bf600480803573ffffffffffffffffffffffffffffffffffffffff16906020019091905050610ca6565b6040518082815260200191505060405180910390f35b34156104e057600080fd5b6104e8610dca565b604051808273ffffffffffffffffffffffffffffffffffffffff1673ffffffffffffffffffffffffffffffffffffffff16815260200191505060405180910390f35b341561053557600080fd5b61053d610def565b604051808215151515815260200191505060405180910390f35b341561056257600080fd5b61056a610e2f565b6040518082815260200191505060405180910390f35b341561058b57600080fd5b610593610e39565b604051808215151515815260200191505060405180910390f35b34156105b857600080fd5b6105d76004808035906020019091908035906020019091905050610e7a565b604051808215151515815260200191505060405180910390f35b34156105fc57600080fd5b610604610f82565b6040518082815260200191505060405180910390f35b341561062557600080fd5b61062d610f88565b6040518082815260200191505060405180910390f35b341561064e57600080fd5b6106646004808035906020019091905050610f92565b604051808273ffffffffffffffffffffffffffffffffffffffff1673ffffffffffffffffffffffffffffffffffffffff16815260200191505060405180910390f35b34156106b157600080fd5b6106b9610fd1565b6040518082815260200191505060405180910390f35b6106d76107f8565b604051808215151515815260200191505060405180910390f35b34156106fc57600080fd5b6107a5600480803590602001909190803560ff16906020019091908035906020019091908035906020019091908060400190600280602002604051908101604052809291908260026020028082843782019150505050509190803590602001908201803590602001908080602002602001604051908101604052809392919081815260200183836020028082843782019150505050505091908035906020019091905050610fd7565b604051808215151515815260200191505060405180910390f35b34156107ca57600080fd5b6107f6600480803573ffffffffffffffffffffffffffffffffffffffff169060200190919050506111e2565b005b60006001600281111561080757fe5b600c60009054906101000a900460ff16600281111561082257fe5b14151561082e57600080fd5b600554421015151561083f57600080fd5b6412a05f20003a1115151561085357600080fd5b61085c33611337565b15156108c757426006819055506002600c60006101000a81548160ff0219169083600281111561088857fe5b02179055507f601095663bda08ac0f932087ef2eb08e42e4bcd1927f3a8d9500f6ad2c5aef906006546040518082815260200191505060405180910390a15b6108dc3460085461146f90919063ffffffff16565b600881905550600034111561094e57600460009054906101000a900473ffffffffffffffffffffffffffffffffffffffff1673ffffffffffffffffffffffffffffffffffffffff166108fc349081150290604051600060405180830381858888f19350505050151561094d57600080fd5b5b7f2a01595cddf097c90216094025db714da3f4e5bd8877b56ba86a24ecead8e5433334604051808373ffffffffffffffffffffffffffffffffffffffff1673ffffffffffffffffffffffffffffffffffffffff1681526020018281526020019250505060405180910390a16001905090565b60018054600181600116156101000203166002900480601f016020809104026020016040519081016040528092919081815260200182805460018160011615610100020316600290048015610a565780601f10610a2b57610100808354040283529160200191610a56565b820191906000526020600020905b815481529060010190602001808311610a3957829003601f168201915b505050505081565b6000600b60008373ffffffffffffffffffffffffffffffffffffffff1673ffffffffffffffffffffffffffffffffffffffff168152602001908152602001600020549050919050565b60008060009054906101000a900473ffffffffffffffffffffffffffffffffffffffff1673ffffffffffffffffffffffffffffffffffffffff163373ffffffffffffffffffffffffffffffffffffffff16141515610b0457600080fd5b600280811115610b1057fe5b600c60009054906101000a900460ff166002811115610b2b57fe5b141515610b3757600080fd5b6000600b60008473ffffffffffffffffffffffffffffffffffffffff1673ffffffffffffffffffffffffffffffffffffffff1681526020019081526020016000208190555060019050919050565b600c60009054906101000a900460ff1681565b6000600654905090565b6000600754905090565b600460009054906101000a900473ffffffffffffffffffffffffffffffffffffffff1681565b60038054600181600116156101000203166002900480601f016020809104026020016040519081016040528092919081815260200182805460018160011615610100020316600290048015610c685780601f10610c3d57610100808354040283529160200191610c68565b820191906000526020600020905b815481529060010190602001808311610c4b57829003601f168201915b505050505081565b6000600a54905090565b60025481565b600c60019054906101000a900473ffffffffffffffffffffffffffffffffffffffff1681565b6000610cc062ed4e0060055461146f90919063ffffffff16565b421015610cd05760009050610dc5565b600c60019054906101000a900473ffffffffffffffffffffffffffffffffffffffff1673ffffffffffffffffffffffffffffffffffffffff168273ffffffffffffffffffffffffffffffffffffffff161415610d7e57600754600b60008473ffffffffffffffffffffffffffffffffffffffff1673ffffffffffffffffffffffffffffffffffffffff16815260200190815260200160002054600e5402811515610d7657fe5b049050610dc5565b600b60008373ffffffffffffffffffffffffffffffffffffffff1673ffffffffffffffffffffffffffffffffffffffff16815260200190815260200160002054600f540290505b919050565b6000809054906101000a900473ffffffffffffffffffffffffffffffffffffffff1681565b6000600280811115610dfd57fe5b600c60009054906101000a900460ff166002811115610e1857fe5b1415610e275760019050610e2c565b600090505b90565b6000600954905090565b600060016002811115610e4857fe5b600c60009054906101000a900460ff166002811115610e6357fe5b1415610e725760019050610e77565b600090505b90565b6000600c60019054906101000a900473ffffffffffffffffffffffffffffffffffffffff1673ffffffffffffffffffffffffffffffffffffffff163373ffffffffffffffffffffffffffffffffffffffff16141515610ed857600080fd5b3073ffffffffffffffffffffffffffffffffffffffff16318211151515610efe57600080fd5b600d83815481101515610f0d57fe5b906000526020600020900160009054906101000a900473ffffffffffffffffffffffffffffffffffffffff1673ffffffffffffffffffffffffffffffffffffffff166108fc839081150290604051600060405180830381858888f193505050501515610f7857600080fd5b6001905092915050565b600e5481565b6000600554905090565b600d81815481101515610fa157fe5b90600052602060002090016000915054906101000a900473ffffffffffffffffffffffffffffffffffffffff1681565b600f5481565b60008060009054906101000a900473ffffffffffffffffffffffffffffffffffffffff1673ffffffffffffffffffffffffffffffffffffffff163373ffffffffffffffffffffffffffffffffffffffff1614151561103457600080fd5b6000600281111561104157fe5b600c60009054906101000a900460ff16600281111561105c57fe5b14151561106857600080fd5b8760058190555030600460006101000a81548173ffffffffffffffffffffffffffffffffffffffff021916908373ffffffffffffffffffffffffffffffffffffffff16021790555082600d90805190602001906110c69291906114a6565b508660ff16600a0a600e819055508560098190555084600a81905550600954600a54600e54028115156110f557fe5b0460078190555083600060028110151561110b57fe5b6020020151600c60016101000a81548173ffffffffffffffffffffffffffffffffffffffff021916908373ffffffffffffffffffffffffffffffffffffffff1602179055506001600b600086600160028110151561116557fe5b602002015173ffffffffffffffffffffffffffffffffffffffff1673ffffffffffffffffffffffffffffffffffffffff1681526020019081526020016000208190555081600f819055506001600c60006101000a81548160ff021916908360028111156111ce57fe5b021790555060019050979650505050505050565b6000809054906101000a900473ffffffffffffffffffffffffffffffffffffffff1673ffffffffffffffffffffffffffffffffffffffff163373ffffffffffffffffffffffffffffffffffffffff1614151561123d57600080fd5b600073ffffffffffffffffffffffffffffffffffffffff168173ffffffffffffffffffffffffffffffffffffffff161415151561127957600080fd5b8073ffffffffffffffffffffffffffffffffffffffff166000809054906101000a900473ffffffffffffffffffffffffffffffffffffffff1673ffffffffffffffffffffffffffffffffffffffff167f8be0079c531659141344cd1fd0a4f28419497f9722a3daafe3b4186f6b6457e060405160405180910390a3806000806101000a81548173ffffffffffffffffffffffffffffffffffffffff021916908373ffffffffffffffffffffffffffffffffffffffff16021790555050565b600080600c60019054906101000a900473ffffffffffffffffffffffffffffffffffffffff1673ffffffffffffffffffffffffffffffffffffffff163373ffffffffffffffffffffffffffffffffffffffff1614151561139657600080fd5b6113ad600854600a5461148d90919063ffffffff16565b90508034111515156113be57600080fd5b61141034600b60008673ffffffffffffffffffffffffffffffffffffffff1673ffffffffffffffffffffffffffffffffffffffff1681526020019081526020016000205461146f90919063ffffffff16565b600b60008573ffffffffffffffffffffffffffffffffffffffff1673ffffffffffffffffffffffffffffffffffffffff16815260200190815260200160002081905550803414156114645760009150611469565b600191505b50919050565b600080828401905083811015151561148357fe5b8091505092915050565b600082821115151561149b57fe5b818303905092915050565b82805482825590600052602060002090810192821561151f579160200282015b8281111561151e5782518260006101000a81548173ffffffffffffffffffffffffffffffffffffffff021916908373ffffffffffffffffffffffffffffffffffffffff160217905550916020019190600101906114c6565b5b50905061152c9190611530565b5090565b61157091905b8082111561156c57600081816101000a81549073ffffffffffffffffffffffffffffffffffffffff021916905550600101611536565b5090565b905600a165627a7a723058203430fb20a4a93456ea36eebe7205f6feae3512ea8e8a9de53942978cd8d1ee930029",
  "source": "pragma solidity ^0.4.18;\nimport \"../PoD.sol\";\n\n/// @title StandardPoD - StandardPoD contract\n/// @author - Yusaku Senga - <senga@dri.network>\n/// license let's see in LICENSE\n\ncontract StandardPoD is PoD {\n\n  address public buyer;\n  address[] public marketMakers;\n  uint256 public tokenMultiplier;\n  uint256 public secondCapOfToken;\n\n  function StandardPoD() public {\n    name = \"StandardPoD strategy token price = capToken/capWei\";\n    version = \"0.1\";\n    podType = 110;\n  }\n\n  function init(\n    uint256 _startTimeOfPoD,\n    uint8 _tokenDecimals, \n    uint256 _capOfToken, \n    uint256 _capOfWei, \n    address[2] _owners,\n    address[] _marketMakers,\n    uint256 _secondCapOfToken\n  ) \n  public onlyOwner() returns (bool) \n  {\n    require(status == Status.PoDDeployed);\n\n    startTime = _startTimeOfPoD;\n    wallet = this;\n    marketMakers = _marketMakers;\n    tokenMultiplier = 10 ** uint256(_tokenDecimals);\n    proofOfDonationCapOfToken = _capOfToken;\n    proofOfDonationCapOfWei = _capOfWei;\n    tokenPrice = tokenMultiplier * proofOfDonationCapOfWei / proofOfDonationCapOfToken;\n    buyer = _owners[0];\n    weiBalances[_owners[1]] = 1;\n    secondCapOfToken = _secondCapOfToken;\n    status = Status.PoDStarted;\n    return true;\n  }\n\n  function processDonate(address _user) internal returns (bool) {\n    \n    require(msg.sender == buyer);\n    \n    uint256 remains = proofOfDonationCapOfWei.sub(totalReceivedWei);\n\n    require(msg.value <= remains);\n    \n    weiBalances[_user] = weiBalances[_user].add(msg.value);\n\n    if (msg.value == remains)\n      return false;\n    \n    return true;\n  }\n\n  function distributeWei(uint _index, uint256 _amount) public returns (bool) {\n\n    require(msg.sender == buyer);\n\n    require(_amount <= this.balance);\n\n    marketMakers[_index].transfer(_amount);\n\n    return true;\n  }\n\n\n  function getBalanceOfToken(address _user) public constant returns (uint256) {\n    if (block.timestamp < startTime.add(180 days))\n      return 0;\n\n    if (_user == buyer)\n      return (tokenMultiplier * weiBalances[_user]) / tokenPrice;\n    else \n      return secondCapOfToken * weiBalances[_user];\n  }\n\n  function resetWeiBalance(address _user) public onlyOwner() returns (bool) {\n\n    require(status == Status.PoDEnded);\n\n    weiBalances[_user] = 0;\n\n    return true;\n\n  }\n}\n",
  "sourcePath": "/Users/sengayusaku/repo/test/RICO/contracts/PoDs/StandardPoD.sol",
  "compiler": {
    "name": "solc",
    "version": "0.4.18+commit.9cf6e910.Emscripten.clang"
  },
  "schemaVersion": "1.0.1",
  "updatedAt": "2017-12-25T21:07:40.967Z"
}