{
  "contractName": "TokenMintPoD",
  "abi": [
    {
      "constant": true,
      "inputs": [],
      "name": "name",
      "outputs": [
        {
          "name": "",
          "type": "string"
        }
      ],
      "payable": false,
      "stateMutability": "view",
      "type": "function"
    },
    {
      "constant": true,
      "inputs": [
        {
          "name": "_user",
          "type": "address"
        }
      ],
      "name": "getBalanceOfWei",
      "outputs": [
        {
          "name": "",
          "type": "uint256"
        }
      ],
      "payable": false,
      "stateMutability": "view",
      "type": "function"
    },
    {
      "constant": true,
      "inputs": [],
      "name": "lockTime",
      "outputs": [
        {
          "name": "",
          "type": "uint256"
        }
      ],
      "payable": false,
      "stateMutability": "view",
      "type": "function"
    },
    {
      "constant": false,
      "inputs": [
        {
          "name": "_user",
          "type": "address"
        }
      ],
      "name": "resetWeiBalance",
      "outputs": [
        {
          "name": "",
          "type": "bool"
        }
      ],
      "payable": false,
      "stateMutability": "nonpayable",
      "type": "function"
    },
    {
      "constant": true,
      "inputs": [],
      "name": "status",
      "outputs": [
        {
          "name": "",
          "type": "uint8"
        }
      ],
      "payable": false,
      "stateMutability": "view",
      "type": "function"
    },
    {
      "constant": true,
      "inputs": [],
      "name": "getEndTime",
      "outputs": [
        {
          "name": "",
          "type": "uint256"
        }
      ],
      "payable": false,
      "stateMutability": "view",
      "type": "function"
    },
    {
      "constant": true,
      "inputs": [],
      "name": "getTokenPrice",
      "outputs": [
        {
          "name": "",
          "type": "uint256"
        }
      ],
      "payable": false,
      "stateMutability": "view",
      "type": "function"
    },
    {
      "constant": false,
      "inputs": [],
      "name": "finalize",
      "outputs": [],
      "payable": false,
      "stateMutability": "nonpayable",
      "type": "function"
    },
    {
      "constant": true,
      "inputs": [],
      "name": "wallet",
      "outputs": [
        {
          "name": "",
          "type": "address"
        }
      ],
      "payable": false,
      "stateMutability": "view",
      "type": "function"
    },
    {
      "constant": true,
      "inputs": [],
      "name": "version",
      "outputs": [
        {
          "name": "",
          "type": "string"
        }
      ],
      "payable": false,
      "stateMutability": "view",
      "type": "function"
    },
    {
      "constant": true,
      "inputs": [],
      "name": "getCapOfWei",
      "outputs": [
        {
          "name": "",
          "type": "uint256"
        }
      ],
      "payable": false,
      "stateMutability": "view",
      "type": "function"
    },
    {
      "constant": true,
      "inputs": [
        {
          "name": "_user",
          "type": "address"
        }
      ],
      "name": "getBalanceOfToken",
      "outputs": [
        {
          "name": "",
          "type": "uint256"
        }
      ],
      "payable": false,
      "stateMutability": "view",
      "type": "function"
    },
    {
      "constant": true,
      "inputs": [],
      "name": "owner",
      "outputs": [
        {
          "name": "",
          "type": "address"
        }
      ],
      "payable": false,
      "stateMutability": "view",
      "type": "function"
    },
    {
      "constant": true,
      "inputs": [],
      "name": "isPoDEnded",
      "outputs": [
        {
          "name": "",
          "type": "bool"
        }
      ],
      "payable": false,
      "stateMutability": "view",
      "type": "function"
    },
    {
      "constant": true,
      "inputs": [],
      "name": "getCapOfToken",
      "outputs": [
        {
          "name": "",
          "type": "uint256"
        }
      ],
      "payable": false,
      "stateMutability": "view",
      "type": "function"
    },
    {
      "constant": true,
      "inputs": [],
      "name": "isPoDStarted",
      "outputs": [
        {
          "name": "",
          "type": "bool"
        }
      ],
      "payable": false,
      "stateMutability": "view",
      "type": "function"
    },
    {
      "constant": false,
      "inputs": [
        {
          "name": "_user",
          "type": "address"
        },
        {
          "name": "_capOfToken",
          "type": "uint256"
        },
        {
          "name": "_lockTime",
          "type": "uint256"
        }
      ],
      "name": "init",
      "outputs": [
        {
          "name": "",
          "type": "bool"
        }
      ],
      "payable": false,
      "stateMutability": "nonpayable",
      "type": "function"
    },
    {
      "constant": true,
      "inputs": [],
      "name": "getStartTime",
      "outputs": [
        {
          "name": "",
          "type": "uint256"
        }
      ],
      "payable": false,
      "stateMutability": "view",
      "type": "function"
    },
    {
      "constant": false,
      "inputs": [],
      "name": "donate",
      "outputs": [
        {
          "name": "",
          "type": "bool"
        }
      ],
      "payable": true,
      "stateMutability": "payable",
      "type": "function"
    },
    {
      "constant": false,
      "inputs": [
        {
          "name": "newOwner",
          "type": "address"
        }
      ],
      "name": "transferOwnership",
      "outputs": [],
      "payable": false,
      "stateMutability": "nonpayable",
      "type": "function"
    },
    {
      "inputs": [],
      "payable": false,
      "stateMutability": "nonpayable",
      "type": "constructor"
    },
    {
      "payable": true,
      "stateMutability": "payable",
      "type": "fallback"
    },
    {
      "anonymous": false,
      "inputs": [
        {
          "indexed": false,
          "name": "user",
          "type": "address"
        },
        {
          "indexed": false,
          "name": "amount",
          "type": "uint256"
        }
      ],
      "name": "Donated",
      "type": "event"
    },
    {
      "anonymous": false,
      "inputs": [
        {
          "indexed": false,
          "name": "time",
          "type": "uint256"
        }
      ],
      "name": "Ended",
      "type": "event"
    },
    {
      "anonymous": false,
      "inputs": [
        {
          "indexed": true,
          "name": "previousOwner",
          "type": "address"
        },
        {
          "indexed": true,
          "name": "newOwner",
          "type": "address"
        }
      ],
      "name": "OwnershipTransferred",
      "type": "event"
    }
  ],
  "bytecode": "0x606060405234156200001057600080fd5b336000806101000a81548173ffffffffffffffffffffffffffffffffffffffff021916908373ffffffffffffffffffffffffffffffffffffffff1602179055506000600b60006101000a81548160ff021916908360028111156200007057fe5b0217905550600060078190555033600360006101000a81548173ffffffffffffffffffffffffffffffffffffffff021916908373ffffffffffffffffffffffffffffffffffffffff160217905550606060405190810160405280602c81526020017f546f6b656e4d696e74506f44206d65616e2074686174206d696e74696e67205481526020017f6f6b656e20746f20757365720000000000000000000000000000000000000000815250600190805190602001906200013292919062000187565b506040805190810160405280600581526020017f302e392e33000000000000000000000000000000000000000000000000000000815250600290805190602001906200018092919062000187565b5062000236565b828054600181600116156101000203166002900490600052602060002090601f016020900481019282601f10620001ca57805160ff1916838001178555620001fb565b82800160010185558215620001fb579182015b82811115620001fa578251825591602001919060010190620001dd565b5b5090506200020a91906200020e565b5090565b6200023391905b808211156200022f57600081600090555060010162000215565b5090565b90565b610f3c80620002466000396000f300606060405260043610610112576000357c0100000000000000000000000000000000000000000000000000000000900463ffffffff16806306fdde031461011d57806309fc93c1146101ab5780630d668087146101f8578063112ed3f514610221578063200d2ed214610272578063439f5ac2146102a95780634b94f50e146102d25780634bb278f3146102fb578063521eb2731461031057806354fd4d50146103655780636ccce7a8146103f357806383786f8c1461041c5780638da5cb5b146104695780638f85f92c146104be57806397722acf146104eb5780639b3dfce014610514578063a4a2a9f614610541578063c828371e146105a4578063ed88c68e146105cd578063f2fde38b146105ef575b61011a610628565b50005b341561012857600080fd5b610130610793565b6040518080602001828103825283818151815260200191508051906020019080838360005b83811015610170578082015181840152602081019050610155565b50505050905090810190601f16801561019d5780820380516001836020036101000a031916815260200191505b509250505060405180910390f35b34156101b657600080fd5b6101e2600480803573ffffffffffffffffffffffffffffffffffffffff16906020019091905050610831565b6040518082815260200191505060405180910390f35b341561020357600080fd5b61020b61087a565b6040518082815260200191505060405180910390f35b341561022c57600080fd5b610258600480803573ffffffffffffffffffffffffffffffffffffffff16906020019091905050610880565b604051808215151515815260200191505060405180910390f35b341561027d57600080fd5b61028561095e565b6040518082600281111561029557fe5b60ff16815260200191505060405180910390f35b34156102b457600080fd5b6102bc610971565b6040518082815260200191505060405180910390f35b34156102dd57600080fd5b6102e561097b565b6040518082815260200191505060405180910390f35b341561030657600080fd5b61030e610985565b005b341561031b57600080fd5b6103236109ab565b604051808273ffffffffffffffffffffffffffffffffffffffff1673ffffffffffffffffffffffffffffffffffffffff16815260200191505060405180910390f35b341561037057600080fd5b6103786109d1565b6040518080602001828103825283818151815260200191508051906020019080838360005b838110156103b857808201518184015260208101905061039d565b50505050905090810190601f1680156103e55780820380516001836020036101000a031916815260200191505b509250505060405180910390f35b34156103fe57600080fd5b610406610a6f565b6040518082815260200191505060405180910390f35b341561042757600080fd5b610453600480803573ffffffffffffffffffffffffffffffffffffffff16906020019091905050610a79565b6040518082815260200191505060405180910390f35b341561047457600080fd5b61047c610b28565b604051808273ffffffffffffffffffffffffffffffffffffffff1673ffffffffffffffffffffffffffffffffffffffff16815260200191505060405180910390f35b34156104c957600080fd5b6104d1610b4d565b604051808215151515815260200191505060405180910390f35b34156104f657600080fd5b6104fe610b8d565b6040518082815260200191505060405180910390f35b341561051f57600080fd5b610527610b97565b604051808215151515815260200191505060405180910390f35b341561054c57600080fd5b61058a600480803573ffffffffffffffffffffffffffffffffffffffff16906020019091908035906020019091908035906020019091905050610bd8565b604051808215151515815260200191505060405180910390f35b34156105af57600080fd5b6105b7610d31565b6040518082815260200191505060405180910390f35b6105d5610628565b604051808215151515815260200191505060405180910390f35b34156105fa57600080fd5b610626600480803573ffffffffffffffffffffffffffffffffffffffff16906020019091905050610d3b565b005b60006001600281111561063757fe5b600b60009054906101000a900460ff16600281111561065257fe5b14151561065e57600080fd5b600454421015151561066f57600080fd5b6412a05f20003a1115151561068357600080fd5b60003411151561069257600080fd5b61069b33610e90565b151561070657426005819055506002600b60006101000a81548160ff021916908360028111156106c757fe5b02179055507f601095663bda08ac0f932087ef2eb08e42e4bcd1927f3a8d9500f6ad2c5aef906005546040518082815260200191505060405180910390a15b61071b34600754610ebf90919063ffffffff16565b6007819055507f2a01595cddf097c90216094025db714da3f4e5bd8877b56ba86a24ecead8e5433334604051808373ffffffffffffffffffffffffffffffffffffffff1673ffffffffffffffffffffffffffffffffffffffff1681526020018281526020019250505060405180910390a16001905090565b60018054600181600116156101000203166002900480601f0160208091040260200160405190810160405280929190818152602001828054600181600116156101000203166002900480156108295780601f106107fe57610100808354040283529160200191610829565b820191906000526020600020905b81548152906001019060200180831161080c57829003601f168201915b505050505081565b6000600a60008373ffffffffffffffffffffffffffffffffffffffff1673ffffffffffffffffffffffffffffffffffffffff168152602001908152602001600020549050919050565b600d5481565b60008060009054906101000a900473ffffffffffffffffffffffffffffffffffffffff1673ffffffffffffffffffffffffffffffffffffffff163373ffffffffffffffffffffffffffffffffffffffff161415156108dd57600080fd5b6002808111156108e957fe5b600b60009054906101000a900460ff16600281111561090457fe5b14151561091057600080fd5b6000600a60008473ffffffffffffffffffffffffffffffffffffffff1673ffffffffffffffffffffffffffffffffffffffff1681526020019081526020016000208190555060019050919050565b600b60009054906101000a900460ff1681565b6000600554905090565b6000600654905090565b6002600b60006101000a81548160ff021916908360028111156109a457fe5b0217905550565b600360009054906101000a900473ffffffffffffffffffffffffffffffffffffffff1681565b60028054600181600116156101000203166002900480601f016020809104026020016040519081016040528092919081815260200182805460018160011615610100020316600290048015610a675780601f10610a3c57610100808354040283529160200191610a67565b820191906000526020600020905b815481529060010190602001808311610a4a57829003601f168201915b505050505081565b6000600954905090565b6000600d5442111515610a8f5760009050610b23565b610b20600c60008473ffffffffffffffffffffffffffffffffffffffff1673ffffffffffffffffffffffffffffffffffffffff16815260200190815260200160002054600a60008573ffffffffffffffffffffffffffffffffffffffff1673ffffffffffffffffffffffffffffffffffffffff16815260200190815260200160002054610edd90919063ffffffff16565b90505b919050565b6000809054906101000a900473ffffffffffffffffffffffffffffffffffffffff1681565b6000600280811115610b5b57fe5b600b60009054906101000a900460ff166002811115610b7657fe5b1415610b855760019050610b8a565b600090505b90565b6000600854905090565b600060016002811115610ba657fe5b600b60009054906101000a900460ff166002811115610bc157fe5b1415610bd05760019050610bd5565b600090505b90565b60008060009054906101000a900473ffffffffffffffffffffffffffffffffffffffff1673ffffffffffffffffffffffffffffffffffffffff163373ffffffffffffffffffffffffffffffffffffffff16141515610c3557600080fd5b60006002811115610c4257fe5b600b60009054906101000a900460ff166002811115610c5d57fe5b141515610c6957600080fd5b82600881905550600854600c60008673ffffffffffffffffffffffffffffffffffffffff1673ffffffffffffffffffffffffffffffffffffffff1681526020019081526020016000208190555081600d819055506001600a60008673ffffffffffffffffffffffffffffffffffffffff1673ffffffffffffffffffffffffffffffffffffffff168152602001908152602001600020819055506001600b60006101000a81548160ff02191690836002811115610d2157fe5b0217905550600190509392505050565b6000600454905090565b6000809054906101000a900473ffffffffffffffffffffffffffffffffffffffff1673ffffffffffffffffffffffffffffffffffffffff163373ffffffffffffffffffffffffffffffffffffffff16141515610d9657600080fd5b600073ffffffffffffffffffffffffffffffffffffffff168173ffffffffffffffffffffffffffffffffffffffff1614151515610dd257600080fd5b8073ffffffffffffffffffffffffffffffffffffffff166000809054906101000a900473ffffffffffffffffffffffffffffffffffffffff1673ffffffffffffffffffffffffffffffffffffffff167f8be0079c531659141344cd1fd0a4f28419497f9722a3daafe3b4186f6b6457e060405160405180910390a3806000806101000a81548173ffffffffffffffffffffffffffffffffffffffff021916908373ffffffffffffffffffffffffffffffffffffffff16021790555050565b6000808273ffffffffffffffffffffffffffffffffffffffff16141515610eb657600080fd5b60019050919050565b6000808284019050838110151515610ed357fe5b8091505092915050565b60008082840290506000841480610efe5750828482811515610efb57fe5b04145b1515610f0657fe5b80915050929150505600a165627a7a72305820394c5c698b45eb5b490041be37e26773e0799c7d4d0b0cac8388b4d1b381cee80029",
  "source": "pragma solidity ^0.4.18;\nimport \"../PoD.sol\";\n\n/// @title SimplePoD - SimplePoD contract\n/// @author - Yusaku Senga - <senga@dri.network>\n/// license let's see in LICENSE\n\ncontract TokenMintPoD is PoD {\n\n  mapping(address => uint256) tokenBalances; \n  uint256 public lockTime;\n  \n  function TokenMintPoD() public {\n    name = \"TokenMintPoD mean that minting Token to user\";\n    version = \"0.9.3\";\n  }\n\n  function init(\n    address _user, \n    uint256 _capOfToken,\n    uint256 _lockTime\n  ) \n  public onlyOwner() returns (bool) \n  {\n    require(status == Status.PoDDeployed);\n    proofOfDonationCapOfToken = _capOfToken;\n    tokenBalances[_user] = proofOfDonationCapOfToken;\n    lockTime = _lockTime;\n    weiBalances[_user] = 1;\n    status = Status.PoDStarted;\n    return true;\n  }\n\n  function finalize() public {\n    status = Status.PoDEnded;\n  }\n\n  function processDonate(address _user) internal returns (bool) {\n    require(_user == 0x0);\n    return true;\n  }\n\n  function getBalanceOfToken(address _user) public constant returns (uint256) {\n    if (block.timestamp <= lockTime) \n      return 0;\n\n    return weiBalances[_user].mul(tokenBalances[_user]);\n  }\n}\n",
  "sourcePath": "/Users/sengayusaku/repo/RICO/contracts/PoDs/TokenMintPoD.sol",
  "compiler": {
    "name": "solc",
    "version": "0.4.18+commit.9cf6e910.Emscripten.clang"
  },
  "schemaVersion": "1.0.1",
  "updatedAt": "2018-01-11T16:05:04.466Z"
}