{
  "contractName": "TokenMintPoD",
  "abi": [
    {
      "constant": true,
      "inputs": [],
      "name": "name",
      "outputs": [
        {
          "name": "",
          "type": "string"
        }
      ],
      "payable": false,
      "stateMutability": "view",
      "type": "function"
    },
    {
      "constant": true,
      "inputs": [
        {
          "name": "_user",
          "type": "address"
        }
      ],
      "name": "getBalanceOfWei",
      "outputs": [
        {
          "name": "",
          "type": "uint256"
        }
      ],
      "payable": false,
      "stateMutability": "view",
      "type": "function"
    },
    {
      "constant": false,
      "inputs": [
        {
          "name": "_user",
          "type": "address"
        }
      ],
      "name": "resetWeiBalance",
      "outputs": [
        {
          "name": "",
          "type": "bool"
        }
      ],
      "payable": false,
      "stateMutability": "nonpayable",
      "type": "function"
    },
    {
      "constant": true,
      "inputs": [],
      "name": "time",
      "outputs": [
        {
          "name": "",
          "type": "uint256"
        }
      ],
      "payable": false,
      "stateMutability": "view",
      "type": "function"
    },
    {
      "constant": true,
      "inputs": [],
      "name": "status",
      "outputs": [
        {
          "name": "",
          "type": "uint8"
        }
      ],
      "payable": false,
      "stateMutability": "view",
      "type": "function"
    },
    {
      "constant": true,
      "inputs": [],
      "name": "getEndTime",
      "outputs": [
        {
          "name": "",
          "type": "uint256"
        }
      ],
      "payable": false,
      "stateMutability": "view",
      "type": "function"
    },
    {
      "constant": true,
      "inputs": [],
      "name": "getTokenPrice",
      "outputs": [
        {
          "name": "",
          "type": "uint256"
        }
      ],
      "payable": false,
      "stateMutability": "view",
      "type": "function"
    },
    {
      "constant": true,
      "inputs": [],
      "name": "wallet",
      "outputs": [
        {
          "name": "",
          "type": "address"
        }
      ],
      "payable": false,
      "stateMutability": "view",
      "type": "function"
    },
    {
      "constant": true,
      "inputs": [],
      "name": "version",
      "outputs": [
        {
          "name": "",
          "type": "string"
        }
      ],
      "payable": false,
      "stateMutability": "view",
      "type": "function"
    },
    {
      "constant": true,
      "inputs": [],
      "name": "getCapOfWei",
      "outputs": [
        {
          "name": "",
          "type": "uint256"
        }
      ],
      "payable": false,
      "stateMutability": "view",
      "type": "function"
    },
    {
      "constant": true,
      "inputs": [],
      "name": "podType",
      "outputs": [
        {
          "name": "",
          "type": "uint256"
        }
      ],
      "payable": false,
      "stateMutability": "view",
      "type": "function"
    },
    {
      "constant": true,
      "inputs": [
        {
          "name": "_user",
          "type": "address"
        }
      ],
      "name": "getBalanceOfToken",
      "outputs": [
        {
          "name": "",
          "type": "uint256"
        }
      ],
      "payable": false,
      "stateMutability": "view",
      "type": "function"
    },
    {
      "constant": true,
      "inputs": [],
      "name": "owner",
      "outputs": [
        {
          "name": "",
          "type": "address"
        }
      ],
      "payable": false,
      "stateMutability": "view",
      "type": "function"
    },
    {
      "constant": true,
      "inputs": [],
      "name": "isPoDEnded",
      "outputs": [
        {
          "name": "",
          "type": "bool"
        }
      ],
      "payable": false,
      "stateMutability": "view",
      "type": "function"
    },
    {
      "constant": true,
      "inputs": [],
      "name": "getCapOfToken",
      "outputs": [
        {
          "name": "",
          "type": "uint256"
        }
      ],
      "payable": false,
      "stateMutability": "view",
      "type": "function"
    },
    {
      "constant": true,
      "inputs": [],
      "name": "isPoDStarted",
      "outputs": [
        {
          "name": "",
          "type": "bool"
        }
      ],
      "payable": false,
      "stateMutability": "view",
      "type": "function"
    },
    {
      "constant": false,
      "inputs": [
        {
          "name": "_user",
          "type": "address"
        },
        {
          "name": "_period",
          "type": "uint256"
        },
        {
          "name": "_capOfToken",
          "type": "uint256"
        }
      ],
      "name": "setConfig",
      "outputs": [
        {
          "name": "",
          "type": "bool"
        }
      ],
      "payable": false,
      "stateMutability": "nonpayable",
      "type": "function"
    },
    {
      "constant": true,
      "inputs": [],
      "name": "getStartTime",
      "outputs": [
        {
          "name": "",
          "type": "uint256"
        }
      ],
      "payable": false,
      "stateMutability": "view",
      "type": "function"
    },
    {
      "constant": false,
      "inputs": [],
      "name": "donate",
      "outputs": [
        {
          "name": "",
          "type": "bool"
        }
      ],
      "payable": true,
      "stateMutability": "payable",
      "type": "function"
    },
    {
      "constant": false,
      "inputs": [
        {
          "name": "newOwner",
          "type": "address"
        }
      ],
      "name": "transferOwnership",
      "outputs": [],
      "payable": false,
      "stateMutability": "nonpayable",
      "type": "function"
    },
    {
      "inputs": [],
      "payable": false,
      "stateMutability": "nonpayable",
      "type": "constructor"
    },
    {
      "payable": true,
      "stateMutability": "payable",
      "type": "fallback"
    },
    {
      "anonymous": false,
      "inputs": [
        {
          "indexed": false,
          "name": "user",
          "type": "address"
        },
        {
          "indexed": false,
          "name": "amount",
          "type": "uint256"
        }
      ],
      "name": "Donated",
      "type": "event"
    },
    {
      "anonymous": false,
      "inputs": [
        {
          "indexed": false,
          "name": "wallet",
          "type": "address"
        }
      ],
      "name": "Initialized",
      "type": "event"
    },
    {
      "anonymous": false,
      "inputs": [
        {
          "indexed": false,
          "name": "time",
          "type": "uint256"
        }
      ],
      "name": "Started",
      "type": "event"
    },
    {
      "anonymous": false,
      "inputs": [
        {
          "indexed": false,
          "name": "time",
          "type": "uint256"
        }
      ],
      "name": "Ended",
      "type": "event"
    },
    {
      "anonymous": false,
      "inputs": [
        {
          "indexed": true,
          "name": "previousOwner",
          "type": "address"
        },
        {
          "indexed": true,
          "name": "newOwner",
          "type": "address"
        }
      ],
      "name": "OwnershipTransferred",
      "type": "event"
    }
  ],
  "bytecode": "0x606060405234156200001057600080fd5b336000806101000a81548173ffffffffffffffffffffffffffffffffffffffff021916908373ffffffffffffffffffffffffffffffffffffffff1602179055506000600c60006101000a81548160ff021916908360028111156200007057fe5b02179055506000600881905550606060405190810160405280603681526020017f546f6b656e4d696e74506f44206d65616e2074686174206d696e74696e67205481526020017f6f6b656e207768656e20656c61707365642074696d650000000000000000000081525060019080519060200190620000f19291906200014e565b506040805190810160405280600381526020017f302e310000000000000000000000000000000000000000000000000000000000815250600390805190602001906200013f9291906200014e565b50606f600281905550620001fd565b828054600181600116156101000203166002900490600052602060002090601f016020900481019282601f106200019157805160ff1916838001178555620001c2565b82800160010185558215620001c2579182015b82811115620001c1578251825591602001919060010190620001a4565b5b509050620001d19190620001d5565b5090565b620001fa91905b80821115620001f6576000816000905550600101620001dc565b5090565b90565b610f61806200020d6000396000f300606060405260043610610112576000357c0100000000000000000000000000000000000000000000000000000000900463ffffffff16806306fdde031461011d57806309fc93c1146101ab578063112ed3f5146101f857806316ada54714610249578063200d2ed214610272578063439f5ac2146102a95780634b94f50e146102d2578063521eb273146102fb57806354fd4d50146103505780636ccce7a8146103de5780636ec533a11461040757806383786f8c146104305780638da5cb5b1461047d5780638f85f92c146104d257806397722acf146104ff5780639b3dfce014610528578063acd2ebf214610555578063c828371e146105b8578063ed88c68e146105e1578063f2fde38b14610603575b61011a61063c565b50005b341561012857600080fd5b610130610804565b6040518080602001828103825283818151815260200191508051906020019080838360005b83811015610170578082015181840152602081019050610155565b50505050905090810190601f16801561019d5780820380516001836020036101000a031916815260200191505b509250505060405180910390f35b34156101b657600080fd5b6101e2600480803573ffffffffffffffffffffffffffffffffffffffff169060200190919050506108a2565b6040518082815260200191505060405180910390f35b341561020357600080fd5b61022f600480803573ffffffffffffffffffffffffffffffffffffffff169060200190919050506108eb565b604051808215151515815260200191505060405180910390f35b341561025457600080fd5b61025c6109c9565b6040518082815260200191505060405180910390f35b341561027d57600080fd5b6102856109cf565b6040518082600281111561029557fe5b60ff16815260200191505060405180910390f35b34156102b457600080fd5b6102bc6109e2565b6040518082815260200191505060405180910390f35b34156102dd57600080fd5b6102e56109ec565b6040518082815260200191505060405180910390f35b341561030657600080fd5b61030e6109f6565b604051808273ffffffffffffffffffffffffffffffffffffffff1673ffffffffffffffffffffffffffffffffffffffff16815260200191505060405180910390f35b341561035b57600080fd5b610363610a1c565b6040518080602001828103825283818151815260200191508051906020019080838360005b838110156103a3578082015181840152602081019050610388565b50505050905090810190601f1680156103d05780820380516001836020036101000a031916815260200191505b509250505060405180910390f35b34156103e957600080fd5b6103f1610aba565b6040518082815260200191505060405180910390f35b341561041257600080fd5b61041a610ac4565b6040518082815260200191505060405180910390f35b341561043b57600080fd5b610467600480803573ffffffffffffffffffffffffffffffffffffffff16906020019091905050610aca565b6040518082815260200191505060405180910390f35b341561048857600080fd5b610490610b7c565b604051808273ffffffffffffffffffffffffffffffffffffffff1673ffffffffffffffffffffffffffffffffffffffff16815260200191505060405180910390f35b34156104dd57600080fd5b6104e5610ba1565b604051808215151515815260200191505060405180910390f35b341561050a57600080fd5b610512610be1565b6040518082815260200191505060405180910390f35b341561053357600080fd5b61053b610beb565b604051808215151515815260200191505060405180910390f35b341561056057600080fd5b61059e600480803573ffffffffffffffffffffffffffffffffffffffff16906020019091908035906020019091908035906020019091905050610c2c565b604051808215151515815260200191505060405180910390f35b34156105c357600080fd5b6105cb610d58565b6040518082815260200191505060405180910390f35b6105e961063c565b604051808215151515815260200191505060405180910390f35b341561060e57600080fd5b61063a600480803573ffffffffffffffffffffffffffffffffffffffff16906020019091905050610d62565b005b60006001600281111561064b57fe5b600c60009054906101000a900460ff16600281111561066657fe5b14151561067257600080fd5b600554421015151561068357600080fd5b6412a05f20003a1115151561069757600080fd5b6106a033610eb7565b151561070b57426006819055506002600c60006101000a81548160ff021916908360028111156106cc57fe5b02179055507f601095663bda08ac0f932087ef2eb08e42e4bcd1927f3a8d9500f6ad2c5aef906006546040518082815260200191505060405180910390a15b61072034600854610ee490919063ffffffff16565b600881905550600034111561079257600460009054906101000a900473ffffffffffffffffffffffffffffffffffffffff1673ffffffffffffffffffffffffffffffffffffffff166108fc349081150290604051600060405180830381858888f19350505050151561079157600080fd5b5b7f2a01595cddf097c90216094025db714da3f4e5bd8877b56ba86a24ecead8e5433334604051808373ffffffffffffffffffffffffffffffffffffffff1673ffffffffffffffffffffffffffffffffffffffff1681526020018281526020019250505060405180910390a16001905090565b60018054600181600116156101000203166002900480601f01602080910402602001604051908101604052809291908181526020018280546001816001161561010002031660029004801561089a5780601f1061086f5761010080835404028352916020019161089a565b820191906000526020600020905b81548152906001019060200180831161087d57829003601f168201915b505050505081565b6000600b60008373ffffffffffffffffffffffffffffffffffffffff1673ffffffffffffffffffffffffffffffffffffffff168152602001908152602001600020549050919050565b60008060009054906101000a900473ffffffffffffffffffffffffffffffffffffffff1673ffffffffffffffffffffffffffffffffffffffff163373ffffffffffffffffffffffffffffffffffffffff1614151561094857600080fd5b60028081111561095457fe5b600c60009054906101000a900460ff16600281111561096f57fe5b14151561097b57600080fd5b6000600b60008473ffffffffffffffffffffffffffffffffffffffff1673ffffffffffffffffffffffffffffffffffffffff1681526020019081526020016000208190555060019050919050565b600e5481565b600c60009054906101000a900460ff1681565b6000600654905090565b6000600754905090565b600460009054906101000a900473ffffffffffffffffffffffffffffffffffffffff1681565b60038054600181600116156101000203166002900480601f016020809104026020016040519081016040528092919081815260200182805460018160011615610100020316600290048015610ab25780601f10610a8757610100808354040283529160200191610ab2565b820191906000526020600020905b815481529060010190602001808311610a9557829003601f168201915b505050505081565b6000600a54905090565b60025481565b600042600e54600554011115610ae35760009050610b77565b610b74600d60008473ffffffffffffffffffffffffffffffffffffffff1673ffffffffffffffffffffffffffffffffffffffff16815260200190815260200160002054600b60008573ffffffffffffffffffffffffffffffffffffffff1673ffffffffffffffffffffffffffffffffffffffff16815260200190815260200160002054610f0290919063ffffffff16565b90505b919050565b6000809054906101000a900473ffffffffffffffffffffffffffffffffffffffff1681565b6000600280811115610baf57fe5b600c60009054906101000a900460ff166002811115610bca57fe5b1415610bd95760019050610bde565b600090505b90565b6000600954905090565b600060016002811115610bfa57fe5b600c60009054906101000a900460ff166002811115610c1557fe5b1415610c245760019050610c29565b600090505b90565b60008060009054906101000a900473ffffffffffffffffffffffffffffffffffffffff1673ffffffffffffffffffffffffffffffffffffffff163373ffffffffffffffffffffffffffffffffffffffff16141515610c8957600080fd5b60006002811115610c9657fe5b600c60009054906101000a900460ff166002811115610cb157fe5b141515610cbd57600080fd5b81600d60008673ffffffffffffffffffffffffffffffffffffffff1673ffffffffffffffffffffffffffffffffffffffff168152602001908152602001600020819055506001600b60008673ffffffffffffffffffffffffffffffffffffffff1673ffffffffffffffffffffffffffffffffffffffff1681526020019081526020016000208190555082600e81905550600190509392505050565b6000600554905090565b6000809054906101000a900473ffffffffffffffffffffffffffffffffffffffff1673ffffffffffffffffffffffffffffffffffffffff163373ffffffffffffffffffffffffffffffffffffffff16141515610dbd57600080fd5b600073ffffffffffffffffffffffffffffffffffffffff168173ffffffffffffffffffffffffffffffffffffffff1614151515610df957600080fd5b8073ffffffffffffffffffffffffffffffffffffffff166000809054906101000a900473ffffffffffffffffffffffffffffffffffffffff1673ffffffffffffffffffffffffffffffffffffffff167f8be0079c531659141344cd1fd0a4f28419497f9722a3daafe3b4186f6b6457e060405160405180910390a3806000806101000a81548173ffffffffffffffffffffffffffffffffffffffff021916908373ffffffffffffffffffffffffffffffffffffffff16021790555050565b6000808273ffffffffffffffffffffffffffffffffffffffff1614151515610edb57fe5b60009050919050565b6000808284019050838110151515610ef857fe5b8091505092915050565b60008082840290506000841480610f235750828482811515610f2057fe5b04145b1515610f2b57fe5b80915050929150505600a165627a7a72305820d4fcb49e06c5384c848d1173267f48edc494648d731a763ad2d9d7a4864f61b90029",
  "source": "pragma solidity ^0.4.18;\nimport \"../PoD.sol\";\n\n/// @title SimplePoD - SimplePoD contract\n/// @author - Yusaku Senga - <senga@dri.network>\n/// license let's see in LICENSE\n\ncontract TokenMintPoD is PoD {\n\n  mapping(address => uint256) tokenBalances; \n  uint256 public time;\n  \n  function TokenMintPoD() public {\n    name = \"TokenMintPoD mean that minting Token when elapsed time\";\n    version = \"0.1\";\n    podType = 111;\n  }\n\n  function setConfig(\n    address _user, \n    uint256 _period,\n    uint256 _capOfToken\n  ) \n  public onlyOwner() returns (bool) \n  {\n    require(status == Status.PoDDeployed);\n    tokenBalances[_user] = _capOfToken;\n    weiBalances[_user] = 1;\n    time = _period;\n    return true;\n  }\n\n  function processDonate(address _user) internal returns (bool) {\n    assert(_user != 0x0);\n    return false;\n  }\n\n  function getBalanceOfToken(address _user) public constant returns (uint256) {\n    if ( startTime + time > block.timestamp) \n      return 0;\n    return weiBalances[_user].mul(tokenBalances[_user]);\n  }\n}\n",
  "sourcePath": "/Users/sengayusaku/repo/test/RICO/contracts/PoDs/TokenMintPoD.sol",
  "compiler": {
    "name": "solc",
    "version": "0.4.18+commit.9cf6e910.Emscripten.clang"
  },
  "schemaVersion": "1.0.1",
  "updatedAt": "2017-12-25T22:10:11.065Z"
}